:1000000000400020C50300000D0400000F040000A4
:1000100000000000000000000000000000000000E0
:1000200000000000000000000000000011040000BB
:100030000000000000000000130400001504000090
:100040001704000017040000170400001704000044
:10005000170400000000000017040000170400004F
:100060001704000017040000170400001704000024
:100070001704000017040000170400001704000014
:100080001704000017040000170400001704000004
:1000900017040000170400001704000017040000F4
:1000A000170400001704000000000000000000001A
:1000B0000000000000000000000000000000000040
:1000C00010B5064C2378002B07D1054B002B02D02E
:1000D000044800E000BF0123237010BD6820002009
:1000E000000000003804000008B5084B002B03D0C6
:1000F0000748084900E000BF07480368002B00D10B
:1001000008BD064B002BFBD09847F9E70000000024
:10011000380400006C20002068200020000000004F
:10012000164B002B00D1144B9D46402292029A1A86
:10013000924600218B460F461348144A121A00F0CB
:1001400067F80F4B002B00D098470E4B002B00D0C8
:1001500098470020002104000D000D48002802D01F
:100160000C4800E000BF00F02DF82000290000F04E
:10017000A7F800F011F8C046000008000040002079
:100180000000000000000000682000208420002003
:100190000000000000000000084B10B5041C002BFC
:1001A00002D0002100E000BF054B1868836A002BD5
:1001B00000D09847201C00F033F8C0460000000033
:1001C000340400000E4B70B500251E1C0D4CE41AC3
:1001D000A410A54204D0AB00F35898470135F8E7C6
:1001E00000F01AF9084B00251E1C084CE41AA41054
:1001F000A54204D0AB00F35898470135F8E770BD2D
:10020000602000206020002060200020642000206A
:10021000031C8218934202D019700133FAE7704729
:10022000FEE7C0461F4B1B78012B00D070471E4BCA
:100230001B681B07FAD1F0221C4B1B68134018D116
:100240001B4B1B6813421AD0174B1B681B07EDD1C1
:10025000F022164B1B681340402BE7D1144B1B6850
:100260001342E3D1C12380220121DB00D205D1500A
:10027000DCE7102B0FD10E4B1B681342E8D10D4A5F
:100280000D4B1A6080220D4B12021A60054B1B7831
:10029000012BD9D0CAE7302BDAD1054B1B681342AA
:1002A000D6D1ECE7E00F00F0E40F00F0E80F00F02B
:1002B000EC0F00F0DFFF07C004050040186C0040A1
:1002C00070B5E823A0250022ED05DB00EA50E92205
:1002D0000323D200AB50294A0024AB500432AB5068
:1002E000274A0126AB500432AB5019E0254BEA50A7
:1002F0008022520363072AD4224BEA5080229203C1
:1003000023072BD41F4BEA508022D203E3062CD4C0
:100310001C4BEA50A223DB00EB58DB03DB171C402D
:10032000FA20800000F030F880220134E4B2D202DA
:1003300026421ED1134BEA5080221203A307D5D5C3
:10034000A123DB00EA50802252036307D4D5A12306
:10035000DB00EA50802292032307D3D5A123DB00E0
:10036000EA508022D203E306D2D5A123DB00EA5073
:10037000D0E7A123DB00EA50DEE7C0464C070000CF
:10038000540700000C05000082B00190019B002B77
:1003900014D0019B0A48013B01930138C046C04676
:1003A000C046C046C046C046C046C046C046C0461D
:1003B000C046C046F1D1019B002BEAD102B0704784
:1003C000E703000003210A4802680A430260094863
:1003D00002680A4302600849084A094B9B1A03DD78
:1003E000043BC858D050FBDC06488047064800470D
:1003F0002405004054050040400400000020002077
:10040000682000202502000021010000FEE7FEE731
:10041000FEE7FEE7FEE7FEE7F8B5C046F8BC08BC1D
:100420009E467047F8B5C046F8BC08BC9E4670476B
:08043000430000000020002041
:08043800E8FCFF7F0100000059
:1004400000000000000000000000000000000000AC
:10045000000000000000000000000000000000009C
:100460003004000000000000000000000000000058
:10047000000000000000000000000000000000007C
:10048000000000000000000000000000000000006C
:10049000000000000000000000000000000000005C
:0804A000E9000000C1000000AA
:04000003000003C531
:00000001FF
