:1000000000400020010B0000490B00004B0B0000DA
:1000100000000000000000000000000000000000E0
:100020000000000000000000000000004D0B000078
:1000300000000000000000004F0B0000510B00000A
:10004000530B0000530B000095090000530B0000F8
:10005000530B000000000000530B0000530B000086
:10006000530B0000530B0000530B0000530B000018
:10007000530B0000530B0000530B0000530B000008
:10008000530B0000530B0000530B0000530B0000F8
:10009000530B0000530B0000530B0000530B0000E8
:1000A000530B0000530B0000000000000000000094
:1000B0000000000000000000000000000000000040
:1000C00010B5064C2378002B07D1054B002B02D02E
:1000D000044800E000BF0123237010BD6C20002005
:1000E00000000000EC1B000008B5084B002B03D0FB
:1000F0000748084900E000BF07480368002B00D10B
:1001000008BD064B002BFBD09847F9E70000000024
:10011000EC1B0000702000206C200020000000007C
:10012000164B002B00D1144B9D46402292029A1A86
:10013000924600218B460F461348144A121A00F0CB
:1001400067F80F4B002B00D098470E4B002B00D0C8
:1001500098470020002104000D000D48002802D01F
:100160000C4800E000BF00F02DF82000290000F04E
:10017000B5F800F011F8C04600000800004000206B
:1001800000000000000000006C200020E42100209E
:100190000000000000000000084B10B5041C002BFC
:1001A00002D0002100E000BF054B1868836A002BD5
:1001B00000D09847201C00F033F8C0460000000033
:1001C000F01A00000E4B70B500251E1C0D4CE41AF1
:1001D000A410A54204D0AB00F35898470135F8E7C6
:1001E00001F078FC084B00251E1C084CE41AA410F2
:1001F000A54204D0AB00F35898470135F8E770BD2D
:10020000642000206420002064200020682000205A
:10021000031C8218934202D019700133FAE7704729
:10022000FEE7C0461F4B1B78012B00D070471E4BCA
:100230001B681B07FAD1F0221C4B1B68134018D116
:100240001B4B1B6813421AD0174B1B681B07EDD1C1
:10025000F022164B1B681340402BE7D1144B1B6850
:100260001342E3D1C12380220121DB00D205D1500A
:10027000DCE7102B0FD10E4B1B681342E8D10D4A5F
:100280000D4B1A6080220D4B12021A60054B1B7831
:10029000012BD9D0CAE7302BDAD1054B1B681342AA
:1002A000D6D1ECE7E00F00F0E40F00F0E80F00F02B
:1002B000EC0F00F0DFFF07C004050040186C0040A1
:1002C00008B50378022B02D0012B00D008BD40688E
:1002D0000021002200F064F8F8E7C04630B5F020B5
:1002E000A02500230121032489B08003ED050133FB
:1002F000202B0BD0021C1A411142F8D01A1CC1321B
:10030000FF32920001335451202BF3D1A023F0216E
:10031000A122DB058903D20099500021194A01A8C6
:100320009950021C184B32CB32C2184B04AC0493C8
:1003300001236360164B211CA36080235B00E360F4
:10034000144AFD3B00F0EAF8002815D1124800F0ED
:1003500001FC2025201C00F033F90028FAD1207878
:1003600000F048F90028FAD12378AB43512BF1D1A2
:100370000A4800F0EFFBFEE70021002200F010F831
:10038000E4E7C0460C050000F41A000088200020B5
:100390008C200020C1020000001B00000C1B00008C
:1003A000BFF34F8F024A034BDA60BFF34F8FFEE774
:1003B0000400FA0500ED00E010B500290DD0092376
:1003C000002A01D1181C10BD541E2240FAD18260AF
:1003D00001608480C2600023F4E70E23F2E7C04688
:1003E000031C10B59C888068DA68121A04209442B5
:1003F00000D210BDDA68002014401A681155DA687E
:100400000132DA60F5E7C04610B58468C268031CA3
:100410000520944209D098689A8802401868825C46
:1004200000200A709A6801329A6010BD70B5161CDF
:100430000C1C8D18002A05DD2078013400F0DAF854
:10044000AC42F9D1301C70BD10B50C1C201C00F062
:10045000B7F80528FAD0012010BDC04630B50478A1
:1004600085B0012C19D0022C34D0002C01D005B05D
:1004700030BD254C254D201C291CFFF7C5FF002849
:1004800023D0A268E3689A42F1D1032302AA137031
:100490001F4B101C1B689847E9E743681D4D1978EE
:1004A000281CFFF79DFF00281ED1AA68EB689B1A45
:1004B000012B21D0AA68EB689B1AAA889342D6D850
:1004C0000121154800F0CCF9D1E7281C012100F0EA
:1004D0006DF9D6E702AB1C70C36802A801930393C1
:1004E0000B4B1B689847C2E702AB1C70084B03908C
:1004F0001B6802A89847DDE702AB1870044B02A8FE
:100500001B689847D6E7C046982100208C21002020
:1005100090210020A821002094210020F0B51E1C6D
:10052000214B051C89B00C1C1A600720002906D03D
:100530008A881E480968FFF73FFF002801D009B0EC
:10054000F0BDA168A2891A48FFF736FF0028F6D14E
:100550006A46184B684692CB92C292CB92C212CB9B
:1005600012C2AB6806932B7906775A1E9341037526
:100570006B790E22591E8B415B421A404275EB7813
:100580000D490293AB7803932B7801936B7800931A
:1005900000F084F80028D2D100F0E6F901210748E4
:1005A00000F05EF9CBE7C04690210020A821002092
:1005B00098210020181B00005D04000094210020F9
:1005C00038B50A4C051CA168A288E3685B1A9A42F8
:1005D00004D0201C291CFFF717FF38BD0448012157
:1005E00000F03EF90028F4D00520F6E7A82100200D
:1005F0009421002010B5041C06480121047000F06D
:10060000D5F8112800D010BD211C0348FFF7E8FEE3
:10061000F9E7C046B821002098210020F0B5002855
:1006200020DBFF271B4B03229C463B1C8408C02673
:10063000C0B20240D2009340A4006444B600A55961
:100640009D438B013B409340191C2943A1511F231B
:1006500018401E3B8340C022181C0E4B520098507D
:100660001860F0BDFF260C4A03249446321C0F2369
:10067000C0B20440E400A2400340083B9B089B003A
:100680006344DD6995438A013240A240111C29432D
:10069000D961DCE700E100E000ED00E0F0B557468D
:1006A0004E464546E0B4394C031CA27D0820002A82
:1006B00004D01CBC90469946A246F0BD002B62D0E7
:1006C000A02003251A68C005C132FF3292001550E0
:1006D0000122AA461D68AA40A125ED004251A94663
:1006E00000255A68AC46C132FF32920015509E690F
:1006F000274A284D56511D7DA84646465D7D354307
:10070000254E95515D681E68A846244D56514646B3
:10071000234D56511D7D012D1AD19E68371CE026B0
:100720007600B0464744BE0067463750C137FF37B2
:10073000B8465746DE684644B6003750DE68B540D6
:100740004E468551D8689D689051A220C000155032
:100750001A6961602260002908D0197FC1231148FD
:100760000B4A9B00D0500220FFF758FFA023042122
:10077000074ADB00D15000230122E374A374A27561
:100780006375002095E7084B9AE7C046BC2100201E
:1007900000200040240500006C0500000C0500004E
:1007A0001405000080000200381B0000F0B5264A46
:1007B000041C937C1120002B00D0F0BD0125917406
:1007C00022482349138294600B6005600B60138AF2
:1007D000E05C138A1F4C01339BB213821E4BE05026
:1007E0005068002801D00020E7E70027261C1D1CC8
:1007F0000130FF30947C138A9C4203D812E0138AA4
:10080000834202D00B68002BF9D0138A8342F2D0C6
:100810000F60138A9468E45C138A01339BB21382DD
:100820007451E7E78023118A5B0099420AD0084996
:100830000B68002BFCD001210020084B196000231D
:100840009374BAE70F20FAE7BC210020082000408B
:100850001C210040002000401C0500000C2000402E
:10086000F0B54F464646C0B4394B041CDA7C112023
:10087000002A03D00CBC90469946F0BD1A755A7DEB
:10088000D974DC60002A0AD05A68002A0FD081216E
:10089000C123304A89009B00D1500020EAE72E494D
:1008A0000A602E490A6001212A4A1160ECE7294AB0
:1008B000294D9046A322D20091462848284C296809
:1008C00006684A1E91412268C9B2571EBA41D2B287
:1008D000002E0BD1002A2BD10029F0D00022204974
:1008E00003200A601C490A60DA74C3E70029F5D1C5
:1008F000002A1FD147464E460260197DBE59B446B4
:100900006746DE687754197DDE7C0131C9B21975FE
:10091000197D8E42D3D812490A600F490A60DA74F1
:100920005B7D002B0ED001220A4B00201A60A1E74C
:100930000029D3D100220A490F200A6006490A6023
:10094000DA7497E70122074B00201A6092E7C0464D
:10095000BC2100200020004024210040082100404C
:100960004421004004200040064A537D002B07D15B
:1009700005490B6005490B60054901330B60537550
:100980007047C046BC2100202421004008210040BF
:1009900000200040C12210B5514B92009A5884B0FB
:1009A00092054CD54F4A1168002948D000211160AA
:1009B0008121C2228900920099504B4B5A7D002A16
:1009C00002D10121494A1160022269460A70902130
:1009D0004348C9004258425069460392DA7C68464F
:1009E0000A72DA68196801920022DA745B68984723
:1009F0003F4A1368002B10D03B4B188A997C8142E8
:100A000051D9002111601A8A9968895C1A8A0132C9
:100A100092B21A82374B324AD150374B1A68002AA9
:100A20000BD000221A60304B5A7D002A02D00121DF
:100A30002B4A1160DA7C002A44D104B010BDC123D6
:100A4000274A9B00D3585B07D2D52C4B1968002945
:100A5000CED00021A3241960234BE400187DD9686F
:100A600012590A541A7DD87C0132D2B21A751A7DF5
:100A70009042BDD15A7D002A02D101201B4A10604C
:100A80008124C2221648A400920084506C461A7D2C
:100A900001202272002220700191DA7419686846E0
:100AA0005B689847A4E7002010600029B5D06A462B
:100AB000107011729A689874196801925B686846A0
:100AC0009847AAE768461A7D01210272DA68017028
:100AD000019200221968DA745B689847ADE7C04656
:100AE0000020004024210040BC21002004200040C0
:100AF0001C2100401C05000044210040082100404A
:100B000003210A4802680A430260094802680A434E
:100B100002600849084A094B9B1A03DD043BC85888
:100B2000D050FBDC064880470648004724050040BB
:100B300054050040F41B0000002000206C20002021
:100B40002502000021010000FEE7FEE7FEE7FEE7C8
:100B5000FEE7FEE70FB40B4B13B51C68002C05D065
:100B6000A369002B02D1201C00F050F805AB201C1B
:100B7000A168049A019300F05BF916BC08BC04B0AC
:100B80001847C0466020002008B5024900F0AEF8C2
:100B900008BDC04611170000002310B5041C0360F7
:100BA0004360836081814366C281036143618361E5
:100BB000191C08225C30FFF72BFB054B2462636293
:100BC000044BA362044BE362044B236310BDC04695
:100BD00081130000A9130000E11300000D140000B0
:100BE00070B568254B1E5D430E1C291C743100F046
:100BF0009FF8041E08D000212A1C016046600C30BA
:100C0000A0606832FFF704FB201C70BD836913B538
:100C1000002B28D18364C3640365134B134A1B68FC
:100C200082620193984201D101238361041C00F088
:100C30001FF86060201C00F01BF8A060201C00F072
:100C400017F80421E06000226068FFF7A5FFA068A4
:100C500009210122FFF7A0FFE06812210222FFF71D
:100C60009BFF0123A36113BDF01A0000890B000054
:100C7000F8B51D4B061C1D68AB69002B02D1281C62
:100C8000FFF7C4FF4835AC686B68013B05D40C2204
:100C9000A75E002F10D06834F7E72B68002B06D131
:100CA000301C0421FFF79CFF2860002801D02D682C
:100CB000E9E70C23336016E00123201C5B42E3814B
:100CC0000233A38167662760A76067602761676159
:100CD000A7615C30391C0822FFF79AFA201C676371
:100CE000A763A764E764F8BDF01A0000F7B5041C19
:100CF000071C002601914834002C16D06368A568B3
:100D00000093009B013B00930DD4AB89012B08D9C4
:100D10000E22AB5E013304D0381C291C019B98477E
:100D200006436835EDE72468E6E7301CFEBD0000A9
:100D3000032370B5CC1C9C430834051C0C2C01D239
:100D40000C2405E0002C03DA0C2300202B6042E089
:100D50008C42F9D3204A1368101C191C002913D0A7
:100D60000A68121B0DD40B2A02D90A608B181FE0E7
:100D70008B4202D15A6802601BE04A685A600B1C21
:100D800017E00B1C4968E9E7144E3368002B03D1C8
:100D9000281C00F0E3FA3060281C211C00F0DEFA69
:100DA000031C421CD0D00322C61C964386420AD1A3
:100DB0001C60181C07210B301A1D8843821A0AD0A8
:100DC0005142995007E0311A281C00F0C7FA431C21
:100DD000BAD0331CECE770BDD8210020D42100200C
:100DE000936810B5013B9360002B05DA9469A34228
:100DF00008DBCBB20A2B05D01368581C10601970A1
:100E0000C8B201E000F008FB10BDF8B5061C0F1CCD
:100E1000141CD518AC4208D02178301C3A1CFFF7BE
:100E2000DFFF0134431CF5D100E00020F8BD0000D5
:100E3000F0B59FB0061C0F1C02920593002804D049
:100E40008369002B01D1FFF7E1FE794B9F4201D16D
:100E5000776808E0774B9F4201D1B76803E0764B93
:100E60009F4200D1F768BB891B070AD53B69002B5D
:100E700007D0002306AD6B6120336B761033AB7661
:100E80003DE0301C391C00F033FB0028F1D001207C
:100E90004042CAE0059A111D12680591002A7EDBC6
:100EA0000992013423782E2B00D189E02178634800
:100EB000032200F0C5FC002808D0604B0134C01AA2
:100EC00040238340181C2B68184328602178631C3A
:100ED0005B4806220293297600F0B2FC002800D17C
:100EE00091E0584B002B00D084E00722059B07338C
:100EF0009343083305936B69039A9B186B61029CBB
:100F00002378002B04D1029BE31A049311D003E051
:100F1000252BF8D00134F3E7049B301C391C029ACE
:100F2000FFF773FF431C7BD06A69049B94466344BC
:100F30006B612378002B73D00122002352426A6038
:100F400002A95432521801342B60EB60AB6013706D
:100F5000AB6521783C48052200F072FC002809D0DE
:100F6000394B0134C01A01238340181C2B681843E5
:100F70002860EEE72B68DA0604D55322202102A868
:100F8000121811701A0704D553222B2102A8121827
:100F9000117022782A2A00D17CE7099B05E0524291
:100FA000EA60022213432B607BE72278303A092A59
:100FB00004D80A214B4301349B18F6E7099371E7E3
:100FC00063782A2B09D1059B02341A1D1B680592F0
:100FD000002B0DDA01235B420AE000230134227862
:100FE000303A092A04D80A214B4301349B18F6E70A
:100FF00007935BE705AB0093301C291C3A1C134B8D
:1010000000E000BF07E005AB0093301C291C3A1C30
:101010000E4B00F08BF80390039B013300D06AE77E
:10102000BB895B0600D532E70B981FB0F0BDC04608
:10103000581B0000781B0000981B0000BE1B00001E
:10104000C21B000000000000B81B00000B0E0000D7
:10105000F7B5171C01930A698B6800900C1C93422A
:1010600000DA131C221C3B6043321278002A01D0A4
:1010700001333B6023689B0602D53B6802333B602B
:10108000062523681D401ED0231C43331B785A1E9F
:101090009341226892061CD53020E1184031C87077
:1010A000211C5A1C45310978A21840320233D170F4
:1010B0000FE0221C0123009801991932089EB047C5
:1010C000431C0ED00135E3683A689B1A9D42F0DB61
:1010D000DAE7221C009801994332089DA847431C77
:1010E00002D10120404220E006232068E1683A68EE
:1010F00003400025042B03D18D1AEB43DB171D4061
:10110000A3682269934201DD9B1AED180027AF42C4
:101110000ADA221C0123009801991A32089EB0476E
:10112000431CDED00137F2E70020FEBDF0B58BB0E6
:1011300006920A1C43320793059004920A7E0C1C07
:10114000109B6E2A00D1A8E011D8632A22D009D8BA
:10115000002A00D1B2E0582A00D0C2E045310A701E
:101160007C4A4FE0642A1DD0692A1BD0B9E0732A5B
:1011700000D1A7E009D86F2A29D0702A00D0B0E0AA
:10118000202209680A43226037E0752A1FD0782A96
:1011900033D0A6E00E1C1A684236111D1960136880
:1011A0003370A1E021681A68080606D4490604D500
:1011B000111D19600023D55E02E0111D196015682C
:1011C000002D3BDA2D23049A6D42137036E021681E
:1011D0001A68080606D4490604D51568111D196059
:1011E000ADB202E0111D196015685A4B227E0393BF
:1011F0000A276F2A1DD108271BE0221C78214532BF
:101200001170554A19680392081D226818600D680C
:10121000100602D4500600D5ADB2D30702D5202364
:101220001A4322601027002D03D1202322689A43FD
:101230002260231C002243331A7002E00A27454B28
:1012400003936368A360002B03DB042221689143AE
:101250002160002D02D1049E002B0ED0049E281C7C
:10126000391C00F0FDFB039B013E5B5C281C3370C6
:10127000391C00F06FFB051EF1D1082F09D123683E
:10128000DB0706D563682269934202DC3023013E06
:101290003370049B9B1B23612BE009681A680806C6
:1012A00007D4490605D5111D19601368A28A1A8052
:1012B00004E0111D1960136862691A600023049E1E
:1012C000236116E01A68111D196016680021301C90
:1012D000626800F0B5FA002801D0801B6060636886
:1012E00003E0261C42363270012323610023049A56
:1012F0001370079B05980093211C069B09AAFFF712
:10130000A7FE431C02D10120404221E02369059839
:101310000699321C079DA847431CF4D023689B07FD
:1013200005D4099BE068984212DA181C10E00025E9
:10133000E368099A9B1A9D42F3DA221C012305985F
:1013400006991932079EB047431CDCD00135EFE700
:101350000BB0F0BDC91B0000DA1B000038B500233C
:10136000064C051C081C236000F0A6FB431C03D19F
:101370002368002B00D02B6038BDC046E021002040
:1013800038B50C1C0E25495F00F0ACFA002803DBD1
:10139000636D1B18636503E0A289024B1340A381B0
:1013A00038BDC046FFEFFFFFF8B51E1C8B89051C3A
:1013B0000C1C171CDB0505D50E23C95E0022022379
:1013C00000F0D2F9A289054B281C1340A3813A1CD6
:1013D0000E23E15E331C00F077F8F8BDFFEFFFFF4E
:1013E00038B50C1C0E25495F00F0BEF9A389421CDC
:1013F00003D1054A1340A38104E080225201134324
:10140000A381606538BDC046FFEFFFFF08B50E231E
:10141000C95E00F0E1F808BD70B5051C0E1C141C77
:10142000002804D08369002B01D1FFF7EFFB234B89
:101430009C4201D16C6808E0214B9C4201D1AC6810
:1014400003E0204B9C4200D1EC68A369A360A38910
:101450001B070AD52369002B07D023682269F6B23F
:10146000981A636998420FDB08E0281C211C00F0E1
:101470003FF80028F1D0012040421DE0281C211C2B
:1014800000F046F90028F6D1A3680130013BA360C3
:1014900023685A1C22601E706369984205D0A38994
:1014A000301CDB0708D50A2E06D1281C211C00F0B1
:1014B0002FF90028DFD1301C70BDC046581B00003A
:1014C000781B0000981B000038B5051C0020074C55
:1014D0002060081C111C1A1CFEF7A8FF431C03D136
:1014E0002368002B00D02B6038BDC046E0210020CF
:1014F000354B70B51D68061C0C1C002D05D0AB6962
:10150000002B02D1281CFFF781FB304B9C4201D1FC
:101510006C6808E02E4B9C4201D1AC6803E02D4B77
:101520009C4200D1EC68A3899AB2110723D4D1065A
:1015300007D409220120326037321343A38140428D
:1015400040E0530713D5616B002908D0231C4433B6
:10155000994202D0301C00F07FF9002363632422FB
:10156000A3899343A3810023636023692360082236
:10157000A3891343A3812369002B0BD1A023A28944
:101580009B00134080229200934203D0301C211C08
:1015900000F0FEF80123A289134005D00023A360C8
:1015A00063695B42A36103E0910700D46369A360B0
:1015B00000202369834205D1130603D540231A4333
:1015C000A281013870BDC04660200020581B000079
:1015D000781B0000981B000038B50023064C051C42
:1015E000081C236000F048FA431C03D12368002B39
:1015F00000D02B6038BDC046E0210020F7B58A89B5
:10160000051C0C1C13075ED44B68002B02DC0B6C12
:10161000002B1ADDE76A002F17D000232E682B60FD
:1016200080235B011A4001D0626D15E0281C216AFD
:101630000123B847021C431C0ED12B68002B0BD092
:101640001D2B01D0162B02D12E6000205EE0402120
:10165000A3890B43A38159E0A3895B0706D563687F
:10166000D21A636B002B01D0236CD21A0023281CE2
:10167000216AE76AB847A389421C06D12A68002A72
:1016800003D01D2A01D0162A19D1002262602269D6
:101690002260DB0405D5431C02D12B68002B00D14E
:1016A0006065616B2E600029CFD0231C44339942C2
:1016B00002D0281C00F0D0F80020606326E0402211
:1016C0001343A38122E00F69002FBED00B680F6087
:1016D000DB1B01930023920700D14B69A360019BA0
:1016E000002BB2DD281C216A3A1C019BA66AB04778
:1016F000002806DC40220120A38940421343A38135
:1017000004E0019B3F181B1A0193E8E7FEBD0000AF
:1017100038B50B69051C0C1C002B01D100201CE006
:10172000002804D08369002B01D1FFF76FFA0B4B1F
:101730009C4201D16C6808E0094B9C4201D1AC6825
:1017400003E0084B9C4200D1EC680C22A35E002B06
:10175000E4D0281C211CFFF751FF38BD581B0000A6
:10176000781B0000981B000038B5051C0020074CB2
:101770002060081C111C1A1C00F096F9431C03D1B0
:101780002368002B00D02B6038BDC046E02100202C
:10179000F0B58B8991B09B0706D50B1C47330B60C6
:1017A0000B6101234B6145E00C1C0E23C95E061C36
:1017B000002904DA8023A5891D4010D10CE001AA7C
:1017C00000F0A4F80028F5DBF023029D1B021D4069
:1017D000194BED186B425D418027FF0001E00025A9
:1017E0004027301C391CFFF7A3FA00280CD1A3892D
:1017F0009A051FD402221343A381231C473323607D
:1018000023610123636115E080220C4BB362A3893D
:1018100020601343A38120616761002D0AD00E234D
:10182000E15E301C00F084F8002803D00122A38977
:101830001343A38111B0F0BD00E0FFFF890B00004E
:10184000C9B28218904204D003788B4202D0013092
:10185000F8E700207047000030B500293ED0043979
:101860000B68002B00DAC9181D4A1368141C002BE2
:1018700002D14B60116031E099420DD208680A181C
:101880009A4203D11368C3180B6053684B60216000
:1018900024E08A4203D8131C5A68002AF9D11D6833
:1018A0005C198C420BD1096869185818196090426C
:1018B00014D110685268091819605A600EE08C4201
:1018C00002D90C23036009E008680C18944203D184
:1018D00014685268001908604A60596030BDC046FB
:1018E000D821002038B5051C0020074C2060081CBA
:1018F000111C1A1CFEF7A8FD431C03D12368002B02
:1019000000D02B6038BDC046E021002038B5002350
:10191000064C051C081C111C236000F0B5F8431C84
:1019200003D12368002B00D02B6038BDE0210020BC
:1019300038B50023064C051C081C236000F0ACF8E9
:10194000431C03D12368002B00D02B6038BDC04658
:10195000E0210020002243088B4274D303098B420C
:101960005FD3030A8B4244D3030B8B4228D3030C6F
:101970008B420DD3FF22090212BA030C8B4202D311
:101980001212090265D0030B8B4219D300E0090A39
:10199000C30B8B4201D3CB03C01A5241830B8B4242
:1019A00001D38B03C01A5241430B8B4201D34B032B
:1019B000C01A5241030B8B4201D30B03C01A524190
:1019C000C30A8B4201D3CB02C01A5241830A8B4215
:1019D00001D38B02C01A5241430A8B4201D34B02FE
:1019E000C01A5241030A8B4201D30B02C01A524162
:1019F000CDD2C3098B4201D3CB01C01A5241830916
:101A00008B4201D38B01C01A524143098B4201D34F
:101A10004B01C01A524103098B4201D30B01C01A7A
:101A20005241C3088B4201D3CB00C01A52418308F4
:101A30008B4201D38B00C01A524143088B4201D321
:101A40004B00C01A5241411A00D201465241104681
:101A50007047FFE701B5002000F00CF802BDC0465A
:101A60000029F7D003B5FFF775FF0EBC4243891A72
:101A70001847C0467047C04658220120014B4042DB
:101A80001A607047E021002058220120014B40429B
:101A90001A607047E02100205822024B00201A6093
:101AA0007047C046E021002058220120014B4042EF
:101AB0001A607047E0210020044A1368002B03D00D
:101AC00018181060181C7047014BF9E7DC21002042
:101AD000E8210020F8B5C046F8BC08BC9E46704717
:101AE000F8B5C046F8BC08BC9E46704743000000ED
:101AF000002000200B09080A0100000000E0D701C7
:101B00000A0D53746172743A200A0D00200A0D45C3
:101B1000786974210A0D0000090000000B00000024
:101B20000A000000080000000000000000000000A3
:101B300000509D0003000000090000000B000000A1
:101B40000A00000008000000000000000000000083
:101B500000509D0003000000000000000000000095
:101B60000000000000000000000000000000000075
:101B70000000000000000000000000000000000065
:101B80000000000000000000000000000000000055
:101B90000000000000000000000000000000000045
:101BA0000000000000000000000000000000000035
:101BB0000000000000000000232D302B2000686C86
:101BC0004C00656667454647003031323334353660
:101BD0003738394142434445460030313233343599
:0C1BE000363738396162636465660000C6
:081BEC0034E5FF7F0100000059
:101BF40000000000581B0000781B0000981B000028
:101C040000000000000000000000000000000000D0
:101C1400EC1A0000000000000000000000000000BA
:101C240000000000000000000000000000000000B0
:101C340000000000000000000000000000000000A0
:101C44000000000000000000000000000000000090
:0C1C540000200020E9000000C10000009A
:0400000300000B01ED
:00000001FF
