:10000000004000202908000071080000730800006B
:1000100000000000000000000000000000000000E0
:100020000000000000000000000000007508000053
:1000300000000000000000007708000079080000C0
:100040007B0800007B0800007B0800007B080000A4
:100050007B080000000000007B0800007B08000017
:100060007B0800007B0800007B08000005070000FB
:100070007B0800007B0800007B0800007B08000074
:100080007B0800007B0800007B0800007B08000064
:100090007B0800007B0800007B0800007B08000054
:1000A0007B0800007B08000000000000000000004A
:1000B0000000000000000000000000000000000040
:1000C00010B5064C2378002B07D1054B002B02D02E
:1000D000044800E000BF0123237010BD6820002009
:1000E00000000000AC08000008B5084B002B03D04E
:1000F0000748084900E000BF07480368002B00D10B
:1001000008BD064B002BFBD09847F9E70000000024
:10011000AC0800006C2000206820002000000000D7
:10012000164B002B00D1144B9D46402292029A1A86
:10013000924600218B460F461348144A121A00F0CB
:1001400067F80F4B002B00D098470E4B002B00D0C8
:1001500098470020002104000D000D48002802D01F
:100160000C4800E000BF00F02DF82000290000F04E
:100170001BF900F011F8C046000008000040002004
:100180000000000000000000682000209C200020EB
:100190000000000000000000084B10B5041C002BFC
:1001A00002D0002100E000BF054B1868836A002BD5
:1001B00000D09847201C00F033F8C0460000000033
:1001C000980800000E4B70B500251E1C0D4CE41A5B
:1001D000A410A54204D0AB00F35898470135F8E7C6
:1001E00000F04CFB084B00251E1C084CE41AA41020
:1001F000A54204D0AB00F35898470135F8E770BD2D
:10020000602000206020002060200020642000206A
:10021000031C8218934202D019700133FAE7704729
:10022000FEE7C0461F4B1B78012B00D070471E4BCA
:100230001B681B07FAD1F0221C4B1B68134018D116
:100240001B4B1B6813421AD0174B1B681B07EDD1C1
:10025000F022164B1B681340402BE7D1144B1B6850
:100260001342E3D1C12380220121DB00D205D1500A
:10027000DCE7102B0FD10E4B1B681342E8D10D4A5F
:100280000D4B1A6080220D4B12021A60054B1B7831
:10029000012BD9D0CAE7302BDAD1054B1B681342AA
:1002A000D6D1ECE7E00F00F0E40F00F0E80F00F02B
:1002B000EC0F00F0DFFF07C004050040186C0040A1
:1002C00010B5042800D010BD344A13780133DBB2D6
:1002D00013705B07F7D1A020A22201243049C0058A
:1002E0000B78D2000133DBB20B708258120C224023
:1002F00028D01C4228D08021A122C902D2008150DE
:10030000802000039A0729D4A021264AC9058850D5
:10031000802040035A072AD4A021224AC9058850C8
:10032000802080031A072BD4A0211E4AC9058850BB
:100330008021C903DB062CD5A123A022DB00D20536
:10034000D150C0E700230A708020A021154AC002C6
:10035000C9058850802000039A07D5D5A122A02185
:10036000D200C9058850802040035A07D4D5A12265
:10037000A021D200C9058850802080031A07D3D558
:10038000A122A021D200C90588508021C903DB0623
:10039000D2D4A022034BD205D15094E78420002070
:1003A000852000200C050000A023E9210322DB05A5
:1003B000C90010B55A50144900205A5004315A50FF
:1003C00012495A5004315A50E8220021D200995063
:1003D00000F022F800F038F80D4C0E4A0021201CE5
:1003E00000F0DCF8201C012100F07AF9201C00212B
:1003F0001822012300F014F9201C00F005F940BF79
:1004000020BF20BFFBE7C0464C0700005407000098
:100410009C080000C10200000A4B85201A78002ABF
:1004200000D070475A609A608021AA22C9057A30AC
:10043000D2008850A3200122C0000A501A70002068
:10044000EFE7C0468820002010B52C4A9368516819
:1004500001339360002935D080210120284AC90545
:100460008A58104207D18122D2008A58024002D114
:10047000244C22600860002B10D080238322DB05EF
:10048000D2009A58D20308D41F4A9B580122134025
:1004900003D11E490B601E4B1A6010BD80238322BE
:1004A000DB05D2009A58D20323D50122194B8020B4
:1004B0001A6083218022C005C900520243581342AA
:1004C000FCD1EAE780200E49C005445801212142B1
:1004D00004D18124E40000590142CCD001218024C0
:1004E0000D4B07481960E40523581942FCD1936865
:1004F000C1E7054A9B58DB07CFD5D6E78820002007
:100500000C0400000001004014040000040100403D
:10051000080000400C00004004000040F0B5002836
:1005200020DBFF271B4B03229C463B1C8408C02674
:10053000C0B20240D2009340A4006444B600A55962
:100540009D438B013B409340191C2943A1511F231C
:1005500018401E3B8340C022181C0E4B520098507E
:100560001860F0BDFF260C4A03249446321C0F236A
:10057000C0B20440E400A2400340083B9B089B003B
:100580006344DD6995438A013240A240111C29432E
:10059000D961DCE700E100E000ED00E070B5051C8A
:1005A0000C1C002A0DD043791449980042505A007F
:1005B000002C1ED0124ED3189B5D0820002B02D0B9
:1005C00070BD0720FCE70420A1782856FFF7A6FF9E
:1005D000A12322882968DB00CA506B7921795A004F
:1005E000D318F2185170E1780020917001229A55C9
:1005F000E6E7D418034964000C19DBE794200020D7
:1006000098200020A40800000122022103681A603B
:1006100043795A00D318014A995470479820002012
:10062000F0B580254F4646466D02D2248D40C0B4B9
:100630000668A40035510668403C35514479254E82
:1006400067003C19341964781202120A002C1DD07C
:100650000C1C51340768FF34A400E25104681E4F9B
:10066000A146E759BC1AA0461C4C4444A446BA42D1
:1006700025D942795700BA18B21896780D22B44598
:1006800026DA101C0CBC90469946F0BD0C1C513467
:10069000FF340668A400A2510268002B0AD0503132
:1006A000890089B2531800221A60C12302689B0096
:1006B000D5500268D1239B00D5500022E1E7C44603
:1006C00042795700BA18B21896780D22B445D8DB93
:1006D0004A46E2E79820002004050000FFFFFF00E3
:1006E0008023002210B504685B00E250D122046828
:1006F000FF3B9200A350002902D00168403A8B5082
:1007000010BDC046C12208B5414B920099588022C5
:100710005202114203D03F490868002848D1C12243
:100720003B4B9200995880229202114203D03A49E1
:100730000868002848D1C122354B92009958802280
:10074000D202114203D035490868002848D1C1229D
:100750002F4B9200995880221203114203D0304946
:100760000868002848D1C122294B92009A58D20724
:1007700004D5802252009958002912D1C122244B5D
:1007800092009A58920704D5822252009958002963
:1007900000D108BD00219950224B05201B689847C5
:1007A000F7E7002199501F4B04201B689847E5E7A5
:1007B000D22080001A5040381A5000230B60194B89
:1007C00000201B689847AAE7D22080001A504038C2
:1007D0001A5000230B60134B01201B689847AAE7AF
:1007E000D22080001A5040381A5000230B600D4B65
:1007F00002201B689847AAE7D22080001A50403890
:100800001A5000230B60074B03201B689847AAE788
:1008100000B0004040B1004044B1004048B1004049
:100820004CB100409420002003210A4802680A438A
:100830000260094802680A4302600849084A094BF5
:100840009B1A03DD043BC858D050FBDC06488047A8
:10085000064800472405004054050040B408000045
:100860000020002068200020250200002101000057
:10087000FEE7FEE7FEE7FEE7FEE7FEE7F8B5C04667
:10088000F8BC08BC9E467047F8B5C046F8BC08BC2A
:100890009E467047430000000020002000B000404A
:0C08A0000B000000FF0F03000000000030
:0808AC0074F8FF7F0100000059
:1008B4000000000000000000000000000000000034
:1008C4000000000000000000000000000000000024
:1008D4009408000000000000000000000000000078
:1008E4000000000000000000000000000000000004
:1008F40000000000000000000000000000000000F4
:1009040000000000000000000000000000000000E3
:08091400E9000000C100000031
:0400000300000829C8
:00000001FF
