:1000000000400020150400005D0400005F040000B3
:1000100000000000000000000000000000000000E0
:10002000000000000000000000000000610400006B
:1000300000000000000000006304000065040000F0
:100040006704000067040000670400006704000004
:10005000670400000000000067040000670400005F
:1000600067040000670400006704000067040000E4
:1000700067040000670400006704000067040000D4
:1000800067040000670400006704000067040000C4
:1000900067040000670400006704000067040000B4
:1000A000670400006704000000000000000000007A
:1000B0000000000000000000000000000000000040
:1000C00010B5064C2378002B07D1054B002B02D02E
:1000D000044800E000BF0123237010BD6820002009
:1000E000000000008804000008B5084B002B03D076
:1000F0000748084900E000BF07480368002B00D10B
:1001000008BD064B002BFBD09847F9E70000000024
:10011000880400006C2000206820002000000000FF
:10012000164B002B00D1144B9D46402292029A1A86
:10013000924600218B460F461348144A121A00F0CB
:1001400067F80F4B002B00D098470E4B002B00D0C8
:1001500098470020002104000D000D48002802D01F
:100160000C4800E000BF00F02DF82000290000F04E
:10017000A7F800F011F8C046000008000040002079
:100180000000000000000000682000208420002003
:100190000000000000000000084B10B5041C002BFC
:1001A00002D0002100E000BF054B1868836A002BD5
:1001B00000D09847201C00F033F8C0460000000033
:1001C000840400000E4B70B500251E1C0D4CE41A73
:1001D000A410A54204D0AB00F35898470135F8E7C6
:1001E00000F042F9084B00251E1C084CE41AA4102C
:1001F000A54204D0AB00F35898470135F8E770BD2D
:10020000602000206020002060200020642000206A
:10021000031C8218934202D019700133FAE7704729
:10022000FEE7C0461F4B1B78012B00D070471E4BCA
:100230001B681B07FAD1F0221C4B1B68134018D116
:100240001B4B1B6813421AD0174B1B681B07EDD1C1
:10025000F022164B1B681340402BE7D1144B1B6850
:100260001342E3D1C12380220121DB00D205D1500A
:10027000DCE7102B0FD10E4B1B681342E8D10D4A5F
:100280000D4B1A6080220D4B12021A60054B1B7831
:10029000012BD9D0CAE7302BDAD1054B1B681342AA
:1002A000D6D1ECE7E00F00F0E40F00F0E80F00F02B
:1002B000EC0F00F0DFFF07C004050040186C0040A1
:1002C00070B5E922A02403230025E405D200A35041
:1002D0003D4A3E4EA3500432A3503D4AA35004323F
:1002E000A350FA20800000F077F8A35901230135CC
:1002F000EDB22B4033D18021A122C902D200A150FE
:10030000344AA350A35902232B4033D18021A12288
:100310000903D200A1502F4AA350A35904232B4014
:1003200033D18021A1224903D200A150294AA350F0
:10033000A35908232B4033D18021A1228903D20065
:10034000A150244AA350A35910232B4033D180211C
:10035000A122C903D200A1501E4AA350C1E78022A6
:100360001C4BD202E2500022043BE250A35902236C
:100370002B40CBD08022174B1203E2500022043BCB
:10038000E250A35904232B40CBD08022114B5203BF
:10039000E2500022043BE250A35908232B40CBD06B
:1003A00080220C4B9203E2500022043BE250A359FE
:1003B00010232B40CBD08022064BD203E2500022E8
:1003C000043BE2508DE7C0464C07000004050000E6
:1003D000540700000C05000082B00190019B002B27
:1003E00014D0019B0A48013B01930138C046C04626
:1003F000C046C046C046C046C046C046C046C046CD
:10040000C046C046F1D1019B002BEAD102B0704733
:10041000E703000003210A4802680A430260094812
:1004200002680A4302600849084A094B9B1A03DD27
:10043000043BC858D050FBDC0648804706480047BC
:1004400024050040540500409004000000200020D6
:10045000682000202502000021010000FEE7FEE7E1
:10046000FEE7FEE7FEE7FEE7F8B5C046F8BC08BCCD
:100470009E467047F8B5C046F8BC08BC9E4670471B
:080480004300000000200020F1
:0804880098FCFF7F0100000059
:10049000000000000000000000000000000000005C
:1004A000000000000000000000000000000000004C
:1004B00080040000000000000000000000000000B8
:1004C000000000000000000000000000000000002C
:1004D000000000000000000000000000000000001C
:1004E000000000000000000000000000000000000C
:0804F000E9000000C10000005A
:0400000300000415E0
:00000001FF
