:020000021000EC
:10D0000000400020492002009120020093200200ED
:10D010000000000000000000000000000000000010
:10D020000000000000000000000000009520020049
:10D03000000000000000000097200200992002007C
:10D040009B2002009B200200EDE601009B200200D5
:10D050009B2002000000000039E001009B2002003C
:10D060009B2002009B2002009B2002009B200200CC
:10D070009B2002009B2002009B2002009B200200BC
:10D080009B20020029D301009B2002009B2002006C
:10D0900009D401009B200200152002009B20020001
:10D0A0009B2002009B200200000000000000000006
:10D0B0000000000000000000000000000000000070
:10D0C00010B5064C2378002B07D1054B002B02D05E
:10D0D000044800E000BF0123237010BD7028002029
:10D0E00000000000A035020008B5084B002B03D05B
:10D0F0000748084900E000BF07480368002B00D13B
:10D1000008BD064B002BFBD09847F9E70000000054
:10D11000A0350200742800207028002000000000C4
:10D12000164B002B00D1144B9D46402292029A1AB6
:10D13000924600218B460F461348144A121A00F0FB
:10D1400067F80F4B002B00D098470E4B002B00D0F8
:10D1500098470020002104000D000D48002802D04F
:10D160000C4800E000BF00F02DF82000290003F07B
:10D1700059F900F011F8C0460000080000400020F6
:10D18000000000000000000070280020702F002028
:10D190000000000000000000084B10B5041C002B2C
:10D1A00002D0002100E000BF054B1868836A002B05
:10D1B00000D09847201C00F033F8C0460000000063
:10D1C000483202000E4B70B500251E1C0D4CE41AAF
:10D1D000A410A54204D0AB00F35898470135F8E7F6
:10D1E00006F024F8084B00251E1C084CE41AA41075
:10D1F000A54204D0AB00F35898470135F8E770BD5D
:10D200006828002068280020682800206C2800205A
:10D21000031C8218934202D019700133FAE7704759
:10D22000FEE7C046BFF34F8F024A034BDA60BFF3FD
:10D230004F8FFEE70400FA0500ED00E010B500296D
:10D240000DD00923002A01D1181C10BD541E224004
:10D25000FAD1826001608480C2600023F4E70E236B
:10D26000F2E7C046031C10B59C888068DA68121A81
:10D270000420944200D210BDDA68002014401A68DD
:10D280001155DA680132DA60F5E7C04610B58468F6
:10D29000C268031C0520944209D098689A8802400D
:10D2A0001868825C00200A709A6801329A6010BD8A
:10D2B00080218023184A8902D1508022D221174B25
:10D2C000520289005A5040395A5001222F205A6088
:10D2D0000138C046C046C046C046C046C046C046EB
:10D2E000C046C046C046C046C046F1D19A60002341
:10D2F0000B4A2F2013600138C046C046C046C046C6
:10D30000C046C046C046C046C046C046C046C046ED
:10D31000F1D1044A1370704700E100E000100140B1
:10D320008C280020AC280020A021F0B5002347461F
:10D330002C4A490080B453500431535004315350A7
:10D34000043153504C39535004315350264B1B6811
:10D35000002B37D02549002652582549254F0C6807
:10D36000141B00222402240A904602E0002D1AD049
:10D370002B1C1A68A24216D8A41AB6181A7CDD69AA
:10D38000002AF3D0424699691A745A693B68002B07
:10D390001BD0101C98470028E8D000210022FFF77E
:10D3A00041FF002DE4D1144B14491A780B789A42AE
:10D3B0000ED0134A9B009E5080218023114A4903BE
:10D3C0005B00D15004BC9046F0BD081C9047CDE7EF
:10D3D0000132D3B2022B01D00B70EAE700230B70AD
:10D3E000E7E7C04600100140902800200405000037
:10D3F0008C28002094280020A0280020A1280020AC
:10D40000A428002000E100E0F0B55F4656464D46F6
:10D410004446F0B4B44BB54A1B68B54989B0019392
:10D4200009781378994200D1B1E10133DBB2022BC4
:10D4300000D100231370AF4A9B009B58AA4A99461B
:10D44000019B4B441B021B0A136001230493AA4B4C
:10D4500000241B689B46A94BD8461B781A1C0293D4
:10D46000A74B944607931B6803939F4B1B68069337
:10D47000A44B1B7805935B466646013EF2B2944688
:10D48000FF2A4FD06246D000039A9246504401785A
:10D490004578A942F0D04A00521887780131466891
:10D4A000C9B27F1AB2467E1EB741D2007F425244B3
:10D4B00039401778022F0AD0032FEAD1002BE8D089
:10D4C0001C74DB69002BFBD145789846E1E7566870
:10D4D000002B25D09E421AD01F1C00E0171CFA69B1
:10D4E000002AD6D09642F9D1321C3D1CBE4200D152
:10D4F000EBE01768D269EA61002A06D013689A4601
:10D500005744176045784346C3E74578C1E7DE696D
:10D510001A1C002E00D1DDE0B046331C151CE8E7D4
:10D520000023B6E76946774A097D181C11706E4AD8
:10D5300006990393116041466F4A1160049A002ACC
:10D5400000D028E15B461B1A5A1E93410025DBB22E
:10D550000493079B00271B68039E0693624B1B687E
:10D560009C46654B1B689A46664B1B780593664B39
:10D57000019301239846029B013BDBB20293FF2BF0
:10D5800000D18FE0069ADB0093469B44002D27D004
:10D590006968AB68281CED696246019C8A1A120210
:10D5A000120AA24250D8D3184246036047608760EF
:10D5B0000274C761002E56D03168341C994204D3DE
:10D5C0005FE01168994263D2141CE2695B1A002A79
:10D5D000F7D10360331CC261E0611E1C002DD7D15E
:10D5E0005B465A461B7852789A42C4D059464968DD
:10D5F0005A0089465946D2180133DBB20B7089783C
:10D60000D2004A4499424AD011785068331C01290B
:10D61000E3D1037C99464946331C0029DDD191684A
:10D620004160D36883601469C46052698261059A5D
:10D63000002AB1D04A46002142606246019C8A1A03
:10D640001202120AA242AED96246511A0902090A0E
:10D6500099420CD242465B1A0360476087600274AD
:10D66000C761002EA8D1031C82461E1CB6E74346A4
:10D670000760476087600374C761002EF3D0002302
:10D680003168CB1A3360031CC66182461E1CA5E7B5
:10D69000C91A11600360C261331CE0619DE75B46FB
:10D6A0001D70B1E75246144B1A60039BB3422FD151
:10D6B000049B002B2CD10023124A137009B03CBCF0
:10D6C00090469946A246AB46F0BDDE693A1C002E54
:10D6D00000D021E701250D4B9D6000230696013601
:10D6E0009846151C059604E78C280020A0280020E9
:10D6F000A1280020A428002090280020982800209D
:10D700009C280020A2280020FEFF7F00001001407E
:10D71000002E63D0484B49493568CC58484B494E98
:10D720001B683078E21A1202120A0332904600286F
:10D7300061D04246AA4200D22A1CA820D218120266
:10D740003E49130AC0003C4D0B504A591B1B121B8B
:10D750001202120A1B0203321B0A9A42ABD94B591E
:10D760000B502F200138C046C046C046C046C046B8
:10D77000C046C046C046C046C046C046C046F1D1BD
:10D7800080218023304A89025B00D15093E7002337
:10D79000994604935BE6002500210024484646464E
:10D7A00013E01A6882421CD8DE68801A89181C604F
:10D7B000DF69002E07D0DD611D1C019A9E608A186A
:10D7C0001202120A5A603B1C3E1C002BE9D11F4B6F
:10D7D0001E600023039301330493BAE6FFF768FD4C
:10D7E00069E78146194903930E604946521A1A6047
:10D7F00001230493ADE68020D1274002BF00C85129
:10D80000403FC851C02280270F48BF0252008750B6
:10D81000076001272F200F600138C046C046C04670
:10D82000C046C046C046C046C046C046C046C046C8
:10D83000C046F1D137707CE70405000000100140BC
:10D840008C280020AC28002000E100E09028002077
:10D85000F8B54F464646C0B40326351C80460F1C1B
:10D86000141C994615400720002D03D00CBC90468F
:10D870009946F8BD002A44D0FFF71AFD4A46224BCC
:10D8800080201A60221C214B18321E70204B6260CF
:10D890001C607B00DB19DB00D218E260D318C022C9
:10D8A000636125706570A77025726572A772257413
:10D8B0006574A774C524FF21164B40031D60164BE9
:10D8C00052001D70154BA4001D70154B98501A592D
:10D8D0008A433F390A431A51A12218604046114930
:10D8E000D2008850C42080001C580F4A2240C02417
:10D8F000240222431A500D4B0020CA580C4B1A60C8
:10D90000B4E7034B1A60B1E7942800209828002060
:10D910009C28002090280020A0280020A12800207A
:10D9200000E100E000100140FF00FFFF04050000DF
:10D930008C28002010B50B4B1B68002B0BD0002A45
:10D9400007D0002805D0036808201C7C002C04D0D8
:10D9500010BD0720FCE70820FAE759745A6100203F
:10D96000F6E7C0469C280020F0B5474680B4374B08
:10D970001C68002C08D0002806D00723042905D8ED
:10D98000181C04BC9046F0BD0823F9E74369002B3E
:10D99000FAD00025437CA846012B2ED02C4B102515
:10D9A0005B68DB05DB0D2CD164196378A5785E1C00
:10D9B000F6B2AD1B6F1EBD416D422E402578B542BB
:10D9C0001DD05D00EB186568DB00ED180423002D09
:10D9D000D6D0033B2B7068601E4B1F48C358E960CC
:10D9E000AB60434680212B6180236A611B4A5B0048
:10D9F00049036670D1500023C2E78846CEE704236E
:10DA0000BEE7103BDEB275B2002D13DBAD08134E3E
:10DA1000C035AD00AD5903263340DB00DD402B0699
:10DA20009B0FDBB20025012BBED00835032BBBD0EA
:10DA30000835B9E70F230A4D3340AC46083B9B0835
:10DA40009B0063445D680323E6E7C0469C280020F2
:10DA500000ED00E0040500000010014000E100E0DE
:10DA600018ED00E070B5161C0C1C8D18002A05DDA1
:10DA70002078013400F0DAF8AC42F9D1301C70BDE6
:10DA800010B50C1C201C00F0B7F80528FAD00120B6
:10DA900010BDC04630B5047885B0012C19D0022CD9
:10DAA00034D0002C01D005B030BD254C254D201CB4
:10DAB000291CFFF7EBFB002823D0A268E3689A42F9
:10DAC000F1D1032302AA13701F4B101C1B68984747
:10DAD000E9E743681D4D1978281CFFF7C3FB0028B0
:10DAE0001ED1AA68EB689B1A012B21D0AA68EB68AB
:10DAF0009B1AAA889342D6D80121154800F05CFDF4
:10DB0000D1E7281C012100F0FDFCD6E702AB1C7018
:10DB1000C36802A8019303930B4B1B689847C2E7A5
:10DB200002AB1C70084B03901B6802A89847DDE706
:10DB300002AB1870044B02A81B689847D6E7C04692
:10DB4000BC280020B0280020B4280020CC280020C9
:10DB5000B8280020F0B51E1C214B051C89B00C1CF8
:10DB60001A600720002906D08A881E480968FFF736
:10DB700065FB002801D009B0F0BDA168A2891A4850
:10DB8000FFF75CFB0028F6D16A46184B684692CB3B
:10DB900092C292CB92C212CB12C2AB6806932B797F
:10DBA00006775A1E934103756B790E22591E8B41DD
:10DBB0005B421A404275EB780D490293AB780393B0
:10DBC0002B7801936B78009300F014FC0028D2D1DD
:10DBD00000F076FD0121074800F0EEFCCBE7C046DF
:10DBE000B4280020CC280020BC2800204C320200A1
:10DBF00095DA0100B828002038B50A4C051CA16848
:10DC0000A288E3685B1A9A4204D0201C291CFFF703
:10DC10003DFB38BD0448012100F0CEFC0028F4D0C3
:10DC20000520F6E7CC280020B828002010B5041CF9
:10DC300006480121047000F065FC112800D010BDD9
:10DC4000211C0348FFF70EFBF9E7C046DC28002043
:10DC5000BC28002082B00190019B002B14D0019BB6
:10DC60000A48013B01930138C046C046C046C04641
:10DC7000C046C046C046C046C046C046C046C04674
:10DC8000F1D1019B002BEAD102B07047E7030000FD
:10DC9000F0B5002820DBFF271B4B03229C463B1CD2
:10DCA0008408C026C0B20240D2009340A40064445D
:10DCB000B600A5599D438B013B409340191C294355
:10DCC000A1511F2318401E3B8340C022181C0E4B3D
:10DCD000520098501860F0BDFF260C4A0324944669
:10DCE000321C0F23C0B20440E400A2400340083BB2
:10DCF0009B089B006344DD6995438A013240A24042
:10DD0000111C2943D961DCE700E100E000ED00E0EF
:10DD100038B54425164C0820635D002B00D038BD73
:10DD20004022FF21013BA3540132A1540132A354EC
:10DD3000236201326362A362E36223636363A363CA
:10DD4000E3630238FC39A35423606360A360E3609B
:10DD500023616361A361E361FFF79AFF8021C1231F
:10DD6000044A9B000906D150012300206355D6E7E1
:10DD7000E0280020006000404423034AD05C431E9A
:10DD80009841C0B27047C046E0280020F0B5474631
:10DD900080B4524C0825231820331E787F2E03D8D8
:10DDA000281C04BC9046F0BDCD78AC46002D36D082
:10DDB0002568013500D187E0042300269846731CAE
:10DDC0009D006759013733D0B31C984525D99D0074
:10DDD000675901372CD0F31C98451ED99D0067590F
:10DDE000013725D0331D984517D99D006759013754
:10DDF0001ED0731D984510D99D006759013717D063
:10DE0000B31D984509D99D006759013710D00736D1
:10DE1000B04502D9E369013308D00425C0E725697C
:10DE2000013555D0082304269846C8E707231C254A
:10DE3000625162462718DEB220373E70002A02D1B6
:10DE4000E3183C3318708B78002B15D1031CA025E8
:10DE50004A78C133FF3392009B00ED055A51CB78CD
:10DE6000002B15D176B2A4193C340B7822789B0193
:10DE700013432370002593E7A022D2059446E025A2
:10DE8000022783006344ED005A59BA435A51E6E72A
:10DE9000A22476B2124BB600F318E4000A781D599A
:10DEA0001049000229401951F82149010840061C77
:10DEB000C0211004021C301C89021D590A40104365
:10DEC0002843185100256BE7002622601E70BAE730
:10DED000042522611D702E1C2B1CB1E7E0280020B8
:10DEE00000600040FFE0FCFFF0B5264D2C18203408
:10DEF000227853B2032B18DDEB183C331B789B09B7
:10DF0000032B32D0012B39D0C025AD02A023DB0575
:10DF10009C46E02380006044DB00C4581A4921403D
:10DF2000C150C2582A43C250F0BD032AFCD817483A
:10DF3000A227844601269A006244FF00D05930434C
:10DF4000D0511A1C604600274032920092B21750FE
:10DF50000029E9D00022A25692005259002AE3D0AB
:10DF6000C1229E4092008650DEE7A223A022DB0061
:10DF7000D205D258012383401A42C5D18025AD0273
:10DF8000C4E7C046E0280020FFFFFCFF006000401F
:10DF9000F0B526490B1820331B785AB2032A23DC2C
:10DFA000DBB2032B2ED8224CA227A44601249500D5
:10DFB0006544FF00EE599B00A643EE51C2269440F3
:10DFC0006546B600AC5100244532FF3292005451F0
:10DFD000021CA0240225C132FF329200E405155133
:10DFE000012252425A501CE0A024E405A446E02439
:10DFF00082006244E40016590E4DDBB235401551E3
:10E0000015591551021CA0240225C132FF3292007D
:10E01000E405155101229C00CB1852423C330A51B1
:10E020001A70FF23081820300370F0BDE02800208C
:10E0300000600040FFFFFCFFF8B54F464646C0B405
:10E04000C74A00241368012B00D1CBE0C54B1A68E6
:10E05000012A00D1D4E0C44B1A68012A00D1DFE0C4
:10E06000C24B1A68012A00D1EAE0C14B00251A68A8
:10E07000012A00D1F5E023070BD0E30700D506E124
:10E08000A30700D512E1630700D51DE1230700D5E2
:10E09000F1E0002C03DB0CBC90469946F8BD402310
:10E0A000B44CE15C4BB2013321D0C9B2C023081C8F
:10E0B0009843231820331B785BB29B001E59002E17
:10E0C00015D0A022D205944683009C44E0236246EA
:10E0D000DB00D3580122C0278240BF023B408909A0
:10E0E0001B0C154200D106E1022B00D160E1412357
:10E0F000E15C4BB2013321D0C9B2C023081C984364
:10E10000231820331B785BB29B001E59002E15D0BC
:10E11000A022D205944683009C44E0236246DB00A3
:10E12000D3580122C0278240BF023B4089091B0C03
:10E13000154200D1D8E0022B00D1FDE04223E15C82
:10E140004BB2013321D0C9B2C023081C9843231815
:10E1500020331B785BB29B001E59002E15D0A022E5
:10E16000D205944683009C44E0236246DB00D358EA
:10E170000122C0278240BF023B4089091B0C154287
:10E1800000D1D2E0022B00D1FEE04323E15C4BB290
:10E19000013300D17FE7C9B2C023081C984323187C
:10E1A00020331B785BB29B001E59002E00D172E712
:10E1B000A0230124DB059C46E023C0278440820085
:10E1C0006244DB00D358BF023B4089091B0C254247
:10E1D00000D197E0022B00D05DE7032900D199E040
:10E1E000B04758E7C1216448890041580B4200D12B
:10E1F0002CE75C4B14601A680134012A00D02AE72E
:10E20000C1225D499200895802220A4200D122E7C8
:10E2100000211960544B14431A68012A00D01FE7EB
:10E22000C12255499200895804220A4200D117E7B9
:10E23000002119604D4B14431A68012A00D014E7DD
:10E24000C1224D499200895808220A4200D10CE7A8
:10E2500000211960464B14431A680025012A00D09A
:10E2600009E71D6080231B061C43A022A223D205C0
:10E27000DB00D558FFE6404A404BD058D1583D4BC3
:10E28000C0048903C00E890FDB68984701E7A22309
:10E29000394ADB00D058D158364BC00489031B687B
:10E2A000C00E890F9847A30700D4ECE6344B324ADE
:10E2B000D058D1582F4BC00489035B68C00E890F1A
:10E2C0009847630700D4E1E6A3232B4ADB00D0582C
:10E2D000D158284BC00489039B68C00E890F98470A
:10E2E000230700D4D5E6C6E7032B00D026E7032991
:10E2F00072D0B04722E7032B00D0F8E6032973D091
:10E30000B047F4E6032B00D0C5E6032900D067E749
:10E310008027BF02E023DB00D5581A4C2C40D45094
:10E32000D4582743D750B047B5E6032B00D02CE78D
:10E33000032955D0B04728E70329DAD1B946E023AD
:10E340006246DB00D258904647460E4A3A4067463E
:10E35000FA50FA584F4617436246D750B047EDE699
:10E360000061004004610040086100400C61004011
:10E370007C610040E0280020006000401C05000097
:10E3800014050000FFFFFCFF0329D3D1B946E023A9
:10E390006246DB00D25890464746154A3A406746E7
:10E3A000FA50FA584F4617436246D750B047ECE64A
:10E3B0000329A5D1B946E0236246DB00D258904636
:10E3C00047460B4A3A406746FA50FA584F461743B9
:10E3D0006246D750B0478AE680239B029946AEE753
:10E3E00080239B029946D2E780239B029946E2E76D
:10E3F000FFFFFCFFF0B557464E464546E0B4394CAA
:10E40000031CA27D0820002A04D01CBC904699461B
:10E41000A246F0BD002B62D0A02003251A68C005DB
:10E42000C132FF32920015500122AA461D68AA404F
:10E43000A125ED004251A94600255A68AC46C132DB
:10E44000FF32920015509E69274A284D56511D7D76
:10E45000A84646465D7D3543254E95515D681E684C
:10E46000A846244D56514646234D56511D7D012D3B
:10E470001AD19E68371CE0267600B0464744BE009D
:10E4800067463750C137FF37B8465746DE684644BF
:10E49000B6003750DE68B5404E468551D8689D6855
:10E4A0009051A220C00015501A69616022600029B5
:10E4B00008D0197FC12311480B4A9B00D05002207D
:10E4C000FFF7E6FBA0230421074ADB00D15000231D
:10E4D0000122E374A374A2756375002095E7084BCD
:10E4E0009AE7C046282900200020004024050000AB
:10E4F0006C0500000C0500001405000080000200FF
:10E500006C320200F0B5264A041C937C1120002BCB
:10E5100000D0F0BD012591742248234913829460F4
:10E520000B6005600B60138AE05C138A1F4C01339B
:10E530009BB213821E4BE0505068002801D000208F
:10E54000E7E70027261C1D1C0130FF30947C138A4E
:10E550009C4203D812E0138A834202D00B68002B3E
:10E56000F9D0138A8342F2D00F60138A9468E45C76
:10E57000138A01339BB213827451E7E78023118A17
:10E580005B0099420AD008490B68002BFCD001219E
:10E590000020084B196000239374BAE70F20FAE7B4
:10E5A00028290020082000401C21004000200040B5
:10E5B0001C0500000C200040F0B54F464646C0B494
:10E5C000394B041CDA7C1120002A03D00CBC904685
:10E5D0009946F0BD1A755A7DD974DC60002A0AD0BC
:10E5E0005A68002A0FD08121C123304A89009B003C
:10E5F000D1500020EAE72E490A602E490A60012125
:10E600002A4A1160ECE7294A294D9046A322D200FC
:10E6100091462848284C296806684A1E914122687C
:10E62000C9B2571EBA41D2B2002E0BD1002A2BD14B
:10E630000029F0D00022204903200A601C490A600A
:10E64000DA74C3E70029F5D1002A1FD147464E46A8
:10E650000260197DBE59B4466746DE687754197D5D
:10E66000DE7C0131C9B21975197D8E42D3D81249A9
:10E670000A600F490A60DA745B7D002B0ED001221C
:10E680000A4B00201A60A1E70029D3D100220A49D1
:10E690000F200A6006490A60DA7497E70122074BE7
:10E6A00000201A6092E7C046282900200020004080
:10E6B0002421004008210040442100400420004063
:10E6C000064A537D002B07D105490B6005490B60B5
:10E6D000054901330B6053757047C0462829002057
:10E6E000242100400821004000200040C12210B534
:10E6F000514B92009A5884B092054CD54F4A1168FC
:10E70000002948D0002111608121C2228900920095
:10E7100099504B4B5A7D002A02D10121494A116080
:10E72000022269460A7090214348C900425842506B
:10E7300069460392DA7C68460A72DA6819680192BF
:10E740000022DA745B6898473F4A1368002B10D0A8
:10E750003B4B188A997C814251D9002111601A8A59
:10E760009968895C1A8A013292B21A82374B324A0E
:10E77000D150374B1A68002A0BD000221A60304B58
:10E780005A7D002A02D001212B4A1160DA7C002A2E
:10E7900044D104B010BDC123274A9B00D3585B0766
:10E7A000D2D52C4B19680029CED00021A3241960A2
:10E7B000234BE400187DD96812590A541A7DD87C7D
:10E7C0000132D2B21A751A7D9042BDD15A7D002A0B
:10E7D00002D101201B4A10608124C2221648A400E5
:10E7E000920084506C461A7D012022720022207013
:10E7F0000191DA74196868465B689847A4E70020BD
:10E8000010600029B5D06A46107011729A68987429
:10E81000196801925B6868469847AAE768461A7DBE
:10E8200001210272DA680170019200221968DA741B
:10E830005B689847ADE7C0460020004024210040B7
:10E8400028290020042000401C2100401C05000055
:10E85000442100400821004029DF704728DF70472D
:10E8600030B583B0002806D0112806D108230F4AFE
:10E8700011680B43136003B030BD021C0C480178D3
:10E880008B005B189B00C518281CE9686B694C005D
:10E8900064182979074DA4002D680C300095064DA9
:10E8A0006459A0470422054B1A70E4E7282A002087
:10E8B00040290020302A0020142A00202D2A002080
:10E8C000F0B55F464D4644465646F0B45E4F85B0BF
:10E8D0003C785E4D012C00D188E0002C00D16DE029
:10E8E000022C16D0032C0DD1594B1868FFF7B6FF38
:10E8F000021E07D0112800D080E00823554A116875
:10E900000B43136005B03CBC90469946A246AB460B
:10E91000F0BD504B99461B6803932B789E00F3186B
:10E920009B00EE183369984680235B0519694046C1
:10E930000904090C9B4603F0B1FB454B8246186065
:10E940005B4619694346581EF3880904C018090C30
:10E9500003F0A4FB82454CD00323039C9C434B460D
:10E960001C603D4B1B68002B02D10233234262D056
:10E9700000223A4B1A703A4B5869431C54D08023FA
:10E980005B0519690904090C03F088FB031C80224C
:10E990005205106911690004013B000C0904584339
:10E9A000090C03F07BFBFFF759FF021EAAD01128C8
:10E9B00024D108231C434B461C60A3E7294B1C6051
:10E9C000294B1C606B78002B9CD02B789A00D318B5
:10E9D0009B00ED18EA88254B1A602B79032B27D072
:10E9E000042B25D0012B00D08CE73B7000F000FCFD
:10E9F00088E70123039A9A431443B0E72B789800E1
:10EA0000C01880002E18301C184DF3682D685C006B
:10EA1000E418317973690095154DA4000C306459E0
:10EA2000A04704233B706DE780235B055B69AEE77D
:10EA300000F020F866E7094A50461370FFF70EFF12
:10EA4000FFF70EFF5EE7C0462D2A00204029002078
:10EA50003C2A0020282A0020382A00202C2A0020C6
:10EA600000100010342A00200C2A0020302A002038
:10EA7000142A0020F0B55F4656464D464446F0B491
:10EA80005B4B5C481A78802791008A1892009B188B
:10EA9000DD681E696A005219920082181489508933
:10EAA0005268604380469044DA881B89141C99465A
:10EAB000514B92469B4600235A467F05396983B0E5
:10EAC00009044C441360090C301CA41903F06CFBBE
:10EAD000002924D13B699BB29A4537D044456CD07C
:10EAE000022D33D0301C3969484489B203F05CFBF5
:10EAF000424B890819603969201C0904090C03F08C
:10EB000053FB002932D102223D4B1A70FFF7D8FE89
:10EB100003B03CBC90469946A246AB46F0BD022DE0
:10EB200014D0301C396948440904090C03F03CFB3B
:10EB3000324B8908196039694445E4D00904090C4D
:10EB4000201C03F031FB0029DDD00FE080235B05A2
:10EB50001969301C0904090C03F0A0FA0322294B9F
:10EB60001860274B1A70FFF7ABFED1E780256D05C3
:10EB700029692B696A4699464346D380D08889B271
:10EB800003F08CFA6A464B46A6B2D380071CD188A4
:10EB9000301C03F083FABFB280B287421DD02C69CB
:10EBA0002969301C89B203F0FFFA5B462404240C67
:10EBB00089B2641AA4081C60A5E74B46002BC5D097
:10EBC000022DC3D0301C3969484489B203F0ECFAF5
:10EBD0000A4B890819603B6995E7434624041B04E6
:10EBE0001A0C240C131B5A469B0813608BE7C04673
:10EBF00040290020142A0020102A0020382A002052
:10EC00002D2A00203C2A0020F8B546464F46C0B4C5
:10EC10001D4D08AC24886E78A44604240A2E2DD0FD
:10EC20002C78A046A419092C00DD0A3C14277C434B
:10EC30002C196261221C20710C32B94681C981C233
:10EC4000E380634623810024104B01361A786E70EE
:10EC5000A24213D142464F465743ED190C4AE98868
:10EC600011602A79032A07D0042A05D0012A05D188
:10EC70001A70FFF725FE01E0FFF7FCFE201C0CBC1C
:10EC800090469946F8BDC046402900202D2A002014
:10EC9000302A0020082170B50C1C244A82B0136869
:10ECA0001C4009D08B431360214B224A1B789B00E8
:10ECB0009B58984702B070BD1F4D2B789800C31821
:10ECC0009B00EE18317904292AD0F268736950004C
:10ECD0008218301C194E920036680C300096184E7F
:10ECE00096590022B04701202A7893009B189B0078
:10ECF000EB181C71DC80D8601C615C611C816B7836
:10ED00000132013BD2B26B700A2A06D02A7000226F
:10ED10000C4B1A70FFF7D4FDCCE700232B70F6E7FD
:10ED20000122084B1A70FFF7CBFDC3E7282A002009
:10ED30002C2A0020A032020040290020302A002086
:10ED4000142A00202D2A002030B5244B83B05869A6
:10ED5000431C3ED080235B0519690904090C03F0AC
:10ED60009DF9041C80235B051869196900041A6960
:10ED7000000C631E58431A4B09041B68090C92B21D
:10ED800092085943FFF768FD021E06D0112806D1EC
:10ED90000823144A11680B43136003B030BD1249B5
:10EDA0000B789800C01880000D18281CEB68297992
:10EDB0005C00E4186B690D4DA4002D680C300095C3
:10EDC0000B4D6459A04704220A4B1A70FFF778FDD7
:10EDD000E3E780235B055C69C4E7C04600100010D0
:10EDE0003C2A0020282A002040290020302A002028
:10EDF000142A00202D2A0020802230B552051469E3
:10EE000021492404230C0C6883B0013C5C431F4B54
:10EE10005869431C35D011690904090C03F03EF907
:10EE200080235B0519691A4B09040138090C414319
:10EE30001A68201CFFF710FD021E06D0112806D10B
:10EE40000823144A11680B43136003B030BD124904
:10EE50000B789800C01880000D18281CEB682979E1
:10EE60005C00E4186B690D4DA4002D680C30009512
:10EE70000B4D6459A04704220A4B1A70FFF720FD7E
:10EE8000E3E75069CCE7C0463C2A002000100010A0
:10EE9000382A0020282A002040290020302A00207B
:10EEA000142A00202D2A0020082330B51E4D83B0DF
:10EEB0002C68234214D1A30702D501231C432C60E4
:10EEC00002221A4B1A701A4B1868FFF7C7FC021E71
:10EED00004D011280DD108231C432C6003B030BD91
:10EEE0009C43124B134A1B782C609B009B589847FD
:10EEF000F4E711490B789800C01880000D18281C01
:10EF0000EB6829795C00E4186B690C4DA4002D684E
:10EF10000C3000950A4D6459A0470422094B1A7021
:10EF2000FFF7CEFCDAE7C046282A00202C2A002072
:10EF30003C2A0020A032020040290020302A002074
:10EF4000142A00202D2A0020F0B58027274C7F05A9
:10EF5000237839699A00D3189B00E3181A89DD8851
:10EF60001B69AD18ED18090483B0090C281C03F0C7
:10EF70001BF91F4B0E1C5869431C35D03969090415
:10EF8000090C03F08BF880235B051969013809042B
:10EF9000090C4143174B89191A68281CFFF75CFCC0
:10EFA000021E06D0112806D10823134A11680B430C
:10EFB000136003B0F0BD23789800C01880002618B5
:10EFC000301C0E4CF36824685D003179ED187369CC
:10EFD00000940B4CAD000C302C59A0470422094B77
:10EFE0001A70FFF76DFCE4E77869CCE74029002050
:10EFF00000100010102A0020282A0020302A0020AB
:10F00000142A00202D2A002030B5154B83B0186833
:10F01000FFF724FC021E06D0112806D10823114A4E
:10F0200011680B43136003B030BD0F490B78980093
:10F03000C01880000D18281CEB6829795C00E418C2
:10F040006B690A4DA4002D680C300095084D645979
:10F05000A0470422074B1A70FFF732FCE3E7C046D3
:10F060003C2A0020282A002040290020302A0020A5
:10F07000142A00202D2A0020082370B52A4D82B0C2
:10F080002C68234209D09C43284B294A1B782C60CA
:10F090009B009B58984702B070BD0122234B1A7009
:10F0A000244B5869431C3BD080235B051969090434
:10F0B000090C02F0F3FF061C80235B05186919692F
:10F0C00000041A69000C731E58431B4B09041B688B
:10F0D000090C92B292085943FFF7BEFB021EDAD028
:10F0E000112803D108231C432C60D4E713490B7863
:10F0F0009800C01880000D18281CEB6829795C0066
:10F10000E4186B690E4DA4002D680C3000950D4D70
:10F110006459A04704220C4B1A70FFF7D1FBBAE7E1
:10F1200080235B055E69C7E7282A00202C2A00207F
:10F13000A0320200001000103C2A002040290020CC
:10F14000302A0020142A00202D2A002030B5224B1E
:10F1500083B05869431C3AD080235B0519690904C0
:10F16000090C02F09BFF031C8022520510691169F3
:10F170000004013B000C09045843090C02F08EFF07
:10F18000FFF76CFB021E06D0112806D10823134A94
:10F1900011680B43136003B030BD11490B78980020
:10F1A000C01880000D18281CEB6829795C00E41851
:10F1B0006B690C4DA4002D680C3000950A4D645904
:10F1C000A0470422094B1A70FFF77AFBE3E780237C
:10F1D0005B055B69C8E7C04600100010282A0020C4
:10F1E00040290020302A0020142A00202D2A002047
:10F1F000F0B58027404D7F052C783969A60033197A
:10F200009B00EB18DA8889B283B08A4218D8196952
:10F2100018898C46920860445969FFF71DFB021E4D
:10F2200006D011282DD10823344A11680B431360EE
:10F230003419A4002C19E288314B1A6003B0F0BDD8
:10F24000196938698C460004000C121A18893C6947
:10F250005969604480188918A2B29208FFF7FCFA35
:10F26000021E06D0112827D10823244A11680B4317
:10F27000136080235B051B69214A1B041B0C136070
:10F28000DCE72B789800C01880002918CB68081C90
:10F290005F00FF180B79BF009C464B6919490C3081
:10F2A0000968009118497F586146B8470422174BF6
:10F2B0001A70FFF705FBBBE72B789800C018800099
:10F2C0002E18301C0F4DF3682D685C003179E4185E
:10F2D000736900950C4DA4000C306459A0470422BA
:10F2E0000A4B1A70FFF7ECFA80235B051B69044A8E
:10F2F0001B041B0C1360A1E740290020282A0020D2
:10F300000C2A0020302A0020142A00202D2A002058
:10F310000823F0B54D4644465F4656461A1CF0B4E5
:10F32000774D85B02C68224091465FD1754F3E786D
:10F33000B30003939B199B00FB181A69511EDA88CE
:10F340001B898A18D318029380235B059B46196991
:10F350006D4B1B689846002B57D16C4B1B689A4627
:10F3600080235B05196902980904090C02F096FED6
:10F37000824500D285E0434600D17AE0002B00D0E0
:10F3800079E0039B9C466644B600BC1921790429A8
:10F3900000D1AFE0201CE3680C305A00D21863693A
:10F3A0005B4C9200246800945A4C14590022A047E8
:10F3B000414601203A7893009B189B00FB18197175
:10F3C000D86041464046D9801861586118817B78E1
:10F3D0000132013BD2B27B700A2A00D17BE03A7045
:10F3E00000224D4B1A70FFF76BFA07E09C434B4B22
:10F3F0004B4A1B782C609B009B58984705B03CBC3F
:10F4000090469946A246AB46F0BD404B09041B68A6
:10F41000090C02989A4602F041FE5045A0D14A4696
:10F42000404B1A6001234A4623432B603B4B1A7022
:10F430003D4B5869431C51D05B4619690904090CBE
:10F4400002F02CFE031C8022520510691169000491
:10F45000013B000C09045843090C02F01FFEFFF7A2
:10F46000FDF9021ECAD011283BD109231C432C6090
:10F47000C4E7002B05D00322284B1A70FFF764FD68
:10F48000BCE70022274B50461A60244B02321A7008
:10F49000FFF7E4F9021EB1D0112818D03B7899008B
:10F4A000CB189B00FD18E9684C006418281C2979CA
:10F4B0006B69174DA4002D680C300095154D6459EB
:10F4C000A0470422144B1A70FFF7FAF996E70823B5
:10F4D0001C432C6092E700233B7081E75B465B692D
:10F4E000B1E73B789800C01880003D18EB685C00DD
:10F4F000E418DBE70122084B1A70FFF7E1F97DE71A
:10F50000282A002040290020102A00203C2A002020
:10F51000302A0020142A00202D2A00202C2A002026
:10F52000A0320200382A002000100010F0B54E462C
:10F53000574645460823E0B48C4E82B034682342D7
:10F5400000D093E08A4B1A68571C1F60894B1D68D6
:10F55000002D50D1884B802299461B7852059D0082
:10F56000ED18AB00984608234D469A464544AA44F8
:10F5700053469B681169581EEB880904C0182B89F3
:10F58000090CC01802F08AFD874200D282E07B4B52
:10F5900000D17BE01F68002F00D19CE001231A1CE2
:10F5A000224000D08DE023433360754B1A70754BB9
:10F5B0005869431C00D1BEE080235B05196909042A
:10F5C000090C02F06BFD031C8022520510691169C1
:10F5D0000004013B000C09045843090C02F05EFDD5
:10F5E000FFF73CF9021E49D0112800D0A7E00923FB
:10F5F0001C43346042E00421614B197080235B0599
:10F600001F693F043F0C57435E4A5069421C3BD080
:10F6100019690904090C02F041FD80235B05196991
:10F6200001380904090C41432A1C381CFFF714F95E
:10F63000021E23D011284AD04F4801788B005B1856
:10F640009B00C518281CE9684C006418A40029799F
:10F650006B694D4D0C302D6800954C4D6459A04799
:10F6600004224B4B1A70FFF72BF907E09C43444BE5
:10F67000484A1B7834609B009B58984702B01CBCDA
:10F6800090469946A246F0BD5869C6E71B68002B14
:10F6900000D083E702223A4B381C1A70FFF7DEF8DD
:10F6A000021EEBD0112812D04B461B789900CB18C4
:10F6B00049469B00CD18E968281C4C006418A4003A
:10F6C000C5E703222E4B1A70FFF73EFCD6E708234E
:10F6D0001C433460D2E7297904293DD05346404683
:10F6E000294C5B6824685A00D2186B690094274C37
:10F6F000920048440C3014590022A0474B46012088
:10F700001A78494693009B189B004B441F71DF8079
:10F71000D8601F615F611F814B465B780132013BFE
:10F72000D2B24B700A2A1DD00A700022184B1A70F0
:10F73000FFF7C6F8A2E780235B055B6944E74B4609
:10F740001B789800C0184B4680001D18EB68281CD9
:10F750005C00E418A4007AE701220D4B1A70FFF751
:10F76000AFF88BE700230B70DFE7C046282A0020A4
:10F770003C2A0020382A002040290020102A00209E
:10F780002C2A002000100010302A0020142A00200B
:10F790002D2A0020A032020070B5274C82B02378B9
:10F7A0009800C01880002518281CEB6829795A0099
:10F7B000D2186B69214D92002E680C300096204EB5
:10F7C00096590022B04700210126227893009B1809
:10F7D0009B00E3181971D980DE60196159611981A4
:10F7E00063780132013BDBB2D2B263700A2A0BD0DC
:10F7F00022700021134E14483160144E01703160A4
:10F80000002B05D102B070BD002222700022F0E76B
:10F8100093009A189200A418E3882B602379032B95
:10F8200007D0042B05D0012BECD10370FFF748F86B
:10F83000E8E7FFF71FF9E5E740290020302A00201C
:10F84000142A0020342A00202D2A00200C2A00200F
:10F85000F0B5474680B4654D04262C7882B0231C51
:10F86000B3430ED0022810D003280AD10821604AE1
:10F870001368194258D0022C4FD0032C48D0012CC9
:10F8800046D002B004BC9046F0BD022C45D0032CFB
:10F8900059D0012CF5D10821554A1368194237D1A6
:10F8A000544F55493B780E689A00D3189B00FA18BC
:10F8B000D1888E1BB6B2D680002E6ED1D168137956
:10F8C000480041189846101C53694C4A8900126838
:10F8D0000C3000924A4A8A58414694460022E0473A
:10F8E0003A7893009B189B00FB181E71DE80DC6049
:10F8F0001E615E611E817B780132013BD2B27B705A
:10F900000A2A66D03A7000232B70FEF7D9FFB8E7B9
:10F910008B431360FEF7D4FFB3E73A4B3A4A1B78A8
:10F920009B009B589847ACE7384A13680133136033
:10F93000032B35D0022CEDD1324B354A1B789B007E
:10F940009B5898479DE70821294A13681942DFD13F
:10F95000304B284E1A683478571C1F6080235B0593
:10F960001969A30098461B199B00F3181A6909042A
:10F97000501EDA881B898018C018090C02F08EFB13
:10F980008742C7D32CD0231C43449B00F3181B7918
:10F99000042B20D0FFF700FF73E7FFF729FC70E787
:10F9A0001448027893009B189B00C418201CE2683E
:10F9B000636951008A182179104C920024680C3038
:10F9C00000940F4C14590D22A0472E70FEF778FFBB
:10F9D00057E73E7097E701232B70FEF771FF50E762
:10F9E0000D4B1B68002BCED194E7C0462D2A00207A
:10F9F000282A0020402900200C2A0020302A00203C
:10FA0000142A00202C2A00208C320200342A0020E4
:10FA1000A03202003C2A0020102A002010B500204D
:10FA20002C2400220121464B185514341855023459
:10FA30001A5302341A531034185502341A5302342C
:10FA4000D9601876196259639964D9651A705A7029
:10FA50001A71DA801A615A611A815A835A629A625B
:10FA60009A83DA859A63DA631A86DA641A651A6603
:10FA70005A661A531034185502341A5302341A5362
:10FA80001034185502341A530634195104341A51DB
:10FA900004341A510C3C1A531034185502341A53BA
:10FAA0000634195104341A5104341A510C3C1A53B7
:10FAB0001034185502341A530634195104341A51AB
:10FAC00004341A510C3C1A5310341855BA201A52E7
:10FAD000063019501967C3315A5004315A500C3945
:10FAE0005A525A679A67174B1A80174B5869431C2A
:10FAF00022D080235B0519690904090C02F0CEFAB3
:10FB000080235B051B6902381B041B0C58430F4BF9
:10FB10000021186000230E4A002013600D4A136074
:10FB2000138153810C4A11700C4A13600C4A136004
:10FB300004220C4B1A6010BD80235B055869DFE777
:10FB400040290020202A002000100010242A002034
:10FB50003C2A0020142A00202D2A0020342A0020CC
:10FB60000C2A0020282A0020F0B557464E4645466C
:10FB7000E0B4344B1A680823520705D4181C1CBC87
:10FB800090469946A246F0BD002857D0002955D08E
:10FB90000368002B52D080277F053A69868892B28D
:10FBA00007239642EAD80F2EE8D9C288002AE5D06A
:10FBB000254B724399461B68041C9846234B4244CC
:10FBC00058690D1C9246431C3AD039690904090C46
:10FBD00002F064FA80225205136901381B041B0CE1
:10FBE000584307238245C9D8B107C7D1184F033BF3
:10FBF0003E88012EC2D043466B600C232E604546E2
:10FC0000734314480136C1184D6025681D50A588FE
:10FC10000D81E08848816843136911699BB21469BA
:10FC2000C018013889B2A4B202F0C8FA231C4A46AF
:10FC30004343434413603E8000239FE70E239DE728
:10FC40007869C7E7282A0020242A00200010001025
:10FC5000202A0020142A002030B5114B1C680823EC
:10FC6000640701D4181C30BD002806D0002A04D037
:10FC70000368002B03D00723F4E70E23F2E7094CB7
:10FC80002568002DF7D025894068694309186089E7
:10FC90006468684300198142EDD213605160E1E766
:10FCA000282A0020142A0020F0B5474680B41E4CB4
:10FCB000051C246882B00820640703D402B004BC89
:10FCC0009046F0BD00292CD0002D2AD02C68013898
:10FCD000002CF3D1154C2668002EEFD06E68678992
:10FCE000B04626897743B4466668BC19A045E5D27C
:10FCF000002AE3D09445E1D3D418A445DEDB0930D3
:10FD00008C07DBD103242342D8D146462642D5D1E5
:10FD1000181C131C00900A1C0120291CFEF774FFFC
:10FD2000CCE70E20CAE7C046282A0020142A00206B
:10FD3000F0B5474680B41E4C051C246882B00820EC
:10FD4000640703D402B004BC9046F0BD00292CD057
:10FD5000002D2AD02C680138002CF3D1154C2668D0
:10FD6000002EEFD06E686789B04626897743B44687
:10FD70006668BC19A045E5D2002AE3D09445E1D3DA
:10FD8000D418A445DEDB09308C07DBD103242342E1
:10FD9000D8D146462642D5D1181C131C00900A1C07
:10FDA0000420291CFEF730FFCCE70E20CAE7C0462E
:10FDB000282A0020142A0020F0B54F464646C0B439
:10FDC000254C83B0256808246D0705D4201C03B09A
:10FDD0000CBC90469946F0BD002906D0002804D0FE
:10FDE0000C68002C03D00724F0E70E24EEE71B4D2F
:10FDF0002E68002EF7D04E682F89B4466E897E4358
:10FE0000B1466E68B0464E464644B445EBD2002A31
:10FE1000E9D09742E7D3D618B742E4DB860701D092
:10FE20001024D3E703263342FAD167463E40F7D188
:10FE300088466344191C171C814602F0C0FA4246EA
:10FE40000C231268009753434046ED580221321CA0
:10FE50004B46A847BAE7C046282A0020142A0020AB
:10FE6000F0B54F464646C0B4204A83B01268082415
:10FE7000530705D4201C03B00CBC90469946F0BD36
:10FE8000002830D00368013C002BF3D1184B1A68CE
:10FE9000002AEFD01D895E895A686E434768B618FC
:10FEA000B742E7D20934BB07E4D188468146291C12
:10FEB000B81A02F079F9093C0029DBD14046291C27
:10FEC00002F072F989B20029D4D14346002BD1D077
:10FED0004744BE42CED30022032000924946FEF79B
:10FEE00093FE041CC6E70E24C4E7C046282A00205F
:10FEF000142A0020074B1A680823520701D4181C43
:10FF00007047002804D0044B5B7803600023F6E7B9
:10FF10000E23F4E7282A00204029002048DF7047FC
:10FF200012DF704775DF704786DF704787DF7047E5
:10FF300088DF704795DF704760DF704763DF704789
:10FF40007047C04608B5094B1888094B984203D042
:10FF5000084B9988002900D108BD0022FFF7EAFF6D
:10FF6000011C054802F034FAF6E7C0466428002078
:10FF7000FFFF00008C2A00202C330200F0B557460A
:10FF80004E464546E0B40378002B05D143681F4A2E
:10FF90001B021B0A934204D01CBC90469946A24601
:10FFA000F0BD1B4B9846424643881380037A002BD2
:10FFB000F2D0041C174B0E349A46174B174F994634
:10FFC0002388051C0026BB420AD0154A934213D051
:10FFD0002B7A01360C349E42DED22388BB42F4D108
:10FFE000504602F0F5F94246638953802389938095
:10FFF00023880B4A9342EBD1484602F0E9F9424686
:020000022000DC
:100000006389D38023891381E2E7C0462C1502005F
:100010008C2A00204C3302006433020007390000B0
:100020000939000008B50378022B02D0012B00D05B
:1000300008BD406800210022FDF7F4F8F8E7C0464B
:1000400000B597B001A8FFF755FF002829D1019B03
:10005000002B04D00122184B1A7017B000BD0822E3
:1000600002A90B7306AB029314480EAB0A718B60A6
:1000700001F0DEFB002819D1FC231148027813405F
:100080000370A0230381503B43810023436083819D
:10009000FFF74AFF0028E0D000210022FDF7C2F858
:1000A000DBE700210022FDF7BDF8D0E700210022A8
:1000B000FDF7B8F8E0E7C046042C0020892A0020AC
:1000C000F42B002010B5041C023CFFF7C1FB012CEF
:1000D00003D8054B1A78002A00D110BD00221A70EF
:1000E000FFF7AEFFF9E7C046042C0020F0B54D46FF
:1000F0005F4656464446F0B4051C85B001F000FC4E
:100100007648291C00F0C4FC2B881B2B2DD024D949
:100110001D2B17D0352B0ED1A989714802F058F943
:10012000291C704C1231201C042202F048F921686D
:100130006D4802F04DF905B03CBC90469946A24688
:10014000AB46F0BDA888A91DFFF7ECFE0028F2D051
:1001500000210022FDF766F8EDE7192BEBD1AB7912
:10016000022BE8D1FFF76CFFE5E7A02380215F4A6F
:10017000DB059A588903920229D55D4A9950291CBA
:10018000AE7B0F31F608D6D0E87B2F7C021C022F05
:1001900000D19FE0002304E0CC186478CA5C022CF4
:1001A00019D001329B18B342F6D30023032F00D19C
:1001B00092E001301B18B342BDD2CA185278C85C15
:1001C000032AF6D10233421ECB1892B207E0A122D5
:1001D000D2009950D3E70233013ACB1892B25208B9
:1001E0000392A8D000220192424A90460B229446E4
:1001F000AC4462460292AA1D91463F4A4F4692463F
:100200003E4A994693464B464A465B7812781B0213
:1002100013431C1C3A48009302F0DAF8211C3948B9
:1002200002F0D6F80D213848695602F0D1F8374867
:1002300002F0CEF8297B404602F0CAF8029C5046F4
:1002400002F0C6F8013C6178404602F0C1F8A742CE
:10025000F5D12F4802F0BCF8AE7B0024F60800234D
:10026000002E08D115E001342A48E4B202F0B0F8BB
:1002700063B2B3420DDAEB18D97B0B1C203B5E2B2B
:10028000F1D801345846E4B202F0A2F863B2B342A6
:10029000F1DB214802F09CF8204B009A9A4209D0E9
:1002A00002229446019B039A01330193E144934255
:1002B000A9D340E7FFF73AFE022200241849381C70
:1002C0000B784C609343174A0B70FFF731FE164BC7
:1002D0001C7030E702237FE7022374E7082C00201C
:1002E000D8330200682F0020FC3302000405000010
:1002F0000C050000C0330200CC330200D4330200EE
:1003000080330200A0330200AC330200B833020095
:10031000C8330200D0330200F83302002C1500006D
:10032000F42B002020330200882A002038B5A023B7
:100330008025334CDB051C596D03E40229D4A1242C
:10034000E4001D510B78113BDBB2122B1FD8041CAB
:100350002C489B00C3589F464B682B4D1A882B4B4B
:10036000281C1A80211C042202F029F8281C01F004
:10037000C1F900283FD1264A13780133DBB213704C
:10038000012B01D9FFF75CFE224802F021F8002082
:1003900038BD214C1D51D5E7002AF8D0101C002192
:1003A0000022FCF73FFFF2E74B681C48198800F079
:1003B00039FB0028EBD0F2E7194802F009F80122D6
:1003C000124B52421A8015487D320021FCF720FF63
:1003D0000F4A1378002B08D1FFF732FED7E70A48FF
:1003E00001F088F90028D2D0D9E7013BDBB21370C5
:1003F000012BCCD8F0E700210022FCF713FFBAE76D
:1004000004050000B4320200842C0020642800207F
:10041000982A00200C3402000C050000082C002053
:1004200020340200A022E9210323D205C900F0B53F
:100430005350904980205350043153508E49C0028C
:10044000535004315350A121C9005050022289B0A9
:1004500004AC227000226370A270E270FDF78CFC85
:10046000002801D1FDF754FC1020FDF791FD211C5F
:10047000824A1020FDF78AFC10200121FDF734FD8F
:100480000A25FA20013D8000EDB2FDF7E3FB002DC7
:10049000F7D17B4E01AD2B1C321C83CA83C3794B31
:1004A000281C049301236360774B211CA3608023E5
:1004B0005B00E360754AFD3BFDF74CFB002803D071
:1004C00000210022FCF7AEFE8021A022704BC90261
:1004D000D205D150002003216E4A0023FDF7B8F960
:1004E000002803D000210022FCF79CFE01216A4A6B
:1004F0006A48FDF71FFA0023201C2370FFF710FD48
:100500002378002B00D1A8E08021A123A022DB00CA
:100510000903D205D150201C02220021FCF778FEED
:1005200001226378201C9343637023780232934343
:100530001A1C022313432370FFF7FEFC002803D08C
:1005400000210022FCF76EFE554801F04FFD002807
:1005500003D000210022FCF765FE524801F050FD57
:10056000002803D000210022FCF75CFE00232B7042
:10057000FFF754FA002803D000210022FCF752FEB6
:10058000281C00F0EFFF002803D000210022FCF718
:1005900049FE1520002105226844FCF739FE424B34
:1005A0000121049302230222E320237163790B4388
:1005B000DBB2134303400C200343CF20034063719D
:1005C0000723A3710933E371237A384819430A4397
:1005D000211C227201F060F800F0EAF9002803D033
:1005E00000210022FCF71EFE802100220902304873
:1005F000FDF7BAF9311C04220C31281C01F0DFFE92
:10060000311C10221031201C01F0D9FE294E00218E
:100610000A22301CFCF7FCFD0123274A5B421380B1
:10062000338000237380B380F38033816B46201CBA
:10063000991DFFF783FC2149281C00F0C9F9FFF739
:10064000FFFC1F4801F0C4FEFFF768FC0028FBD048
:1006500000210022FCF7E6FDF6E7002019494822B8
:1006600001F09EFC002800D14EE700210022FCF79B
:10067000D9FD49E74C0700005407000041FF010085
:1006800000330200882C00208C2C00202500020062
:100690000C0500009C2A002045FF010028330200C1
:1006A000ED000200C50002002D030200892A00208F
:1006B000D42B00208C2A0020642800207DFF01001C
:1006C00030340200402A002090DF704792DF7047EC
:1006D00093DF7047F0B556464D465F464446782353
:1006E000F0B4374EC35C356883B09C46002D0DD006
:1006F00062463A235343334AC3189C789778A742FB
:100700000BD0012D02D9977AA7420DD003B03CBC83
:1007100090469946A246AB46F0BD1788B8461F885A
:10072000B845EED1002304E014891B889C42EDD12A
:100730000123DB00D21853689A46002BE6D0224BE7
:100740001C689846012CE1D874230190C35A2701F4
:100750009B461E4B584699464A463B199B00D21869
:100760005080002927D000214846195463463A3169
:100770004B4301990432101CC9183A2201F01FFEA4
:100780003F19BF003B1C52464B441A644346013498
:100790001C60AC42BAD14846036C98473368012BC1
:1007A00005D9484684234A464430D3589847002305
:1007B00042461360AAE7022249465A54E0E7C0467F
:1007C0002C2E0020182E0020142E00208C2D00200E
:1007D000F0B54F46464678238C463A21C0B4C45CF7
:1007E000013B4C43011988460979C25C8946530094
:1007F0009B189B001B19C318511C83B00A33494531
:1008000039D049464D1E77214A452CD295421AD0FF
:1008100001321E8953009B189B001B19C7183F8A81
:100820000136BE4219D001A97B1E0E804B80634663
:1008300000221A707423C05AFFF74AFF03B00CBCA1
:1008400090469946F0BD42461B89128993420FD0CB
:1008500001A901330B804A80E9E7C3180A33D2B2F9
:1008600042549145D2D80123624600201370E5E737
:1008700000236A1CF3E742461B8912899342E7D1A1
:10088000F1E7C046F8B556464D465F4644467A22E3
:10089000F0B4434E835C35680133DBB28354AB4222
:1008A00008D300227923C2543CBC90469946A24604
:1008B000AB46F8BD00239A4652467733C254013303
:1008C000C15C99460131C9B2C1543E3B1F1C9846D8
:1008D000344B4F439B46C719C900041C594404229A
:1008E000381C01F06CFD53463B7174230121E05A22
:1008F0003A1CFFF7E9FE0028D6D079235246E2548D
:100900004B4642465946E35C89785A43A3189A7885
:1009100091423DD0012DC7D05946897A9142C3D129
:100920005A461B8812899A42BED10123DB005B44E0
:100930005B689C46002BB7D01B4F3B68012BB3D89C
:100940007422A25A9046194A44469146CA461A0150
:10095000D2189200924451464C80494601248C544E
:10096000524651465060624601330A643B609D42E4
:100970009AD14846036C98473368012B05D94846FD
:1009800084234A464430D358984700233B608BE782
:1009900059460F8819888F42BCD10023C6E7C0464C
:1009A0002C2E0020182E0020142E00208C2D00202C
:1009B00000230121034A00201360034A1170034AF7
:1009C000136070472C2E0020282E0020142E0020AB
:1009D000F8B5002808D0002906D00F4B1A78082354
:1009E000002A03D1181CF8BD0E23FBE70B4E023B77
:1009F0003568022DF6D0023B012DF3D80C1C084FB0
:100A0000EB00FF18011C0422381C013501F0D7FC53
:100A10007C6035600023E5E7282E00202C2E002086
:100A2000182E002070B5041C0D1C002825D0144B76
:100A300008201B78002B00D170BD124B1B68002BC7
:100A4000FAD07926A35D0930002BF5D10E4A201C7F
:100A500013607422A1520632A354023AA3540B49E4
:100A6000743A01F0ACFC281C0121221CFFF72CFE7B
:100A70000028E1D10123A355DEE70E20DCE7C046C4
:100A8000282E00202C2E0020142E0020182E0020AE
:100A9000F0B55F4656464D464446F0B483B0002854
:100AA00000D17EE0002900D17BE0614B1B78002B58
:100AB00077D00B88103B9BB2232B72D85D4A9B00EA
:100AC000D3580D1C041C9F46CB88002B00D0AEE1F0
:100AD0003A267833C35C0E315E4387190422381CF2
:100AE00001F06DFC291CB81D1231042201F067FCD5
:100AF0007723E35C002B00D0E1E1FB8801A90B80A8
:100B00003B894B807423E05AFFF7E0FD002848D072
:100B100000227923E254484E013B3268E15C002A0E
:100B20003FD03E3B4B43454FE3189978BD788D420B
:100B300000D193E2012A34D9BD7A8D4231D139896D
:100B40001B8899422DD10123DB00FF187B68994651
:100B5000002B26D03A4B98461B68012B21D87421D4
:100B6000615A384C8C4667461901C91889006518C6
:100B70006F80012767544946296441460133686004
:100B80000B609A420DD1236C201C98473368012BCF
:100B900004D9201C84234430E3589847002342465C
:100BA000136003B03CBC90469946A246AB46F0BDEC
:100BB0007823C35C9C467723C75CCB88002B14D179
:100BC0008E89002E11D020480B8A834200D164E127
:100BD0000A1C0023163205E00632911F0988814263
:100BE00000D15BE10133B342F6D3002398463A25A6
:100BF00066466B4642466E431A71A6193379013731
:100C00009F4200D142E17723201CE75401A9FFF75E
:100C1000DFFD002800D003E26B461B79002BC0D01B
:100C2000201C0121FFF756FD201CFFF72BFEB8E723
:100C3000282E0020483402002C2E0020182E0020E0
:100C4000142E00208C2D0020022900007823C35C84
:100C50009846CB88002B00D00BE13A2743465F43F0
:100C6000C7193E790A7BB218042A00DD12E1D2B21C
:100C7000131C3A719E4255D23A224146514389464D
:100C800073009B199B004B449A46A2445046291C72
:100C9000303A0A300E3101F092FB002253469A821C
:100CA00093463A79731C9A4200D806E15A00D31849
:100CB0009B004B449A46A2445046291C0A220A3003
:100CC000183101F07CFB53465A469A823A79B31C9C
:100CD000934200D3F1E05A00D3189B004B449A464C
:100CE000A2445046291C0A220A30223101F067FB37
:100CF00053465A469A823A79F31C934200D3DCE079
:100D00005A00D3189B004B449946A1444846291CDD
:100D10000A220A302C3101F052FB5A464B469A8285
:100D20003A790436013E73009B199E003A214346EE
:100D300059437318E31838895B8A984200D898E0C1
:100D4000042A00D195E07723E254002A00D08DE1F7
:100D5000FB8801A90B803B894B807423E05AFFF785
:100D6000B5FC002800D11CE700227923D04EE254C4
:100D70003268013BE15C002A00D112E73E3B4B4365
:100D8000CC4FE3189978BD788D4200D198E1012AC3
:100D900000D806E7BD7A8D4200D002E739891B886A
:100DA000994200D0FDE60123DB00FF187B689A46DC
:100DB000002B00D1F5E6C04B98461B68012B00D9EB
:100DC000EFE67421615ABD4C894644214D468B465D
:100DD00059438C4661184D8001254860A94650460C
:100DE00065464F46086441464B4467550B60934245
:100DF00000D0D6E600235D4632685F1C934200D3E4
:100E0000CCE62B1C7B431A1F443BE018A3589847A1
:100E10003B1CF1E77C220021FCF7FAF90122742344
:100E20005242E252BDE674238A88C252B9E6782360
:100E30009F4EC25C3568002D00D129E13E3B5343F3
:100E40009C4FC3189A78B978914200D1E1E0012D06
:100E500000D822E1B97A914200D19CE07A22A35CC9
:100E60000133DBB2A354AB4234D300227923E254E2
:100E700097E600257723201CE55401A9FFF7A8FC7D
:100E8000002800D1C8E67923E55444E601236A46E8
:100E90001371C5E604230422EBE600235900CB18A6
:100EA0005B00E9187B00DB199A0060463A23434354
:100EB000C989D318E318998297E61E1C32E7013BD3
:100EC000DBB25A00D3189B009B19E3185B8A0133ED
:100ED0009BB213E600239B465A467733E254013314
:100EE000E15C9A460131C9B2E1543E3B99464B431D
:100EF0009846C900A04479180422404601F05FFAE0
:100F000043465A461A7174230121E05A4246FFF7BC
:100F1000DBFB002800D144E679235A46E2545346CD
:100F20004A46E35CB9785A43A3189A78914200D1B3
:100F3000B5E0012D00D134E6B97A914200D030E617
:100F40003A891B889A4200D02BE60123DB00FF1868
:100F50007B689A46002B00D123E6574B98461B68C6
:100F6000012B00D91DE67422A25A544C94461A0152
:100F7000D2189200A118914662464F464A8001223B
:100F8000E25552460A644246013348601360AB4260
:100F900000D006E6F7E53A891B889A4200D05DE763
:100FA0000123DB00FB185B689B46002B00D155E753
:100FB000414B98461B68012B00D94FE77422A25A77
:100FC00094463E4A60469146CA461A01D21892009B
:100FD00092445146488002208446484661468154E6
:100FE000524659461164424601331360AB4200D069
:100FF00034E7036C98473568012D06D94A464846C0
:1010000084234430D3589847356800234246136000
:1010100024E738881988884200D018E70023C0E701
:1010200079234246224EE2543268013BE35C002AB7
:1010300000D1B6E55D431F4F6519AB78B978994289
:101040001FD0012A00D8ACE5B97A994200D0A8E5B2
:1010500039892B88994200D0A3E574E53D88AC46D8
:101060001D88AC4500D065E500236DE5013AD2B29C
:1010700053009A189200511861184B8A01339BB2A1
:1010800067E639888C4629888C45DAD100235BE5F0
:101090007A22835C01338354E7E60125DEE6398852
:1010A0008C4619888C4500D043E700234EE7C046A4
:1010B0002C2E0020182E0020142E00208C2D002015
:1010C0003D88AC461D88AC4500D060E600236BE649
:1010D0007EDF70477FDF704781DF7047A9DF704791
:1010E000AADF70470020704700207047002070473B
:1010F000002070470020704700207047F8B5437803
:10110000114D5800C11889004A59002A08D00F4CC7
:101110006618B67A77B2002F10DB0022002102E0B9
:1011200000220021094CC3189B00E31818890323EF
:10113000FFF7D4FF002800D00548F8BD7606ECD4B0
:101140006918043192B2EEE7282F0020502E0020BB
:101150004180000000207047F0B585B006236A4644
:10116000D3804B78274D5A00D3189B00EB18061CF0
:1011700018896B460C1C9A1D02A90323FFF7B0FFC8
:10118000002802D0002005B0F0BD63781E4F580043
:10119000C0186B4680003818DA88043002A901F0C4
:1011A000FFF8637800281ED05900CA189200D2595F
:1011B000002A25D1154D6A46CB18D2889B00FA50DB
:1011C000637802A95800C01880003818043001F074
:1011D000F6F86378301C5900C9188B00F9180C22F6
:1011E0003423A847CEE75800C3189B00ED18AA7A0D
:1011F0009207C7D4F81800210C22FCF709F8C1E7C0
:10120000034DD8E7502E0020282F0020A9FC010014
:1012100031FD0100021C38B54B780B4C5800C0184A
:1012200083000D1CE018111C34230C22FEF7C4FDB2
:10123000002806D16B785A00D3189B001A59013246
:1012400000D038BD1851FCE7282F0020F0B55746D4
:101250004E464546E0B44C4F90B03C68002C49D017
:10126000189C5C2C46D81E1C484B924601936A463B
:101270000023089488468146137409960024444D3F
:1012800002E00134072C11D0A1B2281C02AAFEF7FB
:10129000E3FC0028F5D1484602A9082201F080F8B5
:1012A0000028EED1E4B201ADAC7003E001ADAC7842
:1012B000FF2C1FD04346032B2DD0364BF31AA72B00
:1012C0001ED9354BF31A1B2B30D800236B700AAB99
:1012D00009931823089308334246022A4FD002226A
:1012E00013436A46137407AB0593281C3B6804A993
:1012F0005246984710B01CBC90469946A246F0BD95
:1013000053462649002B0BD00B680122A240934381
:101310000B602023E0E7189B5C2B2ED04323E0E7F3
:101320000122A2400B681342E4D0EEE71C48331AB6
:101330000B2B0FD91B4B9E42F0D01B4BA200D35856
:101340009E42D7D1194BDA7A4023A242C4D100225F
:101350006A70C1E730236A46137400236B7001334F
:10136000EB70124B9A7A30239207B5D400210C22ED
:10137000FBF74EFF6B461B7CAEE72323B1E7012250
:1013800013436A461374AEE7382F002000FFFFFFB7
:10139000042F00205C2E00200C2F0020342F002072
:1013A000282F002008350200302E0020502E00206B
:1013B000021C38B54B780B4C5800C01883000D1C2C
:1013C000E018111C34230C22FEF7F6FC002806D18D
:1013D0006B785A00D3189B001A59013200D038BDDF
:1013E0001851FCE7282F0020F8B54378114D58001C
:1013F000C11889004A59002A08D00F4C6618B67ADD
:1014000077B2002F10DB0022002102E00022002131
:10141000094CC3189B00E31818890323FFF75EFEED
:10142000002800D00548F8BD7606ECD469180431D0
:1014300092B2EEE7282F0020502E002041800000BD
:10144000F0B585B006236A46D3804B78274D5A0005
:10145000D3189B00EB18061C18896B460C1C9A1DB0
:1014600002A90323FFF73CFE002802D0002005B0AC
:10147000F0BD63781E4F5800C0186B4680003818C6
:10148000DA88043002A900F08BFF637800281ED0B0
:101490005900CA189200D259002A25D1154D6A4622
:1014A000CB18D2889B00FA50637802A95800C01864
:1014B00080003818043000F082FF6378301C590037
:1014C000C9188B00F9180C223423A847CEE758001E
:1014D000C3189B00ED18AA7A9207C7D4F818002108
:1014E0000C22FBF795FEC1E7034DD8E7502E0020F4
:1014F000282F0020A9FC010031FD010070B5041C5B
:101500004378164D5A00D3189B00EB18188923789E
:10151000134E5900C918890071180431FFF7D8FD1E
:1015200000281AD123785A00D3189B00F6180123FB
:10153000727A1343737263785A00D31804229B00A3
:10154000EB18997A0A439A7263785A00D3182022CA
:101550009B00ED18AB7A9343AB7270BD502E002008
:10156000382F0020F0B55F4656464D464446F0B44D
:1015700085B000286AD000223D4B83461A605A721B
:101580009A7201233B4800218372023B0381C3729C
:101590000732FBF73DFE384800210C22FBF738FEEE
:1015A000364B00259A461C1C354BFF2699460123D5
:1015B0009846344F201C002106221130FBF728FEEC
:1015C000201C00211022FBF723FE4346AB403A6863
:1015D00049469A433A600022AB0001352674E6750D
:1015E000CA501834072DE5D15C236A46264E9380F5
:1015F000264B6846311CD5800093FEF7B5FA0028CB
:101600001DD10123224F3B705B461B78002B1FD15D
:101610000025A9B2301C02AAFEF71EFB041E21D130
:10162000504602A918220023FEF7C6FB00281CD151
:1016300018239C460135E244072DEAD1002005B06D
:101640003CBC90469946A246AB46F0BD1148F6E731
:101650006B466A46DB889188301C594389B2FEF795
:10166000FFFBECE700233B70E9E73C70E7E7C0468F
:10167000382F0020502E0020282F00205C2E002024
:10168000302E0020342F0020042F00204D120200A5
:101690004C2E00200E800000F8B5114B1B78002B5B
:1016A00001D11048F8BD00280AD0002908D00B68E5
:1016B000002B05D00C4E3768002F03D00B48F1E704
:1016C0000B48EFE7051C301C0C1C08C00531052237
:1016D00000F075FE23790020B3722F70E2E7C04658
:1016E0004C2E002008800000382F002004800000CD
:1016F0000E800000F8B5454B1B78002B01D1444803
:10170000F8BD00280BD00378002BF8D1414B1A68A4
:10171000002AF4D04278002A03D03F48F0E73F483F
:10172000EEE73F4A917A0129F7D08907E7D581781A
:10173000FF2908D0D17A817010893A4A111C1231E0
:10174000FFF7CAFCDCE7D17AFF29F4D1364CE17D02
:10175000FF2919D02F21615CFF2954D04721615CFA
:10176000FF294ED05F21615CFF2948D07721615C61
:10177000FF2942D08F21615CFF293CD0A721615C09
:10178000FF2936D02948BBE700211578022D2ED03D
:1017900018254D4365192E1C17682F619588B58251
:1017A0009579B575FD2618254D436419E6750C2409
:1017B0004578C9B265435519E97281700178614372
:1017C0005918497AC9070FD5202541786143521825
:1017D000917A2943917202210278002054431B1907
:1017E0005A7A0A435A728BE7FFF788FE88E7FE268B
:1017F000D9E7F939C9E70521C7E70421C5E703217E
:10180000C3E70221C1E70121BFE7C0464C2E0020FB
:1018100008800000382F0020108000000E8000009B
:10182000502E00200C2F00205C2E00204380000052
:10183000F0B557464E464546E0B42B4B1B78002B7F
:1018400005D12A481CBC90469946A246F0BD002806
:1018500042D0002940D00B68002B3DD08B68002B74
:101860003AD00378002BECD1214B1B68002BE8D039
:10187000002081460230824601381E4A002300249F
:101880001D4D844620E0087B844207D26746D07D08
:10189000074203D18F68A000C25101340879814505
:1018A0000ED25646D07D06420AD11027B846484689
:1018B000904446460F688000C65101208046C144CE
:1018C00001331832072B09D0E87A9842DBD156460B
:1018D000A87A0642D7D0F3E70848B3E74B460C7323
:1018E0000B710020AEE7C0464C2E0020088000009F
:1018F000382F00205C2E0020502E00200E8000008B
:10190000F0B557464E464546E0B4C54B8CB01B7803
:10191000002B30D0C34E3468002C2CD0FF2302AAF9
:1019200053709370D37003AD031D6B602A230022A4
:101930002B8102AB1A700388102B00D139E1FF21F3
:101940008288B94F9246BA7A88469146910707D560
:10195000B6498A4500D1BAE13989514500D1B6E18D
:10196000172B42D00DD91C2B00D115E1522B00D1E1
:101970000BE1182B24D00CB01CBC90469946A24613
:10198000F0BD112B00D1CBE0132BF4D10022A84BDA
:1019900009920A920B920693FB7A00215800C31811
:1019A000A448DB00C3180793504606AB0892FFF724
:1019B00091FB0028DFD10423BA7A1343BB72DAE724
:1019C0008379112B00D16DE180234A465B421A4393
:1019D0009533BA722B70B37A974A9B009B5802A832
:1019E0009847002334689846DAE00121737A4A4622
:1019F0008B43737214238C4603318A43BA722B7063
:101A00008379002B00D049E1C379194200D17AE1F2
:101A10004346FF2B00D176E108231A43BA72837A3A
:101A20009B0709D5434661465B00824A4344DB007D
:101A3000D318DA7D8A43DA75FB7AFF2B00D162E195
:101A40003B78022B10D043465B007A4A4344DB00CC
:101A5000D3181A1C396819610221BB889382BB799B
:101A60009375D37D8B43D3756A46434606ACD380CA
:101A7000D1887248221CFEF7EFF8002838D102AB5B
:101A80005B785A00D3189B00FB189B7A5B0600D545
:101A9000A0E16B4B984602AB9B78201C5900CB18F9
:101AA0006449DB00C91818220023C047002812D15E
:101AB00002AB597840304B005B189B00FB189A7AB8
:101AC00082439A72CB00591A8B005949201CC918BD
:101AD0001C221823C04702AB1B78201C5A00D318C5
:101AE0009B00F3189B7A574A9B009B5802A9984782
:101AF000012300229846346802A8291CA0472B78AD
:101B0000122B35D1BB7A012B2ED00123BB72023BA5
:101B10003B81FB72381C00210722FBF779FB23E095
:101B20000223494608244A4699430B1CB9721440C3
:101B300000D189E04AB2002A00DA06E1002290468C
:101B40005B0705D5737A013293437372012398467C
:101B50001023BB7202332B7002A83368291C0022A9
:101B600098472B78122BCDD04346002B00D102E7AB
:101B70000222737A1A4200D1FDE62024B97A0C427F
:101B800000D0AFE093437372F5E6B37A2A4A9B0024
:101B90009B5802A89847EEE613232B700023984623
:101BA00002A8291C0022A0472B78122B00D0E2E6C5
:101BB000A8E71D4FBB7ADB0700D4DCE60223BB722B
:101BC0000F332B7002AB5A70838807223B81831D31
:101BD000191C381C994600F0F2FB10229046002494
:101BE000144B984440464946072200F0D9FB002890
:101BF00000D18CE018239C460134E044072CF1D13D
:101C0000336802A8291C002298472B78122B00D099
:101C1000B1E600239846BB7A012B00D075E7AAE60F
:101C20004C2E0020382F0020502E0020FFFF0000F7
:101C30000C2F00205C2E0020F8340200042F00201E
:101C4000A9FC0100D83402004246FF2A00D175E702
:101C5000634B00219A4653004344DB0099465046AB
:101C600048440622D1441130FBF7D2FA0021102259
:101C70004846FBF7CDFAFF234A4640461374D37516
:101C8000012282405749086890434246086091000B
:101C9000554A8C5002AA9370BB7A4FE71A1C012355
:101CA000984629E74B461B0700D48DE64F4806228D
:101CB00004300021FBF7ACFA16232B706023BA7AAC
:101CC0001343BB720223727A1343737210E7F97ADB
:101CD0008846424602A98A70002294460A1C614640
:101CE00051703DE63889311DFFF7F2F9002800D028
:101CF00041E60123727A134304227372BB7AA34331
:101D00001343BB7237E6012300229846F4E608230A
:101D1000B97AE2B20B43BB7202ABFA729A70A1B20B
:101D2000334806AAFDF798FF002800D059E606A917
:101D30001C2218232F48FEF73FF8B37A2E4A9B0047
:101D40009B5806A802A998474BE66A46434606AC4C
:101D5000D380D1882648221CFDF77EFF00289BD126
:101D600002AB5B785A00D3189B00FB189B7A5B068A
:101D700033D4224B984602AB9B78201C5900CB18D9
:101D80001749DB00C91818220023C047002812D1C8
:101D900002AB597840304B005B189B00FB189A7AD5
:101DA00082439A72CB00591A8B001249201CC91821
:101DB0001C221823C04702AB1B78201C5A00D318E2
:101DC0009B00F3189B7A0E4A9B009B5802A99847E8
:101DD000BB7AB3E60B4B98465DE60A4B9846CAE7DA
:101DE0005C2E0020342F0020302E0020282F0020D1
:101DF000042F00200C2F0020E8340200E510020020
:101E0000D834020031FD01001F4B1B78012B00D09C
:101E100070471E4B1B681B07FAD1F0221C4B1B6836
:101E2000134018D11B4B1B6813421AD0174B1B6869
:101E30001B07EDD1F022164B1B681340402BE7D156
:101E4000144B1B681342E3D1C12380220121DB0024
:101E5000D205D150DCE7102B0FD10E4B1B6813427B
:101E6000E8D10D4A0D4B1A6080220D4B12021A6008
:101E7000054B1B78012BD9D0CAE7302BDAD1054BA3
:101E80001B681342D6D1ECE7E00F00F0E40F00F03E
:101E9000E80F00F0EC0F00F0DFFF07C00405004082
:101EA000186C00402EDF704751DF704710DF70471D
:101EB00061DF704708B5081C111C00E000BF08BDB9
:101EC000F0B557464E464546E0B4314B314E1D689D
:101ED00099466B425D41304BB2461C68984663425E
:101EE0005C412E4F82B0EDB2E4B2002D08D0002C40
:101EF00027D002B01CBC90469946A246F0BD0124F2
:101F000001A8FFF7D1FF052831D000282AD00021F1
:101F10000022FBF787F9002CF1D16A461D4B01A97D
:101F20001B8893801D4B1C68201CFFF7C1FF0528F0
:101F3000E5D0002810D000210022FBF773F900241F
:101F4000D3E73C68338801A9201C0B80FFF7B0FF62
:101F50000528CED00028EED14346201C1B689847A8
:101F60000024C2E74B4601981B689847D3E7002C32
:101F7000BFD153466A461B8801A99380074B0125B0
:101F80001C68201CFFF794FF0528D2D1B1E7C0469A
:101F90004C2F0020462F0020502F0020482F0020DB
:101FA00038B5041C0720002901D08D0700D038BDAA
:101FB000094801600949201C0A80094A094913603F
:101FC000FFF774FF0028F2D10122074B16301A7078
:101FD000FFF768FFEBE7C046482F0020462F0020A0
:101FE000542F0020B51E0200442F0020002803D0EB
:101FF000024B1860002070470E20FCE7502F002095
:10200000002803D0024B1860002070470E20FCE728
:102010004C2F002008B50A4B1B68002B08D09847AE
:10202000002800D108BD00210022FBF7FBF8F9E7EA
:10203000044B1B78002BF5D0FFF742FFF2E7C046B8
:10204000542F0020442F002003210A4802680A432D
:102050000260094802680A4302600849084A094BBD
:102060009B1A03DD043BC858D050FBDC0648804770
:10207000064800472405004054050040A8350200EA
:102080000028002070280020091E020021D1010034
:10209000FEE7FEE7FEE7FEE7FEE7FEE70022430875
:1020A0008B4274D303098B425FD3030A8B4244D320
:1020B000030B8B4228D3030C8B420DD3FF22090262
:1020C00012BA030C8B4202D31212090265D0030B21
:1020D0008B4219D300E0090AC30B8B4201D3CB0317
:1020E000C01A5241830B8B4201D38B03C01A524159
:1020F000430B8B4201D34B03C01A5241030B8B425B
:1021000001D30B03C01A5241C30A8B4201D3CB0245
:10211000C01A5241830A8B4201D38B02C01A52412A
:10212000430A8B4201D34B02C01A5241030A8B422D
:1021300001D30B02C01A5241CDD2C3098B4201D345
:10214000CB01C01A524183098B4201D38B01C01AC3
:10215000524143098B4201D34B01C01A524103093A
:102160008B4201D30B01C01A5241C3088B4201D3E9
:10217000CB00C01A524183088B4201D38B00C01A96
:10218000524143088B4201D34B00C01A5241411ABD
:1021900000D20146524110467047FFE701B50020CA
:1021A00000F0FCF802BDC0460029F7D003B5FFF7E8
:1021B00075FF0EBC4243891A1847C04603460B43BD
:1021C0007FD4002243088B4274D303098B425FD330
:1021D000030A8B4244D3030B8B4228D3030C8B425C
:1021E0000DD3FF22090212BA030C8B4202D3121242
:1021F000090265D0030B8B4219D300E0090AC30B17
:102200008B4201D3CB03C01A5241830B8B4201D3C3
:102210008B03C01A5241430B8B4201D34B03C01AAC
:102220005241030B8B4201D30B03C01A5241C30A24
:102230008B4201D3CB02C01A5241830A8B4201D395
:102240008B02C01A5241430A8B4201D34B02C01A7F
:102250005241030A8B4201D30B02C01A5241CDD224
:10226000C3098B4201D3CB01C01A524183098B426F
:1022700001D38B01C01A524143098B4201D34B0158
:10228000C01A524103098B4201D30B01C01A5241BB
:10229000C3088B4201D3CB00C01A524183088B4242
:1022A00001D38B00C01A524143088B4201D34B002B
:1022B000C01A5241411A00D201465241104670479D
:1022C0005DE0CA0F00D04942031000D340425340A2
:1022D00000229C4603098B422DD3030A8B4212D362
:1022E000FC22890112BA030A8B420CD38901921194
:1022F0008B4208D3890192118B4204D389013AD0D1
:10230000921100E08909C3098B4201D3CB01C01AA5
:10231000524183098B4201D38B01C01A52414309B8
:102320008B4201D34B01C01A524103098B4201D3A6
:102330000B01C01A5241C3088B4201D3CB00C01A13
:10234000524183088B4201D38B00C01A5241D9D22B
:1023500043088B4201D34B00C01A5241411A00D2AC
:102360000146634652415B10104601D34042002BA8
:1023700000D54942704763465B1000D3404201B527
:10238000002000F00BF802BD0029F8D003B5FFF7DC
:1023900015FF0EBC4243891A1847C0467047C04615
:1023A00030B50024944208D0035D651C0C5DA34247
:1023B00001D0181B02E02C1CF4E7002030BD0023E4
:1023C00010B5934203D0CC5CC4540133F9E710BD7F
:1023D0000FB40B4B13B51C68002C05D0A369002B60
:1023E00002D1201C00F050F805AB201CA168049A13
:1023F000019300F05BF916BC08BC04B01847C04656
:102400006028002008B5024900F0AEF808BDC046BB
:102410008D2F0200002310B5041C0360436083600D
:1024200081814366C281036143618361191C082273
:102430005C30FAF7EDFE054B24626362044BA36245
:10244000044BE362044B236310BDC046FD2B020026
:10245000252C02005D2C0200892C020070B5682535
:102460004B1E5D430E1C291C743100F09FF8041EA6
:1024700008D000212A1C016046600C30A060683240
:10248000FAF7C6FE201C70BD836913B5002B28D156
:102490008364C3640365134B134A1B688262019310
:1024A000984201D101238361041C00F01FF8606091
:1024B000201C00F01BF8A060201C00F017F804217D
:1024C000E06000226068FFF7A5FFA06809210122F3
:1024D000FFF7A0FFE06812210222FFF79BFF012314
:1024E000A36113BD4832020005240200F8B51D4B5C
:1024F000061C1D68AB69002B02D1281CFFF7C4FF26
:102500004835AC686B68013B05D40C22A75E002FF0
:1025100010D06834F7E72B68002B06D1301C04215B
:10252000FFF79CFF2860002801D02D68E9E70C2305
:10253000336016E00123201C5B42E3810233A38158
:1025400067662760A760676027616761A7615C3085
:10255000391C0822FAF75CFE201C6763A763A76496
:10256000E764F8BD48320200F7B5041C071C0026DA
:1025700001914834002C16D06368A5680093009B35
:10258000013B00930DD4AB89012B08D90E22AB5E21
:10259000013304D0381C291C019B98470643683539
:1025A000EDE72468E6E7301CFEBD0000032370B5AC
:1025B000CC1C9C430834051C0C2C01D20C2405E0D7
:1025C000002C03DA0C2300202B6042E08C42F9D36C
:1025D000204A1368101C191C002913D00A68121B0A
:1025E0000DD40B2A02D90A608B181FE08B4202D14E
:1025F0005A6802601BE04A685A600B1C17E00B1C0B
:102600004968E9E7144E3368002B03D1281C00F019
:10261000E3FA3060281C211C00F0DEFA031C421C87
:10262000D0D00322C61C964386420AD11C60181CD7
:1026300007210B301A1D8843821A0AD05142995043
:1026400007E0311A281C00F0C7FA431CBAD0331C2B
:10265000ECE770BD5C2F0020582F0020936810B568
:10266000013B9360002B05DA9469A34208DBCBB2EF
:102670000A2B05D01368581C10601970C8B201E00D
:1026800000F008FB10BDF8B5061C0F1C141CD51873
:10269000AC4208D02178301C3A1CFFF7DFFF013430
:1026A000431CF5D100E00020F8BD0000F0B59FB05C
:1026B000061C0F1C02920593002804D08369002B8E
:1026C00001D1FFF7E1FE794B9F4201D1776808E025
:1026D000774B9F4201D1B76803E0764B9F4200D110
:1026E000F768BB891B070AD53B69002B07D000237D
:1026F00006AD6B6120336B761033AB763DE0301C5A
:10270000391C00F033FB0028F1D001204042CAE020
:10271000059A111D12680591002A7EDB0992013489
:1027200023782E2B00D189E021786348032200F022
:10273000C5FC002808D0604B0134C01A40238340F8
:10274000181C2B68184328602178631C5B480622FC
:102750000293297600F0B2FC002800D191E0584B9A
:10276000002B00D084E00722059B073393430833F6
:1027700005936B69039A9B186B61029C2378002B6D
:1027800004D1029BE31A049311D003E0252BF8D067
:102790000134F3E7049B301C391C029AFFF773FFE6
:1027A000431C7BD06A69049B944663446B61237825
:1027B000002B73D00122002352426A6002A95432D6
:1027C000521801342B60EB60AB601370AB6521785D
:1027D0003C48052200F072FC002809D0394B013436
:1027E000C01A01238340181C2B6818432860EEE7A9
:1027F0002B68DA0604D55322202102A81218117082
:102800001A0704D553222B2102A81218117022781E
:102810002A2A00D17CE7099B05E05242EA600222A5
:1028200013432B607BE72278303A092A04D80A2127
:102830004B4301349B18F6E7099371E763782A2B21
:1028400009D1059B02341A1D1B680592002B0DDA75
:1028500001235B420AE0002301342278303A092A3E
:1028600004D80A214B4301349B18F6E707935BE732
:1028700005AB0093301C291C3A1C134B00E000BF31
:1028800007E005AB0093301C291C3A1C0E4B00F0EE
:102890008BF80390039B013300D06AE7BB895B068A
:1028A00000D532E70B981FB0F0BDC0460C350200D2
:1028B0002C3502004C3502007235020076350200DC
:1028C000000000006C35020087260200F7B5171CD7
:1028D00001930A698B6800900C1C934200DA131C68
:1028E000221C3B6043321278002A01D001333B6046
:1028F00023689B0602D53B6802333B6006252368AC
:102900001D401ED0231C43331B785A1E934122685E
:1029100092061CD53020E1184031C870211C5A1C89
:1029200045310978A21840320233D1700FE0221CE1
:102930000123009801991932089EB047431C0ED01C
:102940000135E3683A689B1A9D42F0DBDAE7221C06
:10295000009801994332089DA847431C02D10120E9
:10296000404220E006232068E1683A6803400025E1
:10297000042B03D18D1AEB43DB171D40A36822699A
:10298000934201DD9B1AED180027AF420ADA221CA0
:102990000123009801991A32089EB047431CDED0EB
:1029A0000137F2E70020FEBDF0B58BB006920A1C9D
:1029B00043320793059004920A7E0C1C109B6E2AEA
:1029C00000D1A8E011D8632A22D009D8002A00D16A
:1029D000B2E0582A00D0C2E045310A707C4A4FE08C
:1029E000642A1DD0692A1BD0B9E0732A00D1A7E060
:1029F00009D86F2A29D0702A00D0B0E020220968B7
:102A00000A43226037E0752A1FD0782A33D0A6E027
:102A10000E1C1A684236111D196013683370A1E04C
:102A200021681A68080606D4490604D5111D1960E4
:102A30000023D55E02E0111D19601568002D3BDAF8
:102A40002D23049A6D42137036E021681A68080637
:102A500006D4490604D51568111D1960ADB202E00F
:102A6000111D196015685A4B227E03930A276F2A9D
:102A70001DD108271BE0221C782145321170554AD0
:102A800019680392081D226818600D68100602D4A8
:102A9000500600D5ADB2D30702D520231A432260D9
:102AA0001027002D03D1202322689A432260231C83
:102AB000002243331A7002E00A27454B03936368F0
:102AC000A360002B03DB0422216891432160002DC9
