:020000021000EC
:10800000004000204DDB010095DB010097DB010003
:108010000000000000000000000000000000000060
:1080200000000000000000000000000099DB0100DB
:1080300000000000000000009BDB01009DDB010050
:108040009FDB01009FDB01001D9201009FDB01000F
:108050009FDB010000000000618E01009FDB01003A
:108060009FDB01009FDB01009FDB01009FDB010024
:108070009FDB01009FDB01009FDB01009FDB010014
:108080009FDB0100B58201009FDB01009FDB010047
:10809000958301009FDB010015C401009FDB0100F7
:1080A0009FDB01009FDB01000000000000000000DA
:1080B00000000000000000000000000000000000C0
:1080C00010B5064C2378002B07D1054B002B02D0AE
:1080D000044800E000BF0123237010BD8020002071
:1080E0000000000094E0010008B5084B002B03D00D
:1080F0000748084900E000BF07480368002B00D18B
:1081000008BD064B002BFBD09847F9E700000000A4
:1081100094E0010084200020802000200000000066
:10812000164B002B00D1144B9D46402292029A1A06
:10813000924600218B460F461348144A121A00F04B
:1081400067F80F4B002B00D098470E4B002B00D048
:1081500098470020002104000D000D48002802D09F
:108160000C4800E000BF00F02DF82000290001F0CD
:108170004BFC00F011F8C046000008000040002051
:10818000000000000000000080200020E027002008
:108190000000000000000000084B10B5041C002B7C
:1081A00002D0002100E000BF054B1868836A002B55
:1081B00000D09847201C00F033F8C04600000000B3
:1081C00000DF01000E4B70B500251E1C0D4CE41A9B
:1081D000A410A54204D0AB00F35898470135F8E746
:1081E00005F080FE084B00251E1C084CE41AA41064
:1081F000A54204D0AB00F35898470135F8E770BDAD
:108200007820002078200020782000207C2000208A
:10821000031C8218934202D019700133FAE77047A9
:10822000FEE7C046BFF34F8F024A034BDA60BFF34D
:108230004F8FFEE70400FA0500ED00E08021802367
:10824000184A8902D1508022D221174B520289004C
:108250005A5040395A5001222F205A600138C046E6
:10826000C046C046C046C046C046C046C046C046DE
:10827000C046C046C046F1D19A6000230B4A2F2069
:1082800013600138C046C046C046C046C046C0461E
:10829000C046C046C046C046C046C046F1D1044AAA
:1082A0001370704700E100E0001001409C200020A6
:1082B000BC200020A021F0B5002347462C4A4900ED
:1082C00080B453500431535004315350043153504F
:1082D0004C39535004315350264B1B68002B37D078
:1082E0002549002652582549254F0C68141B0022A9
:1082F0002402240A904602E0002D1AD02B1C1A6892
:10830000A24216D8A41AB6181A7CDD69002AF3D046
:10831000424699691A745A693B68002B1BD0101C9D
:1083200098470028E8D000210022FFF77BFF002DAE
:10833000E4D1144B14491A780B789A420ED0134AA0
:108340009B009E5080218023114A49035B00D1503D
:1083500004BC9046F0BD081C9047CDE70132D3B273
:10836000022B01D00B70EAE700230B70E7E7C04651
:1083700000100140A0200020040500009C200020E7
:10838000A4200020B0200020B1200020B420002034
:1083900000E100E0F0B55F4656464D464446F0B475
:1083A000B44BB54A1B68B54989B001930978137875
:1083B000994200D1B1E10133DBB2022B00D100239D
:1083C0001370AF4A9B009B58AA4A9946019B4B44A5
:1083D0001B021B0A136001230493AA4B00241B6891
:1083E0009B46A94BD8461B781A1C0293A74B944670
:1083F00007931B6803939F4B1B680693A44B1B7842
:1084000005935B466646013EF2B29446FF2A4FD082
:108410006246D000039A9246504401784578A942BA
:10842000F0D04A005218877801314668C9B27F1AE5
:10843000B2467E1EB741D2007F425244394017787F
:10844000022F0AD0032FEAD1002BE8D01C74DB697D
:10845000002BFBD145789846E1E75668002B25D0E4
:108460009E421AD01F1C00E0171CFA69002AD6D0C1
:108470009642F9D1321C3D1CBE4200D1EBE0176898
:10848000D269EA61002A06D013689A4657441760F9
:1084900045784346C3E74578C1E7DE691A1C002EDC
:1084A00000D1DDE0B046331C151CE8E70023B6E739
:1084B0006946774A097D181C11706E4A0699039324
:1084C000116041466F4A1160049A002A00D028E1E9
:1084D0005B461B1A5A1E93410025DBB20493079B8F
:1084E00000271B68039E0693624B1B689C46654BE6
:1084F0001B689A46664B1B780593664B01930123D4
:108500009846029B013BDBB20293FF2B00D18FE028
:10851000069ADB0093469B44002D27D06968AB6820
:10852000281CED696246019C8A1A1202120AA242B4
:1085300050D8D31842460360476087600274C76111
:10854000002E56D03168341C994204D35FE0116884
:10855000994263D2141CE2695B1A002AF7D10360C6
:10856000331CC261E0611E1C002DD7D15B465A4608
:108570001B7852789A42C4D0594649685A008946B5
:108580005946D2180133DBB20B708978D2004A44C5
:1085900099424AD011785068331C0129E3D1037CF9
:1085A00099464946331C0029DDD191684160D36862
:1085B00083601469C46052698261059A002AB1D04F
:1085C0004A46002142606246019C8A1A1202120A3F
:1085D000A242AED96246511A0902090A99420CD246
:1085E00042465B1A0360476087600274C761002ED1
:1085F000A8D1031C82461E1CB6E7434607604760AD
:1086000087600374C761002EF3D000233168CB1A52
:108610003360031CC66182461E1CA5E7C91A11609F
:108620000360C261331CE0619DE75B461D70B1E7EA
:108630005246144B1A60039BB3422FD1049B002B6C
:108640002CD10023124A137009B03CBC90469946C5
:10865000A246AB46F0BDDE693A1C002E00D021E7F1
:1086600001250D4B9D600023069601369846151C8A
:10867000059604E79C200020B0200020B1200020B7
:10868000B4200020A0200020A8200020AC20002042
:10869000B2200020FEFF7F0000100140002E63D0BA
:1086A000484B49493568CC58484B494E1B6830788F
:1086B000E21A1202120A03329046002861D04246A2
:1086C000AA4200D22A1CA820D21812023E49130A3C
:1086D000C0003C4D0B504A591B1B121B1202120AC0
:1086E0001B0203321B0A9A42ABD94B590B502F2065
:1086F0000138C046C046C046C046C046C046C04617
:10870000C046C046C046C046C046F1D18021802345
:10871000304A89025B00D15093E7002399460493C5
:108720005BE60025002100244846464613E01A680F
:1087300082421CD8DE68801A89181C60DF69002E0E
:1087400007D0DD611D1C019A9E608A181202120A70
:108750005A603B1C3E1C002BE9D11F4B1E600023BE
:10876000039301330493BAE6FFF768FD69E7814696
:10877000194903930E604946521A1A600123049363
:10878000ADE68020D1274002BF00C851403FC8510C
:10879000C02280270F48BF02520087500760012780
:1087A0002F200F600138C046C046C046C046C046B4
:1087B000C046C046C046C046C046C046C046F1D1CD
:1087C00037707CE704050000001001409C20002069
:1087D000BC20002000E100E0A0200020F8B54F46BA
:1087E0004646C0B40326351C80460F1C141C99460F
:1087F00015400720002D03D00CBC90469946F8BDCB
:10880000002A44D0FFF71AFD4A46224B80201A6006
:10881000221C214B18321E70204B62601C607B00B2
:10882000DB19DB00D218E260D318C0226361257027
:108830006570A77025726572A77225746574A77438
:10884000C524FF21164B40031D60164B52001D70BE
:10885000154BA4001D70154B98501A598A433F3987
:108860000A431A51A122186040461149D20088508B
:10887000C42080001C580F4A2240C02424022243F6
:108880001A500D4B0020CA580C4B1A60B4E7034B2A
:108890001A60B1E7A4200020A8200020AC2000200E
:1088A000A0200020B0200020B120002000E100E046
:1088B00000100140FF00FFFF040500009C20002085
:1088C00010B50B4B1B68002B0BD0002A07D00028DB
:1088D00005D0036808201C7C002C04D010BD0720A4
:1088E000FCE70820FAE759745A610020F6E7C04611
:1088F000AC200020F0B5474680B4374B1C68002CF4
:1089000008D0002806D00723042905D8181C04BC69
:108910009046F0BD0823F9E74369002BFAD0002503
:10892000437CA846012B2ED02C4B10255B68DB0521
:10893000DB0D2CD164196378A5785E1CF6B2AD1BF3
:108940006F1EBD416D422E402578B5421DD05D00A1
:10895000EB186568DB00ED180423002DD6D0033B2F
:108960002B7068601E4B1F48C358E960AB604346DC
:1089700080212B6180236A611B4A5B00490366707A
:10898000D1500023C2E78846CEE70423BEE7103B60
:10899000DEB275B2002D13DBAD08134EC035AD004D
:1089A000AD5903263340DB00DD402B069B0FDBB2C5
:1089B0000025012BBED00835032BBBD00835B9E705
:1089C0000F230A4D3340AC46083B9B089B00634491
:1089D0005D680323E6E7C046AC20002000ED00E020
:1089E000040500000010014000E100E018ED00E087
:1089F00030B52D4A031C12680820002A2DD0002B08
:108A00002BD05969002928D0002119742749102535
:108A10004968C905C90D23D155196A78A978541C2C
:108A2000E4B2091B481E814149420C402978A14209
:108A300014D051008A186968D2008C466244042020
:108A4000002A0AD002215360117080238021002067
:108A5000174A49035B006C70D15030BD0420FCE71D
:108A60001039CCB260B2002813DB8008104CC03043
:108A70008000005903242140C900C8400106890F25
:108A8000C9B200250129C7D008350329C4D008354B
:108A9000C2E70F2107482140844608398908890028
:108AA000614448680321E6E7AC20002000ED00E0C7
:108AB00000E100E018ED00E0F0B5002820DBFF2722
:108AC0001B4B03229C463B1C8408C026C0B20240BC
:108AD000D2009340A4006444B600A5599D438B0185
:108AE0003B409340191C2943A1511F2318401E3BB2
:108AF0008340C022181C0E4B520098501860F0BDE5
:108B0000FF260C4A03249446321C0F23C0B20440B3
:108B1000E400A2400340083B9B089B006344DD69DE
:108B200095438A013240A240111C2943D961DCE7F8
:108B300000E100E000ED00E038B54425164C0820C7
:108B4000635D002B00D038BD4022FF21013BA354C0
:108B50000132A1540132A354236201326362A36241
:108B6000E36223636363A363E3630238FC39A354C2
:108B700023606360A360E36023616361A361E361D9
:108B8000FFF79AFF8021C123044A9B000906D150B8
:108B9000012300206355D6E7C0200020006000407C
:108BA0004423034AD05C431E9841C0B27047C0467C
:108BB000C0200020F0B5474680B4524C0825231849
:108BC00020331E787F2E03D8281C04BC9046F0BDAD
:108BD000CD78AC46002D36D02568013500D187E030
:108BE000042300269846731C9D006759013733D033
:108BF000B31C984525D99D00675901372CD0F31C2B
:108C000098451ED99D006759013725D0331D9845D9
:108C100017D99D00675901371ED0731D984510D98B
:108C20009D006759013717D0B31D984509D99D009C
:108C30006759013710D00736B04502D9E3690133CF
:108C400008D00425C0E72569013555D0082304263E
:108C50009846C8E707231C25625162462718DEB2F2
:108C600020373E70002A02D1E3183C3318708B780D
:108C7000002B15D1031CA0254A78C133FF33920085
:108C80009B00ED055A51CB78002B15D176B2A41973
:108C90003C340B7822789B0113432370002593E723
:108CA000A022D2059446E025022783006344ED000C
:108CB0005A59BA435A51E6E7A22476B2124BB6008B
:108CC000F318E4000A781D5910490002294019518F
:108CD000F82149010840061CC0211004021C301C68
:108CE00089021D590A4010432843185100256BE79B
:108CF000002622601E70BAE7042522611D702E1C1A
:108D00002B1CB1E7C020002000600040FFE0FCFF0A
:108D1000F0B5264D2C182034227853B2032B18DDE1
:108D2000EB183C331B789B09032B32D0012B39D035
:108D3000C025AD02A023DB059C46E02380006044F3
:108D4000DB00C4581A492140C150C2582A43C250BE
:108D5000F0BD032AFCD81748A227844601269A00B2
:108D60006244FF00D0593043D0511A1C604600279E
:108D70004032920092B217500029E9D00022A25648
:108D800092005259002AE3D0C1229E4092008650A0
:108D9000DEE7A223A022DB00D205D25801238340C4
:108DA0001A42C5D18025AD02C4E7C046C0200020CC
:108DB000FFFFFCFF00600040F0B526490B18203390
:108DC0001B785AB2032A23DCDBB2032B2ED8224CA9
:108DD000A227A446012495006544FF00EE599B009C
:108DE000A643EE51C22694406546B600AC5100241D
:108DF0004532FF3292005451021CA0240225C13298
:108E0000FF329200E4051551012252425A501CE0F3
:108E1000A024E405A446E02482006244E40016593C
:108E20000E4DDBB23540155115591551021CA024C9
:108E30000225C132FF329200E405155101229C0047
:108E4000CB1852423C330A511A70FF2308182030C5
:108E50000370F0BDC020002000600040FFFFFCFF59
:108E6000F8B54F464646C0B4C74A00241368012BE4
:108E700000D1CBE0C54B1A68012A00D1D4E0C44B25
:108E80001A68012A00D1DFE0C24B1A68012A00D11A
:108E9000EAE0C14B00251A68012A00D1F5E023075A
:108EA0000BD0E30700D506E1A30700D512E1630765
:108EB00000D51DE1230700D5F1E0002C03DB0CBC3D
:108EC00090469946F8BD4023B44CE15C4BB2013367
:108ED00021D0C9B2C023081C9843231820331B7823
:108EE0005BB29B001E59002E15D0A022D2059446DD
:108EF00083009C44E0236246DB00D3580122C02754
:108F00008240BF023B4089091B0C154200D106E19B
:108F1000022B00D160E14123E15C4BB2013321D04F
:108F2000C9B2C023081C9843231820331B785BB2B6
:108F30009B001E59002E15D0A022D2059446830016
:108F40009C44E0236246DB00D3580122C0278240C4
:108F5000BF023B4089091B0C154200D1D8E0022B0F
:108F600000D1FDE04223E15C4BB2013321D0C9B214
:108F7000C023081C9843231820331B785BB29B0046
:108F80001E59002E15D0A022D205944683009C4481
:108F9000E0236246DB00D3580122C0278240BF0293
:108FA0003B4089091B0C154200D1D2E0022B00D1B5
:108FB000FEE04323E15C4BB2013300D17FE7C9B24D
:108FC000C023081C9843231820331B785BB29B00F6
:108FD0001E59002E00D172E7A0230124DB059C4618
:108FE000E023C027844082006244DB00D358BF02E4
:108FF0003B4089091B0C254200D197E0022B00D091
:109000005DE7032900D199E0B04758E7C1216448E2
:10901000890041580B4200D12CE75C4B14601A6860
:109020000134012A00D02AE7C1225D499200895803
:1090300002220A4200D122E700211960544B144356
:109040001A68012A00D01FE7C122554992008958A9
:1090500004220A4200D117E7002119604D4B144346
:109060001A68012A00D014E7C1224D49920089589C
:1090700008220A4200D10CE700211960464B144334
:109080001A680025012A00D009E71D6080231B060D
:109090001C43A022A223D205DB00D558FFE6404A9C
:1090A000404BD058D1583D4BC0048903C00E890FA6
:1090B000DB68984701E7A223394ADB00D058D15832
:1090C000364BC00489031B68C00E890F9847A3075D
:1090D00000D4ECE6344B324AD058D1582F4BC00460
:1090E00089035B68C00E890F9847630700D4E1E6E7
:1090F000A3232B4ADB00D058D158284BC004890346
:109100009B68C00E890F9847230700D4D5E6C6E7B1
:10911000032B00D026E7032972D0B04722E7032BA8
:1091200000D0F8E6032973D0B047F4E6032B00D053
:10913000C5E6032900D067E78027BF02E023DB00F4
:10914000D5581A4C2C40D450D4582743D750B04748
:10915000B5E6032B00D02CE7032955D0B04728E70C
:109160000329DAD1B946E0236246DB00D2589046A3
:1091700047460E4A3A406746FA50FA584F46174358
:109180006246D750B047EDE6006100400461004000
:10919000086100400C6100407C610040C02000205C
:1091A000006000401C05000014050000FFFFFCFFEC
:1091B0000329D3D1B946E0236246DB00D25890465A
:1091C0004746154A3A406746FA50FA584F46174301
:1091D0006246D750B047ECE60329A5D1B946E02353
:1091E0006246DB00D258904647460B4A3A406746F3
:1091F000FA50FA584F4617436246D750B0478AE6AE
:1092000080239B029946AEE780239B029946D2E7D2
:1092100080239B029946E2E7FFFFFCFFC12210B5C5
:10922000514B92009A5884B092054CD54F4A116820
:10923000002948D0002111608121C22289009200BA
:1092400099504B4B5A7D002A02D10121494A1160A5
:10925000022269460A7090214348C9004258425090
:1092600069460392DA7C68460A72DA6819680192E4
:109270000022DA745B6898473F4A1368002B10D0CD
:109280003B4B188A997C814251D9002111601A8A7E
:109290009968895C1A8A013292B21A82374B324A33
:1092A000D150374B1A68002A0BD000221A60304B7D
:1092B0005A7D002A02D001212B4A1160DA7C002A53
:1092C00044D104B010BDC123274A9B00D3585B078B
:1092D000D2D52C4B19680029CED00021A3241960C7
:1092E000234BE400187DD96812590A541A7DD87CA2
:1092F0000132D2B21A751A7D9042BDD15A7D002A30
:1093000002D101201B4A10608124C2221648A40009
:10931000920084506C461A7D012022720022207037
:109320000191DA74196868465B689847A4E70020E1
:1093300010600029B5D06A46107011729A6898744E
:10934000196801925B6868469847AAE768461A7DE3
:1093500001210272DA680170019200221968DA7440
:109360005B689847ADE7C0460020004024210040DC
:1093700008210020042000401C2100401C050000A2
:10938000442100400821004076DF704778DF7047B5
:109390007ADF70477CDF7047A0DF7047A2DF70473D
:1093A000A5DF7047A6DF704760DF704763DF704757
:1093B0003CDF704748DF704712DF7047002070477E
:1093C00008B500210022FEF72DFF08BD10B5041CD2
:1093D00004F036F8201C01F06BFB10BD08B50378D3
:1093E000002B04D1024B3B211888FFF7CDFF08BDAD
:1093F0006820002008B500280BD1A0238021074A4F
:10940000DB059A580903120304D5054A9950FFF762
:10941000CFFF08BDA122D2009950F8E70405000053
:109420000C05000010B5041C84B002F085FB201C64
:1094300001F054FF2388112B35D0502B14D0102B62
:1094400004D0201C01F0DCFA04B010BD8021A1235F
:10945000A022DB00D205C902D150A2881B4B1A8082
:1094600001221B4B1A70ECE7042302AA138000238D
:10947000538001AB5360174BE08899898142E0D15A
:109480001888FFF78DFF019B134A80211360134A50
:1094900089031360A023124ADB059A58920210D563
:1094A000104A9950CDE78021A0220E4BD205C90267
:1094B000D1500122054B52421A800022044B1A70EF
:1094C000BFE7A122D2009950BBE7C0466820002028
:1094D000A02300208C230020082200209C210020B3
:1094E000040500000C050000F0B5184D80212B6824
:1094F000174A01332B60A023DB059A5887B0C903B4
:1095000052021FD4A122D2009950124E124B32881F
:109510009A4215D06B469F1D042302AC0021201CEB
:1095200010223B80FEF774FEB3883088238001232D
:10953000A3700023211CA380A760E560FFF732FF22
:1095400007B0F0BD054A9950DFE7C0469C210020D6
:10955000040500008C230020FFFF00000C05000024
:10956000F0B55F4656464D4644460023F0B4ABB0D6
:109570001AAF381C3B70FFF71FFF3B78002B00D160
:10958000A7E1A022E9210323D205C9005350D749FE
:10959000535004315350D649535004315350022292
:1095A0003A7000227B70BA70FA70FFF7F9FA00285F
:1095B00001D1FFF7C1FA1020FFF7FEFBCD4A391C9D
:1095C0001020FFF7F7FA10200121FFF7A1FB002080
:1095D0000421C94A0023FFF701F9002803D0002124
:1095E0000022FEF71FFE0121C44AC548FFF768F9B3
:1095F000012600210822381CFEF70AFE01223B78D2
:10960000381C334392463B70FFF7CEFEBD4802F054
:10961000EDFEBD4802F0F4FE30226B469B18524628
:109620001A7003F0F9FF0CA802F07AF96D200021FE
:1096300005226844FEF7ECFD02227B799146334314
:10964000DBB293431A3293430C221343DF221340BD
:109650007B710723BB710933FB71AC4B391C1A9327
:109660005346AB483B7102F001FA00210822381C36
:10967000FEF7CEFD30226B469B181B78213A9343B0
:109680003343904613400132134330216A46521847
:109690001370A04B0025181C9B4604F01BFC594678
:1096A00082B20CA8FFF776FE0020FFF76FFE502372
:1096B0003B8050337B80381CF033FB80BD80FFF74C
:1096C00067FE002138220CA80395049505950695A0
:1096D0000795089509950A950B95FEF799FD0021C8
:1096E0003822381CFEF794FD30226B469B184A4600
:1096F0001A7032226B469B18524633211A706A4602
:1097000006235218137040226B469B184A461A8053
:10971000524603AC22739622520022610F3AFF3A5E
:1097200062614A467C4B3A827B61221C1193009510
:109730007A4B391C0CA800F05FFF40220021381C36
:10974000FEF766FD5946381C01F01EFE3C224146DC
:10975000BB5C381C8B431E4343460E4001331E4303
:10976000BE543D230022FA5401F07EFB6C491022C6
:109770000CA804F0A6FB782200216A48FEF748FDF9
:109780000E21694B69440CA82380FFF70FFE674B3D
:10979000211C9A1C01209B46FFF7FEFD644B00260E
:1097A0009A46022398465F4C0F35624A7300D35A9B
:1097B000A11C23800CA8FFF7F9FD5A4B41469C469B
:1097C0003201921B9200624413790B4308210B4330
:1097D0001371131C20331978A943081C0121084375
:1097E0002840011C10200143012019705978A94319
:1097F0000143102029400143597099788946062178
:109800008C46494660468143404601439970202179
:109810008946A14449461020A16111790143117183
:109820000121DA78AA430A4310212A400A43012180
:10983000DA701A79AA431143102229401143221CDD
:10984000197161462332A462E2625A798A43414621
:109850000A435A715246384B211D9B5DA3862386CD
:10986000B300D358221CA3635B465888F30004332B
:1098700028325B44FFF792FD3C34012E27D10021B2
:10988000381C1C22FEF7C4FCA02292027A60F0224F
:1098900000231203BA6003221A93FB813B74274B07
:1098A000381C7B61264B3A73BB6101F0DBFC8021E5
:1098B000002209022348FFF71DF8032000F040FFB3
:1098C0002BB03CBC90469946A246AB46F0BD012663
:1098D0006BE700201C49482202F062FD002800D1FD
:1098E0004FE600210022FEF79DFC4AE64C070000EF
:1098F000540700004D9901000C220020E99401005A
:109900001CDF010025940100CD930100BD930100EF
:109910002021002020DF010060200020F5930100BD
:1099200004DF0100242100202C1500008C230020DE
:109930006C20002018DF010014DF0100DD9301001E
:10994000C1930100E8210020A0210020F0B5A9B0BA
:1099500000246B46DC72102801D029B0F0BD0B2327
:109960006B44181CFFF728FD6B46DB7A002B3DD0BB
:109970000CAE1AAF00213822301C039404940594D5
:1099800006940794089409940A940B94FEF740FCFB
:1099900000213822381CFEF73BFC0121062202235D
:1099A00003ADB17029732C31FF31F2702961124A75
:1099B0000F39FF3933703382726169613B827A619A
:1099C000301C0094391C2A1C0C4B00F015FE03209F
:1099D00000F0B6FEA0238021094ADB059A5849030E
:1099E000D20206D4A122D2009950B6E7FFF7B8FD03
:1099F000F0E7044A9950B0E760200020F593010099
:109A0000040500000C05000008B5FFF7A9FDFFF7ED
:109A1000D1FCFCE771DF704772DF704779DF704778
:109A20007DDF704765DF7047F0B50488051C83B0A3
:109A30000720012C04D01488A01C984202D90C20C5
:109A400003B0F0BD2E78012E04D16E78023636199F
:109A5000B342F4D3023B1C1B6B460F1CA4B2081884
:109A6000991D161CDC80FFF7DBFF0028E8D12B785E
:109A7000022B18D0012B11D0231C0821FE2BDED87D
:109A80003288581CB85432880020013292B2328099
:109A9000B954328801329B183380D1E76B789C42ED
:109AA000EBD2231CE9E76B46DB8809219C42E5D217
:109AB000231CE2E7F0B55F46564644464D46F0B4F7
:109AC00085B09A460EAB80CB061C1B8800919B4646
:109AD0003B88904601930388002B5BD00023994676
:109AE00002AB0024DD1C03E033880134A3422ADDED
:109AF0007368A1009C460422614403A804F0E1F9C4
:109B000003A8291C0022FFF78DFF002826D12B78FF
:109B10004345E9D14B46002B27D043463A88D3181A
:109B20005B4539DC524403A8291CFFF77BFF002862
:109B300014D13B882A780134D3183B8001239946FD
:109B40003388A342D4DC4B46002B23D03B88019AB8
:109B5000013B9B1A9BB20C20FF2B18D905B03CBCD3
:109B600090469946A246AB46F0BD42463B889A18BD
:109B700002325A4510DC69465246013309789BB2DD
:109B80003B80D1543A88013292B23A80CAE7111C24
:109B9000524653540020E1E70C20DFE7F0B55F4662
:109BA00056464D464446031C0020F0B417881080EA
:109BB000586B87B0002800D16FE10478022F18D9C4
:109BC0000220112508701088013080B210800D54D9
:109BD0001088013080B210800C5414880134A4B273
:109BE0001480186B002800D177E0251C1235BD4287
:109BF00007D90C2007B03CBC90469946A246AB461C
:109C0000F0BD11250D551488013D0134A4B2148016
:109C10000D5514880134A4B21480C57B0D551488E9
:109C20000134A4B21480857B0D5514880134A4B28C
:109C30001480457B0D5514880134A4B21480057B33
:109C40000D5514880134A4B21480C57A0D551488BA
:109C50000134A4B21480857A0D5514880134A4B25D
:109C60001480457A0D5514880134A4B21480057A05
:109C70000D5514880134A4B21480C5790D5514888B
:109C80000134A4B2148085790D5514880134A4B22E
:109C9000148045790D5514880134A4B214800579D7
:109CA0000D5514880134A4B21480C5780D5514885C
:109CB0000134A4B2148085780D5514880134A4B2FF
:109CC000148045780D5514880134A4B214800078AE
:109CD000085514880134A4B214802E201D5C002D78
:109CE00000D0DCE01E1C2D23F35C151C8846002BE5
:109CF00000D0F7E0B378002B00D024E1F378002BFC
:109D000016D0E21CBA4200D973E70222414640460F
:109D10000A5501212A88013292B22A8081542A8868
:109D2000013292B22A8083542C880134A4B22C8050
:109D30007368002B16D01A78E31CBB4200D958E791
:109D40000223414640460B550A212B8801339BB222
:109D50002B80C1542B8801339BB22B80C2542B889B
:109D600001332B803389002B00D010E1338A002B84
:109D700000D076E1338B002B00D08BE1336A002BCF
:109D80004AD02A880C20911DB94200D932E719889F
:109D900005388B46052900D82CE7CC4C5C44A4B28E
:109DA000A146CB4CA446A14500D823E75C88A24637
:109DB000052C00D81EE7C54C6946A146D1444C4647
:109DC000CC81CC89644500D814E7C24CA34504D0AB
:109DD000A24502D0D34500D90CE705214046815465
:109DE0002A880D31013292B22A8081542A880132A8
:109DF00092B22A80198842441170090A51702A8847
:109E0000023292B22A805988131C43441970090AFD
:109E100059702B8802332B80746A002C32D0A288B0
:109E20002988131D5B180C20BB4200D9E2E6931C65
:109E3000FE2B00D9DEE6434603325A54FF22414648
:109E40002B8801339BB22B80CA542B8801339BB2E1
:109E50002B80228843441A70120A5A702B880233CE
:109E60009BB22B80A288002A0CD0A168053800295B
:109E700000D1BFE64344181C04F023F82A88A388C5
:109E8000D3182B802C23F35C002B00D098E0337880
:109E9000002B00D0DEE00020ACE60024A1E6E61CAA
:109EA0002238BE4200D9A5E602260E551C24108891
:109EB000013080B210800C541088013080B21080C4
:109EC000022D00D10FE100D806E1032D00D108E1F9
:109ED000042D00D0F7E003240C5414880134A4B2FC
:109EE0001480FFE609340C20BC4200D982E604A8A5
:109EF000FFF790FD002800D07CE6414608222B8821
:109F0000CA542B88133201339BB22B80CA5402AB44
:109F10009C4609212888153A013080B22880614486
:109F2000404403F0CEFF2B8802AA0633127A9BB27C
:109F30002B80002A00D001224146CA542C880134CB
:109F4000A4B22C80D6E604340C20BC4200D951E6E1
:109F500004A8FFF763FD002800D04BE6032241462A
:109F60002B88CA542B88163201339BB22B80CA54DB
:109F70002B8802AA01339BB212892B8043441A70AA
:109F8000120A5A702C880234A4B22C80B6E6341C13
:109F9000083400950197201C022102224346FFF756
:109FA00089FD002800D025E600950197201C062198
:109FB00010224346FFF77EFD002800D01AE6D5E6C2
:109FC000B46A002C00D17EE0A3880233FE2B00D9B6
:109FD0000FE60022914616329246163228889346A2
:109FE0000BE04B465C00B36A4C449C46A4006444BE
:109FF000A3880233FE2B00D9FBE5424651460133CC
:10A0000013542B8801339BB22B80D1542B880133FE
:10A010009BB22B80228843441A70120A5A702888F7
:10A02000023080B22880A288002A0AD0A1680029C4
:10A0300049D0404403F045FF2888A388C01880B267
:10A0400028804B460133DBB299465B46F35C4B45B7
:10A05000C7D81CE7301C41462A1C3B1CFFF7E4FC18
:10A06000C8E5341C103400950197201C03210222FE
:10A070004346FFF71FFD002800D0BBE50095019780
:10A08000201C072110224346FFF714FD002800D0B2
:10A09000B0E56FE6341C183400950197201C14219C
:10A0A00002224346FFF706FD002800D0A2E50095F6
:10A0B0000197201C152110224346FFF7FBFC0028C6
:10A0C00000D097E55AE6072094E5C0467FF3FFFFEE
:10A0D0007DF30000FFFF0000012DF4D100240C549B
:10A0E000FBE60E54F9E601240C54F6E6F0B54E46B4
:10A0F000574645461F23E0B496B002AA041C0E1C26
:10A10000D381002800D171E0C3785B0767D50023B5
:10A1100002AA9381436B002B00D13EE11B780222FF
:10A1200006ADAB7003230327052104202A700F32EC
:10A130006A7002AA9381226B002A3AD0112306ADDD
:10A14000EB55013B2B54D37B6B54907B4B1CE85459
:10A15000507B8B1CE854107BCB1CE854D07A0B1D31
:10A16000E854907A4B1DE854507A8B1DE854107ACD
:10A17000CB1DE854D0790133E85490790133E85489
:10A1800050790133E85410790133E854D078013321
:10A19000E85490780133E854013302A88381507861
:10A1A000E854013302A883811278EA540133838191
:10A1B0009BB22E22A25C002A00D0F1E12D22A25CEB
:10A1C000002A00D011E1A278002A00D03DE1E27817
:10A1D000002A35D0D91C1F2925D90C2000E00720E2
:10A1E00016B01CBC90469946A246F0BD002502ABB5
:10A1F0009881002E00D1D4E0F378002BEFD102AA91
:10A2000094460E236344301C0EA91A1CFFF7C6FCAB
:10A210000028E5D102AB9B7B0EAA02A9097B281C72
:10A22000FFF7FAFBDCE70220012706ADE854581CD3
:10A2300002339BB280B22F54EA548BB202AA9381AC
:10A240006268002A0FD01078DA1C1F2AC5D80221B4
:10A250000A2706ADE954591C02339BB289B26F54E8
:10A26000E85402AB9A812389002B00D09EE0238A18
:10A27000002B00D00AE1238B002B00D025E1236ABC
:10A28000002B43D002AA92890C20911D1F29A7D828
:10A290001888824655460720052DA1D9D24D554430
:10A2A000ADB2AC46D14DA846AC4599D95D88A9461A
:10A2B000052D00D894E7CC4D6F46AC46CC4465469E
:10A2C000FD81FD89454500D88AE7C94DAA4504D0DE
:10A2D000A94502D0CA4500D982E70520122706AD5C
:10A2E000A854501C80B22F54901C80B202AFB88189
:10A2F0001F88281807703F0A477004325B8892B2A3
:10A30000AD182B701B0A6B7002AB9981676A002F26
:10A310002FD0BB880C20991C02AB9B899A1C551826
:10A320001F2D00D95CE7FE2900D959E706AD0131A0
:10A33000E954591C89B2F330685492B202A98A8157
:10A340003988AA180433117098B2090A02AB517007
:10A350009881BA88002A0CD0B968002900D13EE75C
:10A36000281803F0AEFD02ABBA889B89D31802AA65
:10A3700093812C23E15C002900D0C5E006AD237851
:10A38000002B00D135E7201C291C05AA1F23FFF74D
:10A390004BFB002800D12CE722E7002702210120F7
:10A3A000C9E602ABDE810022002336E705AB271C9D
:10A3B00000931F23083706AD98460193381C0221ED
:10A3C00002222B1CFFF776FB002800D008E705AB24
:10A3D00000934346381C0193062110222B1CFFF7E3
:10A3E00069FB002800D0FBE641E709330C201F2B56
:10A3F00000D9F5E60EA8FFF70DFB002800D0EFE628
:10A40000082202AB9B8906ADEA545A1C023398B26B
:10A410001B2102AB9C4692B2A9541631988161442B
:10A420000622281803F04DFD302002AB02A99B89BB
:10A43000091809789A1D92B2002900D0012107332A
:10A44000A9549BB202AA9381BDE604330C201F2BB2
:10A4500000D9C5E60EA8FFF7E1FA002800D0BFE654
:10A460000322192102AB9B8906ADEA545A1C92B211
:10A47000A95402AA118E9A1C92B2AD180433297005
:10A480009BB2090A02AA69709381A0E605AB271C5A
:10A4900000931F23103706AD98460193381C032103
:10A4A00002222B1CFFF706FB002800D098E605AB24
:10A4B00000934346381C0193072110222B1CFFF701
:10A4C000F9FA002800D08BE6D5E605AB271C0093EF
:10A4D0001F23183706AD98460193381C1421022219
:10A4E0002B1CFFF7E7FA002800D079E605AB0093B4
:10A4F0004346381C0193152110222B1CFFF7DAFA72
:10A50000002800D06CE6BAE6A76A002F00D166E604
:10A51000BB880233FE2B00D95FE602AA9089002295
:10A520009046163291461632924606AD4A4601339F
:10A530002B54431C9BB2EA54831C9BB202AA938106
:10A540003A88EB181A700430120A5A7080B202ABC3
:10A550009881BA88002A0FD0B968002900D13EE658
:10A56000281803F0AEFC02AB9B89B888C01880B2F3
:10A5700002AB98815346E15C43460133DBB2984617
:10A580008B4200D3FBE643465F00A36A47449C46E8
:10A59000BF006744BB880233FE2BC7D90C201FE6DF
:10A5A00002201C27591C06AD89B2E8546F541918B3
:10A5B00089B282420CD010D9032A0CD0042A00D0D0
:10A5C0000DE603226A5403339BB202AA9381F5E598
:10A5D00001226A54F7E76854F5E7012A00D0FEE546
:10A5E00000226D182A70EEE77FF3FFFF7DF3000075
:10A5F000FFFF000073DF7047F8B5051C0E20002D2B
:10A6000000D17DE0002A00D17AE000200F1C3D49F6
:10A6100008703D490B6006993C4B19603C490B1C86
:10A6200013CA13C313CA13C313CA13C300210722C7
:10A630003848FDF7EDFD384B384A394E1A60394A33
:10A6400000219A60301C3822FDF7E2FD2B782A1C8D
:10A650003370AB781032B370EB78F3706B78737043
:10A66000331C103303CA03C3331C103A083303CA24
:10A6700003C3331C0832183303CA03C36B6A002BAD
:10A6800011D0294B294C7362696A9C600A881A8030
:10A6900088889880002806D000238A68D25CE2541B
:10A6A00001338342F9D1AB6A002B14D0204B2148EF
:10A6B000B362A96A98608C889C800A881A800023FB
:10A6C000002C05D08A68D25CC2540133A342F9D170
:10A6D0002C23EA5CF2542B6A002B06D0164B336213
:10A6E0002A6A5188598012881A806B68002B03D01F
:10A6F000124B73606B687360301C391CFFF7F6FCFB
:10A70000F8BDC046B8240020E82300201024002013
:10A710001C24002014240020642400204024002055
:10A72000A423002098240020DC230020EC23002018
:10A73000C024002074240020BC24002060240020B9
:10A74000F0B50024A34D89B0287001A8019403F04E
:10A75000E9F9082809D0002805D1019B002B05D074
:10A7600001229D4B1A7009B0F0BD01949B4F00214E
:10A77000381C0722FDF74CFD994E7378002B58D0FA
:10A780002B78012B05D0B278002A00D1FCE0022BF7
:10A790000FD1944A1268002A00D106E10121924BA0
:10A7A0000820197090472B78012B00D18DE0022BE7
:10A7B00049D0327B002A01D1032B65D0327E002A9A
:10A7C00001D1042B65D0874A1268002A03D0033BCD
:10A7D000012B00D899E00022844B1A7002AC182299
:10A7E000201C0021FDF714FD00232A7823706360EC
:10A7F0002372E360022A00D1BCE04FD9032A00D1C2
:10A80000A5E0042A00D09FE0B38B2382338C6382BF
:10A81000774B1A79002A00D1BCE03278002A04D0A4
:10A82000744A1278002A00D1C2E00422724B1A70D6
:10A830003CE0B378002BB6D02B78022BA9D0012BAB
:10A84000B7D102232B70B378002B17D07B78002B65
:10A8500000D0A8E0BB78002B00D0A4E0FB78002B50
:10A8600000D0A0E03B79002B00D09CE07B79002B4E
:10A8700000D098E0BB79002B00D094E003232B702C
:10A88000337B002B00D083E004232B70337E002B1E
:10A8900036D10023584A2B7013709CE7012A53D1FC
:10A8A00063822382544B676022701A70201CFFF76A
:10A8B000A1FE002800D056E74A4B1B68002B02D0AF
:10A8C0004D4A1078984700204DE77278002AB8D09A
:10A8D0007A78002A00D076E7BA78002A00D072E7AA
:10A8E000FA78002A00D06EE73A79002A00D06AE7A9
:10A8F0007A79002A00D066E7BA79002AA1D062E707
:10A90000384B1A68002A00D165E73378002B00D154
:10A9100061E7384B1B78002B00D05CE70121334BFB
:10A9200007201970904759E7E36004233348023247
:10A9300000212272C370FFF7D9FB002800D012E774
:10A9400005222D4B1A702A78002AB5D0AEE7B38ABB
:10A950006382338A2382264B1A79002A1FD03278E9
:10A96000002A03D0234A1278002ADDD00322224B8A
:10A970001A709BE7012323703389676063827368D1
:10A9800023821D4B1A7091E7022B00D011E775E767
:10A99000032318E71A7B002A00D03EE745E71A7B1D
:10A9A000002ADCD1E2E702230DE70F490A70FBE63B
:10A9B000E36004231148023200212272C370FFF7C2
:10A9C00095FB002800D0CEE606220B4B1A702A78A1
:10A9D000BAE7C046B8240020B9240020142400207F
:10A9E0001C240020E823002094240020952400202B
:10A9F000642400200C240020CC240020A423002068
:10AA000008B50388112B1DD0192B06D0102B00D0B0
:10AA100008BD8288204B1A80FAE78279002AF7D194
:10AA20001E4B1B78022B30D027D9032B1DD0042BB3
:10AA3000EED11B4B1A701B4B1B68002BE8D000207B
:10AA40009847E5E70022184B1A70134B82881B8841
:10AA50009A42DDD10120FFF773FE0028D8D0134BB6
:10AA60001B68002BD4D09847D2E70D4A04201370FE
:10AA7000FFF766FE0028F2D1CAE7012BC8D10220F9
:10AA8000FFF75EFE0028EAD1C2E70320FFF758FE79
:10AA90000028E4D1BCE7C04674200020B824002080
:10AAA000CC240020E82300200C24002010240020C7
:10AAB000F0B5023889B0012803D8A94C2378002BBF
:10AAC00001D109B0F0BD002501A82570019503F062
:10AAD00029F8082808D0002800D098E0019B002B16
:10AAE00003D001232370ECE701959E4F0021381C11
:10AAF0000722FDF78DFB9C4D6B78002B5CD09B4EA5
:10AB00003378012B00D1B6E0AA78002A00D10DE1FC
:10AB1000022B00D1AFE02A7B002A02D1032B00D107
:10AB2000B3E02A7E002A02D1042B00D1D9E0904A5A
:10AB30001268002A03D0033B012B00D8AFE00022AB
:10AB40008C4B1A7002AC1822201C0021FDF760FB10
:10AB500000233278237063602372E360022A00D1FD
:10AB6000C4E064D9032A00D1CAE0042A00D0B4E0CA
:10AB7000AB8B23822B8C63827F4B1A79002A02D104
:10AB80001A7B002A07D02A78002A04D07B4A127840
:10AB9000002A00D1D3E00422794B1A70201CFFF761
:10ABA00029FD002833D1724B1B68002B00D188E7A8
:10ABB000734A1078984784E7AB786C4E002B2DD100
:10ABC0003378012B3CD0022BA5D1AB78002B17D0CA
:10ABD0007B78002B00D0B0E0BB78002B00D0ACE03D
:10ABE000FB78002B00D0A8E03B79002B00D0A4E03C
:10ABF0007B79002B00D0A0E0BB79002B00D09CE03B
:10AC0000032333702B7B002B3FD003238FE75D4B57
:10AC10001B68002B00D154E7984752E73378022B8A
:10AC200029D0012B00D076E702233370CDE7012A2B
:10AC300053D163822382524B676022701A70ADE752
:10AC40006A78002AF0D07A78002A00D06FE7BA78C4
:10AC5000002A00D06BE7FA78002A00D067E73A793B
:10AC6000002A00D063E77A79002A00D05FE7BA793A
:10AC7000002AD9D05BE73E4A1268002A5AD0012147
:10AC8000414B0820197090479AE7042333702B7EBC
:10AC9000002B26D0364B1A68002A00D14FE72B78BC
:10ACA000002B00D14BE7354B1B78002B00D046E73B
:10ACB0000121304B07201970904743E7E3600423DC
:10ACC0003248023200212272C370FFF70FFA0028C7
:10ACD0009DD105222A4B1A703278002A00D162E7F2
:10ACE0005CE70023264A3370137028E701232370A2
:10ACF0002B89676063826B682382214B1A704DE752
:10AD0000AB8A63822B8A23821B4B1A79002A02D1D9
:10AD10001A7B002A06D02A78002A03D0174A127814
:10AD2000002ACBD00322164B1A7037E7022B00D033
:10AD3000F1E665E714490A7043E70223F7E6E360AA
:10AD400004231248023200212272C370FFF7CEF9A9
:10AD5000002800D05BE70622094B1A703278BCE766
:10AD6000B9240020142400201C240020B824002032
:10AD7000E823002095240020642400200C240020D7
:10AD8000CC2400201024002094240020A4230020A0
:10AD9000A0DF7047A2DF7047F0B556464D464446E7
:10ADA0005F46F0B491B00190894690469A460029DA
:10ADB00051D04346002B04D1002000210022FDF792
:10ADC00031FA022509AC201C00211C22FDF720FAD3
:10ADD000237803AE2B43237001239B46B3706B464D
:10ADE00000279B8802A80021032233806760E76068
:10ADF00027616761A761FDF70BFA53461B7802AA2A
:10AE0000137053465B780021537093780622934366
:10AE10001D43E7231D405B469D4302AB9D7004AD7F
:10AE2000281C0E32FDF7F4F902AB6B6043462B8110
:10AE3000AB814B462B610B4B211C18882A1C1A9B9B
:10AE400004966F81FFF7A6FF11B03CBC904699466F
:10AE5000A246AB46F0BD002000210022FDF7E2F93A
:10AE6000A7E7C04618250020F0B55F464D46564678
:10AE700044460123F0B495B004A98B70A14B071C84
:10AE80000B80A14B01201A1C9946FFF781FF002877
:10AE900000D0E4E03A88002A00D0E7E03A89002AAE
:10AEA00000D0F1E03A8A002A00D0F9E03A8B002A7B
:10AEB00000D001E13A8C002A00D009E13A8D002A45
:10AEC00000D011E13B6B002B5FD01A7806AD2A70E1
:10AED0000022022692465A780DAC6A709A780021B8
:10AEE000AA70DA78201CEA701A792A719B681A0A0B
:10AEF0006B71AA711B0C1C22EB71FDF789F9237889
:10AF000000213343237053466360E3602361636130
:10AF1000A361013398466B4642469A756A467B4B5D
:10AF200003A893820322FDF773F93C236A46FB5C76
:10AF3000002113733B1C3C335B785373937B0622D5
:10AF400093431E430823F6B29B469E4308339E4319
:10AF500043469E436B469E7308AE0E32301CFDF78F
:10AF600057F905AB089303AB73605B4633815346D7
:10AF700073815B46B3814B46211C1888321C644B9D
:10AF80003561FFF707FF002869D17B6B002B0AD0E2
:10AF900019681A795F4B604800933B1C3C33FFF7FC
:10AFA000FBFE00285BD1BB6B002B00D1A8E01A7818
:10AFB00006AD2A705A880DAC6A70120AAA709A8877
:10AFC0000021EA70120A2A71DB881C226B71201C96
:10AFD0001B0AAB71FDF71CF902229046424623780A
:10AFE00003AE1343237000239A466360E36023613A
:10AFF0006361A36101339B466B465A469A756A4664
:10B00000464B00219382301C0322FDF701F93C23BB
:10B01000FB5C062233703B1C3C335B780021737071
:10B02000B378934342461A43171CE7231F405B46FD
:10B030009F43B77008AF1422381CFDF7E9F805AB41
:10B040000893072352463B81BB814B467A8118887F
:10B05000211C3A1C324B7E603D61FFF79BFE15B010
:10B060003CBC90469946A246AB46F0BD2D4B2E48BF
:10B0700000933B1C79683C33FFF78EFE0028EED12D
:10B080003A89002A00D10DE7284B294800933B1C40
:10B09000F9683C33FFF780FE002800D102E7DEE7C5
:10B0A000244B254800933B1C79693C33FFF774FE21
:10B0B000002800D1FAE6D2E7204B214800933B1C40
:10B0C000F9693C33FFF768FE002800D1F2E6C6E7D5
:10B0D0001C4B1D4800933B1C796A3C33FFF75CFE18
:10B0E000002800D1EAE6BAE7184B194800933B1C48
:10B0F000F96A3C33FFF750FE002800D1E2E6AEE7E4
:10B100000020ACE70A18000018250020232A0000C0
:10B11000E0240020F02400202A2A0000502A000009
:10B12000F8240020E8240020292A0000D824002048
:10B13000242A000008250020252A000000250020E0
:10B14000272A000010250020262A0000D0240020F5
:10B15000282A000075DF704776DF70477ADF704776
:10B160007BDF704710B5184B82B01888174B984298
:10B1700014D0174A174C13780133DBB21370217BBC
:10B1800099420DD200231370237C002B12D16369E6
:10B19000002B03D0002201A80270984702B010BD16
:10B1A0000D49FFF7D7FF0028F8D0A369002BF5D091
:10B1B0009847F3E73B21FFF7CFFF0028E7D0A369CB
:10B1C000002BE4D09847E2E764250020FFFF000051
:10B1D00024250020282500206825002030B51B4BA1
:10B1E0001B4A5B88118883B099420FD852889A42D3
:10B1F0000CD3184B5B69002B03D0012201A802700D
:10B200009847154C0023237003B030BD124C2378AF
:10B21000002B08D00F4B5B69002BF3D0002201A854
:10B2200002709847EEE70D4B0A4D1B78002B0BD0B0
:10B23000A9680B480022FDF75DFB0028E2D0AB694E
:10B24000002BDFD09847DDE76968F2E71C25002076
:10B2500068250020282500201A250020242500200C
:10B2600044250020164938B5021C0B1C32CA32C3D3
:10B2700032CA32C312681A600022124B01681A7077
:10B28000002916D0104C0832201C02F01AFE201C97
:10B29000FFF764FF00280BD101220C4B52421A80A9
:10B2A00000220B4B0B481A7000210B4AFDF708FBDC
:10B2B00038BD0548FFF754FF0028EDD0F8E7C04639
:10B2C000282500201A25002068250020642500205C
:10B2D000242500202CDF010065B1010010B5038892
:10B2E000112B35D021D9122B17D0502B1CD1214C2A
:10B2F000C288E3899A4217D1C38B022B14D11E3323
:10B30000C35CDB070ED41C48FDF772FB00280BD092
:10B31000A369002B08D0984706E0811D0822174832
:10B3200002F0CFFDFFF75AFF10BD102BFCD1011C1E
:10B330008288134B16311A801048082202F0C1FD92
:10B340000022104B1A700B4BDB89002BECD1E9E784
:10B3500001220B4B52421A8000220A4B06481A70F7
:10B36000FDF746FB0028DFD0024B9B69002BDBD0AA
:10B370009847D9E728250020442500201C250020D7
:10B38000642500202425002038B5041C081C0D1C51
:10B3900002F0A0FD6560208038BDC0467FDF7047A9
:10B3A00082DF7047A7DF7047A9DF7047AADF7047C9
:10B3B0000020704700207047002070470020704731
:10B3C000002070470020704700207047354AF8B5CC
:10B3D0004F46914646464946C0B44378071CDA00BA
:10B3E000D218920089184C68002C0DD058002E4EAF
:10B3F000C11889007118897A4DB2002D46DB0022F0
:10B4000000250024904605E00022002500249046F7
:10B41000254E5800C3189B00F31818894146221C7A
:10B420002B1CFFF7C1FF0B2808D0002814D01F48A1
:10B43000012D14D00CBC90469946F8BD7B7841464E
:10B440005A00D3189B00F3181889221C0123FFF718
:10B45000ABFF002803D101250020012DEAD17B7824
:10B460000C215A00D3189B00F6183089104AFFF7B8
:10B4700099FF0028DED002220E4BC31893430FD051
:10B4800008280DD011280BD00020D3E74906B6D4E8
:10B49000111C083188464946C844A4B28D58B9E702
:10B4A0000248C7E78C260020982500204180000034
:10B4B000FFFF0000FECFFFFFF0B589B01A236A46F8
:10B4C00053804B782D4D5A00D3189B00EB18061C67
:10B4D00018896B460C1C9A1C01A90323FFF766FF11
:10B4E000002802D0002009B0F0BD6378244FD800B6
:10B4F000C0186B468000083038185A8801A902F03D
:10B50000D1FC002827D06378D900CA189200BA1855
:10B510005268002A30D11B4D0322CB189B00FA50F1
:10B520006B465A886378D900CB189B00FB185A6089
:10B53000637801A9D800C01880000830381802F0DC
:10B54000C0FC6378301CD900C9188B00F91824227C
:10B550003823A847C6E7627853009B189B00ED1874
:10B56000AB7A9B07BED4D00080188200B8180021A7
:10B570002422FCF74DFEB5E7034DCDE798250020CA
:10B580008C260020B5D8010045D90100021C38B531
:10B590004B780C4CD800C01883000D1CE018111C0F
:10B5A0003823242202F016FA002807D16B78DA003B
:10B5B000D3189B00E3185A68013200D038BD586098
:10B5C000FCE7C0468C260020F0B557464E4645465F
:10B5D000E0B44C4F90B03C68002C49D0189C742CBF
:10B5E00046D81E1C484B924601936A460023089495
:10B5F00088468146137409960024444D02E00134C4
:10B60000072C11D0A1B2281C02AA02F027F90028A9
:10B61000F5D1484602A9082202F044FC0028EED1E8
:10B62000E4B201ADAC7003E001ADAC78FF2C1FD0EB
:10B630004346032B2DD0364BF31AC32B1ED9354B63
:10B64000F31A1B2B30D800236B700AAB0993182315
:10B65000089308334246022A4FD0022213436A4617
:10B66000137407AB0593281C3B6804A952469847FE
:10B6700010B01CBC90469946A246F0BD53462649E0
:10B68000002B0BD00B680122A24093430B602023B8
:10B69000E0E7189B742B2ED04323E0E70122A24061
:10B6A0000B681342E4D0EEE71C48331A232B0FD962
:10B6B0001B4B9E42F0D01B4BA200D3589E42D7D1C9
:10B6C000194BDA7A4023A242C4D100226A70C1E742
:10B6D00030236A46137400236B700133EB70124BF6
:10B6E0009A7A30239207B5D400212422FCF790FDEA
:10B6F0006B461B7CAEE72323B1E7012213436A4666
:10B700001374AEE7B426002000FFFFFF6826002078
:10B71000A425002070260020B02600208C260020C2
:10B7200068E001007025002098250020021C38B533
:10B730004B780C4CD800C01883000D1CE018111C6D
:10B740003823242202F046F9002807D16B78DA006A
:10B75000D3189B00E3185A68013200D038BD5860F6
:10B76000FCE7C0468C260020334AF8B54F46914688
:10B7700046464946C0B44378071CDA00D218920006
:10B7800089184C68002C0DD058002C4EC118890027
:10B790007118897A4DB2002D44DB00220025002467
:10B7A000904605E00022002500249046234E5800D4
:10B7B000C3189B00F31818894146221C2B1CFFF765
:10B7C000F3FD0B280CD0002803D1012D13D000204D
:10B7D00002E0012D0FD01A480CBC90469946F8BDE6
:10B7E0007B7841465A00D3189B00F3181889221C15
:10B7F0000123FFF7D9FD7B780C215A00D3189B0059
:10B80000F61830890F4AFFF7CDFD0028DFD002225D
:10B810000D4BC3189343DED00828DCD01128DAD0B2
:10B820000020D9E74906B8D4111C0831884649469A
:10B83000C844A4B28D58BBE78C2600209825002070
:10B8400041800000FFFF0000FECFFFFFF0B589B090
:10B850001A236A4653804B782D4D5A00D3189B000B
:10B86000EB18061C18896B460C1C9A1C01A90323B3
:10B87000FFF79CFD002802D0002009B0F0BD6378DE
:10B88000244FD800C0186B468000083038185A88FA
:10B8900001A902F007FB002827D06378D900CA1855
:10B8A0009200BA185268002A30D11B4D0322CB18DF
:10B8B0009B00FA506B465A886378D900CB189B00DE
:10B8C000FB185A60637801A9D800C01880000830BE
:10B8D000381802F0F6FA6378301CD900C9188B00CA
:10B8E000F91824223823A847C6E7627853009B182A
:10B8F0009B00ED18AB7A9B07BED4D0008018820065
:10B90000B81800212422FCF783FCB5E7034DCDE7EE
:10B91000982500208C260020B5D8010045D90100CB
:10B92000F0B55F4656464D464446F0B487B0002811
:10B9300000D174E00022424B01261A605A729A72BA
:10B94000012301903F48764283720021073206812D
:10B95000C672FCF75DFC3C4800212422FCF758FC31
:10B960003A4B002500931C1C394BFF279846394B56
:10B970009B46394B9A4601239946201C00210622FA
:10B980001130FCF745FC201C00211022FCF740FC84
:10B990004B464246AB40126859469A43131C4246F6
:10B9A00013600022AB00CA5053465E550135277420
:10B9B000A77626831C34072DDFD1742302AA274ED5
:10B9C0009380274B101C311CD580029301F0CEFED2
:10B9D00000281DD10123234F3B70019B1B78002BB6
:10B9E0001FD10025A9B2301C04AA01F037FF041EA4
:10B9F00021D1009804A91C22002301F0EBFF0028AC
:10BA00001CD1009B01351C330093072DEAD1002087
:10BA100007B03CBC90469946A246AB46F0BD1248E2
:10BA2000F6E702AB02AADB889188301C594389B241
:10BA300002F02AF8ECE700233B70E9E73C70E7E707
:10BA4000B4260020982500208C260020A425002064
:10BA5000B0260020702500208C25002068260020BC
:10BA6000C9B50100942500200E800000F8B5194BDF
:10BA70001B78002B01D11848F8BD00280AD00029F6
:10BA800008D00B68002B05D0144E3768002F03D068
:10BA90001348F1E71348EFE7051C301C0C1C08C0E5
:10BAA0000531052202F00DFA012223790421B37237
:10BAB000337AF079934302221343DBB28B43337220
:10BAC00001230343DBB21A43D2B28A43F27100204E
:10BAD0002F70D1E79425002008800000B4260020B4
:10BAE000048000000E80000010B582B0041C817834
:10BAF0006A460D4801F0B2FE002812D1607869460E
:10BB0000C300181A094B800018181C221C2301F0CE
:10BB100061FF074B074A9B7A68469B009B58211C94
:10BB2000984702B010BDC04668260020702600204D
:10BB3000B426002048E00100F0B55F4656464D4669
:10BB40004446FF23F0B4C84A8FB012780393002A0A
:10BB500044D0C64A904612689446002A3ED004ADAE
:10BB600005AE6B70AB70EB70031D73602A2300226F
:10BB700033810388041C2A70102B00D133E1FF218C
:10BB8000BB4F8088BA7A8A46910707D5B94988425F
:10BB900000D122E13989814200D11EE1113B9BB2E3
:10BBA000412B1BD8B4499B00CB589F4613233370BD
:10BBB00000239B46281C311C5A46E0473378122B41
:10BBC0000CD1BB7A012B09D00123BB72023B3B8114
:10BBD000FB72381C00210722FCF71AFB0FB03CBC9B
:10BBE00090469946A246AB46F0BD43469B7AA34A8F
:10BBF0009B009B58281C9847F0E70223111C08243F
:10BC00009943B972144000D14AE14BB2002B00DADB
:10BC100078E21023BB720233337000239B46C9E7DE
:10BC2000132333700423F97A1A43BA72FF2900D11F
:10BC300079E11623924800211A2208303370FCF76C
:10BC4000E7FA4023BA7AF97A1343BB7200239B4682
:10BC50008C4B9946CB00591A8B4B002208934346D4
:10BC6000890049440B920C910D9209920A92A08886
:10BC70001A1D002108ABFFF791FB0028AED1434607
:10BC80001B689C4696E7FB7AFF2B00D1A9E17D4B10
:10BC90007D4999464A460023FFF782FB9EE74346CB
:10BCA00001215B7A89468B4341464B720421142360
:10BCB0008A43BA723370A379002B00D021E10020AF
:10BCC000E3798346194200D174E75346FF2B00D134
:10BCD00070E708231A43E37ABA729B070AD55346E2
:10BCE00052464946DB009B1A664A9B00D3189A7E4F
:10BCF0008A439A76FB7AFF2B00D159E73B78022BD7
:10BD000000D140E25F4B524699465346DB009B1AF6
:10BD100039689B004B441961B9889A7E9982B97938
:10BD2000997502218A439A766A46534608AC9380F5
:10BD300091885648221C01F091FD002833D16B7880
:10BD40005A00D3189B00FB189B7A5B0600D517E2BC
:10BD50004F4B9A46A978201CCB00591A89004944B8
:10BD60001C220023D047002811D1697840304B00B5
:10BD70005B189B00FB189A7A82439A72CB00591A7F
:10BD80008B004149201CC9181C221C23D0472B784A
:10BD9000201C5A00D3189B0043449B7A3D4A9B00C9
:10BDA0009B58291C984743461B689C4600239B468A
:10BDB00000E7A379112B02D1130700D5FEE0802301
:10BDC0005B421A43953333704346BA729B7A2B4ACF
:10BDD0009B009B58281C9847E5E7F97A8A46A9708A
:10BDE00000216970DAE60121214F8A46BB7A1942A7
:10BDF00000D1F3E60223BB720F336A70337083887D
:10BE000007223B81831D191C381C994602F059F802
:10BE10005246237D1A4200D1AEE01F4A5B08D35C34
:10BE2000FF2B00D14BE10A22039399B2BA72FB7245
:10BE3000164808AAAB7001F011FD0028B3D168784C
:10BE400008A9C300181A83000F481C22C0181C231D
:10BE500001F0C0FD43469B7A104A9B009B5808A8FE
:10BE6000291C98479FE7C04694250020B42600204F
:10BE700098250020FFFF000030DF010058E001009E
:10BE80008C260020A4250020702600206826002093
:10BE9000B5D8010038E001008C25002048E0010001
:10BEA0005346FF2B00D1B4E6CD4B52469B4653463A
:10BEB000DB009B1A9B009946584648440021D94410
:10BEC00006221130FCF7A4F9002110224846FCF7A5
:10BED0009FF9FF234A461374937601224B46524240
:10BEE00050461A8301238340BE49AA7008689843CC
:10BEF000534608609900BC4BCC5043461B689C4697
:10BF000087E66A46FB7AB9489380918808AA9A46E0
:10BF100001F0A4FC002800D19CE0A3799B46434695
:10BF20001B689C4646E6AE4B99469B7EFF2B00D194
:10BF300042E136234A46D35CFF2B00D13AE152233B
:10BF4000D35CFF2B00D13BE16E23D35CFF2B00D1F0
:10BF500034E18A23D35CFF2B00D133E1A623D35CE9
:10BF6000FF2B00D1AEE0C223D35C0622FF2B00D111
:10BF7000A9E09F4B9B466DE60023994C9A461034EE
:10BF800007E001239C46E24453461C34072B00D1B2
:10BF900009E7201C4946072201F084FF0028F0D160
:10BFA00053466A4603935346137113790822B97AAC
:10BFB00068460A4351468180818837E78D481A22B6
:10BFC00008300021FCF724F9162333706023BA7A75
:10BFD0001343BB7243465A7A0223134342465372B9
:10BFE000E1E67F49E3898946098B994200D1F5E072
:10BFF0004946898E994200D1EEE050214E46715A51
:10C00000994200D1E6E06C21715A994200D1DFE0FB
:10C010008821715A994200D1D8E0A421715A9942DD
:10C0200000D1D1E0C021765A00219E4200D031E6F5
:10C0300006230821DBB20A43FB72281CBA72AB70DC
:10C04000FFF752FDFB7AA0880021FF2B00D121E6EB
:10C0500069491FE608A8742101F016FD83460028EF
:10C0600000D05AE753465246DB009B1A5C4A9B00BD
:10C070009C46101C60440021062211300193FCF7FD
:10C08000C7F8574B019A9C4662440192101C00214C
:10C090001022FCF7BDF8FF23019A514613749376E2
:10C0A000013BFF3B13834B468B404E4A116899433B
:10C0B0005346116059464C4A9B0099502DE7FF2189
:10C0C0000A22B3E605223B78022B70D0D300991ADE
:10C0D00089004944081C103084463868086160466D
:10C0E000B9888180B9798171FD219B1A9B004B44ED
:10C0F000997603AB1A70039BD9B20023A970F97229
:10C100009B46A7E56A46534608AC9380918837481A
:10C11000221C01F0A3FB002800D0EEE66B785A0049
:10C12000D3189B00FB189B7A5B063DD4334B994692
:10C13000A978201CCB00591A8B0029491C22C91848
:10C140000023C84700280ED10C236A78403053439F
:10C15000FB18997A814399721C235A432649201C63
:10C1600089181A1CC8472B78201C5A00D3189B002A
:10C1700043449B7A224A9B009B58291C9847BCE663
:10C18000204B9A46E6E5164B5246994653461A49C5
:10C19000DB009B1A498A9B004B44198301211A1C1E
:10C1A0009B7E8B439376BFE5164B9946C0E7FE21F5
:10C1B000D3009AE7012286E7002284E7032282E780
:10C1C000022280E704227EE7052332E7042330E7DA
:10C1D00003232EE702232CE701232AE7002328E785
:10C1E000A4250020B026002070250020682600200D
:10C1F000438000008C26002070260020B1B301008F
:10C2000038E0010045D901001F4B1B78012B00D0FD
:10C2100070471E4B1B681B07FAD1F0221C4B1B6892
:10C22000134018D11B4B1B6813421AD0174B1B68C5
:10C230001B07EDD1F022164B1B681340402BE7D1B2
:10C24000144B1B681342E3D1C12380220121DB0080
:10C25000D205D150DCE7102B0FD10E4B1B681342D7
:10C26000E8D10D4A0D4B1A6080220D4B12021A6064
:10C27000054B1B78012BD9D0CAE7302BDAD1054BFF
:10C280001B681342D6D1ECE7E00F00F0E40F00F09A
:10C29000E80F00F0EC0F00F0DFFF07C004050040DE
:10C2A000186C00402EDF704751DF704710DF704779
:10C2B00061DF704708B5081C111C00E000BF08BD15
:10C2C000F0B557464E464546E0B4314B314E1D68F9
:10C2D00099466B425D41304BB2461C6898466342BA
:10C2E0005C412E4F82B0EDB2E4B2002D08D0002C9C
:10C2F00027D002B01CBC90469946A246F0BD01244E
:10C3000001A8FFF7D1FF052831D000282AD000214D
:10C310000022FBF787FF002CF1D16A461D4B01A9D3
:10C320001B8893801D4B1C68201CFFF7C1FF05284C
:10C33000E5D0002810D000210022FBF773FF002475
:10C34000D3E73C68338801A9201C0B80FFF7B0FFBE
:10C350000528CED00028EED14346201C1B68984704
:10C360000024C2E74B4601981B689847D3E7002C8E
:10C37000BFD153466A461B8801A99380074B01250C
:10C380001C68201CFFF794FF0528D2D1B1E7C046F6
:10C39000C8260020C2260020CC260020C42600206B
:10C3A00038B5041C0720002901D08D0700D038BD06
:10C3B000094801600949201C0A80094A094913609B
:10C3C000FFF774FF0028F2D10122074B16301A70D4
:10C3D000FFF768FFEBE7C046C4260020C226002016
:10C3E000D0260020B5C20100C0260020002803D0BE
:10C3F000024B1860002070470E20FCE7CC2600207E
:10C40000002803D0024B1860002070470E20FCE784
:10C41000C826002008B50A4B1B68002B08D0984797
:10C42000002800D108BD00210022FBF7FBFEF9E740
:10C43000044B1B78002BF5D0FFF742FFF2E7C04614
:10C44000D0260020C026002029DF704728DF704753
:10C4500030B583B0002806D0112806D108230F4A32
:10C4600011680B43136003B030BD021C0C48017807
:10C470008B005B189B00C518281CE9686B694C0091
:10C4800064182979074DA4002D680C300095064DDD
:10C490006459A0470422054B1A70E4E7C82700201E
:10C4A000D4260020D0270020A8270020CD27002058
:10C4B000F0B55F464D4644465646F0B45E4F85B0F3
:10C4C0003C785E4D012C00D188E0002C00D16DE05D
:10C4D000022C16D0032C0DD1594B1868FFF7B6FF6C
:10C4E000021E07D0112800D080E00823554A1168A9
:10C4F0000B43136005B03CBC90469946A246AB4640
:10C50000F0BD504B99461B6803932B789E00F3189F
:10C510009B00EE183369984680235B0519694046F5
:10C520000904090C9B4601F03BFB454B8246186011
:10C530005B4619694346581EF3880904C018090C64
:10C5400001F02EFB82454CD00323039C9C434B46B9
:10C550001C603D4B1B68002B02D10233234262D08A
:10C5600000223A4B1A703A4B5869431C54D080232E
:10C570005B0519690904090C01F012FB031C8022F8
:10C580005205106911690004013B000C090458436D
:10C59000090C01F005FBFFF759FF021EAAD0112874
:10C5A00024D108231C434B461C60A3E7294B1C6085
:10C5B000294B1C606B78002B9CD02B789A00D318E9
:10C5C0009B00ED18EA88254B1A602B79032B27D0A6
:10C5D000042B25D0012B00D08CE73B7000F000FC31
:10C5E00088E70123039A9A431443B0E72B78980015
:10C5F000C01880002E18301C184DF3682D685C00A0
:10C60000E418317973690095154DA4000C30645914
:10C61000A04704233B706DE780235B055B69AEE7B1
:10C6200000F020F866E7094A50461370FFF70EFF46
:10C63000FFF70EFF5EE7C046CD270020D42600207E
:10C64000DC270020C8270020D8270020CC27002086
:10C6500000100010D4270020A0270020D0270020A1
:10C66000A8270020F0B55F4656464D464446F0B434
:10C670005B4B5C481A78802791008A1892009B18BF
:10C68000DD681E696A005219920082181489508967
:10C690005268604380469044DA881B89141C99468E
:10C6A000514B92469B4600235A467F05396983B019
:10C6B00009044C441360090C301CA41901F0F6FA6B
:10C6C000002924D13B699BB29A4537D044456CD0B0
:10C6D000032D33D0301C3969484489B201F0E6FAA1
:10C6E000424B890819603969201C0904090C01F0C2
:10C6F000DDFA002932D102223D4B1A70FFF7D8FE35
:10C7000003B03CBC90469946A246AB46F0BD032D13
:10C7100014D0301C396948440904090C01F0C6FAE8
:10C72000324B8908196039694445E4D00904090C81
:10C73000201C01F0BBFA0029DDD00FE080235B054F
:10C740001969301C0904090C01F02AFA0322294B4B
:10C750001860274B1A70FFF7ABFED1E780256D05F7
:10C7600029692B696A4699464346D380D08889B2A5
:10C7700001F016FA6A464B46A6B2D380071CD18850
:10C78000301C01F00DFABFB280B287421DD02C6977
:10C790002969301C89B201F089FA5B462404240C13
:10C7A00089B2641AA4081C60A5E74B46002BC5D0CB
:10C7B000032DC3D0301C3969484489B201F076FAA0
:10C7C0000A4B890819603B6995E7434624041B041A
:10C7D0001A0C240C131B5A469B0813608BE7C046A7
:10C7E000D4260020A8270020A4270020D827002036
:10C7F000CD270020DC270020F8B546464F46C0B4C0
:10C800001D4D08AC24886E78A44604240A2E2DD031
:10C810002C78A046A419092C00DD0A3C14277C437F
:10C820002C196261221C20710C32B94681C981C267
:10C83000E380634623810024104B01361A786E7022
:10C84000A24213D142464F465743ED190C4AE9889C
:10C8500011602A79032A07D0042A05D0012A05D1BC
:10C860001A70FFF725FE01E0FFF7FCFE201C0CBC50
:10C8700090469946F8BDC046D4260020CD2700201A
:10C88000D0270020082170B50C1C244A82B0136800
:10C890001C4009D08B431360214B224A1B789B001C
:10C8A0009B58984702B070BD1F4D2B789800C31855
:10C8B0009B00EE18317904292AD0F2687369500080
:10C8C0008218301C194E920036680C300096184EB3
:10C8D00096590022B04702202A7893009B189B00AB
:10C8E000EB181C71DC80D8601C615C611C816B786A
:10C8F0000132013BD2B26B700A2A06D02A700022A4
:10C900000C4B1A70FFF7D4FDCCE700232B70F6E731
:10C910000122084B1A70FFF7CBFDC3E7C8270020A0
:10C92000CC27002080E00100D4260020D027002062
:10C93000A8270020CD27002030B5244B83B05869AC
:10C94000431C3ED080235B0519690904090C01F0E2
:10C9500027F9041C80235B051869196900041A690A
:10C96000000C631E58431A4B09041B68090C92B251
:10C9700092085943FFF768FD021E06D0112806D120
:10C980000823144A11680B43136003B030BD1249E9
:10C990000B789800C01880000D18281CEB682979C6
:10C9A0005C00E4186B690D4DA4002D680C300095F7
:10C9B0000B4D6459A04704220A4B1A70FFF778FD0B
:10C9C000E3E780235B055C69C4E7C0460010001004
:10C9D000DC270020C8270020D4260020D0270020F4
:10C9E000A8270020CD270020802230B552051469E9
:10C9F00021492404230C0C6883B0013C5C431F4B89
:10CA00005869431C35D011690904090C01F0C8F8B4
:10CA100080235B0519691A4B09040138090C41434D
:10CA20001A68201CFFF710FD021E06D0112806D13F
:10CA30000823144A11680B43136003B030BD124938
:10CA40000B789800C01880000D18281CEB68297915
:10CA50005C00E4186B690D4DA4002D680C30009546
:10CA60000B4D6459A04704220A4B1A70FFF720FDB2
:10CA7000E3E75069CCE7C046DC2700200010001037
:10CA8000D8270020C8270020D4260020D027002047
:10CA9000A8270020CD270020082330B51E4D83B0E5
:10CAA0002C68234214D1A30702D501231C432C6018
:10CAB00002221A4B1A701A4B1868FFF7C7FC021EA5
:10CAC00004D011280DD108231C432C6003B030BDC5
:10CAD0009C43124B134A1B782C609B009B58984731
:10CAE000F4E711490B789800C01880000D18281C35
:10CAF000EB6829795C00E4186B690C4DA4002D6883
:10CB00000C3000950A4D6459A0470422094B1A7055
:10CB1000FFF7CEFCDAE7C046C8270020CC2700206C
:10CB2000DC27002080E00100D4260020D027002050
:10CB3000A8270020CD270020F0B58027274C7F05AF
:10CB4000237839699A00D3189B00E3181A89DD8885
:10CB50001B69AD18ED18090483B0090C281C01F0FD
:10CB6000A5F81F4B0E1C5869431C35D039690904C0
:10CB7000090C01F015F880235B05196901380904D7
:10CB8000090C4143174B89191A68281CFFF75CFCF4
:10CB9000021E06D0112806D10823134A11680B4340
:10CBA000136003B0F0BD23789800C01880002618E9
:10CBB000301C0E4CF36824685D003179ED18736900
:10CBC00000940B4CAD000C302C59A0470422094BAB
:10CBD0001A70FFF76DFCE4E77869CCE7D4260020F3
:10CBE00000100010A4270020C8270020D027002014
:10CBF000A8270020CD27002030B5154B83B018683A
:10CC0000FFF724FC021E06D0112806D10823114A82
:10CC100011680B43136003B030BD0F490B789800C7
:10CC2000C01880000D18281CEB6829795C00E418F6
:10CC30006B690A4DA4002D680C300095084D6459AD
:10CC4000A0470422074B1A70FFF732FCE3E7C04607
:10CC5000DC270020C8270020D4260020D027002071
:10CC6000A8270020CD270020082370B52A4D82B0C8
:10CC70002C68234209D09C43284B294A1B782C60FE
:10CC80009B009B58984702B070BD0122234B1A703D
:10CC9000244B5869431C3BD080235B051969090468
:10CCA000090C00F07DFF061C80235B0518691969DB
:10CCB00000041A69000C731E58431B4B09041B68BF
:10CCC000090C92B292085943FFF7BEFB021EDAD05C
:10CCD000112803D108231C432C60D4E713490B7897
:10CCE0009800C01880000D18281CEB6829795C009A
:10CCF000E4186B690E4DA4002D680C3000950D4DA5
:10CD00006459A04704220C4B1A70FFF7D1FBBAE715
:10CD100080235B055E69C7E7C8270020CC27002079
:10CD200080E0010000100010DC270020D426002045
:10CD3000D0270020A8270020CD27002030B5224B87
:10CD400083B05869431C3AD080235B0519690904F4
:10CD5000090C00F025FF031C80225205106911699F
:10CD60000004013B000C09045843090C00F018FFB3
:10CD7000FFF76CFB021E06D0112806D10823134AC8
:10CD800011680B43136003B030BD11490B78980054
:10CD9000C01880000D18281CEB6829795C00E41885
:10CDA0006B690C4DA4002D680C3000950A4D645938
:10CDB000A0470422094B1A70FFF77AFBE3E78023B0
:10CDC0005B055B69C8E7C04600100010C82700205B
:10CDD000D4260020D0270020A8270020CD2700201F
:10CDE000F0B58027404D7F052C783969A6003319AE
:10CDF0009B00EB18DA8889B283B08A4218D8196987
:10CE000018898C46920860445969FFF71DFB021E81
:10CE100006D011282DD10823344A11680B43136022
:10CE20003419A4002C19E288314B1A6003B0F0BD0C
:10CE3000196938698C460004000C121A18893C697B
:10CE40005969604480188918A2B29208FFF7FCFA69
:10CE5000021E06D0112827D10823244A11680B434B
:10CE6000136080235B051B69214A1B041B0C1360A4
:10CE7000DCE72B789800C01880002918CB68081CC4
:10CE80005F00FF180B79BF009C464B6919490C30B5
:10CE90000968009118497F586146B8470422174B2A
:10CEA0001A70FFF705FBBBE72B789800C0188000CD
:10CEB0002E18301C0F4DF3682D685C003179E41892
:10CEC000736900950C4DA4000C306459A0470422EE
:10CED0000A4B1A70FFF7ECFA80235B051B69044AC2
:10CEE0001B041B0C1360A1E7D4260020C8270020D8
:10CEF000A0270020D0270020A8270020CD27002031
:10CF00000823F0B54D4644465F4656461A1CF0B419
:10CF1000774D85B02C68224091465FD1754F3E78A1
:10CF2000B30003939B199B00FB181A69511EDA8802
:10CF30001B898A18D318029380235B059B461969C5
:10CF40006D4B1B689846002B57D16C4B1B689A465B
:10CF500080235B05196902980904090C00F020FE82
:10CF6000824500D285E0434600D17AE0002B00D014
:10CF700079E0039B9C466644B600BC1921790429DC
:10CF800000D1AFE0201CE3680C305A00D21863696E
:10CF90005B4C9200246800945A4C14590022A0471C
:10CFA000414602203A7893009B189B00FB181971A8
:10CFB000D86041464046D9801861586118817B7815
:10CFC0000132013BD2B27B700A2A00D17BE03A7079
:10CFD00000224D4B1A70FFF76BFA07E09C434B4B56
:10CFE0004B4A1B782C609B009B58984705B03CBC73
:10CFF00090469946A246AB46F0BD404B09041B68DB
:10D00000090C02989A4600F0CBFD5045A0D14A4643
:10D01000404B1A6001234A4623432B603B4B1A7056
:10D020003D4B5869431C51D05B4619690904090CF2
:10D0300000F0B6FD031C802252051069116900043E
:10D04000013B000C09045843090C00F0A9FDFFF74F
:10D05000FDF9021ECAD011283BD109231C432C60C4
:10D06000C4E7002B05D00322284B1A70FFF764FD9C
:10D07000BCE70022274B50461A60244B02321A703C
:10D08000FFF7E4F9021EB1D0112818D03B789900BF
:10D09000CB189B00FD18E9684C006418281C2979FE
:10D0A0006B69174DA4002D680C300095154D64591F
:10D0B000A0470422144B1A70FFF7FAF996E70823E9
:10D0C0001C432C6092E700233B7081E75B465B6961
:10D0D000B1E73B789800C01880003D18EB685C0011
:10D0E000E418DBE70122084B1A70FFF7E1F97DE74E
:10D0F000C8270020D4260020A4270020DC270020F9
:10D10000D0270020A8270020CD270020CC270020F2
:10D1100080E00100D827002000100010F0B54E4636
:10D12000574645460823E0B48C4E82B0346823420B
:10D1300000D093E08A4B1A68571C1F60894B1D680A
:10D14000002D50D1884B802299461B7852059D00B6
:10D15000ED18AB00984608234D469A464544AA442C
:10D1600053469B681169581EEB880904C0182B8927
:10D17000090CC01800F014FD874200D282E07B4BFE
:10D1800000D17BE01F68002F00D19CE001231A1C16
:10D19000224000D08DE023433360754B1A70754BED
:10D1A0005869431C00D1BEE080235B05196909045E
:10D1B000090C00F0F5FC031C80225205106911696E
:10D1C0000004013B000C09045843090C00F0E8FC82
:10D1D000FFF73CF9021E49D0112800D0A7E009232F
:10D1E0001C43346042E00421614B197080235B05CD
:10D1F0001F693F043F0C57435E4A5069421C3BD0B5
:10D2000019690904090C00F0CBFC80235B0519693E
:10D2100001380904090C41432A1C381CFFF714F992
:10D22000021E23D011284AD04F4801788B005B188A
:10D230009B00C518281CE9684C006418A4002979D3
:10D240006B694D4D0C302D6800954C4D6459A047CD
:10D2500004224B4B1A70FFF72BF907E09C43444B19
:10D26000484A1B7834609B009B58984702B01CBC0E
:10D2700090469946A246F0BD5869C6E71B68002B48
:10D2800000D083E702223A4B381C1A70FFF7DEF811
:10D29000021EEBD0112812D04B461B789900CB18F8
:10D2A00049469B00CD18E968281C4C006418A4006E
:10D2B000C5E703222E4B1A70FFF73EFCD6E7082382
:10D2C0001C433460D2E7297904293DD053464046B7
:10D2D000294C5B6824685A00D2186B690094274C6B
:10D2E000920048440C3014590022A0474B460220BB
:10D2F0001A78494693009B189B004B441F71DF80AE
:10D30000D8601F615F611F814B465B780132013B32
:10D31000D2B24B700A2A1DD00A700022184B1A7024
:10D32000FFF7C6F8A2E780235B055B6944E74B463D
:10D330001B789800C0184B4680001D18EB68281C0D
:10D340005C00E418A4007AE701220D4B1A70FFF785
:10D35000AFF88BE700230B70DFE7C046C82700203B
:10D36000DC270020D8270020D4260020A427002076
:10D37000CC27002000100010D0270020A827002074
:10D38000CD27002080E0010070B5274C82B02378C3
:10D390009800C01880002518281CEB6829795A00CD
:10D3A000D2186B69214D92002E680C300096204EE9
:10D3B00096590022B04700210226227893009B183C
:10D3C0009B00E3181971D980DE60196159611981D8
:10D3D00063780132013BDBB2D2B263700A2A0BD010
:10D3E00022700021134E14483160144E01703160D8
:10D3F000002B05D102B070BD002222700022F0E7A0
:10D4000093009A189200A418E3882B602379032BC9
:10D4100007D0042B05D0012BECD10370FFF748F89F
:10D42000E8E7FFF71FF9E5E7D4260020D027002022
:10D43000A8270020D4270020CD270020A0270020E7
:10D44000F0B5474680B4684D04262B7882B01A1C8C
:10D45000B24313D0041E022C14D003280ED108208E
:10D4600062490A68104257D0022B4ED0032B01D0DC
:10D47000012B03D182430A60FFF71AF802B004BC03
:10D480009046F0BD022B40D0032B54D0012BF5D198
:10D490000821564A1368194278D1554F55493B78AF
:10D4A0000E689A00D3189B00FA18D1888E1BB6B26A
:10D4B000D680002E6FD1D168137948004118984664
:10D4C000101C53694C4A890012680C3000924B4A78
:10D4D0008A58414694460022E0473A7893009B18C8
:10D4E0009B00FB181E71DE80DC601E615E611E8188
:10D4F0007B780132013BD2B27B700A2A67D03A7046
:10D5000000232B70FEF7D4FFB8E73D4B3D4A1B7854
:10D510009B009B589847B1E73B490A6801320A6073
:10D52000032A3BD0022BA7D1354B384A1B789B00EE
:10D530009B589847A2E708212C4A1368194225D125
:10D54000334B2B4E1A683478571C1F6080235B05C1
:10D550001969A30098461B199B00F3181A6909045E
:10D56000501EDA881B898018C018090C00F018FBBF
:10D57000874200D280E731D0231C43449B00F3183C
:10D580001B79042B25D0FFF7FFFE77E78B43136051
:10D59000FEF78EFF72E7FFF723FC6FE7144802786F
:10D5A00093009B189B00C418201CE268636951001B
:10D5B0008A182179104C920024680C3000940F4C8A
:10D5C00014590D22A0472E70FEF772FF56E73E70E9
:10D5D00096E701232B70FEF76BFF4FE70D4B1B689F
:10D5E000002BC9D148E7C046CD270020C82700201E
:10D5F000D4260020A0270020D0270020A827002024
:10D60000CC2700206CE00100D427002080E001003E
:10D61000DC270020A427002010B500202C240022A5
:10D620000221484B18551434185502341A53023449
:10D630001A531034185502341A530234D96018762C
:10D64000196259639964D9651A705A701A71DA802F
:10D650001A615A611A815A835A629A629A83DA85E8
:10D660009A63DA631A86DA641A651A665A661A5376
:10D670001034185502341A5302341A531034185502
:10D6800002341A530634195104341A5104341A510D
:10D690000C3C1A531034185502341A5306341951DD
:10D6A00004341A5104341A510C3C1A5310341855CE
:10D6B00002341A530634195104341A5104341A51DD
:10D6C0000C3C1A5310341855BA201A52063019500F
:10D6D0001967C2315A5004315A500C395A525A679C
:10D6E0009A67194B1A80194B5869431C25D080231F
:10D6F0005B0519690904090C00F052FA80235B05E7
:10D700001B6903381B041B0C5843114B0021186084
:10D710000023104A002013600F4A136013815381C5
:10D72000D3609382D3820D4A11700D4A13600D4A63
:10D73000136004220C4B1A6010BD80235B055869EE
:10D74000DCE7C046D4260020C027002000100010CF
:10D75000C4270020DC270020A8270020CD27002098
:10D76000D4270020A0270020C8270020F0B5574666
:10D770004E464546E0B4344B1A680823520705D498
:10D78000181C1CBC90469946A246F0BD002857D0F4
:10D79000002955D00368002B52D080277F053A69B5
:10D7A000868892B207239642EAD80F2EE8D9C2881B
:10D7B000002AE5D0254B724399461B68041C984605
:10D7C000234B424458690D1C9246431C3AD0396998
:10D7D0000904090C00F0E4F98022520513690138AC
:10D7E0001B041B0C584307238245C9D8B107C7D176
:10D7F000184F033B3E88022EC2D043466B600C2379
:10D800002E604546734314480136C1184D602568A3
:10D810001D50A5880D81E08848816843136911690E
:10D820009BB21469C018013889B2A4B200F048FA5A
:10D83000231C4A464343434413603E8000239FE732
:10D840000E239DE77869C7E7C8270020C42700207A
:10D8500000100010C0270020A8270020F0B5134BAF
:10D860001C680823640701D4181CF0BD00281BD0D5
:10D87000002A19D00468013B012CF5D865000C4E34
:10D880002D19AD00AF59002FEED075192E894068C3
:10D890007143091868896D68704340198142E3D269
:10D8A000146051600023DFE70E23DDE7C827002066
:10D8B000A8270020F0B5474680B4204C051C2468FA
:10D8C00082B00820640703D402B004BC9046F0BDC7
:10D8D000002930D0002D2ED02C680138012CF3D82F
:10D8E00067003C19164EA400A759002FECD06F68B2
:10D8F0003419BC4626896789B04677436668BC19E7
:10D90000A445E1D2002ADFD09045DDD3D418A0454C
:10D91000DADB09308C07D7D103242342D4D1664601
:10D920002642D1D1181C131C00900A1C0120291C6E
:10D93000FEF762FFC8E70E20C6E7C046C8270020F2
:10D94000A8270020F0B5474680B4204C051C246869
:10D9500082B00820640703D402B004BC9046F0BD36
:10D96000002930D0002D2ED02C680138012CF3D89E
:10D9700067003C19164EA400A759002FECD06F6821
:10D980003419BC4626896789B04677436668BC1956
:10D99000A445E1D2002ADFD09045DDD3D418A045BC
:10D9A000DADB09308C07D7D103242342D4D1664671
:10D9B0002642D1D1181C131C00900A1C0420291CDB
:10D9C000FEF71AFFC8E70E20C6E7C046C8270020AA
:10D9D000A8270020F0B5454657464E46E0B4284CEF
:10D9E000051C246882B00820640705D402B01CBC62
:10D9F00090469946A246F0BD00293FD0002D3DD06B
:10DA00000C680138012CF1D867001E4E3C19A400A7
:10DA1000B2463659002EE9D04E6854446789B44660
:10DA20002689B1467E436768B0463C1C4444A44501
:10DA3000DCD2002ADAD09145D8D3D418A145D5DB61
:10DA40000930AC07D2D103242342CFD166463440FB
:10DA5000CCD188466344191C281C171C00F031FAED
:10DA600042460C2312680097534352464046D6580C
:10DA70000221221C2B1CB047201CB7E70E20B5E763
:10DA8000C8270020A8270020F0B54F464646C0B45E
:10DA9000224B83B01B6808245B0705D4201C03B00D
:10DAA0000CBC90469946F0BD002834D00368013C78
:10DAB000012BF3D85D00EB18194A9B009D58002DEF
:10DAC000ECD0D3181F895D895A687D434668AD182C
:10DAD000AE42E3D20934B307E0D188468146391C0F
