:020000021000EC
:108000000040002089C90100D1C90100D3C9010085
:108010000000000000000000000000000000000060
:10802000000000000000000000000000D5C90100B1
:108030000000000000000000D7C90100D9C90100FC
:10804000DBC90100DBC90100DBC90100DBC901009C
:10805000DBC9010000000000DBC90100DBC9010031
:10806000DBC90100DBC90100DBC90100DBC901007C
:10807000DBC90100DBC90100DBC90100DBC901006C
:10808000DBC90100D98E0100DBC90100DBC9010099
:10809000C98A0100DBC901003DBE0100DBC9010046
:1080A000DBC90100DBC90100000000000000000086
:1080B00000000000000000000000000000000000C0
:1080C000164B002B00D1144B9D46402292029A1A67
:1080D000924600218B460F461348144A121A00F0AC
:1080E00067F80F4B002B00D098470E4B002B00D0A9
:1080F00098470020002104000D000D48002802D000
:108100000C4800E000BF00F02DF82000290001F02D
:10811000DFFC00F011F8C04600000800004000201D
:1081200000000000000000006820002094260020CD
:108130000000000000000000084B10B5041C002BDC
:1081400002D0002100E000BF054B1868836A002BB5
:1081500000D09847201C00F033F8C0460000000013
:1081600038CA01000E4B70B500251E1C0D4CE41AD8
:10817000A410A54204D0AB00F35898470135F8E7A6
:1081800004F04CFC084B00251E1C084CE41AA410FB
:10819000A54204D0AB00F35898470135F8E770BD0D
:1081A000682000206820002068200020682000202F
:1081B000031C8218934202D019700133FAE770470A
:1081C000FEE7C04628DF704729DF7047F0B58027FB
:1081D000404D7F052C783969A60033199B00EB18B8
:1081E000DA8889B283B08A4218D8196918898C460E
:1081F000920860445969FFF7E7FF021E06D0112874
:108200002DD10823344A11680B4313603419A4009C
:108210002C19E288314B1A6003B0F0BD1969386936
:108220008C460004000C121A18893C695969604494
:1082300080188918A2B29208FFF7C6FF021E06D066
:10824000112827D10823244A11680B431360802387
:108250005B051B69214A1B041B0C1360DCE72B78B0
:108260009800C01880002918CB68081C5F00FF1810
:108270000B79BF009C464B6919490C300968009185
:1082800018497F586146B8470422174B1A7000F00E
:108290005DF8BBE72B789800C01880002E18301CC2
:1082A0000F4DF3682D685C003179E418736900950F
:1082B0000C4DA4000C306459A04704220A4B1A70DC
:1082C00000F044F880235B051B69044A1B041B0C67
:1082D0001360A1E750250020AC230020F4220020E9
:1082E000BC200020B0230020B020002030B583B097
:1082F000002806D0112806D108230F4A11680B4325
:10830000136003B030BD021C0C4801788B005B1871
:108310009B00C518281CE9686B694C006418297912
:10832000074DA4002D680C300095064D6459A047F8
:108330000422054B1A70E4E7AC23002050250020EE
:10834000BC200020B0230020B0200020F0B55F4604
:108350004D4644465646F0B45F4F85B03C785F4D7D
:10836000012C00D18AE0002C00D16FE0022C16D045
:10837000032C0DD15A4B1868FFF724FF021E07D0BB
:10838000112800D082E00823564A11680B4313607D
:1083900005B03CBC90469946A246AB46F0BD514B59
:1083A00099461B6803932B789E00F3189B00EE18E8
:1083B0003369984680235B05196940460904090C16
:1083C0009B4604F05FF9464B824618605B4619698C
:1083D0004346581EF3880904C018090C04F052F9EA
:1083E00082454ED00323039C9C434B461C603E4B6E
:1083F0001B68002B02D10233234264D000223B4B86
:108400001A703B4B5869431C56D080235B05196991
:108410000904090C04F036F9031C80225205106986
:1084200011690004013B000C09045843090C04F0D5
:1084300029F9FFF7C7FE021EAAD0112826D14A4605
:108440000823126813434A461360A1E7294B1C60B6
:10845000294B1C606B78002B9AD02B789A00D3188C
:108460009B00ED18EA88254B1A602B79032B27D047
:10847000042B25D0012B00D08AE73B70FFF7A6FE26
:1084800086E70123039A9A431443AEE72B789800BA
:10849000C01880002E18301C184DF3682D685C0041
:1084A000E418317973690095154DA4000C306459B6
:1084B000A04704233B706BE780235B055B69ACE757
:1084C00002F08CFF64E7094A50461370FFF77AFE0A
:1084D000FFF70CFF5CE7C046B020002050250020CD
:1084E000F0220020AC230020A4230020B82000208C
:1084F00000100010B4200020F4220020BC20002036
:10850000B023002030B5224B83B05869431C3AD0C9
:1085100080235B0519690904090C04F0B3F8031CF6
:1085200080225205106911690004013B000C090406
:108530005843090C04F0A6F8FFF744FE021E06D0CB
:10854000112806D10823134A11680B43136003B0A6
:1085500030BD11490B789800C01880000D18281CF8
:10856000EB6829795C00E4186B690C4DA4002D6858
:108570000C3000950A4D6459A0470422094B1A702B
:10858000FFF7E4FEE3E780235B055B69C8E7C046CD
:1085900000100010AC23002050250020BC2000203B
:1085A000B0230020B0200020802230B5520514698D
:1085B00021492404230C0C6883B0013C5C431F4B0D
:1085C0005869431C35D011690904090C04F05AF8A4
:1085D00080235B0519691A4B09040138090C4143D2
:1085E0001A68201CFFF7F0FD021E06D0112806D1E4
:1085F0000823144A11680B43136003B030BD1249BD
:108600000B789800C01880000D18281CEB68297999
:108610005C00E4186B690D4DA4002D680C300095CA
:108620000B4D6459A04704220A4B1A70FFF78EFEC7
:10863000E3E75069CCE7C046F022002000100010AC
:10864000A4230020AC23002050250020BC200020C3
:10865000B0230020B0200020F0B58027274C7F05F4
:10866000237839699A00D3189B00E3181A89DD88AA
:108670001B69AD18ED18090483B0090C281C04F01F
:1086800087F81F4B0E1C5869431C35D03969090403
:10869000090C03F0F7FF80235B0519690138090411
:1086A000090C4143174B89191A68281CFFF78CFDE8
:1086B000021E06D0112806D10823134A11680B4365
:1086C000136003B0F0BD23789800C018800026180E
:1086D000301C0E4CF36824685D003179ED18736925
:1086E00000940B4CAD000C302C59A0470422094BD0
:1086F0001A70FFF72BFEE4E77869CCE750250020DD
:1087000000100010A8230020AC230020BC20002073
:10871000B0230020B02000200823F0B54D46444689
:108720005F4656461A1CF0B4764D85B02C68224040
:1087300091465FD1744F3E78B30003939B199B0021
:10874000FB181A69511EDA881B898A18D3180293FC
:1087500080235B059B4619696C4B1B689846002B70
:1087600057D16B4B1B689A4680235B0519690298A9
:108770000904090C03F086FF824500D29AE04346C3
:1087800000D18FE0002B00D08EE0039B9C46664416
:10879000B600BC192179042900D1ACE0201CE368A3
:1087A0000C305A00D21863695A4C92002468009425
:1087B000594C14590022A047414602203A789300B0
:1087C0009B189B00FB181971D86041464046D98020
:1087D0001861586118817B780132013BD2B27B70FD
:1087E0000A2A00D181E03A7000224C4B1A70FFF740
:1087F000ADFD07E09C434A4B4A4A1B782C609B0026
:108800009B58984705B03CBC90469946A246AB465B
:10881000F0BD3F4B09041B68090C02989A4603F00F
:1088200031FF5045A0D14A463F4B1A6001234A46CA
:108830001C433B4B2C601A703C4B5869431C57D06F
:108840005B4619690904090C03F01CFF031C802214
:108850005205106911690004013B000C09045843DA
:10886000090C03F00FFFFFF7ADFC021ECAD0112860
:108870002DD03B789800C01880003D18EB685C0054
:10888000E418281C29796B69224DA4002D680C304E
:108890000095214D6459A0470422204B1A70FFF720
:1088A00055FDAFE7002B05D003221D4B1A70FFF7D3
:1088B000D3FEA7E700221C4B50461A60184B023229
:1088C0001A70FFF77FFC021E9CD0112804D10823E8
:1088D0002A6813432B6095E73B789900CB189B00DF
:1088E000FD18E9684C006418CBE700233B707BE778
:1088F0005B465B69ABE70122084B1A70FFF726FD68
:1089000080E7C046AC23002050250020A82300208B
:10891000F0220020BC200020B0230020B020002046
:10892000B82000203CCA0100A42300200010001041
:1089300030B5154B83B01868FFF744FC021E06D013
:10894000112806D10823114A11680B43136003B0A4
:1089500030BD0F490B789800C01880000D18281CF6
:10896000EB6829795C00E4186B690A4DA4002D6856
:108970000C300095084D6459A0470422074B1A702B
:10898000FFF7E4FCE3E7C046F0220020AC23002020
:1089900050250020BC200020B0230020B020002063
:1089A00030B5244B83B05869431C3ED080235B050F
:1089B00019690904090C03F065FE041C80235B059A
:1089C0001869196900041A69000C631E58431A4B90
:1089D00009041B68090C92B292085943FFF7F4FB93
:1089E000021E06D0112806D10823144A11680B4331
:1089F000136003B030BD12490B789800C018800096
:108A00000D18281CEB6829795C00E4186B690D4D82
:108A1000A4002D680C3000950B4D6459A04704222A
:108A20000A4B1A70FFF792FCE3E780235B055C6951
:108A3000C4E7C04600100010F0220020AC23002044
:108A400050250020BC200020B0230020B0200020B2
:108A500080218023184A8902D1508022D221174BCD
:108A6000520289005A5040395A5001222F205A6030
:108A70000138C046C046C046C046C046C046C04693
:108A8000C046C046C046C046C046F1D19A600023E9
:108A90000B4A2F2013600138C046C046C046C0466E
:108AA000C046C046C046C046C046C046C046C04696
:108AB000F1D1044A1370704700E100E0001001405A
:108AC0009C22002068200020F0B54D465F465646A7
:108AD0004446F0B4B84BB94A9946B9491B6887B0C7
:108AE000019309781378994200D15EE10133DBB23A
:108AF000022B00D100231370B24A9B0094466344BA
:108B00005B6800929B464A46019B5B441B021B0A22
:108B10001360012303930021AB4AAC4B12789C46AF
:108B20009246009A1B68127B05930492A84A02920F
:108B30005546013DEAB29246FF2A54D05246D4002F
:108B4000029A12689046444420786678B042EFD08A
:108B5000656842001218A8460130A578C0B22D1AE7
:108B60006F1EBD41D2006D42424428401578022D4F
:108B70000BD0032DEAD1002BE8D01974DB69002B50
:108B8000FBD1624613606678E0E75768002B28D077
:108B90009F4217D01D1C00E0151CEA69002AD5D0A1
:108BA0009742F9D1AA4200D1DAE01668D269EA61A7
:108BB000002AE8D0136898466346464416606678F3
:108BC0001B68C3E71A1C6546DB692B60151C002B6C
:108BD000EBD101267F4DAE604D4604962B60151CEF
:108BE000E3E70023B2E76A460293127C009B1A7304
:108BF000039B002B00D0B5E0029A059B00259B1A31
:108C00005A1E9341DBB203936F4B00271B7801265A
:108C10000193009B1B7B04936D4B98466E4B9A46C9
:108C2000019B013BDBB20193FF2B00D186E0424662
:108C30001268DB0093469B44002D25D06B68A86822
:108C40002C1CED694A4611685A1A1202120A524542
:108C500049D813186246236010686760A7602674BD
:108C6000E76100284ED00168994204D358E01168AA
:108C700099425BD2101CC2695B1A002AF7D12360AB
:108C8000E261C461002DD9D15846037842789A42F6
:108C9000C6D041685A008B46D21881780133D20081
:108CA000DBB25A440370994246D013785468012BC2
:108CB000EBD1217C0029E8D1936883466360D068BA
:108CC0000591A0601169E1605269A261049A002ACD
:108CD000B8D0059B4A466360002311685A1A1202F5
:108CE000120A5245B5D9CB1A1B021B0A83420CD279
:108CF0006246C31A236010686760A7602674E76144
:108D00000028B0D163461C6096E763462760186868
:108D10006760A7602674E7610028F3D0002301682C
:108D2000CB1A03606346E0611C6085E7C91A1160D5
:108D30002360E261C461A5E70570B6E76346029A65
:108D40001B6893424AD1039A002A47D10023009A14
:108D5000137307B03CBC90469946A246AB46F0BDA3
:108D60002A1C30E7029E0025002200205946002ED2
:108D700016D033688B4200D994E0C91AD2186346E2
:108D8000F469F76830601C60002F07D0F561351C6E
:108D9000019BB760D3181B021B0A7360261EE8D123
:108DA00000230293013303932EE700239B46039392
:108DB000044B0093AFE6C0469C220020982200207E
:108DC0009922002068200020C82000209422002042
:108DD0006C26002000100140FEFF7F00002B00D118
:108DE0005DE01D683349344B0098CC584B461B68F6
:108DF0000078E21A1202120A033200282DD0AA4289
:108E000000D22A1CA820D21812022A49130AC00034
:108E1000294D0B504A591B1B121B1202120A1B022E
:108E200003321B0A9A4200D890E74B590B502F206F
:108E30000138C046C046C046C046C046C046C046CF
:108E4000C046C046C046C046C046F1D180218023FE
:108E50001A4A89025B00D15078E78020D12640026F
:108E6000B6008851403E8851C02780261348B6027C
:108E70007F00C651066001262F200E600138C046D3
:108E8000C046C046C046C046C046C046C046C046B2
:108E9000C046C046C046F1D100990E70AFE7FFF75B
:108EA000D7FD53E75B1A336063461B6802930123C7
:108EB0000393A9E6001001400405000000E100E072
:108EC000BFF34F8F024A034BDA60BFF34F8FFEE7C9
:108ED0000400FA0500ED00E0A021F0B500234746AC
:108EE000294A490080B4535004315350043153503F
:108EF000043153504C39535004315350234B1B68A9
:108F0000002B3AD02249002652582249224F0C68A1
:108F1000141B00222402240A904602E0002D16D0E1
:108F20002B1C1A68A24212D8A41AB6181A7CDD6942
:108F3000002AF3D0424699691A745A693B68002B9B
:108F40001ED0101C98470028E8D0FFF7B9FF134B3C
:108F500013491A780B789A4205D10132D3B2022B09
:108F600000D100230B700F4A9B00D3185E60802154
:108F700080230D4A49035B00D15004BC9046F0BDEC
:108F8000081C9047CAE7C046001001409422002008
:108F9000040500009C220020C4200020982200200C
:108FA000992200206820002000E100E0F8B5464644
:108FB0004F46C0B41D4D08AC24886E78A4460424E6
:108FC0000A2E2DD02C78A046A419092C00DD0A3CCD
:108FD00014277C432C196261221C20710C32B94683
:108FE00081C981C2E380634623810024104B01368E
:108FF0001A786E70A24213D142464F465743ED197C
:109000000C4AE98811602A79032A07D0042A05D07E
:10901000012A05D11A70FFF799F901E002F0DEF993
:10902000201C0CBC90469946F8BDC0465025002037
:10903000B0200020BC200020F0B54E4657464546E3
:109040001F23E0B43D4C98B002AAD381E378061CFC
:109050005B0767D5002302AA9381636B002B68D05E
:109060001B78022208ADAB700323032705210420DF
:109070002A700F326A7002AA9381226B002A3AD0BA
:10908000112308ADEB55013B2B54D37B6B54907BE4
:109090004B1CE854507B8B1CE854107BCB1CE854D1
:1090A000D07A0B1DE854907A4B1DE854507A8B1DF2
:1090B000E854107ACB1DE854D0790133E854907904
:1090C0000133E85450790133E85410790133E854FE
:1090D000D0780133E85490780133E854013302A882
:1090E00083815078E854013302A883811278EA54CE
:1090F000013383819BB22E22A25C002A01D000F0B2
:1091000055FC2D22A25C002A00D01AE2A278002A87
:1091100000D046E2E278002A1FD0D91C1F290FD9BF
:109120000C2000E0072018B01CBC90469946A246CF
:10913000F0BD0027022101209FE7C04678200020D3
:109140000220012708ADE854581C02339BB280B2BC
:109150002F54EA548BB202AA93816268002A0FD07E
:109160001078DA1C1F2ADBD802210A2708ADE9543F
:10917000591C02339BB289B26F54E85402AB9A81F6
:109180002389002B00D032E2238A002B00D0B9E1E2
:10919000238B002B00D049E2236A002B40D002AA87
:1091A00092890C20911D1F29BDD8188882465546EA
:1091B0000720052DB7D9D04D5544ADB2AC46CF4DA3
:1091C000A846AC45AFD95D88A946052DABD9CA4D97
:1091D0006F46AC46CC446546FD81FD894545A2D924
:1091E000C74DAA4503D0A94501D0CA459BD8052043
:1091F000122708ADA854501C80B22F54901C80B286
:1092000002AFB8811F88281807703F0A47700432E0
:109210005B8892B2AD182B701B0A6B7002AB998100
:10922000676A002F2FD0BB880C20991C02AB9B894A
:109230009A1C55181F2D00D975E7FE2900D972E731
:1092400008AD0131E954591C89B2F330685492B227
:1092500002A98A813988AA180433117098B2090AC0
:1092600002AB51709881BA88002A0CD0B9680029E5
:1092700000D157E7281803F0C0FB02ABBA889B89DE
:10928000D31802AA93812C23E15C002900D062E26A
:109290002378002B00D0AAE2002E00D1A2E1F378BF
:1092A000002B00D03EE702AAD489D381736B002B38
:1092B00000D1DAE11B78022C00D831E7022210AF8E
:1092C000BB7003230521152003253A700F327A70F5
:1092D00002AAD38101339C46013B326B002A3ED067
:1092E000844200D21CE71123604610AF7B55013B3E
:1092F0003B54D37B7B54907B4B1CF854507B8B1C92
:10930000F854107BCB1CF854D07A0B1DF854907A8B
:109310004B1DF854507A8B1DF854107ACB1DF8541D
:10932000D0790133F85490790133F85450790133EE
:10933000F85410790133F854D0780133F854907808
:109340000133F854013302A8C38150781031F85426
:10935000013302A8C3811278C181FA548BB22E2244
:10936000B25C002A00D087E12D22B25C002A00D036
:10937000A2E1B278002A00D0CCE1F278002A10D025
:10938000D91CA14200D9CBE60220012510AFF85428
:10939000581C02339BB280B23D54FA548BB202AADD
:1093A000D3817268002A10D01078DA1CA24200D94A
:1093B000B6E602210A2510AFF954591C02339BB2BC
:1093C00089B27D54F85402ABDA813389002B00D086
:1093D00017E2338A002B00D035E2338B002B00D00C
:1093E00053E2326A002A40D002ABDB890C20991D7F
:1093F000A14200D997E61088844665460720052DCE
:1094000000D890E63C4D3D4F6544ADB2B846BD42F4
:1094100000D888E65588052D00D884E6364FEF1928
:10942000BFB2474500D87EE6354FBC4504D0BD42AB
:1094300002D0AC4500D976E60520122510AFF854CD
:10944000581C80B23D54981C80B202ADE88115884A
:10945000381805702D0A4570043352889BB2FF18E6
:109460003A7002AB120A7A70D981756A002D30D039
:1094700002ABA988DB898F1C9A1CD01984460C206A
:10948000A44500D94FE6FE2F00D94CE610AF0331BA
:10949000F954591C89B2F330785492B202A9CA81A6
:1094A0002988BA180433117098B2090A02AB5170B6
:1094B000D881AA88002A0CD0A968002900D131E6F9
:1094C000381803F09AFA02ABAA88DB89D31802AAEB
:1094D000D3812C23F15C002900D0FAE110AF33785E
:1094E000002B00D045E23A1C02AB9B7B02A9097B12
:1094F00008A803F0BFF816E67FF3FFFF7DF3000036
:10950000FFFF000005AB271C00931F23103708AD99
:1095100098460193381C032102222B1C02F0EEFF17
:10952000002800D0FFE505AB00934346381C0193AB
:10953000072110222B1C02F0E1FF002800D0F2E5E9
:1095400026E609330C201F2B00D9ECE510AF381CA0
:1095500003F092F8002800D0E5E5082202AB9B89D1
:1095600008ADEA545A1C023398B21B2102AB9C4648
:1095700092B2A9541E31988161440622281803F042
:109580003CFA02AB9B8902A99A1D92B28A81397872
:10959000002900D001210733A9549BB202AA93816C
:1095A000B4E504330C201F2B00D9BCE510AF381CE8
:1095B00003F05EF8002800D0B5E50322192102ABC4
:1095C0009B8908ADEA545A1C92B2A9549A1C398856
:1095D00092B2AD18043329709BB2090A02AA6970CD
:1095E000938197E502ABDE81002200237EE705AB85
:1095F000271C00931F23083708AD98460193381C99
:10960000022102222B1C02F079FF002800D08AE5FB
:1096100005AB00934346381C0193062110222B1CF6
:1096200002F06CFF002800D07DE5ADE505AB271CFE
:1096300000931F23183708AD98460193381C142156
:1096400002222B1C02F05AFF002800D06BE505AB6C
:1096500000934346381C0193152110222B1C02F065
:109660004DFF002800D05EE596E501339C460221BF
:1096700012200025002330E6D91C0C20A14200D97D
:1096800051E51C250A3810AFF8548046581C80B2AA
:1096900002333D549BB2022A00D181E100D877E128
:1096A000032A00D17FE1042A00D03BE50322FA54CB
:1096B0008BB202AAD38157E609330C20A34200D90A
:1096C00031E506AD281C02F0D7FF002800D02AE5BE
:1096D000082202ABDB8910AFFA545A1C023398B24D
:1096E0001B2102AB9C4692B2B9540A39D88161441D
:1096F0000622381803F081F902ABDB8929789A1D1C
:1097000092B2002900D001210733B9549BB202AABA
:10971000D3812EE604330C20A34200D903E506AD25
:10972000281C02F0A5FF002800D0FCE40322192128
:1097300002ABDB8910AFFA545A1C92B2B9549A1C8E
:10974000298892B2BF18043339709BB2090A02AA61
:109750007970D38111E6A76A002F00D1E2E4BB88BB
:109760000233FE2B00D9DBE402AA90890022904646
:10977000163291461632924608AD4A4601332B54B2
:10978000431C9BB2EA54831C9BB202AA93813A8881
:10979000EB181A700430120A5A7080B202AB98812A
:1097A000BA88002A0FD0B968002900D1BAE4281875
:1097B00003F023F902AB9B89B888C01880B202ABD2
:1097C00098815346E15C43460133DBB298468B42B5
:1097D00000D35DE543465F00A36A47449C46BF0053
:1097E0006744BB880233FE2BC7D90C209BE4201CA6
:1097F00008A905AA1F2302F0F5FE002800D14BE5B9
:1098000091E402AA9446351C0E230835634410AF38
:1098100000930194281C022102223B1C02F06EFEE0
:10982000002800D07FE402AA94460E2363440093EC
:109830000194281C062110223B1C02F05FFE002828
:1098400000D070E4C5E502AA9446351C0E231035FD
:10985000634410AF00930194281C032102223B1C97
:1098600002F04CFE002800D05DE402AA94460E23CC
:10987000634400930194281C072110223B1C02F032
:109880003DFE002800D04EE4A7E502AA9446351C10
:109890000E231835634410AF00930194281C142143
:1098A00002223B1C02F02AFE002801D0FFF73BFCFD
:1098B00002AA94460E23634400930194281C1521A8
:1098C00010223B1C02F01AFE002801D0FFF72BFCEF
:1098D00087E5B56A002D01D1FFF724FCAB88023380
:1098E000FE2B01D9FFF71CFC02AAD089002290466A
:1098F000163291461632924610AF4A4601333B5417
:10990000431C9BB2FA54831C9BB202AAD3812A88BF
:10991000FB181A700430120A5A7080B202ABD88158
:10992000AA88002A10D0A968002901D1FFF7FAFB04
:10993000381803F062F802ABDB89A888C01880B23F
:1099400002ABD8815346F15C43460133DBB2984603
:109950008B4200D3C3E543465D00B36A45449C4651
:10996000AD006544AB880233FE2BC6D90C20FFF74F
:10997000DAFB02AA94460E2363441A1C301C391CDD
:10998000231C02F02FFE002800D1ACE5FFF7CBFB33
:10999000012A01D0FFF7C6FB0022FB181A7087E6E8
:1099A0000122FA5484E64246FA5481E602201C273A
:1099B000591C08AD89B2E8546F54191889B2824213
:1099C0000ED012D9032A0ED0042A01D0FFF7AAFB29
:1099D00003226A5403339BB202AA9381FFF791FBDF
:1099E00001226A54F6E76854F4E7012A01D0FFF730
:1099F00099FB00226D182A70ECE7C04608B5002AD2
:109A000001D1002008BDFFF75BFAC04670B5294CB4
:109A10000425237882B01A1CAA4316D0022825D028
:109A2000032812D1244A126812071FD46268013237
:109A30006260032A27D0022B1FD0FEF787FC1F4B42
:109A40001A78002A05D102B070BD02380128FAD870
:109A5000F5E700221A701A4B187802F033FB002841
:109A6000F1D02369002BEED09847ECE701F07EFDA2
:109A7000124B1A78002AE6D0EBE7237A114A9B00B2
:109A80009B589847DBE71048027893009B189B008F
:109A9000C618301CF268736951008A183179E6687B
:109AA00092000096094E0C3096590D22B047257051
:109AB000C3E7C046B0200020AC2300201C260020B5
:109AC0004C2500203CCA010050250020B023002076
:109AD000F0B556464D4644465F46F0B4BFB0FEF77B
:109AE000B7FF0322D34CD4492276221C1C320A60D1
:109AF000211C3431002321622421052263540131C9
:109B0000635401316254211CAC31A1622C21635495
:109B100089460131635401316254A277221C8026A8
:109B2000C0202532FF322263C44A3A31535488465A
:109B300001315354C2497603400053666361237771
:109B400063770E509530FF308446FF2567460858EE
:109B5000A8433F3D2843C851A1200E60B94EC00024
:109B60003350F938FF388446085882465746B6487D
:109B70003840C0273F0238436746C851B3490020E8
:109B80007158D166B24970320A604821B14A1180D9
:109B9000B14AB249136002F09FF9002801D0FFF7E3
:109BA0008FF901239A465246AD4B16301A7002F0D7
:109BB00095F9011EF3D107AE0822301CFEF7F8FA22
:109BC00052463378301C1A43327001F025F90028D0
:109BD000E5D14946A34AA44B1A60A44AA44B1A6093
:109BE000A44B0222585440215854891858528918BD
:109BF00058521031187058701871D880DA60186196
:109C000058611881187658831A625862986298834E
:109C1000D8855A639863D86318869A64D86418659F
:109C200058548918585289185852414658546A2134
:109C300058528918585210315854891858520631C0
:109C40005A5004315850043158500C395852103180
:109C500058548918585206315A500431585004311A
:109C600058500C39585210315854891858520631EE
:109C70005A5004315850043158500C395852103150
:109C80005854DA651A675A518918C232985004320A
:109C90001866586658679867585298500C3A985208
:109CA000754B18879B46754B5869431C00D1F4E2ED
:109CB00080235B05196989B202F0E4FC80235B050F
:109CC0001B6903389BB2002558435B46D8631D646B
:109CD0006B4B6C481D601D815D81DD609D82DD8266
:109CE0005B465D64684B291C994604234A46136011
:109CF000664B07221D605D729D7201238372023BD9
:109D0000984603814346C37225706560FEF750FA9A
:109D10005F48291C2422FEF74BFA5E4B5E4E9A46A2
:109D200001231F1C301C00210622FEF741FA301CC3
:109D3000102211380021FEF73BFAFF22731E1A7021
:109D400072724246F31D1A803B1C5246AB401268A9
:109D50001C369A43131C52461360504AAB0094467B
:109D6000002263441A605B4642464833EA54013598
:109D7000072DD7D14B461B685B0700D40FE7802225
:109D8000520513699BB2732B00D808E75B46DD6B65
:109D90003A4B5869431C00D183E2116989B202F041
:109DA00071FC8022CB215205136901389BB24343D9
:109DB00089006918994200D9F1E65B461B8F9846E5
:109DC000022B00D1EBE64146354B364822C30C232B
:109DD00059439A462A4E2A4B70505B1874211981B8
:109DE0006D395D605981304B10699C46116980B2B4
:109DF00089B26044166902F0D5FC5B46B6B2704386
:109E00004519DD6343465A460133138759464F23AC
:109E10000122CA5400231F1C534604260393042323
:109E20009A464B461B68334240D100224F23594685
:109E3000CA54B4E6B02000206C2600203022002056
:109E400000E100E000100140FF00FFFF04050000FA
:109E5000202500201C2500200C25002069B70100CA
:109E600010250020D9A20100182500200D9A01001C
:109E70001425002050250020B022002000100010E2
:109E8000B0230020E4240020AC230020EC23002099
:109E9000C8230020C424002011240020F024002026
:109EA000F823002001B901002B030000B64B1B680A
:109EB000012BBAD8039AB5495A438958029100290F
:109EC000B3D0B249B04D8C46391C6D686244AC4683
:109ED0000295108955894143454352686144AA1847
:109EE0009142A2D230931C38A94B80B23191984252
:109EF0009BD803230B40984697D11C257D43A54B47
:109F00001C22ED18281C02F078FD309A039B30A823
:109F100053431C2200929D4A02219B5842469C4674
:109F20002B1CE0473B1C01331F1E072F00D076E798
:109F300002AA9446292363444146181C052201269F
:109F4000FEF736F902220BAD6B799046334393430B
:109F50001A329343103A1343143293436B715946A8
:109F600010232F329946EB718A5C8B4BAF710B93A8
:109F70002E71002A00D112E6884A1568002D00D003
:109F80000DE6101C02AA944608C029236344191C3C
:109F9000052202F032FD4246804B9E721B7AB3438B
:109FA0001343524693437D4A1372D3794246334357
:109FB000134352469343794AD3715A465023D5549A
:109FC0004B463343764E05AD301C2B7002F01EFD20
:109FD000311C82B2281C00F021FF002800D0DEE5F1
:109FE00009AD281C00210822FEF7E2F850232B803F
:109FF000DB186B800023AB809133FF33281CEB8090
:10A0000000F00EFF002800D0C9E566490EA8143103
:10A01000102202F0F2FC644B06AD2B8002AB122141
:10A020009C460EA8614402F029FB002800D0B6E54A
:10A030005A4601305632291C02F022FB8246002883
:10A0400000D0ACE551461C2230A8FEF7B1F812ABA7
:10A05000181C19AE5146032222AD9846FEF7A8F807
:10A06000301C51460322FEF7A3F851461422281C47
:10A07000FEF79EF851463822281CFEF799F8022375
:10A08000301C2B70514604332422EB70FEF790F8FD
:10A090005146382230A8FEF78BF8C821012302AAC6
:10A0A000521851461380414A33733592404A2C333B
:10A0B00011704049404AFF331160524622613F4AC5
:10A0C0001D93783B1E93301C131C16C816C316C86C
:10A0D00016C316C816C3514607223948FEF768F85A
:10A0E0005A46384B58321A605A46374C78325146E5
:10A0F0009A60201C3822FEF75BF82B7826AA237082
:10A10000AB78A370EB78E3706B786370231C10332B
:10A1100003CA03C3231C24AA083303CA03C3231C92
:10A1200028AA183303CA03C36E6A002E17D0274A21
:10A130005146131C18336362131C24331362338893
:10A1400094461383B388994693834A4605E0B368DF
:10A15000585C63462433C85401319142F7D3AE6A48
:10A16000002E40D0194A131C5033D364131C4433BF
:10A17000A362B188998044238C463188D152111C46
:10A18000002362468C4629E0F8230020B0230020FB
:10A19000E3FF000000240020FD990100EC230020D3
:10A1A00060CA01003CCA01000DF0FFFF60200020E2
:10A1B0004C250020D9AD01004C2600202826002087
:10A1C0002026002054260020782000203023002064
:10A1D000B168C85C61465031585401339342F7D39B
:10A1E0002C23EA5CE2542B6A002B08D02E4A111C67
:10A1F000703121625888488019887023D1526B6869
:10A20000002B00D0636030A8FEF716FF041E00D0BC
:10A21000C5E4211C1C224046FDF7CAFFA02342468C
:10A220009B025360F02303251B0393601F482049C2
:10A23000204B906153611573D481147443460A1CFA
:10A240001294C2CBC2C2C2CBC2C21B4B10601B480D
:10A250001C7002F051F9002800D0A0E40122184B34
:10A2600052421A80174B1870174B1B68002B00D1F5
:10A2700095E4164B1A7C002A00D090E41A745A74A4
:10A28000134A281C5A6101F01DFF002800D086E403
:10A2900000F0C0FD0028FBD081E480235B055869F5
:10A2A0000CE550697DE5C04630230020EDAD01008E
:10A2B00028250020F5AD010090260020442500202F
:10A2C00024250020262500206C2600207026002052
:10A2D0003DC001003CDF7047F0B544465F4656463E
:10A2E0004D46FF23F0B4C34A93B01278041C079381
:10A2F000002A27D0C04A904612689146002A21D0F1
:10A3000008AD09AE6B70AB70EB70031D73602A2350
:10A310003381002302882B70102A00D180E2B74FCE
:10A320008388B87A9C46830700D5CBE0FF2304934B
:10A330000393111C113989B2412904D8B04B89000B
:10A3400059588F462288112A00D181E000D86CE04C
:10A35000122A45D0502A4BD1AA4BE188DA89914282
:10A3600057D1E28B022A54D11E32A15C1F3A0A4017
:10A370003BD1A5490968002900D19AE3A34D68693A
:10A38000002800D195E32A74A14A10205268D20512
:10A39000D20D01D000F0C3FC081842788178561C19
:10A3A000F6B2891B4F1EB94149420E400178B142B5
:10A3B00001D100F0A5FC51008A184168D2008C46FA
:10A3C0006244002A01D100F09BFC0223802113701B
:10A3D0005560904A4903FE334670D150228807E009
:10A3E000A11D8D48082202F008FB01F0D9FF228848
:10A3F000102A15D0112A00D07BE001220021874BC2
:10A4000052421A80864A5B881170A2889A4200D113
:10A4100000E213B03CBC90469946A246AB46F0BD64
:10A42000A2887E4B1A805A80F3E7102AE2D1211CC1
:10A43000A2887C4B78481A801631082202F0DDFA97
:10A440000022794B1A706F4BDB89002BCFD1CCE700
:10A450000122744B52421A800023734A13706A4AD5
:10A46000106800283CD0694D6A69002A38D02B74E6
:10A47000674B10225B68DB05DB0D00D0FDE2801826
:10A4800043788278591CC9B2521A561EB2415242C0
:10A49000114002788A4200D12BE25A00D318426858
:10A4A000DB0094466344002B00D122E202225D606F
:10A4B0001A70417080238021564A49035B00D150B5
:10A4C000228895E7594B9C4503D03B89634500D0D2
:10A4D0002CE7FB7A0393AB7000236B70049328E79F
:10A4E0000820484B9B69002B00D180E798472288C1
:10A4F0007EE7192A01D000F05DFCA279002A00D085
:10A5000087E74B4B1B78022B00D1BBE100D8B0E1B1
:10A51000032B00D16FE1042B00D07AE7454B1A7072
:10A52000454B1B68002B00D173E70020984770E76C
:10A530000222031C0821934301401A1CBB728A4665
:10A54000002900D1A4E152B2002A00DA3DE3102331
:10A55000BB720233337000239B46281C311C5A46C1
:10A56000C8473378122B00D0ECE6BB7A012B00D120
:10A57000E8E60123BB72023B07223B81FB72381CD9
:10A580000021FDF715FE2288DDE613233370042336
:10A59000F97A1843B872FF2900D145E21623002149
:10A5A0001A2226483370FDF703FE4023BA7AF97A5F
:10A5B0001343BB7200239B46214B9A460022CB00DB
:10A5C000591A204B890051440C931F4B0F92109144
:10A5D00011920D920E9298461A1CA08800210CAB85
:10A5E00001F06EFD002800D0ACE64346043B1B683A
:10A5F0009946B2E7FF220020EC230020E42400204B
:10A6000074CA0100282500206C2600207026002036
:10A6100000ED00E000E100E064260020642000205E
:10A62000522600202425002026250020FFFF0000C0
:10A630004C250020512600204C260020D02300204D
:10A6400000240020C8240020F0230020FB7AFF2BE8
:10A6500000D15EE2A84BA9499A46524660460023C3
:10A6600001F02CFD22886EE61323337000239B46F5
:10A6700073E7434601215A7A8A435A72042214230B
:10A680009043B8723370A3799B46002B00D051E100
:10A69000E3799C4600239B4663461A4200D15CE75F
:10A6A000039BFF2B00D158E708221043E27AB872CF
:10A6B000930708D5039B9048DA00D21A92008218BB
:10A6C000907E88439076FA7AFF2ACFD08A4B3A78E8
:10A6D0009A46039B022A00D105E3DA00D11A8900C9
:10A6E0003B6851440B61BB88887E8B82BB798B753C
:10A6F000022398438876824909684B07B6D5814B77
:10A700001B689B46012BB1D87F4B0C219C465B46B6
:10A7100059436346CB58002BA8D061440B8903985A
:10A720005843844677484068844448894968584378
:10A73000401884459AD25B460C9363460C210D93D6
:10A74000049B4B43FB1871499B7A8B465B0601D4F3
:10A750006F4B9B460CAB9946039B4846D11A8A0027
:10A760005244111C00231C22D847002811D16A78BA
:10A77000403053009B189B00FB18997A81439972D3
:10A78000D3009B1A5D499B00591848461C221C2384
:10A79000D8472B7848465A00D3189B0043449B7AED
:10A7A0005C4A9B009B58291C984743461B68994666
:10A7B0005CE7A379112B02D1030700D597E1802331
:10A7C0005B421843953333704346B8729B7A524AC2
:10A7D0009B009B58281C984743461B6899460023BA
:10A7E0009B46BAE643469B7A4B4A9B009B58281CE3
:10A7F00098472288A7E5494A0420137001F062FCBB
:10A80000002800D105E6464B1B68002B00D100E66E
:10A810009847FEE5012001F055FC0028F3D1F8E54A
:10A820000121404F8946BA7A114200D1FFE5022248
:10A83000BA720F3232706B7083880A3A3B81831D83
:10A84000191C381C9B4602F0D8F84A46237D1A4250
:10A8500000D134E1344A5B08D35CFF2B00D191E195
:10A860000A220793FB72BA72281CAB7001F086FBB8
:10A87000B2E7012B00D0CCE5022001F023FC002838
:10A88000C1D1C6E5032001F01DFC0028BBD1C0E505
:10A89000039AFF2A00D15AE6D3009B1A9B009946DF
:10A8A000154B00219B464B44181CD94406221130FD
:10A8B000FDF77EFC484600211022FDF779FC494651
:10A8C000FF230B748B76013BFF3B9C4601236246C2
:10A8D00003980A838340154A1168994311605146D1
:10A8E000134B8200D1506346AB7043461B689946B8
:10A8F0002DE60420F5E5C04600240020C8240020F1
:10A90000AC230020F8230020B0230020D9AE0100A2
:10A9100069AF01008CCB01007CCB010051260020E7
:10A92000C0200020E4240020F8220020C4240020BD
:10A93000F0240020FB7A9A46D74B1B68134200D1C3
:10A940000BE6D64B1A689C46012A00D905E60C2373
:10A950005343D3481958002900D1FEE5C318059385
:10A960001889534661464343496804905B18039332
:10A97000059B049958685B894B431918039B059103
:10A980008B4200D3E9E50C9203220D93134200D0D1
:10A99000E3E5181A049901F0FBFE002900D0DCE57C
:10A9A0007420049901F0F4FE8AB2002A00D0D4E5A4
:10A9B000039B05997433994200D2CEE5009203209F
:10A9C0000CA97423FEF7F2FA002827D15346524609
:10A9D000DB009B1A9B009946B24B0021181C9B463A
:10A9E00048440622D9441130FDF7E2FB0021102231
:10A9F0004846FDF7DDFB4A46FF2351461374937624
:10AA0000013BFF3B138302338B40A74A11689943F4
:10AA1000534611600021A54A9B009950A3799B469B
:10AA200043461B68994698E59E4B9A469B7EFF2BB2
:10AA300000D197E136235246D35CFF2B00D18FE142
:10AA40005223D35CFF2B00D192E16E23D35CFF2B0A
:10AA500000D18BE18A23D35CFF2B00D184E1A623B4
:10AA6000D35CFF2B00D18FE0C223D35C0622FF2BE7
:10AA700000D18AE08E4B9B46A0E5103BD9B24AB28A
:10AA8000002A00DA24E192088A49C0329200525822
:10AA900003210B40DB00DA4013069B0FDBB20022E0
:10AAA000012B00D1EBE40832032B00D1E7E408329C
:10AAB000E5E408209B69002B00D017E597E47E4B66
:10AAC0009A46002399463B1C4F46A14654469A4657
:10AAD000201C5946072201F081FF002800D111E116
:10AAE00001371C34072FF3D14C46574674E61A221F
:10AAF00072480021FDF75CFB162333706023BA7A9D
:10AB00001343BB7243465A7A02231343424653729D
:10AB100062E6644AE3899246128B9A4200D147E189
:10AB20005246928E9A4200D140E1502251468A5AB2
:10AB30009A4200D138E16C228A5A9A4200D131E11E
:10AB400088228A5A9A4200D12AE1A4228A5A9A4239
:10AB500000D123E1C0228A5A00219A4200D07CE52C
:10AB600006230822DBB21043FB72B872281CAB70BC
:10AB700001F004FAFB7AFF2B00D10BE1A3885049C6
:10AB80009C466AE50A226DE605223B78022B00D13D
:10AB9000E3E0D300991A89005144081C1030844620
:10ABA000386808616046B9888180B9798171FD2172
:10ABB0009B1A9B005344997607AB1A70079BD9B236
:10ABC0000023A970F9729B46F8E4334A12685307D0
:10ABD00000D4BCE431490868012800D9B7E4304BFF
:10ABE0009C460C231A1C9B4663464243D358002BB9
:10ABF00000D1ACE4131C634405931B8949689A4651
:10AC00005246039B53439C46059B61445B899C468B
:10AC10005346624653439C46059B5A6862449142A0
:10AC200000D394E45B46049A0C9053430D91FB18B7
:10AC3000244A9B7A92465B0601D4234B9A460CAB7E
:10AC40009946039A1749D3009B1A9B005918484606
:10AC50001C220023D04700280ED10C236A784030F4
:10AC60005343FB18997A814399721C235A43144920
:10AC7000484651181A1CD0472B7848465A00D3181A
:10AC80009B0043449B7A114A9B009B58291C984780
:10AC900043461B6899465AE4AC230020F823002061
:10ACA000B023002000240020C4240020F024002031
:10ACB0004380000000E100E010240020D0230020A9
:10ACC000C8240020D9AE010065B701008CCB01007B
:10ACD0000F233D4A0B409446083B9B089B0063446E
:10ACE0005A680323D5E6DA00D11A384B89005B8A0B
:10ACF00051440B830123081C897E99438176FAE431
:10AD00000420D7E64C46B9464B466A4607934B4665
:10AD100057461373137B0822B97A0A43A2E5103A07
:10AD2000D6B270B2002825DB8008294EC0308000E2
:10AD3000805903263240B240D040C2B29209D2B20A
:10AD40000020012A01D1FFF727FB0830032A01D197
:10AD5000FFF722FB0830FFF71FFBFE21D30027E798
:10AD6000012212E7002210E704220EE703220CE77B
:10AD700002220AE70F22144832408446083A920819
:10AD800092006244506803223240D200D040C2B2E6
:10AD90009209D4E7A38800219C465EE40523E0E6FF
:10ADA0000423DEE60323DCE60223DAE60123D8E609
:10ADB0000023D6E6102A01D0FFF72BFBA288054B13
:10ADC0005A80FFF726FBC04618ED00E0C82400209B
:10ADD00000E100E06420002008B5002800D008BD94
:10ADE000FFF778FA0028FAD0FEF76AF808B5FEF700
:10ADF00067F8C04608B50378002B00D008BD044BA7
:10AE00003B21188800F0E8FA0028F7D0FEF758F840
:10AE10006420002048DF704760DF70477CDF7047A8
:10AE20007ADF7047082170B50C1C244A82B0136881
:10AE30001C4009D08B431360214B224A1B789B0096
:10AE40009B58984702B070BD1F4D2B789800C318CF
:10AE50009B00EE18317904292AD0F26873695000FA
:10AE60008218301C194E920036680C300096184E2D
:10AE700096590022B04702202A7893009B189B0025
:10AE8000EB181C71DC80D8601C615C611C816B78E4
:10AE90000132013BD2B26B700A2A06D02A7000221E
:10AEA0000C4B1A70FDF752FACCE700232B70F6E733
:10AEB0000122084B1A70FDF749FAC3E7AC230020C2
:10AEC000B82000203CCA010050250020BC200020F2
:10AED000B0230020B0200020F0B5474680B4204CBD
:10AEE000051C246882B00820640703D402B004BCA7
:10AEF0009046F0BD002930D0002D2ED02C680138AE
:10AF0000012CF3D867003C19164EA400A759002F56
:10AF1000ECD06F683419BC4626896789B046774300
:10AF20006668BC19A445E1D2002ADFD04245DDD8CD
:10AF3000D418A045DADB09308C07D7D1032423428B
:10AF4000D4D166462642D1D1181C131C00900A1C8D
:10AF50000420291CFEF72AF8C8E70E20C6E7C046E1
:10AF6000AC230020B0230020F0B5474680B4204C2D
:10AF7000051C246882B00820640703D402B004BC16
:10AF80009046F0BD002930D0002D2ED02C6801381D
:10AF9000012CF3D867003C19164EA400A759002FC6
:10AFA000ECD06F683419BC4626896789B046774370
:10AFB0006668BC19A445E1D2002ADFD04245DDD83D
:10AFC000D418A045DADB09308C07D7D103242342FB
:10AFD000D4D166462642D1D1181C131C00900A1CFD
:10AFE0000120291CFDF7E2FFC8E70E20C6E7C04696
:10AFF000AC230020B0230020082230B51E4C83B0C3
:10B0000023681A4215D19A0702D5012213432360FF
:10B0100002221A4B1A701A4B1868FDF7D3F8021E59
:10B0200005D011280ED1082322681343236003B0F2
:10B0300030BD93432360114B124A1B789B009B58F1
:10B040009847F4E710490B789800C01880000D1855
:10B05000281CEB6829795C00E4186B690B4DA4008F
:10B060002D680C3000950A4D6459A0470422094B05
:10B070001A70FDF76BF9DAE7AC230020B820002046
:10B08000F02200203CCA010050250020BC200020F6
:10B09000B0230020B0200020082230B52B4C83B014
:10B0A00023681A4209D093432360294B294A1B780D
:10B0B0009B009B58984703B030BD254B073A1A7048
:10B0C000254B5869431C3CD080235B051969090452
:10B0D000090C01F0D7FA051C80235B051869196972
:10B0E00000041A69000C6B1E58431C4B09041B68B2
:10B0F000090C92B292085943FDF766F8021EDAD0A5
:10B10000112804D10823226813432360D3E714498C
:10B110000B789800C01880000D18281CEB6829795E
:10B120005C00E4186B690F4DA4002D680C3000958D
:10B130000D4D6459A04704220C4B1A70FDF706F917
:10B14000B9E780235B055D69C6E7C046AC230020F4
:10B15000B82000203CCA010000100010F02200209E
:10B1600050250020BC200020B0230020B02000206B
:10B17000F0B5564644465F464D460823F0B48C4E23
:10B1800083B03468234200D095E08A4B1A68571C7C
:10B190001F60894B1D689A46002D51D1874B802234
:10B1A00099461B7852059D00ED18AB009846082380
:10B1B0004D469B464544AB445B469B681169581E0F
:10B1C000EB880904C0182B89090CC01801F05AFA41
:10B1D000874200D284E0534600D17DE05F68002FB3
:10B1E00000D19AE001231A1C224000D08FE01C43BA
:10B1F000734B34601A70734B5869431C00D1BCE028
:10B2000080235B0519690904090C01F03BFA031C52
:10B2100080225205106911690004013B000C0904E9
:10B220005843090C01F02EFAFCF7CCFF021E4AD05D
:10B23000112800D0A5E0082332681343336042E0B0
:10B2400004215F4B197080235B051C692404240CC6
:10B2500054435C4A5069421C3CD019690904090CEA
:10B2600001F010FA80235B05196901380904090C03
:10B2700041432A1C201CFCF7A7FF021E23D01128E3
:10B28000D9D04E4801788B005B189B00C518281C4C
:10B29000E9684C006418A40029796B694A4D0C30A8
:10B2A0002D680095494D6459A0470422484B1A70F7
:10B2B000FDF74CF807E09C43414B464A1B7834604D
:10B2C0009B009B58984703B03CBC90469946A246C9
:10B2D000AB46F0BD5869C5E75B68002B00D081E73D
:10B2E0000222374B381C1A70FCF76CFF021EEAD0A2
:10B2F0001128A0D04B461B789900CB1849469B00DB
:10B30000CD18E968281C4C006418A400C4E7032287
:10B310002B4B1A70FDF7A0F9D5E7297904293DD008
:10B320005B464046284C5B6824685A00D2186B691B
:10B330000094264C920048440C3014590022A04737
:10B340004B4602201A78494693009B189B004B44B9
:10B350001F71DF80D8601F615F611F814B465B7882
:10B360000132013BD2B24B700A2A1DD00A70002272
:10B37000174B1A70FCF7EAFFA5E780235B055B69B2
:10B3800046E74B461B789800C0184B4680001D18B6
:10B39000EB68281C5C00E418A4007DE701220C4B3C
:10B3A0001A70FCF7D3FF8EE700230B70DFE7C0466F
:10B3B000AC230020F0220020A423002050250020F0
:10B3C000B820002000100010BC200020B023002076
:10B3D000B02000203CCA010076DF7047F0B55F4620
:10B3E00056464D464446F0B45B4B5C481A7880277D
:10B3F00091008A1892009B18DD681E696A00521934
:10B4000092008218148950895268604380469044A3
:10B41000DA881B89141C9946514B92469B4600239F
:10B420005A467F05396983B009044C445360090CBE
:10B43000301CA41901F0ACF9002924D13B699BB25E
:10B440009A4537D044456CD0032D33D0301C396930
:10B45000484489B201F09CF95B4689081960396952
:10B46000201C0904090C01F093F9002932D10222B1
:10B470003C4B1A70FCF76AFF03B03CBC90469946FF
:10B48000A246AB46F0BD032D14D0301C39694844A8
:10B490000904090C01F07CF95B46890819603969D7
:10B4A0004445E4D00904090C201C01F071F900297D
:10B4B000DDD00FE080235B051969301C0904090CFD
:10B4C00001F0E0F80322284B1860264B1A70FCF7B5
:10B4D0003DFFD1E780256D0529692B696A469946AC
:10B4E0004346D380D08889B201F0CCF86A464B46F7
:10B4F000A6B2D380071CD188301C01F0C3F8BFB2BC
:10B5000080B287421DD02C692969301C89B201F0B4
:10B510003FF95B462404240C89B2641AA4085C60D9
:10B52000A5E74B46002BC5D0032DC3D0301C39698D
:10B53000484489B201F02CF95B46890819603B69DF
:10B5400095E7434624041B041A0C240C131B5A468B
:10B550009B0853608BE7C04650250020B023002095
:10B56000A4230020B0200020F0220020F0B54746A0
:10B5700080B4694C82B02378022B00D1AAE0032B5F
:10B5800043D0012B03D002B004BC9046F0BD08218B
:10B59000624A1368194200D0A3E0614E61493378D2
:10B5A0000D689800C3189B00F218D1884D1BADB2EE
:10B5B000D580002D00D099E0101CD16853694F0050
:10B5C0007F181179584ABF0012680C300092574A10
:10B5D000BF580022B8470220327893009B189B0086
:10B5E000F3181D71DD80D8601D615D611D81737868
:10B5F0000132013BD2B273700A2A00D182E032706C
:10B6000000232370FCF7A2FEBDE70821434A13681C
:10B61000194266D1464B424E1A683578571C1F6056
:10B6200080235B051969AB0098465B199B00F318F2
:10B630001A690904501EDA881B898018C018090C81
:10B6400001F020F8874258D353D04544AD00771914
:10B650003979042954D0FB687019334D5A00D21837
:10B660007B692F6892000097304F0C30D759002229
:10B67000B84700210227327893009B189B00F318EB
:10B680001971D980DF6019615961198173780132AC
:10B69000013BDBB2D2B273700A2A35D0327000217E
:10B6A0002448217001601F480160002B00D16AE727
:10B6B00093009A189200B618F3882B603379032B05
:10B6C00026D0042B24D0012B00D05CE72370FCF79C
:10B6D0003DFE58E7184B194A1B789B009B5898472A
:10B6E00051E78B431360FCF731FE4CE7FCF76EFD2E
:10B6F00049E7134B5B68002BA7D1FCF727FE42E715
:10B700000123E3E735707BE7002232700022C6E7B1
:10B71000FFF764FE37E7C046B0200020AC230020CE
:10B7200050250020F4220020BC200020B02300205F
:10B73000F0220020B4200020B82000209CCB010083
:10B74000A423002061DF704751DF7047002070475D
:10B75000002070470020704700207047002070478D
:10B76000002070470020704708B5FDF7A9FBC046D0
:10B77000F0B54F464646C0B42E4C83B025684A7893
:10B7800008236D0705D4181C03B00CBC90469946DD
:10B79000F0BD002844D00568013B012DF3D86E00B0
:10B7A0007519AD0065196E68002EECD04668EF89FA
:10B7B000B446AE897743B046AE68BD19AC45E2D217
:10B7C00045461D4E5C3DADB2B542DCD82426271C53
:10B7D000654672431C37BF18043B3D431D400D3383
:10B7E000002DD0D1884661468146321C3831381C44
:10B7F00001F003F94A460C23126800965343E318FC
:10B800005B682A1C9C4648463B1C0221E047434695
:10B810005B785E43A619326A013203D00023B2E797
:10B820000E23B0E7DA00D3189B00E418256200234A
:10B83000A9E7C046AC230020A3FF0000F0B54F46A7
:10B840004646C0B42C4D83B02A684B780824520772
:10B8500005D4201C03B00CBC90469946F0BD0028CE
:10B8600026D00268013C012AF3D85600B218920093
:10B87000AA185668002EECD04668D789B446968937
:10B880007743B0469668BA199445E2D242461B4EB9
:10B890005C3A92B2B242DCD824272E1C7B431C3681
:10B8A0006446F618032334431C4003D01024D0E729
:10B8B0000E24CEE78846614681463A1C3831301C5A
:10B8C00001F09BF84A460C23126800975343EB188B
:10B8D0005B68221C9C464846331C0221E0474346D5
:10B8E0005B785F43EF193A6A0132B2D1DA00D318BC
:10B8F0009B00ED182C62ACE7AC230020A3FF0000F6
:10B90000F0B54D4644465F465646F0B45D4D93B0A3
:10B910002C6C002C67D01C9C742C64D81F1C5A4BB8
:10B9200091460393002302AA0A9488468246137420
:10B930000B970024AB46042602E00134072C2BD0E1
:10B940002B683342F9D05B46DB6C012BF5D85A00EB
:10B95000D21892005A445168101D00900029ECD072
:10B960005846006D9189844601910198D2896143BE
:10B97000424300986144406812189142DDD205911B
:10B98000504604A90822049301F028F80028D4D1D5
:10B99000E4B203AEB47003E003AEB478FF2C22D05F
:10B9A0004346032B31D02B1C5433FB1AC32B21D914
:10B9B000364A131C1C33FB1A1B2B31D8002373701F
:10B9C0000CAB0B9318230A9308334246022A54D037
:10B9D0000222134302AA137409AB0793301C2B6C89
:10B9E00006A94A46984713B03CBC90469946A246E1
:10B9F000AB46F0BD4B462549002B0BD08B6901228D
:10BA0000A24093438B612023DFE71C9B742B32D031
:10BA10004323DFE70122A2408B691342E3D0EEE724
:10BA2000281C1C303B1A232B12D9402302A90B746B
:10BA3000174B9F42ECD0A300D3185B6C9F42D2D12E
:10BA40003832D27A4023A242BFD100227270BCE7C2
:10BA5000302302A90B74002373700133F370383262
:10BA6000927A2F339207B0D400212422FCF7A0FB56
:10BA700002AB1B7CA9E72323ACE70122134302AAF4
:10BA80001374A9E7AC23002000FFFFFFAC240020C3
:10BA9000B0CB0100F8B546464F46C0B44378334AB0
:10BAA000DC00E418A40080461019056A002D0DD0B2
:10BAB00059002F4FCA189200BA184032927856B2E5
:10BAC000002E49DB00260025002404E00026002586
:10BAD0000024274F5900CB189B00FB1840331888CF
:10BAE000211C2A1C331C00F0E5FA0B2808D0002882
:10BAF00016D02048012E16D00CBC90469946F8BDB1
:10BB000043465B78211C5A00D3189B00FB18403336
:10BB100018882A1C012300F0CDFA002803D1012641
:10BB20000020012EE8D143465B780C215A00D3183F
:10BB30009B00FF18403738880F4A00F0BDFA0028F4
:10BB4000DAD002220D4BC31893430CD008280AD038
:10BB5000112808D00020CFE75206B3D4041CADB2A0
:10BB60002434C669B7E70348C6E7C046AC230020C3
:10BB7000AC24002041800000FFFF0000FECFFFFF4B
:10BB8000F8B546464F46C0B44378314ADC00E41865
:10BB9000A40080461019056A002D0DD059002D4FC4
:10BBA000CA189200BA184032927856B2002E47DB7B
:10BBB00000260025002404E0002600250024254F4F
:10BBC0005900CB189B00FB1840331888211C2A1CF5
:10BBD000331C00F06FFA0B280CD0002803D1012E83
:10BBE00015D0002002E0012E11D01B480CBC90465D
:10BBF0009946F8BD43465B78211C5A00D3189B0038
:10BC0000FB18403318882A1C012300F053FA4346DE
:10BC10005B780C215A00D3189B00FF1840373888F6
:10BC20000E4A00F049FA0028DBD002220C4BC31860
:10BC30009343DAD00828D8D01128D6D00020D5E7F1
:10BC40005206B5D4041CADB22434C669B9E7C04667
:10BC5000AC230020AC24002041800000FFFF000046
:10BC6000FECFFFFFF0B5474680B488B01A236A467E
:10BC700053804B78324D5A00D3189B00EB18403359
:10BC8000061C18886B460C1C9A1C01A9032300F0A3
:10BC90000FFA002804D0002008B004BC9046F0BD84
:10BCA0001C2398466378274FD800C0186B46800045
:10BCB000B844083040445A8801A900F08FFE00289B
:10BCC00029D06378D900CA189200BA18126A002ADB
:10BCD00034D11D4D0322CB189B00FB18DA616B4653
:10BCE0005A886378D900CB189B00FB181A626378D6
:10BCF0001C37D800C0188000083001A9381800F09F
:10BD00007CFE6378301CD900C9188B00F9182422F6
:10BD10003823A847BFE7627853009B189B00ED18B3
:10BD20004035AB789B07B6D4D000801882004244DF
:10BD3000101C00212422FCF73BFAACE7034DC9E7B5
:10BD4000AC240020AC23002069AF0100D9AE010073
:10BD5000F0B5474680B488B01A236A4653804B78C2
:10BD6000324D5A00D3189B00EB184033061C18883C
:10BD70006B460C1C9A1C01A9032300F099F90028BA
:10BD800004D0002008B004BC9046F0BD1C239846A7
:10BD90006378274FD800C0186B468000B84408303D
:10BDA00040445A8801A900F019FE002829D0637880
:10BDB000D900CA189200BA18126A002A34D11D4D4F
:10BDC0000322CB189B00FB18DA616B465A88637814
:10BDD000D900CB189B00FB181A6263781C37D80077
:10BDE000C0188000083001A9381800F006FE6378FA
:10BDF000301CD900C9188B00F91824223823A84711
:10BE0000BFE7627853009B189B00ED184035AB7874
:10BE10009B07B6D4D000801882004244101C002139
:10BE20002422FCF7C5F9ACE7034DC9E7AC24002098
:10BE3000AC23002069AF0100D9AE0100F0B5254C5C
:10BE400083B0236E002B04D0984700281ED103B086
:10BE5000F0BD6423E35C002BF9D0A66EE56E73425F
:10BE60005E416B425D417027F6B2EDB2002E1AD0F2
:10BE7000002DECD16A46656FE35B281C911C538052
:10BE8000FFF760FC0528E2D000281AD0FDF718F86B
:10BE90006A46656FE35B281C911C5380FFF752FCD8
:10BEA0000528F1D1012501A8FFF74EFC05280DD08A
:10BEB0000028EBD10198A36E9847002DE8D001250A
:10BEC000F1E7281CE36E98470025CFE7002DBED18F
:10BED0000126CFE7AC24002010DF70472EDF70472B
:10BEE0001F4B1B78012B00D070471E4B1B681B0794
:10BEF000FAD1F0221C4B1B68134018D11B4B1B6856
:10BF000013421AD0174B1B681B07EDD1F022164BBA
:10BF10001B681340402BE7D1144B1B681342E3D13D
:10BF2000C12380220121DB00D205D150DCE7102B98
:10BF30000FD10E4B1B681342E8D10D4A0D4B1A600E
:10BF400080220D4B12021A60054B1B78012BD9D0B1
:10BF5000CAE7302BDAD1054B1B681342D6D1ECE788
:10BF6000E00F00F0E40F00F0E80F00F0EC0F00F03D
:10BF7000DFFF07C004050040186C0040F0B54746DD
:10BF800080B4274C84B0236881785B0703D404B065
:10BF900004BC9046F0BDE36C012BF8D85A00D218CF
:10BFA0009200A2185668151D002EF0D0276D9689B4
:10BFB000BC46D289714372436D6861445219914203
:10BFC000E5D20293383E174B0391B6B2051C427876
:10BFD0009E4209D94034A37A134A9B00D3185B6868
:10BFE00002A8291C9847D2E71C277A430F4E032347
:10BFF000F619B618321C0A431A409046EAD1C919FC
:10C000003A1C301C00F0F9FC0C23029A00975343B1
:10C01000E3185F6802A802214246331CB847D9E7FB
:10C02000AC230020C7FF0000B0CB0100AC240020EF
:10C0300073DF704776DF704775DF704710B5184CB7
:10C04000184B208882B0984212D0A378227C01330A
:10C05000DBB2A3709A420DD20023A370237D002B84
:10C0600013D1A369002B03D0002201A802709847C6
:10C0700002B010BD211C2031FFF7DEFF0028F7D0F1
:10C08000E369002BF4D09847F2E73B21FFF7D2FF9A
:10C090000028E6D0E369002BE3D09847E1E7C046EB
:10C0A00024250020FFFF000065DF70477DDF70471B
:10C0B000AADF7047A9DF7047A7DF704782DF7047AC
:10C0C0007FDF7047282370B5B04D86B0E854B04B81
:10C0D0001B685B0700D5A2E0AE4E0021301C072292
:10C0E0007C30FCF765F8AC4C6379002B5BD02823DF
:10C0F000EB5C012B05D0A279002A00D11CE1022BB8
:10C100000FD1A26A002A00D127E101212C230820A7
:10C11000E15490472823EB5C012B00D1A3E0022BD4
:10C120004DD0227C002A01D1032B6CD0227F002A23
:10C1300001D1042B6DD0A26A002A03D0033B012B4E
:10C1400000D8B2E000222F23E254182268460021D2
:10C15000FCF72EF800236A46137013722822AA5C9B
:10C1600001930393022A00D1D9E065D9032A00D1B3
:10C17000C0E0042A00D0BAE06B46228C1A82A28C5E
:10C180005A82231C30331A79002A00D1DAE023794D
:10C19000002B04D02E23E35C002B00D1E0E004222E
:10C1A0002D23E25452E0A379002BB3D02823EB5C7B
:10C1B000022BA6D0012BB4D102222823EA54A37962
:10C1C000002B19D0331C7C335A78002A00D0C2E0EF
:10C1D0009A78002A00D0BEE0DA78002A00D0BAE0CF
:10C1E0001A79002A00D0B6E05A79002A00D0B2E0CD
:10C1F0009B79002B00D0AEE028230322EA54237C55
:10C20000002B00D09CE028230422EA54237F002B3B
:10C2100047D100232822AB540532A35492E72B1CAC
:10C220002C335B78002B00D156E7012178230020C6
:10C23000584AD15406B070BD012A58D169464B8284
:10C240000B822D237C3601960A70E2546846FFF774
:10C25000EFFE0028EED1A36A002B02D02D22A05CB5
:10C2600098470020E6E76279002AA5D0321C7C328C
:10C270005178002900D05EE79178002900D05AE774
:10C28000D178002900D056E71179002900D052E773
:10C290005179002900D04EE79279002A00D18BE72E
:10C2A00049E7A26A002A00D14CE72379002B00D18C
:10C2B00048E72E23E35C002B00D043E701212F3316
:10C2C0000720E154904740E76A4602331372231C6B
:10C2D000042230330393314B0020DA70FCF7ACFEBC
:10C2E0000028A7D105222D23E254053BEA5C002A51
:10C2F000B1D0ABE76B46228B5A82A28A1A82231CEA
:10C3000030331A79002A22D02379002B03D02E2330
:10C31000E35C002BD8D003222D23E25496E70123BF
:10C3200069460B706B46A1897C365982218901963A
:10C3300019822D23E25489E7022B00D0F1E65BE756
:10C340000323F8E61B7B002B00D020E727E71B7BAD
:10C35000002BD9D1DFE70223EDE62C216254DBE686
:10C360006A4602331372231C0422303303930B4BAF
:10C370000020DA70FCF760FE002800D05AE70622A1
:10C380002D23E254053BEA5CB1E7C046242500209A
:10C39000AC230020A42500202426002078200020A3
:10C3A000F0B547464D4C80B4231C40335A884C4B63
:10C3B00082B0198C914210D8598C91420DD39B694F
:10C3C000002B03D0012201A80270984700226C23A1
:10C3D000E25402B004BC9046F0BD6C22A25C002A7C
:10C3E00007D09B69002BF1D0002201A8027098476A
:10C3F000ECE79A78002A0AD0DD68A26C002A0BD0FC
:10C400000720042D05D8DB69002BDED1DEE79D680F
:10C41000F3E7216E002901D10820F4E7211C002058
:10C420004C31497C8046012930D02E491020496882
:10C43000C905C90D2ED11218517890784E1CF6B24C
:10C44000801B471EB841404206401078B0421FD0C2
:10C45000480041185068C90084466144002917D03B
:10C4600001230B70231C4C334B601F481F4BC358D8
:10C47000CD608B6043460B6100234B618021567079
:10C4800001331B4A4903FF33D1509FE7A846CCE74D
:10C490000420B8E71039CEB270B2002813DB800850
:10C4A000134EC0308000805903263140C900C84077
:10C4B0000106890FC9B200200129BCD00830032928
:10C4C000B9D00830B7E70F210A483140844608390F
:10C4D00089088900614448680321E6E72426002092
:10C4E0002425002000ED00E00010014004050000BC
:10C4F00000E100E018ED00E07BDF7047F0B55F463B
:10C50000564644464D46F0B485B09A460EAB80CBB5
:10C51000061C1B8800919B463B889046019303882C
:10C52000002B5BD00023994602AB0024DD1C03E006
:10C5300033880134A3422ADD7368A1009C4604229B
:10C54000614403A800F059FA03A8291C0022FFF750
:10C55000ABFD002826D12B784345E9D14B46002B73
:10C5600027D043463A88D3185B4539DC524403A8A8
:10C57000291CFFF799FD002814D13B882A78013443
:10C58000D3183B80012399463388A342D4DC4B4621
:10C59000002B23D03B88019A013B9B1A9BB20C20B5
:10C5A000FF2B18D905B03CBC90469946A246AB4635
:10C5B000F0BD42463B889A1802325A4510DC694663
:10C5C0005246013309789BB23B80D1543A880132FC
:10C5D00092B23A80CAE7111C524653540020E1E758
:10C5E0000C20DFE7F0B50488051C83B00720012C80
:10C5F00004D01488A01C984202D90C2003B0F0BDCE
:10C600002E78012E04D16E7802363619B342F4D357
:10C61000023B1C1B6B460F1CA4B20818991D161C6C
:10C62000DC80FFF743FD0028E8D12B78022B18D0DF
:10C63000012B11D0231C0821FE2BDED83288581C78
:10C64000B85432880020013292B23280B954328814
:10C6500001329B183380D1E76B789C42EBD2231CCC
:10C66000E9E76B46DB8809219C42E5D2231CE2E71F
:10C6700079DF704772DF704771DF704763DF7047A3
:10C68000A0DF7047002243088B4274D303098B421A
:10C690005FD3030A8B4244D3030B8B4228D3030C92
:10C6A0008B420DD3FF22090212BA030C8B4202D334
:10C6B0001212090265D0030B8B4219D300E0090A5C
:10C6C000C30B8B4201D3CB03C01A5241830B8B4265
:10C6D00001D38B03C01A5241430B8B4201D34B034E
:10C6E000C01A5241030B8B4201D30B03C01A5241B3
:10C6F000C30A8B4201D3CB02C01A5241830A8B4238
:10C7000001D38B02C01A5241430A8B4201D34B0220
:10C71000C01A5241030A8B4201D30B02C01A524184
:10C72000CDD2C3098B4201D3CB01C01A5241830938
:10C730008B4201D38B01C01A524143098B4201D372
:10C740004B01C01A524103098B4201D30B01C01A9D
:10C750005241C3088B4201D3CB00C01A5241830817
:10C760008B4201D38B00C01A524143088B4201D344
:10C770004B00C01A5241411A00D2014652411046A4
:10C780007047FFE701B5002000F0FCF802BDC0468D
:10C790000029F7D003B5FFF775FF0EBC4243891A95
:10C7A0001847C04603460B437FD4002243088B4200
:10C7B00074D303098B425FD3030A8B4244D3030B28
:10C7C0008B4228D3030C8B420DD3FF22090212BAED
:10C7D000030C8B4202D31212090265D0030B8B4269
:10C7E00019D300E0090AC30B8B4201D3CB03C01A53
:10C7F0005241830B8B4201D38B03C01A5241430B2E
:10C800008B4201D34B03C01A5241030B8B4201D31D
:10C810000B03C01A5241C30A8B4201D3CB02C01A88
:10C820005241830A8B4201D38B02C01A5241430A00
:10C830008B4201D34B02C01A5241030A8B4201D3EF
:10C840000B02C01A5241CDD2C3098B4201D3CB0196
:10C85000C01A524183098B4201D38B01C01A524145
:10C8600043098B4201D34B01C01A524103098B4249
:10C8700001D30B01C01A5241C3088B4201D3CB0034
:10C88000C01A524183088B4201D38B00C01A524117
:10C8900043088B4201D34B00C01A5241411A00D2C7
:10C8A00001465241104670475DE0CA0F00D0494230
:10C8B000031000D34042534000229C4603098B42A0
:10C8C0002DD3030A8B4212D3FC22890112BA030A28
:10C8D0008B420CD3890192118B4208D389019211AA
:10C8E0008B4204D389013AD0921100E08909C3092F
:10C8F0008B4201D3CB01C01A524183098B4201D331
:10C900008B01C01A524143098B4201D34B01C01A1B
:10C91000524103098B4201D30B01C01A5241C30893
:10C920008B4201D3CB00C01A524183088B4201D302
:10C930008B00C01A5241D9D243088B4201D34B001D
:10C94000C01A5241411A00D20146634652415B105F
:10C95000104601D34042002B00D549427047634640
:10C960005B1000D3404201B5002000F00BF802BD7F
:10C970000029F8D003B5FFF715FF0EBC4243891A12
:10C980001847C0467047C04603210A4802680A4358
:10C990000260094802680A4302600849084A094BD4
:10C9A0009B1A03DD043BC858D050FBDC0648804787
:10C9B000064800472405004054050040CCCB010048
:10C9C0000020002068200020E1BE0100C18001009D
:10C9D000FEE7FEE7FEE7FEE7FEE7FEE730B50024F0
:10C9E000944208D0035D651C0C5DA34201D0181B66
:10C9F00002E02C1CF4E7002030BD002310B5934268
:10CA000003D0CC5CC4540133F9E710BD0023C25CF1
:10CA10000133002AFBD1581E70470000F8B5C0460C
:10CA2000F8BC08BC9E467047F8B5C046F8BC08BCC8
:10CA30009E4670474300000000200020058501004D
:10CA4000A18901003189010059860100A9850100F1
:10CA500023D113EF5F782315DEEF121200000000E0
:10CA60004F7572436861726163746572697374694A
:10CA70006300000030A5010046A301008AA5010063
:10CA80004CA6010046A3010046A3010072A60100C6
:10CA9000B2A7010046A3010046A3010046A301007E
:10CAA00068A6010046A3010046A3010046A30100B9
:10CAB00046A3010046A3010046A3010046A30100CE
:10CAC00046A3010046A3010046A3010046A30100BE
:10CAD00046A3010046A3010046A3010046A30100AE
:10CAE00046A3010046A3010046A3010046A301009E
:10CAF00046A3010046A3010046A3010046A301008E
:10CB000046A3010046A3010046A3010046A301007D
:10CB100046A3010046A3010046A3010046A301006D
:10CB200046A3010046A3010046A3010046A301005D
:10CB300046A3010046A3010046A3010046A301004D
:10CB400046A3010046A3010046A3010046A301003D
:10CB500046A3010046A3010046A3010046A301002D
:10CB600046A3010046A3010046A3010046A301001D
:10CB700046A3010046A30100E4A7010051B701004C
:10CB800095BA01004DB7010081BB010061B70100FA
:10CB900065BC01005DB7010051BD010099B0010005
:10CBA000F9AF010071B1010025AE01001987010044
:10CBB000FFFFFFFF59B701003DB8010055B7010065
:04CBC00071B7010048
:08CBC400FCB4FF7F010000003A
:10CBCC000000000000000000000000000000000059
:10CBDC000000000000000000000000000000000049
:10CBEC0034CA01000000000000000000000000003A
:10CBFC000000000000000000000000000000000029
:10CC0C000000000000000000000000000000000018
:10CC1C000000000000000000000000000000000008
:08CC2C000DF00200FFFFFFFF05
:040000031000C98997
:00000001FF
