:020000021000EC
:10800000008000209DE40100E5E40100E7E40100B8
:108010000000000000000000000000000000000060
:10802000000000000000000000000000E9E4010082
:108030000000000000000000EBE40100EDE401009E
:10804000EFE40100EFE4010071930100EFE40100AF
:10805000EFE4010000000000B58F0100EFE4010033
:10806000EFE40100EFE40100EFE40100EFE40100C0
:10807000EFE40100EFE40100EFE40100EFE40100B0
:10808000EFE401009D840100EFE40100EFE4010052
:108090007D850100EFE4010069E40100EFE40100E7
:1080A000EFE40100EFE40100000000000000000028
:1080B00000000000000000000000000000000000C0
:1080C00010B5064C2378002B07D1054B002B02D0AE
:1080D000044800E000BF0123237010BD7020002081
:1080E00000000000CCEA010008B5084B002B03D0CB
:1080F0000748084900E000BF07480368002B00D18B
:1081000008BD064B002BFBD09847F9E700000000A4
:10811000CCEA010074200020702000200000000044
:10812000164B002B00D1144B9D46402292029A1A06
:10813000924600218B460F461348144A121A00F04B
:1081400067F80F4B002B00D098470E4B002B00D048
:1081500098470020002104000D000D48002802D09F
:108160000C4800E000BF00F02DF82000290003F0CB
:10817000A5FB00F011F8C0460000080000800020B8
:10818000000000000000000070200020D827002020
:108190000000000000000000084B10B5041C002B7C
:1081A00002D0002100E000BF054B1868836A002B55
:1081B00000D09847201C00F033F8C04600000000B3
:1081C00050E801000E4B70B500251E1C0D4CE41A42
:1081D000A410A54204D0AB00F35898470135F8E746
:1081E00006F028FB084B00251E1C084CE41AA410BE
:1081F000A54204D0AB00F35898470135F8E770BDAD
:108200006820002068200020682000206C200020CA
:10821000031C8218934202D019700133FAE77047A9
:10822000FEE7C046F8B54D465F4656464446F0B4B4
:10823000224B1978994600292AD0214B00259846CF
:10824000204B214F01269A4603E00135EDB28D42C5
:108250001ED243461B68321C9C46EC0064442078C6
:108260003B6882401342F0D093433B6000F098FE9D
:10827000331C22785146934009680B40011C914001
:108280008B420BD04B4601351978EDB28D42E0D3CD
:108290003CBC90469946A246AB46F8BD61686378FF
:1082A0008B460029EED0591E4C424C41211A4B42BC
:1082B0004B41101CD9B2D847E4E7C04694200020B7
:1082C00090200020B8200020BC200020F8B5124DDE
:1082D000071C281C00F080FC002807D10124BC40AA
:1082E0000E4E3368234202D0A3433360F8BD381CDE
:1082F00000F056FE0A4A136800280BD0234313608F
:108300003368281C1C43074B00221968346000F0B6
:10831000E5FBEBE7A343F2E798200020BC20002018
:10832000B82000208C200020F0B54F464646C0B44F
:10833000141C071C83B00E1C0720042A04D803B0A9
:108340000CBC90469946F0BD00F01EFD00282FD0D1
:108350001A4B1B4A1F601B4B751E1E701A4BEDB249
:108360001C6000231360194A1360002E1AD0184BAA
:1083700001AC994603230026984600E01D1C4246A6
:10838000EB00FB182270A670E6709A78187862707D
:10839000211C4A4600F002FD0028D0D16B1EDBB242
:1083A000002DEBD100210B4A0B4800F07DFBC6E706
:1083B00000F0B6FC0028CBD0C1E7C04690200020DA
:1083C000B8200020942000208C200020BC20002019
:1083D000CD8201002582010054E8010070B5094DED
:1083E0002B78002B0BD00024074E3268E300985CFA
:1083F000012100F081FD2B780134A342F5D8002043
:1084000070BDC0469420002090200020BFF34F8F05
:10841000024A034BDA60BFF34F8FFEE70400FA0510
:1084200000ED00E080218023184A8902D15080228B
:10843000D221174B520289005A5040395A5001221A
:108440002F205A600138C046C046C046C046C046CC
:10845000C046C046C046C046C046C046C046F1D130
:108460009A6000230B4A2F2013600138C046C04693
:10847000C046C046C046C046C046C046C046C046CC
:10848000C046C046F1D1044A1370704700E100E0D5
:1084900000100140C0200020E0200020A021F0B505
:1084A000002347462C4A490080B4535004315350AE
:1084B00004315350043153504C395350043153500C
:1084C000264B1B68002B37D02549002652582549DA
:1084D000254F0C68141B00222402240A904602E057
:1084E000002D1AD02B1C1A68A24216D8A41AB6184E
:1084F0001A7CDD69002AF3D0424699691A745A69D8
:108500003B68002B1BD0101C98470028E8D00021A6
:108510000022FFF77BFF002DE4D1144B14491A7899
:108520000B789A420ED0134A9B009E5080218023E4
:10853000114A49035B00D15004BC9046F0BD081CB1
:108540009047CDE70132D3B2022B01D00B70EAE79E
:1085500000230B70E7E7C04600100140C420002054
:1085600004050000C0200020C8200020D4200020E6
:10857000D5200020D820002000E100E0F0B55F46C3
:1085800056464D464446F0B4B44BB54A1B68B5490F
:1085900089B0019309781378994200D1B1E1013390
:1085A000DBB2022B00D100231370AF4A9B009B5813
:1085B000AA4A9946019B4B441B021B0A13600123E4
:1085C0000493AA4B00241B689B46A94BD8461B78F2
:1085D0001A1C0293A74B944607931B6803939F4B67
:1085E0001B680693A44B1B7805935B466646013EC9
:1085F000F2B29446FF2A4FD06246D000039A9246C8
:10860000504401784578A942F0D04A005218877842
:1086100001314668C9B27F1AB2467E1EB741D20008
:108620007F42524439401778022F0AD0032FEAD1F3
:10863000002BE8D01C74DB69002BFBD145789846F1
:10864000E1E75668002B25D09E421AD01F1C00E09F
:10865000171CFA69002AD6D09642F9D1321C3D1C6B
:10866000BE4200D1EBE01768D269EA61002A06D069
:1086700013689A465744176045784346C3E74578E0
:10868000C1E7DE691A1C002E00D1DDE0B046331CC4
:10869000151CE8E70023B6E76946774A097D181CF0
:1086A00011706E4A06990393116041466F4A11603A
:1086B000049A002A00D028E15B461B1A5A1E9341F7
:1086C0000025DBB20493079B00271B68039E0693DB
:1086D000624B1B689C46654B1B689A46664B1B7831
:1086E0000593664B019301239846029B013BDBB245
:1086F0000293FF2B00D18FE0069ADB0093469B4448
:10870000002D27D06968AB68281CED696246019C82
:108710008A1A1202120AA24250D8D31842460360A3
:10872000476087600274C761002E56D03168341CE0
:10873000994204D35FE01168994263D2141CE26944
:108740005B1A002AF7D10360331CC261E0611E1C72
:10875000002DD7D15B465A461B7852789A42C4D036
:10876000594649685A0089465946D2180133DBB246
:108770000B708978D2004A4499424AD011785068E7
:10878000331C0129E3D1037C99464946331C002957
:10879000DDD191684160D36883601469C460526917
:1087A0008261059A002AB1D04A46002142606246A1
:1087B000019C8A1A1202120AA242AED96246511ACA
:1087C0000902090A99420CD242465B1A03604760CB
:1087D00087600274C761002EA8D1031C82461E1C4C
:1087E000B6E743460760476087600374C761002EA1
:1087F000F3D000233168CB1A3360031CC661824674
:108800001E1CA5E7C91A11600360C261331CE06138
:108810009DE75B461D70B1E75246144B1A60039BFF
:10882000B3422FD1049B002B2CD10023124A13708A
:1088300009B03CBC90469946A246AB46F0BDDE6905
:108840003A1C002E00D021E701250D4B9D6000232E
:10885000069601369846151C059604E7C0200020B0
:10886000D4200020D5200020D8200020C4200020C3
:10887000CC200020D0200020D6200020FEFF7F004A
:1088800000100140002E63D0484B49493568CC5850
:10889000484B494E1B683078E21A1202120A033222
:1088A0009046002861D04246AA4200D22A1CA82045
:1088B000D21812023E49130AC0003C4D0B504A59CF
:1088C0001B1B121B1202120A1B0203321B0A9A42C2
:1088D000ABD94B590B502F200138C046C046C0467B
:1088E000C046C046C046C046C046C046C046C04658
:1088F000C046F1D180218023304A89025B00D150EB
:1089000093E70023994604935BE6002500210024A9
:108910004846464613E01A6882421CD8DE68801A30
:1089200089181C60DF69002E07D0DD611D1C019ACB
:108930009E608A181202120A5A603B1C3E1C002BD1
:10894000E9D11F4B1E600023039301330493BAE661
:10895000FFF768FD69E78146194903930E604946B0
:10896000521A1A6001230493ADE68020D1274002F9
:10897000BF00C851403FC851C02280270F48BF02E6
:1089800052008750076001272F200F600138C04632
:10899000C046C046C046C046C046C046C046C046A7
:1089A000C046C046C046F1D137707CE704050000E0
:1089B00000100140C0200020E020002000E100E085
:1089C000C4200020F8B54F464646C0B40326351CE7
:1089D00080460F1C141C994615400720002D03D01B
:1089E0000CBC90469946F8BD002A44D0FFF71AFD0A
:1089F0004A46224B80201A60221C214B18321E70DE
:108A0000204B62601C607B00DB19DB00D218E26047
:108A1000D318C022636125706570A77025726572D6
:108A2000A77225746574A774C524FF21164B4003F3
:108A30001D60164B52001D70154BA4001D70154B88
:108A400098501A598A433F390A431A51A122186093
:108A500040461149D2008850C42080001C580F4A5B
:108A60002240C024240222431A500D4B0020CA5831
:108A70000C4B1A60B4E7034B1A60B1E7C820002022
:108A8000CC200020D0200020C4200020D4200020B2
:108A9000D520002000E100E000100140FF00FFFFB2
:108AA00004050000C020002010B50B4B1B68002BF4
:108AB0000BD0002A07D0002805D0036808201C7CB2
:108AC000002C04D010BD0720FCE70820FAE75974F9
:108AD0005A610020F6E7C046D0200020F0B5474696
:108AE00080B4374B1C68002C08D0002806D0072320
:108AF000042905D8181C04BC9046F0BD0823F9E7EA
:108B00004369002BFAD00025437CA846012B2ED0C8
:108B10002C4B10255B68DB05DB0D2CD164196378C9
:108B2000A5785E1CF6B2AD1B6F1EBD416D422E4096
:108B30002578B5421DD05D00EB186568DB00ED18A7
:108B40000423002DD6D0033B2B7068601E4B1F48BA
:108B5000C358E960AB60434680212B6180236A6182
:108B60001B4A5B0049036670D1500023C2E7884668
:108B7000CEE70423BEE7103BDEB275B2002D13DB57
:108B8000AD08134EC035AD00AD5903263340DB00B0
:108B9000DD402B069B0FDBB20025012BBED0083534
:108BA000032BBBD00835B9E70F230A4D3340AC4641
:108BB000083B9B089B0063445D680323E6E7C046CF
:108BC000D020002000ED00E004050000001001406E
:108BD00000E100E018ED00E030B52D4A031C1268FA
:108BE0000820002A2DD0002B2BD05969002928D02D
:108BF00000211974274910254968C905C90D23D1D9
:108C000055196A78A978541CE4B2091B481E8141A1
:108C100049420C402978A14214D051008A18696851
:108C2000D2008C4662440420002A0AD002215360FC
:108C30001170802380210020174A49035B006C706B
:108C4000D15030BD0420FCE71039CCB260B200280E
:108C500013DB8008104CC0308000005903242140F1
:108C6000C900C8400106890FC9B200250129C7D033
:108C700008350329C4D00835C2E70F210748214031
:108C80008446083989088900614448680321E6E779
:108C9000D020002000ED00E000E100E018ED00E051
:108CA000F0B5002820DBFF271B4B03229C463B1C12
:108CB0008408C026C0B20240D2009340A40064449D
:108CC000B600A5599D438B013B409340191C294395
:108CD000A1511F2318401E3B8340C022181C0E4B7D
:108CE000520098501860F0BDFF260C4A03249446A9
:108CF000321C0F23C0B20440E400A2400340083BF2
:108D00009B089B006344DD6995438A013240A24081
:108D1000111C2943D961DCE700E100E000ED00E02F
:108D200038B54425164C0820635D002B00D038BDB3
:108D30004022FF21013BA3540132A1540132A3542C
:108D4000236201326362A362E36223636363A3630A
:108D5000E3630238FC39A35423606360A360E360DB
:108D600023616361A361E361FFF79AFF8021C1235F
:108D7000044A9B000906D150012300206355D6E721
:108D8000E4200020006000404423034AD05C431EDE
:108D90009841C0B27047C046E4200020F0B5474675
:108DA00080B4524C0825231820331E787F2E03D818
:108DB000281C04BC9046F0BDCD78AC46002D36D0C2
:108DC0002568013500D187E0042300269846731CEE
:108DD0009D006759013733D0B31C984525D99D00B4
:108DE000675901372CD0F31C98451ED99D0067594F
:108DF000013725D0331D984517D99D006759013794
:108E00001ED0731D984510D99D006759013717D0A2
:108E1000B31D984509D99D006759013710D0073611
:108E2000B04502D9E369013308D00425C0E72569BC
:108E3000013555D0082304269846C8E707231C258A
:108E4000625162462718DEB220373E70002A02D1F6
:108E5000E3183C3318708B78002B15D1031CA02528
:108E60004A78C133FF3392009B00ED055A51CB780D
:108E7000002B15D176B2A4193C340B7822789B01D3
:108E800013432370002593E7A022D2059446E025E2
:108E9000022783006344ED005A59BA435A51E6E76A
:108EA000A22476B2124BB600F318E4000A781D59DA
:108EB0001049000229401951F82149010840061CB7
:108EC000C0211004021C301C89021D590A401043A5
:108ED0002843185100256BE7002622601E70BAE770
:108EE000042522611D702E1C2B1CB1E7E4200020FC
:108EF00000600040FFE0FCFFF0B5264D2C18203448
:108F0000227853B2032B18DDEB183C331B789B09F6
:108F1000032B32D0012B39D0C025AD02A023DB05B5
:108F20009C46E02380006044DB00C4581A4921407D
:108F3000C150C2582A43C250F0BD032AFCD817487A
:108F4000A227844601269A006244FF00D05930438C
:108F5000D0511A1C604600274032920092B217503E
:108F60000029E9D00022A25692005259002AE3D0EB
:108F7000C1229E4092008650DEE7A223A022DB00A1
:108F8000D205D258012383401A42C5D18025AD02B3
:108F9000C4E7C046E4200020FFFFFCFF0060004063
:108FA000A223A022DB00D205D358C340181C012302
:108FB00018407047F8B54F464646C0B4C74A00242B
:108FC0001368012B00D1CBE0C54B1A68012A00D1F0
:108FD000D4E0C44B1A68012A00D1DFE0C24B1A6802
:108FE000012A00D1EAE0C14B00251A68012A00D10C
:108FF000F5E023070BD0E30700D506E1A30700D572
:1090000012E1630700D51DE1230700D5F1E0002C34
:1090100003DB0CBC90469946F8BD4023B44CE15CA0
:109020004BB2013321D0C9B2C023081C9843231886
:1090300020331B785BB29B001E59002E15D0A02256
:10904000D205944683009C44E0236246DB00D3585B
:109050000122C0278240BF023B4089091B0C1542F8
:1090600000D106E1022B00D160E14123E15C4BB26B
:10907000013321D0C9B2C023081C984323182033E0
:109080001B785BB29B001E59002E15D0A022D20582
:10909000944683009C44E0236246DB00D3580122BF
:1090A000C0278240BF023B4089091B0C154200D1FA
:1090B000D8E0022B00D1FDE04223E15C4BB201334A
:1090C00021D0C9B2C023081C9843231820331B7831
:1090D0005BB29B001E59002E15D0A022D2059446EB
:1090E00083009C44E0236246DB00D3580122C02762
:1090F0008240BF023B4089091B0C154200D1D2E0DF
:10910000022B00D1FEE04323E15C4BB2013300D1DE
:109110007FE7C9B2C023081C9843231820331B786B
:109120005BB29B001E59002E00D172E7A0230124E0
:10913000DB059C46E023C027844082006244DB00BC
:10914000D358BF023B4089091B0C254200D197E050
:10915000022B00D05DE7032900D199E0B04758E722
:10916000C1216448890041580B4200D12CE75C4B77
:1091700014601A680134012A00D02AE7C1225D492F
:109180009200895802220A4200D122E70021196088
:10919000544B14431A68012A00D01FE7C1225549D5
:1091A0009200895804220A4200D117E70021196071
:1091B0004D4B14431A68012A00D014E7C1224D49CF
:1091C0009200895808220A4200D10CE70021196058
:1091D000464B14431A680025012A00D009E71D6098
:1091E00080231B061C43A022A223D205DB00D558F6
:1091F000FFE6404A404BD058D1583D4BC00489034C
:10920000C00E890FDB68984701E7A223394ADB00CB
:10921000D058D158364BC00489031B68C00E890F43
:109220009847A30700D4ECE6344B324AD058D158C3
:109230002F4BC00489035B68C00E890F98476307F2
:1092400000D4E1E6A3232B4ADB00D058D158284BA9
:10925000C00489039B68C00E890F9847230700D478
:10926000D5E6C6E7032B00D026E7032972D0B04726
:1092700022E7032B00D0F8E6032973D0B047F4E6C9
:10928000032B00D0C5E6032900D067E78027BF0283
:10929000E023DB00D5581A4C2C40D450D458274337
:1092A000D750B047B5E6032B00D02CE7032955D0A3
:1092B000B04728E70329DAD1B946E0236246DB004C
:1092C000D258904647460E4A3A406746FA50FA58F6
:1092D0004F4617436246D750B047EDE60061004065
:1092E00004610040086100400C6100407C61004066
:1092F000E4200020006000401C0500001405000070
:10930000FFFFFCFF0329D3D1B946E0236246DB000F
:10931000D25890464746154A3A406746FA50FA589E
:109320004F4617436246D750B047ECE60329A5D114
:10933000B946E0236246DB00D258904647460B4AC6
:109340003A406746FA50FA584F4617436246D7509C
:10935000B0478AE680239B029946AEE780239B02B2
:109360009946D2E780239B029946E2E7FFFFFCFF84
:10937000C12210B5514B92009A5884B092054CD539
:109380004F4A1168002948D0002111608121C22272
:109390008900920099504B4B5A7D002A02D101213D
:1093A000494A1160022269460A7090214348C90067
:1093B0004258425069460392DA7C68460A72DA687B
:1093C000196801920022DA745B6898473F4A136873
:1093D000002B10D03B4B188A997C814251D9002137
:1093E00011601A8A9968895C1A8A013292B21A82CB
:1093F000374B324AD150374B1A68002A0BD0002223
:109400001A60304B5A7D002A02D001212B4A11608C
:10941000DA7C002A44D104B010BDC123274A9B0046
:10942000D3585B07D2D52C4B19680029CED0002128
:10943000A3241960234BE400187DD96812590A54FB
:109440001A7DD87C0132D2B21A751A7D9042BDD1F4
:109450005A7D002A02D101201B4A10608124C222B9
:109460001648A400920084506C461A7D0120227296
:10947000002220700191DA74196868465B68984789
:10948000A4E7002010600029B5D06A461070117260
:109490009A689874196801925B6868469847AAE7C9
:1094A00068461A7D01210272DA6801700192002279
:1094B0001968DA745B689847ADE7C0460020004041
:1094C000242100402C210020042000401C210040C9
:1094D0001C050000442100400821004029DF70479E
:1094E00028DF704730B583B0002806D0112806D198
:1094F00008230F4A11680B43136003B030BD021CF0
:109500000C4801788B005B189B00C518281CE96883
:109510006B694C0064182979074DA4002D680C3044
:109520000095064D6459A0470422054B1A70E4E7E4
:109530003822002044210020402200201822002050
:109540003D220020F0B55F464D4644465646F0B4F5
:109550005E4F85B03C785E4D012C00D188E0002C38
:1095600000D16DE0022C16D0032C0DD1594B186898
:10957000FFF7B6FF021E07D0112800D080E00823B5
:10958000554A11680B43136005B03CBC90469946A0
:10959000A246AB46F0BD504B99461B6803932B780F
:1095A0009E00F3189B00EE183369984680235B05F4
:1095B000196940460904090C9B4604F099FF454B84
:1095C000824618605B4619694346581EF3880904B1
:1095D000C018090C04F08CFF82454CD00323039C77
:1095E0009C434B461C603D4B1B68002B02D1023351
:1095F000234262D000223A4B1A703A4B5869431CFE
:1096000054D080235B0519690904090C04F070FF2C
:10961000031C80225205106911690004013B000CF3
:1096200009045843090C04F063FFFFF759FF021EB9
:10963000AAD0112824D108231C434B461C60A3E761
:10964000294B1C60294B1C606B78002B9CD02B781D
:109650009A00D3189B00ED18EA88254B1A602B79E5
:10966000032B27D0042B25D0012B00D08CE73B7097
:1096700000F000FC88E70123039A9A431443B0E703
:109680002B789800C01880002E18301C184DF368F5
:109690002D685C00E418317973690095154DA400BC
:1096A0000C306459A04704233B706DE780235B05B1
:1096B0005B69AEE700F020F866E7094A5046137090
:1096C000FFF70EFFFFF70EFF5EE7C0463D220020CA
:1096D000442100204C220020382200204822002073
:1096E0003C22002000100010442200201022002004
:1096F0004022002018220020F0B55F4656464D4615
:109700004446F0B45B4B5C481A78802791008A1875
:1097100092009B18DD681E696A0052199200821837
:10972000148950895268604380469044DA881B89C6
:10973000141C9946514B92469B4600235A467F057E
:10974000396983B009044C441360090C301CA41916
:1097500004F054FF002924D13B699BB29A4537D0CD
:1097600044456CD0032D33D0301C3969484489B24C
:1097700004F044FF424B890819603969201C090430
:10978000090C04F03BFF002932D102223D4B1A7034
:10979000FFF7D8FE03B03CBC90469946A246AB46C4
:1097A000F0BD032D14D0301C396948440904090C5C
:1097B00004F024FF324B8908196039694445E4D02C
:1097C0000904090C201C04F019FF0029DDD00FE06A
:1097D00080235B051969301C0904090C04F088FE1C
:1097E0000322294B1860274B1A70FFF7ABFED1E715
:1097F00080256D0529692B696A4699464346D380C1
:10980000D08889B204F074FE6A464B46A6B2D38073
:10981000071CD188301C04F06BFEBFB280B28742B7
:109820001DD02C692969301C89B204F0E7FE5B4623
:109830002404240C89B2641AA4081C60A5E74B46D2
:10984000002BC5D0032DC3D0301C3969484489B2E0
:1098500004F0D4FE0A4B890819603B6995E743463A
:1098600024041B041A0C240C131B5A469B08136077
:109870008BE7C0464421002018220020142200203B
:10988000482200203D2200204C220020F8B5464608
:109890004F46C0B41D4D08AC24886E78A4460424FD
:1098A0000A2E2DD02C78A046A419092C00DD0A3CE4
:1098B00014277C432C196261221C20710C32B9469A
:1098C00081C981C2E380634623810024104B0136A5
:1098D0001A786E70A24213D142464F465743ED1993
:1098E0000C4AE98811602A79032A07D0042A05D096
:1098F000012A05D11A70FFF725FE01E0FFF7FCFEF3
:10990000201C0CBC90469946F8BDC046442100205E
:109910003D22002040220020082170B50C1C244A62
:1099200082B013681C4009D08B431360214B224A3C
:109930001B789B009B58984702B070BD1F4D2B7839
:109940009800C3189B00EE18317904292AD0F268D8
:10995000736950008218301C194E920036680C3022
:109960000096184E96590022B04702202A7893009C
:109970009B189B00EB181C71DC80D8601C615C613B
:109980001C816B780132013BD2B26B700A2A06D07F
:109990002A7000220C4B1A70FFF7D4FDCCE700238D
:1099A0002B70F6E70122084B1A70FFF7CBFDC3E7D7
:1099B000382200203C2200206CE8010044210020D5
:1099C00040220020182200203D22002030B5244BE8
:1099D00083B05869431C3ED080235B051969090494
:1099E000090C04F085FD041C80235B0518691969C6
:1099F00000041A69000C631E58431A4B09041B68C3
:109A0000090C92B292085943FFF768FD021E06D076
:109A1000112806D10823144A11680B43136003B0C0
:109A200030BD12490B789800C01880000D18281C12
:109A3000EB6829795C00E4186B690D4DA4002D6872
:109A40000C3000950B4D6459A04704220A4B1A7044
:109A5000FFF778FDE3E780235B055C69C4E7C04658
:109A6000001000104C220020382200204421002049
:109A700040220020182200203D220020802230B504
:109A80005205146921492404230C0C6883B0013C5D
:109A90005C431F4B5869431C35D011690904090CFC
:109AA00004F026FD80235B0519691A4B090401386F
:109AB000090C41431A68201CFFF710FD021E06D056
:109AC000112806D10823144A11680B43136003B010
:109AD00030BD12490B789800C01880000D18281C62
:109AE000EB6829795C00E4186B690D4DA4002D68C2
:109AF0000C3000950B4D6459A04704220A4B1A7094
:109B0000FFF720FDE3E75069CCE7C0464C22002078
:109B1000001000104822002038220020442100209C
:109B200040220020182200203D220020082330B5CA
:109B30001E4D83B02C68234214D1A30702D5012304
:109B40001C432C6002221A4B1A701A4B1868FFF73C
:109B5000C7FC021E04D011280DD108231C432C6021
:109B600003B030BD9C43124B134A1B782C609B0002
:109B70009B589847F4E711490B789800C01880006B
:109B80000D18281CEB6829795C00E4186B690C4DF2
:109B9000A4002D680C3000950A4D6459A04704229A
:109BA000094B1A70FFF7CEFCDAE7C04638220020D6
:109BB0003C2200204C2200206CE8010044210020BF
:109BC00040220020182200203D220020F0B58027EE
:109BD000274C7F05237839699A00D3189B00E31836
:109BE0001A89DD881B69AD18ED18090483B0090CCA
:109BF000281C04F003FD1F4B0E1C5869431C35D074
:109C000039690904090C04F073FC80235B051969A8
:109C100001380904090C4143174B89191A68281C9B
:109C2000FFF75CFC021E06D0112806D10823134A58
:109C300011680B43136003B0F0BD23789800C0187F
:109C400080002618301C0E4CF36824685D003179C2
:109C5000ED18736900940B4CAD000C302C59A047E3
:109C60000422094B1A70FFF76DFCE4E77869CCE732
:109C7000442100200010001014220020382200206F
:109C800040220020182200203D22002030B5154B34
:109C900083B01868FFF724FC021E06D0112806D1F5
:109CA0000823114A11680B43136003B030BD0F49FC
:109CB0000B789800C01880000D18281CEB682979D3
:109CC0005C00E4186B690A4DA4002D680C30009507
:109CD000084D6459A0470422074B1A70FFF732FC65
:109CE000E3E7C0464C220020382200204421002017
:109CF00040220020182200203D220020082370B5B9
:109D00002A4D82B02C68234209D09C43284B294A13
:109D10001B782C609B009B58984702B070BD0122B5
:109D2000234B1A70244B5869431C3BD080235B059E
:109D300019690904090C04F0DBFB061C80235B0590
:109D40001869196900041A69000C731E58431B4BEB
:109D500009041B68090C92B292085943FFF7BEFB35
:109D6000021EDAD0112803D108231C432C60D4E74B
:109D700013490B789800C01880000D18281CEB6858
:109D800029795C00E4186B690E4DA4002D680C3035
:109D900000950D4D6459A04704220C4B1A70FFF733
:109DA000D1FBBAE780235B055E69C7E73822002054
:109DB0003C2200206CE80100001000104C22002022
:109DC0004421002040220020182200203D220020B3
:109DD00030B5224B83B05869431C3AD080235B05D1
:109DE00019690904090C04F083FB031C8022520545
:109DF000106911690004013B000C09045843090C67
:109E000004F076FBFFF76CFB021E06D0112806D18A
:109E10000823134A11680B43136003B030BD114986
:109E20000B789800C01880000D18281CEB68297961
:109E30005C00E4186B690C4DA4002D680C30009593
:109E40000A4D6459A0470422094B1A70FFF77AFBA8
:109E5000E3E780235B055B69C8E7C046001000109C
:109E60003822002044210020402200201822002017
:109E70003D220020F0B58027404D7F052C783969C0
:109E8000A60033199B00EB18DA8889B283B08A42A6
:109E900018D8196918898C46920860445969FFF7E7
:109EA0001DFB021E06D011282DD10823344A11684B
:109EB0000B4313603419A4002C19E288314B1A604B
:109EC00003B0F0BD196938698C460004000C121A01
:109ED00018893C695969604480188918A2B29208AF
:109EE000FFF7FCFA021E06D0112827D10823244AC6
:109EF00011680B43136080235B051B69214A1B0417
:109F00001B0C1360DCE72B789800C0188000291820
:109F1000CB68081C5F00FF180B79BF009C464B699B
:109F200019490C300968009118497F586146B847B3
:109F30000422174B1A70FFF705FBBBE72B7898003C
:109F4000C01880002E18301C0F4DF3682D685C007F
:109F50003179E418736900950C4DA4000C306459F4
:109F6000A04704220A4B1A70FFF7ECFA80235B0526
:109F70001B69044A1B041B0C1360A1E74421002049
:109F80003822002010220020402200201822002029
:109F90003D2200200823F0B54D4644465F46564614
:109FA0001A1CF0B4774D85B02C68224091465FD1E1
:109FB000754F3E78B30003939B199B00FB181A69F9
:109FC000511EDA881B898A18D318029380235B05F7
:109FD0009B4619696D4B1B689846002B57D16C4BFB
:109FE0001B689A4680235B05196902980904090CCD
:109FF00004F07EFA824500D285E0434600D17AE043
:10A00000002B00D079E0039B9C466644B600BC1947
:10A010002179042900D1AFE0201CE3680C305A00FC
:10A02000D21863695B4C9200246800945A4C14590E
:10A030000022A047414602203A7893009B189B00DB
:10A04000FB181971D86041464046D98018615861A3
:10A0500018817B780132013BD2B27B700A2A00D191
:10A060007BE03A7000224D4B1A70FFF76BFA07E065
:10A070009C434B4B4B4A1B782C609B009B5898474A
:10A0800005B03CBC90469946A246AB46F0BD404B5D
:10A0900009041B68090C02989A4604F029FA5045F5
:10A0A000A0D14A46404B1A6001234A4623432B6005
:10A0B0003B4B1A703D4B5869431C51D05B461969A4
:10A0C0000904090C04F014FA031C802252051069DB
:10A0D00011690004013B000C09045843090C04F009
:10A0E00007FAFFF7FDF9021ECAD011283BD1092358
:10A0F0001C432C60C4E7002B05D00322284B1A70A8
:10A10000FFF764FDBCE70022274B50461A60244B42
:10A1100002321A70FFF7E4F9021EB1D0112818D0EC
:10A120003B789900CB189B00FD18E9684C00641837
:10A13000281C29796B69174DA4002D680C300095F7
:10A14000154D6459A0470422144B1A70FFF7FAF911
:10A1500096E708231C432C6092E700233B7081E7BD
:10A160005B465B69B1E73B789800C01880003D18FA
:10A17000EB685C00E418DBE70122084B1A70FFF77C
:10A18000E1F97DE73822002044210020142200203C
:10A190004C22002040220020182200203D220020D6
:10A1A0003C2200206CE80100482200200010001032
:10A1B000F0B54E46574645460823E0B48C4E82B073
:10A1C0003468234200D093E08A4B1A68571C1F6002
:10A1D000894B1D68002D50D1884B802299461B78F1
:10A1E00052059D00ED18AB00984608234D469A464F
:10A1F0004544AA4453469B681169581EEB880904DC
:10A20000C0182B89090CC01804F072F9874200D2DB
:10A2100082E07B4B00D17BE01F68002F00D19CE0E7
:10A2200001231A1C224000D08DE023433360754B7C
:10A230001A70754B5869431C00D1BEE080235B0542
:10A2400019690904090C04F053F9031C8022520512
:10A25000106911690004013B000C09045843090C02
:10A2600004F046F9FFF73CF9021E49D0112800D04E
:10A27000A7E009231C43346042E00421614B1970BC
:10A2800080235B051F693F043F0C57435E4A5069BA
:10A29000421C3BD019690904090C04F029F98023F8
:10A2A0005B05196901380904090C41432A1C381C53
:10A2B000FFF714F9021E23D011284AD04F48017825
:10A2C0008B005B189B00C518281CE9684C006418BB
:10A2D000A40029796B694D4D0C302D6800954C4DCB
:10A2E0006459A04704224B4B1A70FFF72BF907E083
:10A2F0009C43444B484A1B7834609B009B589847CA
:10A3000002B01CBC90469946A246F0BD5869C6E70B
:10A310001B68002B00D083E702223A4B381C1A70CE
:10A32000FFF7DEF8021EEBD0112812D04B461B7847
:10A330009900CB1849469B00CD18E968281C4C00B1
:10A340006418A400C5E703222E4B1A70FFF73EFCE9
:10A35000D6E708231C433460D2E7297904293DD08D
:10A3600053464046294C5B6824685A00D2186B69F2
:10A370000094274C920048440C3014590022A04706
:10A380004B4602201A78494693009B189B004B4489
:10A390001F71DF80D8601F615F611F814B465B7852
:10A3A0000132013BD2B24B700A2A1DD00A70002242
:10A3B000184B1A70FFF7C6F8A2E780235B055B69AC
:10A3C00044E74B461B789800C0184B4680001D1888
:10A3D000EB68281C5C00E418A4007AE701220D4B0E
:10A3E0001A70FFF7AFF88BE700230B70DFE7C0466A
:10A3F000382200204C220020482200204421002046
:10A40000142200203C2200200010001040220020D6
:10A41000182200203D2200206CE8010070B5274C76
:10A4200082B023789800C01880002518281CEB689B
:10A4300029795A00D2186B69214D92002E680C3090
:10A440000096204E96590022B0470021022622781D
:10A4500093009B189B00E3181971D980DE60196185
:10A460005961198163780132013BDBB2D2B263706A
:10A470000A2A0BD022700021134E14483160144E6A
:10A4800001703160002B05D102B070BD0022227036
:10A490000022F0E793009A189200A418E3882B603A
:10A4A0002379032B07D0042B05D0012BECD10370AB
:10A4B000FFF748F8E8E7FFF71FF9E5E74421002038
:10A4C0004022002018220020442200203D220020AB
:10A4D00010220020F0B5474680B4684D04262B7842
:10A4E00082B01A1CB24313D0041E022C14D00328CD
:10A4F0000ED1082062490A68104257D0022B4ED074
:10A50000032B01D0012B03D182430A60FFF71AF815
:10A5100002B004BC9046F0BD022B40D0032B54D0B7
:10A52000012BF5D10821564A1368194278D1554FAD
:10A5300055493B780E689A00D3189B00FA18D188C9
:10A540008E1BB6B2D680002E6FD1D1681379480029
:10A5500041189846101C53694C4A890012680C3007
:10A5600000924B4A8A58414694460022E0473A7886
:10A5700093009B189B00FB181E71DE80DC601E613F
:10A580005E611E817B780132013BD2B27B700A2A68
:10A5900067D03A7000232B70FEF7D4FFB8E73D4B2D
:10A5A0003D4A1B789B009B589847B1E73B490A6896
:10A5B00001320A60032A3BD0022BA7D1354B384A1F
:10A5C0001B789B009B589847A2E708212C4A1368E8
:10A5D000194225D1334B2B4E1A683478571C1F6013
:10A5E00080235B051969A30098461B199B00F3188B
:10A5F0001A690904501EDA881B898018C018090CD2
:10A6000003F076FF874200D280E731D0231C434419
:10A610009B00F3181B79042B25D0FFF7FFFE77E78B
:10A620008B431360FEF78EFF72E7FFF723FC6FE7A3
:10A630001448027893009B189B00C418201CE26801
:10A64000636951008A182179104C920024680C30FB
:10A6500000940F4C14590D22A0472E70FEF772FF84
:10A6600056E73E7096E701232B70FEF76BFF4FE72E
:10A670000D4B1B68002BC9D148E7C0463D22002086
:10A6800038220020442100201022002040220020F7
:10A69000182200203C22002058E80100442200201B
:10A6A0006CE801004C2200201422002010B500208C
:10A6B0002C2400220221484B18551434185502341A
:10A6C0001A5302341A531034185502341A530234F0
:10A6D000D9601876196259639964D9651A705A70ED
:10A6E0001A71DA801A615A611A815A835A629A621F
:10A6F0009A83DA859A63DA631A86DA641A651A66C7
:10A700005A661A531034185502341A5302341A5325
:10A710001034185502341A530634195104341A519E
:10A7200004341A510C3C1A531034185502341A537D
:10A730000634195104341A5104341A510C3C1A537A
:10A740001034185502341A530634195104341A516E
:10A7500004341A510C3C1A5310341855BA201A52AA
:10A76000063019501967C2315A5004315A500C3909
:10A770005A525A679A67194B1A80194B5869431CE9
:10A7800025D080235B0519690904090C03F0B0FE8C
:10A7900080235B051B6903381B041B0C5843114BBA
:10A7A000002118600023104A002013600F4A136034
:10A7B00013815381D3609382D3820D4A11700D4A65
:10A7C00013600D4A136004220C4B1A6010BD8023E5
:10A7D0005B055869DCE7C046442100203022002098
:10A7E00000100010342200204C22002018220020EB
:10A7F0003D22002044220020102200203822002088
:10A80000F0B557464E464546E0B4344B1A68082327
:10A81000520705D4181C1CBC90469946A246F0BDB0
:10A82000002857D0002955D00368002B52D080272C
:10A830007F053A69868892B207239642EAD80F2E9E
:10A84000E8D9C288002AE5D0254B724399461B6897
:10A85000041C9846234B424458690D1C9246431CE5
:10A860003AD039690904090C03F042FE80225205EE
:10A87000136901381B041B0C584307238245C9D8B0
:10A88000B107C7D1184F033B3E88022EC2D04346C2
:10A890006B600C232E604546734314480136C11883
:10A8A0004D6025681D50A5880D81E088488168436A
:10A8B000136911699BB21469C018013889B2A4B236
:10A8C00003F0A6FE231C4A464343434413603E80E4
:10A8D00000239FE70E239DE77869C7E73822002011
:10A8E0003422002000100010302200201822002006
:10A8F000F0B5134B1C680823640701D4181CF0BD85
:10A9000000281BD0002A19D00468013B012CF5D87F
:10A9100065000C4E2D19AD00AF59002FEED0751902
:10A920002E8940687143091868896D687043401921
:10A930008142E3D2146051600023DFE70E23DDE79C
:10A940003822002018220020F0B5474680B4204C61
:10A95000051C246882B00820640703D402B004BC3C
:10A960009046F0BD002930D0002D2ED02C68013843
:10A97000012CF3D867003C19164EA400A759002FEC
:10A98000ECD06F683419BC4626896789B046774396
:10A990006668BC19A445E1D2002ADFD09045DDD31A
:10A9A000D418A045DADB09308C07D7D10324234221
:10A9B000D4D166462642D1D1181C131C00900A1C23
:10A9C0000120291CFEF762FFC8E70E20C6E7C0463B
:10A9D0003822002018220020F0B5474680B4204CD1
:10A9E000051C246882B00820640703D402B004BCAC
:10A9F0009046F0BD002930D0002D2ED02C680138B3
:10AA0000012CF3D867003C19164EA400A759002F5B
:10AA1000ECD06F683419BC4626896789B046774305
:10AA20006668BC19A445E1D2002ADFD09045DDD389
:10AA3000D418A045DADB09308C07D7D10324234290
:10AA4000D4D166462642D1D1181C131C00900A1C92
:10AA50000420291CFEF71AFFC8E70E20C6E7C046EF
:10AA60003822002018220020F0B5454657464E46B1
:10AA7000E0B4284C051C246882B00820640705D483
:10AA800002B01CBC90469946A246F0BD00293FD0BA
:10AA9000002D3DD00C680138012CF1D867001E4E06
:10AAA0003C19A400B2463659002EE9D04E685444F1
:10AAB0006789B4462689B1467E436768B0463C1C28
:10AAC0004444A445DCD2002ADAD09145D8D3D41826
:10AAD000A145D5DB0930AC07D2D103242342CFD125
:10AAE00066463440CCD188466344191C281C171C88
:10AAF00003F08FFE42460C231268009753435246E0
:10AB00004046D6580221221C2B1CB047201CB7E718
:10AB10000E20B5E73822002018220020F0B54F465D
:10AB20004646C0B4224B83B01B6808245B0705D49B
:10AB3000201C03B00CBC90469946F0BD002834D0D0
:10AB40000368013C012BF3D85D00EB18194A9B0008
:10AB50009D58002DECD0D3181F895D895A687D431C
:10AB60004668AD18AE42E3D20934B307E0D1884657
:10AB70008146391CB01A03F041FD093C0029D7D1A8
:10AB80004046391C03F03AFD89B20029D0D1434632
:10AB9000002BCDD04644B542CAD3002203200092F8
:10ABA0004946FEF773FE041CC2E70E24C0E7C04608
:10ABB0003822002018220020074B1A680823520769
:10ABC00001D4181C7047002804D0044B5B78036044
:10ABD0000023F6E70E23F4E738220020442100206A
:10ABE000A02210B5064BD205D15880231B041C1C93
:10ABF000A1208C430B400349C0001450535010BD9A
:10AC0000040500000C050000F8B54F464646041C3C
:10AC1000C0B4112809D0122839D0132839D01428EB
:10AC200039D00CBC90469946F8BD0025012911D0B9
:10AC300000291FD00229F4D16B005D191F4B5D194B
:10AC40006E78002EEDD01E4B1B68002BE9D0301C17
:10AC50009847E6E7194B6F00984642467B19D65C49
:10AC600043445B78002B18D17F194744BA78154BC1
:10AC70005A55E6E71448FDF7AFFF104A6B005B1921
:10AC8000D318104A9B78565D9E42CAD1D9E7012558
:10AC9000CCE70225CAE70325C8E70C4B0A481B6826
:10ACA0009900C9180A4B49001A1C9946FDF716FF6E
:10ACB0000028D9D14B461C70D6E7C046CC220020D4
:10ACC0008022002074220020842200207C22002088
:10ACD000C8220020F8B5C74B1B68DB0700D4F8BDBD
:10ACE000C54A1478172CFAD8C449A300CB589F46FC
:10ACF000A022C34BD205D1588023DB031C1CA1200A
:10AD00008C430B40BF49C00014505350BE4B00222F
:10AD10001B68BE489900C918FDF7E0FEDFE7A023D5
:10AD2000F021B84ADB05490499500021043A9950B2
:10AD3000D5E7A022B24BD205D1588023DB031C1CDF
:10AD4000A1208C430B40AF49C00014505350AE4B70
:10AD500000221968AD48FDF7C1FEC0E7AC4BA12049
:10AD60001968E0235B048B43A0210026F025C90568
:10AD7000C000A44C0B50A24B0E51CB586D046B403D
:10AD80008025AD032B4000D120E10D5003230E514F
:10AD9000082113709C4B00221B689C485943FDF707
:10ADA0009DFE9CE79A4BA1201968E0235B048B432E
:10ADB000A0210026F025C905C000924C0B50904BF5
:10ADC0000E51CB586D046B408025AD032B4000D154
:10ADD00004E10D5004230E512821DAE7A023A1221B
:10ADE000E021DB05D20049048024995000218548E8
:10ADF000A40319501C50995071E7864D281CFDF78B
:10AE0000EBFE11231C1B00D1C7E0002800D0C4E0DA
:10AE100080237F4E1B043360012C10D0C830642186
:10AE2000604303F065FB784B00221B684343281CFA
:10AE3000191CFDF753FEF02332685B041340A02277
:10AE40007049D2055350A1230021DB00D15046E7C1
:10AE50006F4BA1211A68F0235B049343A022C90021
:10AE6000D20553500021674BD15038E7684BA120E1
:10AE70001968E0235B048B43A0210027F026C90555
:10AE8000C000604D0B505E4B4F51CB587604734061
:10AE90008026B603334000D18EE00E504F51022C75
:10AEA00000D1A0E02821147074E7A023A122C021C2
:10AEB000DB05D2004904C024995000215148E40325
:10AEC00019501C5099500AE7A023A122D021DB057C
:10AED000D20049048024995000214A48E4031950C3
:10AEE0001C509950FBE6A023F021A122DB05490468
:10AEF000D20099500021434A9950F0E6E022444B99
:10AF000052041B68A1219A43A023C900DB058024B9
:10AF10005A5000223B48A4031A501C505A50DEE6F7
:10AF20003B4BA1201968E0235B048B43A021002642
:10AF3000F025C905C000334C0B50314B0E51CB5896
:10AF40006D046B408025AD032B403CD00D500E515D
:10AF5000052313702C4B002219682C484900FDF77B
:10AF6000BDFDBCE62A4BA1201968E0235B048B439E
:10AF7000A0210026F025C905C000224C0B50204B13
:10AF80000E51CB586D046B408025AD032B4022D071
:10AF90000D500E5106231370D9E6F0231C4A5B04B2
:10AFA0001168A1200B40A021C000C9050B5000234F
:10AFB00014480B50136092E64E510B50022C15D0E2
:10AFC00004211470E6E60D510B50C1E70D510B50F2
:10AFD00002210323DDE60D510B50DBE70D510B5031
:10AFE00004210423D5E612211470D3E60221147043
:10AFF000D0E6C04678220020A422002080E801008C
:10B00000040500000C0500007C22002050220020D6
:10B0100070220020A822002008B50378112B06D04A
:10B02000122B12D0132B12D0142B12D008BD0023D8
:10B030005A00D318084AD31858780028F6D0074B7E
:10B040001B68002BF2D09847F0E70123F0E70223BA
:10B05000EEE7113BECE7C046CC2200208022002026
:10B06000002303280DD8A223A022DB00D205D2584A
:10B07000054B8000C0580123834093435A1E9341DF
:10B08000DBB200200B70704744E9010070B5DB4B68
:10B09000041C1B680020DB0700D470BD172CFCD8F3
:10B0A000D74AA300D3589F46A022D64BD205D158E9
:10B0B0008023DB031C1CA1208C430B40D249C00021
:10B0C00014505350D14B00221B68D1489900C91825
:10B0D000FDF704FDE1E7A022CA4BD205D158802339
:10B0E000DB031C1CA1208C430B40C749C00014503B
:10B0F0005350C64B00221968C548FDF7EFFCCCE75A
:10B10000C44D281CFDF768FD11231C1B00D14CE128
:10B11000002800D049E18023BF4E1B043360012C7E
:10B1200010D0C8306421604303F0E2F9B74B00222D
:10B130001B684343281C191CFDF7D0FCF023326820
:10B140005B041340A022B049D2055350A123002133
:10B15000DB00D150A1E7A023F021A122DB054904A7
:10B16000D20099500021A84A002099501222AB4BDE
:10B170001A7092E7A023A122E021DB05D200490446
:10B18000802499500021A048A40319501C509950C4
:10B190001322A24B00201A707FE7A023F0219A4AC5
:10B1A000DB05490499500021043A99509B4B00203B
:10B1B0001C7072E7984BA1211A68F0235B0493433B
:10B1C000A022C900D205535000238F4900205350BC
:10B1D000924A137061E7904BA1211A68E0235B0447
:10B1E0009343A0220026F025D205C900864853507B
:10B1F000844B1650D3586D046B408025AD032B4013
:10B2000000D1E9E055501650022C00D1F1E0282180
:10B21000824B1C707D4B00221B687D485943FDF713
:10B220005DFC3AE7A023F021774ADB0549049950F9
:10B230000021043A99500C22784B00201A702CE718
:10B24000A023A122D021DB05D200490480249950FB
:10B2500000216D48E40319501C50995014226F4B83
:10B2600000201A7019E76C4BA1211A68E0235B04D7
:10B270009343A0220025F024D205C9006248535010
:10B28000604B1550D358640463408024A4032340CA
:10B2900000D199E054501550082103221AE05E4B6A
:10B2A000A1211A68E0235B049343A0220025F02427
:10B2B000D205C90054485350524B1550D35864041A
:10B2C00063408024A403234000D18BE05450282104
:10B2D00015500422514B1A709CE7E0224E4B520449
:10B2E0001B68A1219A43A023C900DB0580245A5082
:10B2F00000224548A4031A501C505A50474B0732AD
:10B300001A700020C9E6A023A122C021DB05D200CB
:10B310004904C024995000213B48E40319501C50B3
:10B32000995015223D4B00201A70B6E63A4BA121E8
:10B330001A68E0235B049343A0220025F024D20581
:10B34000C900314853502F4B1550D3586404634003
:10B350008024A40323403CD05450155005222F4B89
:10B360002B481A70294B002219684900FDF7B6FBDB
:10B3700093E6294BA1211A68E0235B049343A022A2
:10B380000025F024D205C9001F4853501D4B15500D
:10B39000D358640463408024A403234026D054502F
:10B3A000155006221D4B1A70A3E6F0231A4A5B04BF
:10B3B0001168A1240B40A021E400C9050B51002312
:10B3C000114C0B51136068E61450535002210322B4
:10B3D00080E714505350C1E715505350022C0AD047
:10B3E000042115E714505350042172E714505350B0
:10B3F000D7E712210CE702210AE7C0467822002095
:10B40000E0E80100040500000C0500007C2200209B
:10B4100050220020A822002070220020A422002018
:10B42000234B10B51960234B041C1860224B1A6083
:10B43000830712D50D22214B21481A700132DA7090
:10B4400001329A7101325A724A080421FCF76CFFEA
:10B45000002820D0E30703D41CE0C3070ED500204A
:10B46000A023F022A1210024DB055204C9005A5078
:10B4700014495C500C315A5000280BD1124800215D
:10B48000124AFDF711FB002804D111480121114A8D
:10B49000FDF70AFB10BDFCF7A1FF0028DAD10E482A
:10B4A00000210E4AFDF700FBE307E5D5D8E7C046CB
:10B4B0007C2200207822002080220020CC22002044
:10B4C00058E901000C05000054E90100D5AC010069
:10B4D00078E90100E1AB010040E9010019B0010089
:10B4E000031C0720032B00D97047012A13D0012920
:10B4F00017D0002908D0022919D15800C3180D48C7
:10B50000C3185A700020EFE75800C3180948C31841
:10B510009A700020E8E700220129E8D11A1C0D32B8
:10B52000D2B258000349C3185A540020DCE7072060
:10B53000DAE7C046CC220020E0231D4ADB00D258C7
:10B540001C4B1A400023C10701D5C0239B021343A3
:10B55000E0221749D2008B50174B9A58154B1A40CE
:10B560000023810701D5C0239B021343E022124927
:10B57000D2008B50114B9A580E4B1A4000234107B2
:10B5800001D5C0239B021343E0220C49D2008B500B
:10B590000B4B9A58074B1A400023010701D5C023D3
:10B5A0009B021343E0220649D20000208B507047D3
:10B5B00044000050FFFFFCFF480000504C000050CA
:10B5C0005000005008B50320FFF7B6FF031C002011
:10B5D000002B02D0062B00D0181C08BD10B5038824
:10B5E000102B08D0112B05D1294A1368013B136099
:10B5F000002B07D010BD264C2368002B11D001333F
:10B600002360F7E7002002210122FFF769FF0028ED
:10B610002BD0072829D01F4B1B68002BEAD0984756
:10B62000E8E7002000210122FFF75AFF002808D098
:10B63000072806D0174B1B68002B00D098472368BB
:10B64000DDE7012002210722FFF74AFF002801D091
:10B650000728EFD1002002210422FFF741FF002834
:10B66000EDD00728E6D12368C9E70120022107228F
:10B67000FFF736FF002801D00728CCD10020002199
:10B680000A22FFF72DFF0028B4D00728C3D1B1E765
:10B69000DC220020D822002010B5244B82B00C1EE2
:10B6A000186018D06B460020991DFFF7D9FC0028C0
:10B6B00001D002B010BD6B460130D91DFFF7D0FCA0
:10B6C0000028F6D16B46DB79002B29D16B469B799C
:10B6D000002B28D12370164B1B68002B01D00020B3
:10B6E000E7E7002002210122FFF7FAFE002801D03F
:10B6F0000728DED1012002210722FFF7F1FE0028F2
:10B7000001D00728D5D1002000210A22FFF7E8FE4A
:10B710000028E4D0C31F5A1E93415B421840C8E77B
:10B7200002232370D7E70B232370D4E7D82200200D
:10B73000DC22002076DF70477ADF70477CDF7047BD
:10B7400060DF70473CDF704748DF704708B5002175
:10B750000022FCF75BFE08BD10B5041CFEF7BAFE24
:10B76000201C01F029FA10BD08B5002A04D0101CD5
:10B7700000210022FCF74AFE002008BD08B503782E
:10B78000002B00D008BD064B3B211888FFF7D2FFE5
:10B790000028F7D000210022FCF738FEF2E7C0466F
:10B7A0006420002010B5041C02F0F0F9201C01F008
:10B7B000C9FD201CFFF712FF2388102B09D0112B85
:10B7C00003D10122094B52421A80201C01F09CF93E
:10B7D00010BD0720FFF75AFC002803D000210022EB
:10B7E000FCF714FEA288014B1A80EEE764200020CB
:10B7F00008B5072820D00A2810D0042800D008BD9A
:10B80000144B13211888FFF795FF0823021C9A4355
:10B81000F5D000210022FCF7F9FDF0E70020FFF74A
:10B8200035FC002810D1FFF7CDFE002807D1FFF727
:10B8300089FF0028E3D0ECE701F02EFBE5E70021CB
:10B840000022FCF7E3FDF2E700210022FCF7DEFD19
:10B85000E9E7C0466420002008B5002807D0032887
:10B8600004D10138FFF712FC00280DD108BD0020DB
:10B87000FFF70CFC00280CD1FFF7A4FE00280DD127
:10B88000FFF760FF0028F1D000210022FCF7BEFD89
:10B89000ECE700210022FCF7B9FDEDE700210022D2
:10B8A000FCF7B4FDECE7C04608B5031C0A1C0248CF
:10B8B000191CFCF7ABFD08BDEFBEADDE70B5002076
:10B8C0009AB00521874A0023FDF77CF8002803D0B1
:10B8D00000210022FCF79AFD03208349834AFFF7E9
:10B8E0009FFD002803D000210022FCF78FFD0CAC47
:10B8F0000020211CFFF7D0FE002803D000210022E9
:10B90000FCF784FD26780820023E73425E417849A8
:10B9100048220023F6B202F06DFD002803D000217A
:10B920000022FCF773FD0822201C0021FCF770FCAC
:10B9300001232278201C13432370FFF701FF002806
:10B9400003D000210022FCF761FD6A4802F078FD77
:10B95000002803D000210022FCF758FD664802F0C1
:10B9600079FD002803D000210022FCF74FFD03AD34
:10B970002E70FEF79BFE002803D000210022FCF76A
:10B9800045FD281C01F0F6FF002803D0002100220D
:10B99000FCF73CFD3520002105226844FCF738FC0B
:10B9A0000123627955481A43E1231A400C231A43B4
:10B9B000CD23134063710723A3710933E371504B07
:10B9C000211C0C930123237102F07AF8002803D084
:10B9D00000210022FCF71AFD0F2101222B78494E8D
:10B9E0008B43134310220B401343301C2B7002F087
:10B9F00019FF311C82B2281CFFF7A0FE002803D0DB
:10BA000000210022FCF702FD201C00210822FCF787
:10BA1000FFFB50232380503363800023A3809133A6
:10BA2000FF33201CE380FFF787FE002803D00021AE
:10BA30000022FCF7EBFC00213822201CFCF7E8FB7D
:10BA4000022306222370013BA37023822E4BE27057
:10BA5000636101220023EB602A73962252002A615F
:10BA6000783A6B60AB60AB61EB612B626A61039308
:10BA70000093201C00212A1C244B00F041FE0028CA
:10BA800003D000210022FCF7C1FC1C22201C002155
:10BA9000FCF7BEFBA02292026260F0220023120398
:10BAA000A26003220C93E3812374194B201C636171
:10BAB000184B2273A36101F009FC002803D0002178
:10BAC0000022FCF7A3FC032000F0BEFE002803D1F7
:10BAD000FFF73AFE0028FBD000210022FCF796FC7D
:10BAE000F6E7C046E4220020CD0C0000F1B70100CB
:10BAF000AC240020A5B7010059B70100E0220020C6
:10BB000069B701007CE901006020002059B80100FC
:10BB10007DB701004DB7010071DF704772DF7047DC
:10BB200079DF70477DDF704765DF7047F0B50488C7
:10BB3000051C83B00720012C04D01488A01C984257
:10BB400002D90C2003B0F0BD2E78012E04D16E78FE
:10BB500002363619B342F4D3023B1C1B6B460F1C52
:10BB6000A4B20818991D161CDC80FFF7DBFF002823
:10BB7000E8D12B78022B18D0012B11D0231C0821DF
:10BB8000FE2BDED83288581CB8543288002001328F
:10BB900092B23280B954328801329B183380D1E797
:10BBA0006B789C42EBD2231CE9E76B46DB880921CA
:10BBB0009C42E5D2231CE2E7F0B55F465646444678
:10BBC0004D46F0B485B09A460EAB80CB061C1B8860
:10BBD00000919B463B88904601930388002B5BD0E5
:10BBE0000023994602AB0024DD1C03E033880134B6
:10BBF000A3422ADD7368A1009C460422614403A885
:10BC000002F007FE03A8291C0022FFF78DFF002881
:10BC100026D12B784345E9D14B46002B27D043460C
:10BC20003A88D3185B4539DC524403A8291CFFF736
:10BC30007BFF002814D13B882A780134D3183B803D
:10BC4000012399463388A342D4DC4B46002B23D0F2
:10BC50003B88019A013B9B1A9BB20C20FF2B18D901
:10BC600005B03CBC90469946A246AB46F0BD424664
:10BC70003B889A1802325A4510DC69465246013315
:10BC800009789BB23B80D1543A88013292B23A8013
:10BC9000CAE7111C524653540020E1E70C20DFE7AD
:10BCA000F0B55F4656464D464446031C0020F0B4AE
:10BCB00017881080586B87B0002800D16FE1047896
:10BCC000022F18D90220112508701088013080B287
:10BCD00010800D541088013080B210800C541488EC
:10BCE0000134A4B21480186B002800D177E0251C21
:10BCF0001235BD4207D90C2007B03CBC904699468E
:10BD0000A246AB46F0BD11250D551488013D013406
:10BD1000A4B214800D5514880134A4B21480C57BDC
:10BD20000D5514880134A4B21480857B0D551488F8
:10BD30000134A4B21480457B0D5514880134A4B29B
:10BD40001480057B0D5514880134A4B21480C57A83
:10BD50000D5514880134A4B21480857A0D551488C9
:10BD60000134A4B21480457A0D5514880134A4B26C
:10BD70001480057A0D5514880134A4B21480C57955
:10BD80000D5514880134A4B2148085790D5514889A
:10BD90000134A4B2148045790D5514880134A4B23D
:10BDA000148005790D5514880134A4B21480C57827
:10BDB0000D5514880134A4B2148085780D5514886B
:10BDC0000134A4B2148045780D5514880134A4B20E
:10BDD00014800078085514880134A4B214802E20F1
:10BDE0001D5C002D00D0DCE01E1C2D23F35C151C17
:10BDF0008846002B00D0F7E0B378002B00D024E178
:10BE0000F378002B16D0E21CBA4200D973E7022265
:10BE1000414640460A5501212A88013292B22A80C1
:10BE200081542A88013292B22A8083542C880134AA
:10BE3000A4B22C807368002B16D01A78E31CBB4286
:10BE400000D958E70223414640460B550A212B886A
:10BE500001339BB22B80C1542B8801339BB22B80C2
:10BE6000C2542B8801332B803389002B00D010E182
:10BE7000338A002B00D076E1338B002B00D08BE18E
:10BE8000336A002B4AD02A880C20911DB94200D970
:10BE900032E7198805388B46052900D82CE7CC4CA9
:10BEA0005C44A4B2A146CB4CA446A14500D823E7EC
:10BEB0005C88A246052C00D81EE7C54C6946A14601
:10BEC000D1444C46CC81CC89644500D814E7C24C9F
:10BED000A34504D0A24502D0D34500D90CE70521E3
:10BEE000404681542A880D31013292B22A80815411
:10BEF0002A88013292B22A80198842441170090AB4
:10BF000051702A88023292B22A805988131C434405
:10BF10001970090A59702B8802332B80746A002C1F
:10BF200032D0A2882988131D5B180C20BB4200D98F
:10BF3000E2E6931CFE2B00D9DEE6434603325A5458
:10BF4000FF2241462B8801339BB22B80CA542B8899
:10BF500001339BB22B80228843441A70120A5A7014
:10BF60002B8802339BB22B80A288002A0CD0A168B8
:10BF70000538002900D1BFE64344181C02F049FCF3
:10BF80002A88A388D3182B802C23F35C002B00D0A5
:10BF900098E03378002B00D0DEE00020ACE60024EF
:10BFA000A1E6E61C2238BE4200D9A5E602260E55BF
:10BFB0001C241088013080B210800C54108801308D
:10BFC00080B21080022D00D10FE100D806E1032DD0
:10BFD00000D108E1042D00D0F7E003240C541488AC
:10BFE0000134A4B21480FFE609340C20BC4200D90D
:10BFF00082E604A8FFF790FD002800D07CE64146C9
:10C0000008222B88CA542B88133201339BB22B8011
:10C01000CA5402AB9C4609212888153A013080B2E7
:10C0200028806144404402F0F4FB2B8802AA0633C6
:10C03000127A9BB22B80002A00D001224146CA54BA
:10C040002C880134A4B22C80D6E604340C20BC42E7
:10C0500000D951E604A8FFF763FD002800D04BE6A5
:10C06000032241462B88CA542B88163201339BB2D7
:10C070002B80CA542B8802AA01339BB212892B80D1
:10C0800043441A70120A5A702C880234A4B22C80CD
:10C09000B6E6341C083400950197201C02210222C8
:10C0A0004346FFF789FD002800D025E6009501975B
:10C0B000201C062110224346FFF77EFD002800D0F9
:10C0C0001AE6D5E6B46A002C00D17EE0A3880233DC
:10C0D000FE2B00D90FE60022914616329246163208
:10C0E000288893460BE04B465C00B36A4C449C4660
:10C0F000A4006444A3880233FE2B00D9FBE542462A
:10C100005146013313542B8801339BB22B80D154F9
:10C110002B8801339BB22B80228843441A70120A69
:10C120005A702888023080B22880A288002A0AD05B
:10C13000A168002949D0404402F06BFB2888A388FD
:10C14000C01880B228804B460133DBB299465B466B
:10C15000F35C4B45C7D81CE7301C41462A1C3B1CEE
:10C16000FFF7E4FCC8E5341C103400950197201C4F
:10C17000032102224346FFF71FFD002800D0BBE544
:10C1800000950197201C072110224346FFF714FD5C
:10C19000002800D0B0E56FE6341C183400950197F4
:10C1A000201C142102224346FFF706FD002800D080
:10C1B000A2E500950197201C152110224346FFF7A8
:10C1C000FBFC002800D097E55AE6072094E5C0461E
:10C1D0007FF3FFFF7DF30000FFFF0000012DF4D18E
:10C1E00000240C54FBE60E54F9E601240C54F6E648
:10C1F000F0B54E46574645461F23E0B496B002AA16
:10C20000041C0E1CD381002800D171E0C3785B07A9
:10C2100067D5002302AA9381436B002B00D13EE136
:10C220001B78022206ADAB700323032705210420EF
:10C230002A700F326A7002AA9381226B002A3AD0C8
:10C24000112306ADEB55013B2B54D37B6B54907BF4
:10C250004B1CE854507B8B1CE854107BCB1CE854DF
:10C26000D07A0B1DE854907A4B1DE854507A8B1D00
:10C27000E854107ACB1DE854D0790133E854907912
:10C280000133E85450790133E85410790133E8540C
:10C29000D0780133E85490780133E854013302A890
:10C2A00083815078E854013302A883811278EA54DC
:10C2B000013383819BB22E22A25C002A00D0F1E1DF
:10C2C0002D22A25C002A00D011E1A278002A00D021
:10C2D0003DE1E278002A35D0D91C1F2925D90C2050
:10C2E00000E0072016B01CBC90469946A246F0BD5F
:10C2F000002502AB9881002E00D1D4E0F378002B0A
:10C30000EFD102AA94460E236344301C0EA91A1CD6
:10C31000FFF7C6FC0028E5D102AB9B7B0EAA02A961
:10C32000097B281CFFF7FAFBDCE70220012706AD9A
:10C33000E854581C02339BB280B22F54EA548BB29B
:10C3400002AA93816268002A0FD01078DA1C1F2A93
:10C35000C5D802210A2706ADE954591C02339BB205
:10C3600089B26F54E85402AB9A812389002B00D024
:10C370009EE0238A002B00D00AE1238B002B00D003
:10C3800025E1236A002B43D002AA92890C20911D3B
:10C390001F29A7D81888824655460720052DA1D900
:10C3A000D24D5544ADB2AC46D14DA846AC4599D915
:10C3B0005D88A946052D00D894E7CC4D6F46AC4664
:10C3C000CC446546FD81FD89454500D88AE7C94DC5
:10C3D000AA4504D0A94502D0CA4500D982E7052064
:10C3E000122706ADA854501C80B22F54901C80B266
:10C3F00002AFB8811F88281807703F0A47700432BF
:10C400005B8892B2AD182B701B0A6B7002AB9981DE
:10C41000676A002F2FD0BB880C20991C02AB9B8928
:10C420009A1C55181F2D00D95CE7FE2900D959E741
:10C4300006AD0131E954591C89B2F330685492B207
:10C4400002A98A813988AA180433117098B2090A9E
:10C4500002AB51709881BA88002A0CD0B9680029C3
:10C4600000D13EE7281802F0D4F902ABBA889B89C4
:10C47000D31802AA93812C23E15C002900D0C5E0E7
:10C4800006AD2378002B00D135E7201C291C05AA16
:10C490001F23FFF74BFB002800D12CE722E70027E2
:10C4A00002210120C9E602ABDE810022002336E72B
:10C4B00005AB271C00931F23083706AD9846019350
:10C4C000381C022102222B1CFFF776FB002800D02B
:10C4D00008E705AB00934346381C01930621102260
:10C4E0002B1CFFF769FB002800D0FBE641E709336E
:10C4F0000C201F2B00D9F5E60EA8FFF70DFB002836
:10C5000000D0EFE6082202AB9B8906ADEA545A1C24
:10C51000023398B21B2102AB9C4692B2A954163149
:10C52000988161440622281802F073F9302002AB8A
:10C5300002A99B89091809789A1D92B2002900D096
:10C5400001210733A9549BB202AA9381BDE60433AB
:10C550000C201F2B00D9C5E60EA8FFF7E1FA002832
:10C5600000D0BFE60322192102AB9B8906ADEA5435
:10C570005A1C92B2A95402AA118E9A1C92B2AD18FA
:10C58000043329709BB2090A02AA69709381A0E65C
:10C5900005AB271C00931F23103706AD9846019367
:10C5A000381C032102222B1CFFF706FB002800D0B9
:10C5B00098E605AB00934346381C019307211022EF
:10C5C0002B1CFFF7F9FA002800D08BE6D5E605AB67
:10C5D000271C00931F23183706AD98460193381C7B
:10C5E000142102222B1CFFF7E7FA002800D079E67D
:10C5F00005AB00934346381C0193152110222B1CD8
:10C60000FFF7DAFA002800D06CE6BAE6A76A002F36
:10C6100000D166E6BB880233FE2B00D95FE602AA92
:10C62000908900229046163291461632924606AD07
:10C630004A4601332B54431C9BB2EA54831C9BB2E1
:10C6400002AA93813A88EB181A700430120A5A70C1
:10C6500080B202AB9881BA88002A0FD0B96800294D
:10C6600000D13EE6281802F0D4F802AB9B89B888C6
:10C67000C01880B202AB98815346E15C4346013357
:10C68000DBB298468B4200D3FBE643465F00A36AC9
:10C6900047449C46BF006744BB880233FE2BC7D982
:10C6A0000C201FE602201C27591C06AD89B2E85455
:10C6B0006F54191889B282420CD010D9032A0CD0B9
:10C6C000042A00D00DE603226A5403339BB202AA67
:10C6D0009381F5E501226A54F7E76854F5E7012AEA
:10C6E00000D0FEE500226D182A70EEE77FF3FFFF11
:10C6F0007DF30000FFFF000073DF704774DF7047B9
:10C70000F8B5051C0E20002D00D17DE0002A00D1D7
:10C710007AE000200F1C3D4908703D490B600699E6
:10C720003C4B19603C490B1C13CA13C313CA13C3F7
:10C7300013CA13C3002107223848FBF769FD384BA1
:10C74000384A394E1A60394A00219A60301C382222
:10C75000FBF75EFD2B782A1C3370AB781032B37078
:10C76000EB78F3706B787370331C103303CA03C318
:10C77000331C103A083303CA03C3331C083218337E
:10C7800003CA03C36B6A002B11D0294B294C736277
:10C79000696A9C600A881A8088889880002806D078
:10C7A00000238A68D25CE25401338342F9D1AB6A38
:10C7B000002B14D0204B2148B362A96A98608C8862
:10C7C0009C800A881A800023002C05D08A68D25CDD
:10C7D000C2540133A342F9D12C23EA5CF2542B6AF0
:10C7E000002B06D0164B33622A6A51885980128872
:10C7F0001A806B68002B03D0124B73606B687360F8
:10C80000301C391CFFF7F4FCF8BDC0460826002098
:10C8100038250020602500206C250020642500209C
:10C82000B425002090250020F4240020E8250020D5
:10C830002C2500203C25002010260020C4250020A7
:10C840000C260020B0250020F0B50024A34D89B0AF
:10C85000287001A80194FEF7AFF9082809D0002834
:10C8600005D1019B002B05D001229D4B1A7009B008
:10C87000F0BD01949B4F0021381C0722FBF7C8FC38
:10C88000994E7378002B58D02B78012B05D0B278B5
:10C89000002A00D1FCE0022B0FD1944A1268002A32
:10C8A00000D106E10121924B0820197090472B78A6
:10C8B000012B00D18DE0022B49D0327B002A01D11F
:10C8C000032B65D0327E002A01D1042B65D0874A24
:10C8D0001268002A03D0033B012B00D899E0002204
:10C8E000844B1A7002AC1822201C0021FBF790FC2C
:10C8F00000232A78237063602372E360022A00D148
:10C90000BCE04FD9032A00D1A5E0042A00D09FE063
:10C91000B38B2382338C6382774B1A79002A00D140
:10C92000BCE03278002A04D0744A1278002A00D180
:10C93000C2E00422724B1A703CE0B378002BB6D0F0
:10C940002B78022BA9D0012BB7D102232B70B378FF
:10C95000002B17D07B78002B00D0A8E0BB78002BF1
:10C9600000D0A4E0FB78002B00D0A0E03B79002BA6
:10C9700000D09CE07B79002B00D098E0BB79002BA5
:10C9800000D094E003232B70337B002B00D083E096
:10C9900004232B70337E002B36D10023584A2B7092
:10C9A00013709CE7012A53D163822382544B676042
:10C9B00022701A70201CFFF79FFE002800D056E757
:10C9C0004A4B1B68002B02D04D4A10789847002034
:10C9D0004DE77278002AB8D07A78002A00D076E73E
:10C9E000BA78002A00D072E7FA78002A00D06EE701
:10C9F0003A79002A00D06AE77A79002A00D066E7FF
:10CA0000BA79002AA1D062E7384B1A68002A00D10F
:10CA100065E73378002B00D161E7384B1B78002B9A
:10CA200000D05CE70121334B07201970904759E78C
:10CA3000E36004233348023200212272C370FFF7FF
:10CA4000D7FB002800D012E705222D4B1A702A7858
:10CA5000002AB5D0AEE7B38A6382338A2382264B9D
:10CA60001A79002A1FD03278002A03D0234A12787C
:10CA7000002ADDD00322224B1A709BE7012323708A
:10CA8000338967606382736823821D4B1A7091E754
:10CA9000022B00D011E775E7032318E71A7B002A61
:10CAA00000D03EE745E71A7B002ADCD1E2E702230B
:10CAB0000DE70F490A70FBE6E360042311480232D8
:10CAC00000212272C370FFF793FB002800D0CEE64E
:10CAD00006220B4B1A702A78BAE7C04608260020B7
:10CAE00009260020642500206C2500203825002020
:10CAF000E4250020E5250020B42500205C25002049
:10CB00001C260020F424002008B50388112B1DD01A
:10CB1000192B06D0102B00D008BD8288204B1A801C
:10CB2000FAE78279002AF7D11E4B1B78022B30D00E
:10CB300027D9032B1DD0042BEED11B4B1A701B4B96
:10CB40001B68002BE8D000209847E5E70022184B2F
:10CB50001A70134B82881B889A42DDD10120FFF79F
:10CB600073FE0028D8D0134B1B68002BD4D09847F5
:10CB7000D2E70D4A04201370FFF766FE0028F2D1B9
:10CB8000CAE7012BC8D10220FFF75EFE0028EAD1D8
:10CB9000C2E70320FFF758FE0028E4D1BCE7C046F7
:10CBA00066200020082600201C26002038250020B2
:10CBB0005C25002060250020F0B5023889B00128EE
:10CBC00003D8A94C2378002B01D109B0F0BD002572
:10CBD00001A825700195FDF7EFFF082808D000286F
:10CBE00000D098E0019B002B03D001232370ECE7D9
:10CBF00001959E4F0021381C0722FBF709FB9C4D35
:10CC00006B78002B5CD09B4E3378012B00D1B6E0C3
:10CC1000AA78002A00D10DE1022B00D1AFE02A7BD7
:10CC2000002A02D1032B00D1B3E02A7E002A02D1D0
:10CC3000042B00D1D9E0904A1268002A03D0033BAC
:10CC4000012B00D8AFE000228C4B1A7002AC1822E6
:10CC5000201C0021FBF7DCFA00233278237063608C
:10CC60002372E360022A00D1C4E064D9032A00D110
:10CC7000CAE0042A00D0B4E0AB8B23822B8C638201
:10CC80007F4B1A79002A02D11A7B002A07D02A7812
:10CC9000002A04D07B4A1278002A00D1D3E0042273
:10CCA000794B1A70201CFFF727FD002833D1724BF7
:10CCB0001B68002B00D188E7734A1078984784E7F7
:10CCC000AB786C4E002B2DD13378012B3CD0022B4E
:10CCD000A5D1AB78002B17D07B78002B00D0B0E02B
:10CCE000BB78002B00D0ACE0FB78002B00D0A8E094
:10CCF0003B79002B00D0A4E07B79002B00D0A0E092
:10CD0000BB79002B00D09CE0032333702B7B002BDE
:10CD10003FD003238FE75D4B1B68002B00D154E706
:10CD2000984752E73378022B29D0012B00D076E7C1
:10CD300002233370CDE7012A53D163822382524B01
:10CD4000676022701A70ADE76A78002AF0D07A78AE
:10CD5000002A00D06FE7BA78002A00D06BE7FA7893
:10CD6000002A00D067E73A79002A00D063E77A7991
:10CD7000002A00D05FE7BA79002AD9D05BE73E4AA3
:10CD80001268002A5AD00121414B0820197090479F
:10CD90009AE7042333702B7E002B26D0364B1A687B
:10CDA000002A00D14FE72B78002B00D14BE7354B01
:10CDB0001B78002B00D046E70121304B072019706B
:10CDC000904743E7E3600423324802320021227295
:10CDD000C370FFF70DFA00289DD105222A4B1A7067
:10CDE0003278002A00D162E75CE70023264A3370DC
:10CDF000137028E7012323702B89676063826B68B7
:10CE00002382214B1A704DE7AB8A63822B8A2382DF
:10CE10001B4B1A79002A02D11A7B002A06D02A78E5
:10CE2000002A03D0174A1278002ACBD00322164BCF
:10CE30001A7037E7022B00D0F1E665E714490A7053
:10CE400043E70223F7E6E36004231248023200219D
:10CE50002272C370FFF7CCF9002800D05BE70622EE
:10CE6000094B1A703278BCE709260020642500209F
:10CE70006C2500200826002038250020E52500200C
:10CE8000B42500205C2500201C2600206025002001
:10CE9000E4250020F4240020F0B5474680B4BB4CC4
:10CEA00088B02378002B00D1A1E0B94D2B78002B5E
:10CEB00000D09CE0B74F3B78002B00D09CE00023D3
:10CEC000012601A82E7098460193FDF775FE0828EB
:10CED00008D0002800D095E0019B002B04D0AE4B79
:10CEE0001E7085E043460193AC4B0021181C0722BD
:10CEF0009846FBF78DF96378002B00D088E0A37883
:10CF0000002B00D197E03B78022B00D189E0012B68
:10CF100000D096E002233B70A378002B1DD043463F
:10CF20005B78002B00D01DE143469B78002B00D09E
:10CF300018E14346DB78002B00D013E143461B7910
:10CF4000002B00D00EE143465B79002B00D009E1B5
:10CF500043469B79002B00D004E103233B70237BE5
:10CF6000002B00D172E003238D4A1268002A03D0FF
:10CF7000033B012B00D873E000228A4B1A7002AEEB
:10CF80001822301C0021FBF743F900233A78337054
:10CF900073603372F360022A00D1BCE000D879E0FC
:10CFA000032A00D1C2E0042A00D0B0E0A38B338270
:10CFB000238C73827C4B1A79002A02D11A7B002AB7
:10CFC00006D02278002A03D02A78002A00D1CBE0AC
:10CFD0000422764B1A70301CFFF78EFB002811D10B
:10CFE0006F4B1B68002B02D0704A107898470020C6
:10CFF00008B004BC9046F0BDFFF780FB002800D1CC
:10D000005DE7F5E76A4B1B68002BF0D09847EEE729
:10D010003B78012B05D0A278002A00D19BE0022B9F
:10D020000FD15F4A1268002A00D198E00121614BBC
:10D030000820197090473B78012B35D0022B00D186
:10D040006AE7227B002A19D1032B17D104233B70F6
:10D05000237E002B19D0524B1A68002A00D18BE78F
:10D060002378002B00D187E72B78002B00D083E7B3
:10D0700001214C4B07201970904780E7227E002A3F
:10D0800000D071E7042B00D06EE70023474A3B70C5
:10D09000137071E7012A3AD1414673823382434BC0
:10D0A000716032701A7096E76278002A00D131E719
:10D0B00042465278002A00D056E742469278002A2B
:10D0C00000D051E74246D278002A00D04CE74246D1
:10D0D0001279002A00D047E742465279002A00D050
:10D0E00042E742469279002A00D113E73CE7F36019
:10D0F00004233148023200213272C370FFF778F8FE
:10D10000002800D07EE70522284B1A703A78002AC2
:10D1100000D165E75FE743467360012333702389DD
:10D12000738263683382214B1A7054E7A38A738237
:10D13000238A33821C4B1A79002A02D11A7B002AD7
:10D1400005D02278002A02D02A78002ACFD00322E4
:10D15000164B1A703FE7022B00D072E7FDE6154927
:10D160000A7069E70223FFE6F360042312480232E3
:10D1700000213272C370FFF73BF8002800D041E76E
:10D1800006220A4B1A703A78C1E7C0466C25002087
:10D190005C250020082600200926002064250020A8
:10D1A00038250020E5250020B42500201C2600207D
:10D1B00060250020E4250020F424002075DF70475E
:10D1C00076DF70477ADF70477BDF704710B5184B0A
:10D1D00082B01888174B984214D0174A174C13780E
:10D1E0000133DBB21370217B99420DD200231370FF
:10D1F000237C002B12D16369002B03D0002201A8ED
:10D200000270984702B010BD0D49FFF7D7FF002804
:10D21000F8D0A369002BF5D09847F3E73B21FFF73F
:10D22000CFFF0028E7D0A369002BE4D09847E2E7BE
:10D2300068260020FFFF0000282600202C26002062
:10D240006C26002030B51B4B1B4A5B88118883B0CD
:10D2500099420FD852889A420CD3184B5B69002B25
:10D2600003D0012201A802709847154C00232370B7
:10D2700003B030BD124C2378002B08D00F4B5B69F4
:10D28000002BF3D0002201A802709847EEE70D4B67
:10D290000A4D1B78002B0BD0A9680B480022FBF726
:10D2A0001DFC0028E2D0AB69002BDFD09847DDE7FA
:10D2B0006968F2E7202600206C2600202C2600203A
:10D2C0001D2600202826002048260020164938B5B3
:10D2D000021C0B1C32CA32C332CA32C312681A6033
:10D2E0000022124B01681A70002916D0104C083227
:10D2F000201C01F08EFA201CFFF764FF00280BD1E0
:10D3000001220C4B52421A8000220B4B0B481A7020
:10D3100000210B4AFBF7C8FB38BD0548FFF754FF57
:10D320000028EDD0F8E7C0462C2600201D2600205E
:10D330006C26002068260020282600208CE90100A9
:10D34000CDD1010010B50388112B35D021D9122B76
:10D3500017D0502B1CD1214CC288E3899A4217D197
:10D36000C38B022B14D11E33C35CDB070ED41C48C5
:10D37000FBF732FC00280BD0A369002B08D098479C
:10D3800006E0811D0822174801F043FAFFF75AFF13
:10D3900010BD102BFCD1011C8288134B16311A8052
:10D3A0001048082201F035FA0022104B1A700B4B7E
:10D3B000DB89002BECD1E9E701220B4B52421A80AA
:10D3C00000220A4B06481A70FBF706FC0028DFD043
:10D3D000024B9B69002BDBD09847D9E72C26002015
:10D3E000482600202026002068260020282600202D
:10D3F0007FDF704782DF7047A7DF7047A9DF704784
:10D40000AADF704700207047002070470020704757
:10D4100000207047002070470020704700207047B0
:10D42000354AF8B54F46914646464946C0B443781A
:10D43000071CDA00D218920089184C68002C0DD015
:10D4400058002E4EC11889007118897A4DB2002DEE
:10D4500046DB002200250024904605E0002200253E
:10D4600000249046254E5800C3189B00F3181889D5
:10D470004146221C2B1CFFF7C1FF0B2808D00028B7
:10D4800014D01F48012D14D00CBC90469946F8BD0D
:10D490007B7841465A00D3189B00F3181889221C48
:10D4A0000123FFF7ABFF002803D101250020012D48
:10D4B000EAD17B780C215A00D3189B00F6183089EA
:10D4C000104AFFF799FF0028DED002220E4BC31846
:10D4D00093430FD008280DD011280BD00020D3E79C
:10D4E0004906B6D4111C083188464946C844A4B23E
:10D4F0008D58B9E70248C7E7902700209C260020F6
:10D5000041800000FFFF0000FECFFFFFF0B589B0B3
:10D510001A236A4653804B782D4D5A00D3189B002E
:10D52000EB18061C18896B460C1C9A1C01A90323D6
:10D53000FFF766FF002802D0002009B0F0BD637835
:10D54000244FD800C0186B468000083038185A881D
:10D5500001A901F04FF9002827D06378D900CA1833
:10D560009200BA185268002A30D11B4D0322CB1802
:10D570009B00FA506B465A886378D900CB189B0001
:10D58000FB185A60637801A9D800C01880000830E1
:10D59000381801F03EF96378301CD900C9188B00A7
:10D5A000F91824223823A847C6E7627853009B184D
:10D5B0009B00ED18AB7A9B07BED4D0008018820088
:10D5C000B81800212422FAF723FEB5E7034DCDE772
:10D5D0009C2600209027002049A90100D9A901001C
:10D5E000021C38B54B780C4CD800C01883000D1CB9
:10D5F000E018111C38232422FDF736FA002807D141
:10D600006B78DA00D3189B00E3185A68013200D017
:10D6100038BD5860FCE7C04690270020F0B557465B
:10D620004E464546E0B44C4F90B03C68002C49D083
:10D63000189C742C46D81E1C484B924601936A468F
:10D640000023089488468146137409960024444DAB
:10D6500002E00134072C11D0A1B2281C02AAFDF768
:10D6600047F90028F5D1484602A9082201F0C2F87E
:10D670000028EED1E4B201ADAC7003E001ADAC78AE
:10D68000FF2C1FD04346032B2DD0364BF31AC32B50
:10D690001ED9354BF31A1B2B30D800236B700AAB05
:10D6A00009931823089308334246022A4FD00222D6
:10D6B00013436A46137407AB0593281C3B6804A9FF
:10D6C0005246984710B01CBC90469946A246F0BD01
:10D6D00053462649002B0BD00B680122A2409343EE
:10D6E0000B602023E0E7189B742B2ED04323E0E748
:10D6F0000122A2400B681342E4D0EEE71C48331A23
:10D70000232B0FD91B4B9E42F0D01B4BA200D358AA
:10D710009E42D7D1194BDA7A4023A242C4D10022CB
:10D720006A70C1E730236A46137400236B700133BB
:10D73000EB70124B9A7A30239207B5D40021242241
:10D74000FAF766FD6B461B7CAEE72323B1E70122A7
:10D7500013436A461374AEE7B827002000FFFFFFAB
:10D760006C270020A826002074270020B427002062
:10D7700090270020C8EA0100742600209C26002083
:10D78000021C38B54B780C4CD800C01883000D1C17
:10D79000E018111C38232422FDF766F9002807D170
:10D7A0006B78DA00D3189B00E3185A68013200D076
:10D7B00038BD5860FCE7C04690270020334AF8B5D2
:10D7C0004F46914646464946C0B44378071CDA00A6
:10D7D000D218920089184C68002C0DD058002C4E9D
:10D7E000C11889007118897A4DB2002D44DB0022DE
:10D7F00000250024904605E00022002500249046E4
:10D80000234E5800C3189B00F31818894146221C68
:10D810002B1CFFF7F3FD0B280CD0002803D1012DA2
:10D8200013D0002002E0012D0FD01A480CBC904606
:10D830009946F8BD7B7841465A00D3189B00F318EF
:10D840001889221C0123FFF7D9FD7B780C215A008F
:10D85000D3189B00F61830890F4AFFF7CDFD00283A
:10D86000DFD002220D4BC3189343DED00828DCD052
:10D870001128DAD00020D9E74906B8D4111C0831A4
:10D8800088464946C844A4B28D58BBE7902700207B
:10D890009C26002041800000FFFF0000FECFFFFF1C
:10D8A000F0B589B01A236A4653804B782D4D5A0043
:10D8B000D3189B00EB18061C18896B460C1C9A1C8D
:10D8C00001A90323FFF79CFD002802D0002009B026
:10D8D000F0BD6378244FD800C0186B468000083034
:10D8E00038185A8801A900F085FF002827D06378EE
:10D8F000D900CA189200BA185268002A30D11B4DBC
:10D900000322CB189B00FA506B465A886378D900E3
:10D91000CB189B00FB185A60637801A9D800C01887
:10D9200080000830381800F074FF6378301CD9008C
:10D93000C9188B00F91824223823A847C6E7627853
:10D9400053009B189B00ED18AB7A9B07BED4D00008
:10D9500080188200B81800212422FAF759FCB5E794
:10D96000034DCDE79C2600209027002049A9010007
:10D97000D9A90100F0B55F4656464D464446F0B47D
:10D9800087B0002800D174E00022424B01261A60C3
:10D990005A729A72012301903F48764283720021A5
:10D9A00007320681C672FAF733FC3C480021242274
:10D9B000FAF72EFC3A4B002500931C1C394BFF272D
:10D9C0009846394B9B46394B9A4601239946201C71
:10D9D000002106221130FAF71BFC201C0021102226
:10D9E000FAF716FC4B464246AB40126859469A433A
:10D9F000131C424613600022AB00CA5053465E55CA
:10DA000001352774A77626831C34072DDFD17423B4
:10DA100002AA274E9380274B101C311CD5800293FD
:10DA2000FCF7EEFE00281DD10123234F3B70019B24
:10DA30001B78002B1FD10025A9B2301C04AAFCF7CB
:10DA400057FF041E21D1009804A91C220023FDF7D2
:10DA50000BF800281CD1009B01351C330093072DC7
:10DA6000EAD1002007B03CBC90469946A246AB469E
:10DA7000F0BD1248F6E702AB02AADB889188301CA1
:10DA8000594389B2FDF74AF8ECE700233B70E9E718
:10DA90003C70E7E7B82700209C2600209027002054
:10DAA000A8260020B42700207426002090260020FD
:10DAB0006C2700201DD60100982600200E80000053
:10DAC000F8B5194B1B78002B01D11848F8BD002878
:10DAD0000AD0002908D00B68002B05D0144E3768F7
