:020000021000EC
:10D0000000480020C1070200090802000B080200C6
:10D010000000000000000000000000000000000010
:10D020000000000000000000000000000D080200E9
:10D0300000000000000000000F08020011080200BC
:10D0400013080200130802009DE801001308020003
:10D050001308020000000000E9E1010013080200CB
:10D06000130802001308020013080200130802004C
:10D07000130802001308020013080200130802003C
:10D080001308020011D50100130802001308020062
:10D09000F1D50100130802008D07020013080200F9
:10D0A0001308020013080200000000000000000046
:10D0B0000000000000000000000000000000000070
:10D0C00010B5064C2378002B07D1054B002B02D05E
:10D0D000044800E000BF0123237010BD6828002031
:10D0E00000000000F00B020008B5084B002B03D035
:10D0F0000748084900E000BF07480368002B00D13B
:10D1000008BD064B002BFBD09847F9E70000000054
:10D11000F00B02006C2800206828002000000000AE
:10D12000164B002B00D1144B9D46402292029A1AB6
:10D13000924600218B460F461348144A121A00F0FB
:10D1400067F80F4B002B00D098470E4B002B00D0F8
:10D1500098470020002104000D000D48002802D04F
:10D160000C4800E000BF00F02DF82000290002F07C
:10D1700059FB00F011F8C0460000080000480020EC
:10D18000000000000000000068280020D82E0020C9
:10D190000000000000000000084B10B5041C002B2C
:10D1A00002D0002100E000BF054B1868836A002B05
:10D1B00000D09847201C00F033F8C0460000000063
:10D1C000680902000E4B70B500251E1C0D4CE41AB8
:10D1D000A410A54204D0AB00F35898470135F8E7F6
:10D1E00003F0B4FB084B00251E1C084CE41AA410E5
:10D1F000A54204D0AB00F35898470135F8E770BD5D
:10D20000602800206028002060280020642800207A
:10D21000031C8218934202D019700133FAE7704759
:10D22000FEE7C046F8B54D465F4656464446F0B464
:10D23000224B1978994600292AD0214B002598467F
:10D24000204B214F01269A4603E00135EDB28D4275
:10D250001ED243461B68321C9C46EC006444207876
:10D260003B6882401342F0D093433B6000F0B2FF32
:10D27000331C22785146934009680B40011C9140B1
:10D280008B420BD04B4601351978EDB28D42E0D37D
:10D290003CBC90469946A246AB46F8BD61686378AF
:10D2A0008B460029EED0591E4C424C41211A4B426C
:10D2B0004B41101CD9B2D847E4E7C0468C28002067
:10D2C00088280020B0280020B4280020F8B5124D8E
:10D2D000071C281C00F0BAFC002807D10124BC4020
:10D2E0000E4E3368234202D0A3433360F8BD381C8E
:10D2F00000F070FF0A4A136800280BD02343136024
:10D300003368281C1C43074B00221968346000F066
:10D310001FFCEBE7A343F2E790280020B42800208D
:10D32000B028002084280020F0B54F464646C0B4FF
:10D33000141C071C83B00E1C0720042A04D803B059
:10D340000CBC90469946F0BD00F038FE00282FD066
:10D350001A4B1B4A1F601B4B751E1E701A4BEDB2F9
:10D360001C6000231360194A1360002E1AD0184B5A
:10D3700001AC994603230026984600E01D1C424656
:10D38000EB00FB182270A670E6709A78187862702D
:10D39000211C4A4600F01CFE0028D0D16B1EDBB2D7
:10D3A000002DEBD100210B4A0B4800F0B7FBC6E77C
:10D3B00000F0D0FD0028CBD0C1E7C046882800206F
:10D3C000B02800208C28002084280020B4280020C9
:10D3D000CDD2010025D201006C09020070B5094DC3
:10D3E0002B78002B0BD00024074E3268E300985CAA
:10D3F000012100F09BFE2B780134A342F5D80020D8
:10D4000070BDC0468C28002088280020BFF34F8FB5
:10D41000024A034BDA60BFF34F8FFEE70400FA05C0
:10D4200000ED00E010B500290DD00923002A01D13C
:10D43000181C10BD541E2240FAD182600160848005
:10D44000C2600023F4E70E23F2E7C046031C10B5C8
:10D450009C888068DA68121A0420944200D210BDB9
:10D46000DA68002014401A681155DA680132DA606F
:10D47000F5E7C04610B58468C268031C05209442D5
:10D4800009D098689A8802401868825C00200A7067
:10D490009A6801329A6010BD80218023184A89025F
:10D4A000D1508022D221174B520289005A50403964
:10D4B0005A5001222F205A600138C046C046C0464B
:10D4C000C046C046C046C046C046C046C046C0462C
:10D4D000C046F1D19A6000230B4A2F201360013817
:10D4E000C046C046C046C046C046C046C046C0460C
:10D4F000C046C046C046C046F1D1044A13707047CA
:10D5000000E100E000100140B8280020D8280020E9
:10D51000A021F0B5002347462C4A490080B453505F
:10D520000431535004315350043153504C3953504B
:10D5300004315350264B1B68002B37D02549002659
:10D5400052582549254F0C68141B00222402240A36
:10D55000904602E0002D1AD02B1C1A68A24216D861
:10D56000A41AB6181A7CDD69002AF3D042469969DC
:10D570001A745A693B68002B1BD0101C984700286E
:10D58000E8D000210022FFF741FF002DE4D1144B29
:10D5900014491A780B789A420ED0134A9B009E5079
:10D5A00080218023114A49035B00D15004BC90467E
:10D5B000F0BD081C9047CDE70132D3B2022B01D059
:10D5C0000B70EAE700230B70E7E7C046001001404C
:10D5D000BC28002004050000B8280020C028002036
:10D5E000CC280020CD280020D028002000E100E039
:10D5F000F0B55F4656464D464446F0B4B44BB54A86
:10D600001B68B54989B0019309781378994200D114
:10D61000B1E10133DBB2022B00D100231370AF4A1A
:10D620009B009B58AA4A9946019B4B441B021B0A2C
:10D63000136001230493AA4B00241B689B46A94B4B
:10D64000D8461B781A1C0293A74B944607931B6875
:10D6500003939F4B1B680693A44B1B7805935B4673
:10D660006646013EF2B29446FF2A4FD06246D00091
:10D67000039A9246504401784578A942F0D04A0076
:10D680005218877801314668C9B27F1AB2467E1EA9
:10D69000B741D2007F42524439401778022F0AD056
:10D6A000032FEAD1002BE8D01C74DB69002BFBD1DF
:10D6B00045789846E1E75668002B25D09E421AD05F
:10D6C0001F1C00E0171CFA69002AD6D09642F9D137
:10D6D000321C3D1CBE4200D1EBE01768D269EA6102
:10D6E000002A06D013689A46574417604578434687
:10D6F000C3E74578C1E7DE691A1C002E00D1DDE0E2
:10D70000B046331C151CE8E70023B6E76946774AA4
:10D71000097D181C11706E4A0699039311604146E9
:10D720006F4A1160049A002A00D028E15B461B1A58
:10D730005A1E93410025DBB20493079B00271B6808
:10D74000039E0693624B1B689C46654B1B689A467A
:10D75000664B1B780593664B019301239846029B09
:10D76000013BDBB20293FF2B00D18FE0069ADB0076
:10D7700093469B44002D27D06968AB68281CED694F
:10D780006246019C8A1A1202120AA24250D8D31889
:10D7900042460360476087600274C761002E56D01E
:10D7A0003168341C994204D35FE01168994263D216
:10D7B000141CE2695B1A002AF7D10360331CC261B2
:10D7C000E0611E1C002DD7D15B465A461B7852786B
:10D7D0009A42C4D0594649685A0089465946D218D7
:10D7E0000133DBB20B708978D2004A4499424AD0A7
:10D7F00011785068331C0129E3D1037C99464946CE
:10D80000331C0029DDD191684160D36883601469BD
:10D81000C46052698261059A002AB1D04A4600214B
:10D8200042606246019C8A1A1202120AA242AED9D2
:10D830006246511A0902090A99420CD242465B1A01
:10D840000360476087600274C761002EA8D1031C83
:10D8500082461E1CB6E74346076047608760037434
:10D86000C761002EF3D000233168CB1A3360031C4C
:10D87000C66182461E1CA5E7C91A11600360C26119
:10D88000331CE0619DE75B461D70B1E75246144BC7
:10D890001A60039BB3422FD1049B002B2CD1002391
:10D8A000124A137009B03CBC90469946A246AB465A
:10D8B000F0BDDE693A1C002E00D021E701250D4B9A
:10D8C0009D600023069601369846151C059604E7D0
:10D8D000B8280020CC280020CD280020D028002007
:10D8E000BC280020C4280020C8280020CE28002002
:10D8F000FEFF7F0000100140002E63D0484B4949D5
:10D900003568CC58484B494E1B683078E21A1202F1
:10D91000120A03329046002861D04246AA4200D241
:10D920002A1CA820D21812023E49130AC0003C4DFE
:10D930000B504A591B1B121B1202120A1B02033204
:10D940001B0A9A42ABD94B590B502F200138C046C5
:10D95000C046C046C046C046C046C046C046C04697
:10D96000C046C046C046F1D180218023304A89029A
:10D970005B00D15093E70023994604935BE60025B2
:10D98000002100244846464613E01A6882421CD80B
:10D99000DE68801A89181C60DF69002E07D0DD61FF
:10D9A0001D1C019A9E608A181202120A5A603B1CC2
:10D9B0003E1C002BE9D11F4B1E6000230393013353
:10D9C0000493BAE6FFF768FD69E7814619490393B6
:10D9D0000E604946521A1A6001230493ADE6802076
:10D9E000D1274002BF00C851403FC851C022802704
:10D9F0000F48BF0252008750076001272F200F6099
:10DA00000138C046C046C046C046C046C046C046B3
:10DA1000C046C046C046C046C046F1D137707CE71C
:10DA20000405000000100140B8280020D82800207C
:10DA300000E100E0BC280020F8B54F464646C0B4DF
:10DA40000326351C80460F1C141C994615400720E0
:10DA5000002D03D00CBC90469946F8BD002A44D056
:10DA6000FFF71AFD4A46224B80201A60221C214BE8
:10DA700018321E70204B62601C607B00DB19DB00DB
:10DA8000D218E260D318C022636125706570A77058
:10DA900025726572A77225746574A774C524FF2169
:10DAA000164B40031D60164B52001D70154BA40011
:10DAB0001D70154B98501A598A433F390A431A5121
:10DAC000A122186040461149D2008850C42080002D
:10DAD0001C580F4A2240C024240222431A500D4BE6
:10DAE0000020CA580C4B1A60B4E7034B1A60B1E728
:10DAF000C0280020C4280020C8280020BC280020FE
:10DB0000CC280020CD28002000E100E000100140DA
:10DB1000FF00FFFF04050000B828002010B50B4BE4
:10DB20001B68002B0BD0002A07D0002805D0036803
:10DB300008201C7C002C04D010BD0720FCE7082026
:10DB4000FAE759745A610020F6E7C046C828002059
:10DB5000F0B5474680B4374B1C68002C08D000282D
:10DB600006D00723042905D8181C04BC9046F0BD34
:10DB70000823F9E74369002BFAD00025437CA84627
:10DB8000012B2ED02C4B10255B68DB05DB0D2CD137
:10DB900064196378A5785E1CF6B2AD1B6F1EBD419B
:10DBA0006D422E402578B5421DD05D00EB186568AA
:10DBB000DB00ED180423002DD6D0033B2B706860EA
:10DBC0001E4B1F48C358E960AB60434680212B6160
:10DBD00080236A611B4A5B0049036670D1500023B1
:10DBE000C2E78846CEE70423BEE7103BDEB275B23B
:10DBF000002D13DBAD08134EC035AD00AD59032623
:10DC00003340DB00DD402B069B0FDBB20025012BF0
:10DC1000BED00835032BBBD00835B9E70F230A4D1A
:10DC20003340AC46083B9B089B0063445D6803237C
:10DC3000E6E7C046C828002000ED00E0040500002B
:10DC40000010014000E100E018ED00E030B52D4A81
:10DC5000031C12680820002A2DD0002B2BD05969F4
:10DC6000002928D000211974274910254968C905C1
:10DC7000C90D23D155196A78A978541CE4B2091B3F
:10DC8000481E814149420C402978A14214D05100DC
:10DC90008A186968D2008C4662440420002A0AD09F
:10DCA000022153601170802380210020174A49030C
:10DCB0005B006C70D15030BD0420FCE71039CCB251
:10DCC00060B2002813DB8008104CC030800000597F
:10DCD00003242140C900C8400106890FC9B20025AC
:10DCE0000129C7D008350329C4D00835C2E70F2160
:10DCF00007482140844608398908890061444868FA
:10DD00000321E6E7C828002000ED00E000E100E084
:10DD100018ED00E030B5047885B0012C19D0022C44
:10DD200034D0002C01D005B030BD254C254D201C31
:10DD3000291CFFF79FFB002823D0A268E3689A42C2
:10DD4000F1D1032302AA13701F4B101C1B689847C4
:10DD5000E9E743681D4D1978281CFFF777FB002879
:10DD60001ED1AA68EB689B1A012B21D0AA68EB6828
:10DD70009B1AAA889342D6D80121154800F0F4FCDA
:10DD8000D1E7281C012100F095FCD6E702AB1C70FE
:10DD9000C36802A8019303930B4B1B689847C2E723
:10DDA00002AB1C70084B03901B6802A89847DDE784
:10DDB00002AB1870044B02A81B689847D6E7C04610
:10DDC000E8280020DC280020E0280020F828002097
:10DDD000E4280020F0B51E1C214B051C89B00C1C4A
:10DDE0001A600720002906D08A881E480968FFF7B4
:10DDF00019FB002801D009B0F0BDA168A2891A481A
:10DE0000FFF710FB0028F6D16A46184B684692CB04
:10DE100092C292CB92C212CB12C2AB6806932B79FC
:10DE200006775A1E934103756B790E22591E8B415A
:10DE30005B421A404275EB780D490293AB7803932D
:10DE40002B7801936B78009300F0ACFB0028D2D1C3
:10DE500000F00EFD0121074800F086FCCBE7C0462C
:10DE6000E0280020F8280020E8280020700902009F
:10DE700015DD0100E428002038B50A4C051CA16816
:10DE8000A288E3685B1A9A4204D0201C291CFFF781
:10DE9000F1FA38BD0448012100F066FC0028F4D0F6
:10DEA0000520F6E7F8280020E428002010B5041C1F
:10DEB00006480121047000F0FDFB112800D010BDC0
:10DEC000211C0348FFF7C2FAF9E7C04608290020E1
:10DED000E8280020F0B5002820DBFF271B4B032299
:10DEE0009C463B1C8408C026C0B20240D20093402E
:10DEF000A4006444B600A5599D438B013B40934068
:10DF0000191C2943A1511F2318401E3B8340C022E6
:10DF1000181C0E4B520098501860F0BDFF260C4A9A
:10DF200003249446321C0F23C0B20440E400A240F4
:10DF30000340083B9B089B006344DD6995438A01CD
:10DF40003240A240111C2943D961DCE700E100E026
:10DF500000ED00E038B54425164C0820635D002B29
:10DF600000D038BD4022FF21013BA3540132A1540F
:10DF70000132A354236201326362A362E36223632A
:10DF80006363A363E3630238FC39A35423606360D3
:10DF9000A360E36023616361A361E361FFF79AFF1C
:10DFA0008021C123044A9B000906D150012300208F
:10DFB0006355D6E70C290020006000404423034A43
:10DFC000D05C431E9841C0B27047C0460C29002067
:10DFD000F0B5474680B4524C0825231820331E78EC
:10DFE0007F2E03D8281C04BC9046F0BDCD78AC46EB
:10DFF000002D36D02568013500D187E004230026A6
:10E000009846731C9D006759013733D0B31C98455F
:10E0100025D99D00675901372CD0F31C98451ED98E
:10E020009D006759013725D0331D984517D99D00AC
:10E03000675901371ED0731D984510D99D00675947
:10E04000013717D0B31D984509D99D00675901378D
:10E0500010D00736B04502D9E369013308D0042552
:10E06000C0E72569013555D0082304269846C8E73E
:10E0700007231C25625162462718DEB220373E7006
:10E08000002A02D1E3183C3318708B78002B15D18D
:10E09000031CA0254A78C133FF3392009B00ED0595
:10E0A0005A51CB78002B15D176B2A4193C340B7899
:10E0B00022789B0113432370002593E7A022D20509
:10E0C0009446E025022783006344ED005A59BA4381
:10E0D0005A51E6E7A22476B2124BB600F318E400D8
:10E0E0000A781D591049000229401951F8214901A7
:10E0F0000840061CC0211004021C301C89021D5956
:10E100000A4010432843185100256BE7002622607F
:10E110001E70BAE7042522611D702E1C2B1CB1E76E
:10E120000C29002000600040FFE0FCFFF0B5264D08
:10E130002C182034227853B2032B18DDEB183C3313
:10E140001B789B09032B32D0012B39D0C025AD029F
:10E15000A023DB059C46E02380006044DB00C4581C
:10E160001A492140C150C2582A43C250F0BD032A67
:10E17000FCD81748A227844601269A006244FF0073
:10E18000D0593043D0511A1C6046002740329200CB
:10E1900092B217500029E9D00022A256920052599B
:10E1A000002AE3D0C1229E4092008650DEE7A223DF
:10E1B000A022DB00D205D258012383401A42C5D1E8
:10E1C0008025AD02C4E7C0460C290020FFFFFCFFFC
:10E1D00000600040A223A022DB00D205D358C34038
:10E1E000181C012318407047F8B54F464646C0B486
:10E1F000C74A00241368012B00D1CBE0C54B1A6835
:10E20000012A00D1D4E0C44B1A68012A00D1DFE012
:10E21000C24B1A68012A00D1EAE0C14B00251A68F6
:10E22000012A00D1F5E023070BD0E30700D506E172
:10E23000A30700D512E1630700D51DE1230700D530
:10E24000F1E0002C03DB0CBC90469946F8BD40235E
:10E25000B44CE15C4BB2013321D0C9B2C023081CDD
:10E260009843231820331B785BB29B001E59002E65
:10E2700015D0A022D205944683009C44E023624638
:10E28000DB00D3580122C0278240BF023B408909EE
:10E290001B0C154200D106E1022B00D160E14123A5
:10E2A000E15C4BB2013321D0C9B2C023081C9843B2
:10E2B000231820331B785BB29B001E59002E15D00B
:10E2C000A022D205944683009C44E0236246DB00F2
:10E2D000D3580122C0278240BF023B4089091B0C52
:10E2E000154200D1D8E0022B00D1FDE04223E15CD1
:10E2F0004BB2013321D0C9B2C023081C9843231864
:10E3000020331B785BB29B001E59002E15D0A02233
:10E31000D205944683009C44E0236246DB00D35838
:10E320000122C0278240BF023B4089091B0C1542D5
:10E3300000D1D2E0022B00D1FEE04323E15C4BB2DE
:10E34000013300D17FE7C9B2C023081C98432318CA
:10E3500020331B785BB29B001E59002E00D172E760
:10E36000A0230124DB059C46E023C02784408200D3
:10E370006244DB00D358BF023B4089091B0C254295
:10E3800000D197E0022B00D05DE7032900D199E08E
:10E39000B04758E7C1216448890041580B4200D179
:10E3A0002CE75C4B14601A680134012A00D02AE77C
:10E3B000C1225D499200895802220A4200D122E717
:10E3C00000211960544B14431A68012A00D01FE73A
:10E3D000C12255499200895804220A4200D117E708
:10E3E000002119604D4B14431A68012A00D014E72C
:10E3F000C1224D499200895808220A4200D10CE7F7
:10E4000000211960464B14431A680025012A00D0E8
:10E4100009E71D6080231B061C43A022A223D2050E
:10E42000DB00D558FFE6404A404BD058D1583D4B11
:10E43000C0048903C00E890FDB68984701E7A22357
:10E44000394ADB00D058D158364BC00489031B68C9
:10E45000C00E890F9847A30700D4ECE6344B324A2C
:10E46000D058D1582F4BC00489035B68C00E890F68
:10E470009847630700D4E1E6A3232B4ADB00D0587A
:10E48000D158284BC00489039B68C00E890F984758
:10E49000230700D4D5E6C6E7032B00D026E70329DF
:10E4A00072D0B04722E7032B00D0F8E6032973D0DF
:10E4B000B047F4E6032B00D0C5E6032900D067E798
:10E4C0008027BF02E023DB00D5581A4C2C40D450E3
:10E4D000D4582743D750B047B5E6032B00D02CE7DC
:10E4E000032955D0B04728E70329DAD1B946E023FC
:10E4F0006246DB00D258904647460E4A3A4067468D
:10E50000FA50FA584F4617436246D750B047EDE6E7
:10E510000061004004610040086100400C6100405F
:10E520007C6100400C290020006000401C050000B8
:10E5300014050000FFFFFCFF0329D3D1B946E023F7
:10E540006246DB00D25890464746154A3A40674635
:10E55000FA50FA584F4617436246D750B047ECE698
:10E560000329A5D1B946E0236246DB00D258904684
:10E5700047460B4A3A406746FA50FA584F46174307
:10E580006246D750B0478AE680239B029946AEE7A1
:10E5900080239B029946D2E780239B029946E2E7BB
:10E5A000FFFFFCFFF0B557464E464546E0B4394CF8
:10E5B000031CA27D0820002A04D01CBC904699466A
:10E5C000A246F0BD002B62D0A02003251A68C0052A
:10E5D000C132FF32920015500122AA461D68AA409E
:10E5E000A125ED004251A94600255A68AC46C1322A
:10E5F000FF32920015509E69274A284D56511D7DC5
:10E60000A84646465D7D3543254E95515D681E689A
:10E61000A846244D56514646234D56511D7D012D89
:10E620001AD19E68371CE0267600B0464744BE00EB
:10E6300067463750C137FF37B8465746DE6846440D
:10E64000B6003750DE68B5404E468551D8689D68A3
:10E650009051A220C00015501A6961602260002903
:10E6600008D0197FC12311480B4A9B00D0500220CB
:10E67000FFF730FCA0230421074ADB00D150002320
:10E680000122E374A374A2756375002095E7084B1B
:10E690009AE7C046542900200020004024050000CD
:10E6A0006C0500000C05000014050000800002004D
:10E6B00090090200F0B5264A041C937C1120002B1F
:10E6C00000D0F0BD01259174224823491382946043
:10E6D0000B6005600B60138AE05C138A1F4C0133EA
:10E6E0009BB213821E4BE0505068002801D00020DE
:10E6F000E7E70027261C1D1C0130FF30947C138A9D
:10E700009C4203D812E0138A834202D00B68002B8C
:10E71000F9D0138A8342F2D00F60138A9468E45CC4
:10E72000138A01339BB213827451E7E78023118A65
:10E730005B0099420AD008490B68002BFCD00121EC
:10E740000020084B196000239374BAE70F20FAE702
:10E7500054290020082000401C21004000200040D7
:10E760001C0500000C200040F0B54F464646C0B4E2
:10E77000394B041CDA7C1120002A03D00CBC9046D3
:10E780009946F0BD1A755A7DD974DC60002A0AD00A
:10E790005A68002A0FD08121C123304A89009B008A
:10E7A000D1500020EAE72E490A602E490A60012173
:10E7B0002A4A1160ECE7294A294D9046A322D2004B
:10E7C00091462848284C296806684A1E91412268CB
:10E7D000C9B2571EBA41D2B2002E0BD1002A2BD19A
:10E7E0000029F0D00022204903200A601C490A6059
:10E7F000DA74C3E70029F5D1002A1FD147464E46F7
:10E800000260197DBE59B4466746DE687754197DAB
:10E81000DE7C0131C9B21975197D8E42D3D81249F7
:10E820000A600F490A60DA745B7D002B0ED001226A
:10E830000A4B00201A60A1E70029D3D100220A491F
:10E840000F200A6006490A60DA7497E70122074B35
:10E8500000201A6092E7C0465429002000200040A2
:10E8600024210040082100404421004004200040B1
:10E87000064A537D002B07D105490B6005490B6003
:10E88000054901330B6053757047C0465429002079
:10E89000242100400821004000200040C12210B582
:10E8A000514B92009A5884B092054CD54F4A11684A
:10E8B000002948D0002111608121C22289009200E4
:10E8C00099504B4B5A7D002A02D10121494A1160CF
:10E8D000022269460A7090214348C90042584250BA
:10E8E00069460392DA7C68460A72DA68196801920E
:10E8F0000022DA745B6898473F4A1368002B10D0F7
:10E900003B4B188A997C814251D9002111601A8AA7
:10E910009968895C1A8A013292B21A82374B324A5C
:10E92000D150374B1A68002A0BD000221A60304BA6
:10E930005A7D002A02D001212B4A1160DA7C002A7C
:10E9400044D104B010BDC123274A9B00D3585B07B4
:10E95000D2D52C4B19680029CED00021A3241960F0
:10E96000234BE400187DD96812590A541A7DD87CCB
:10E970000132D2B21A751A7D9042BDD15A7D002A59
:10E9800002D101201B4A10608124C2221648A40033
:10E99000920084506C461A7D012022720022207061
:10E9A0000191DA74196868465B689847A4E700200B
:10E9B00010600029B5D06A46107011729A68987478
:10E9C000196801925B6868469847AAE768461A7D0D
:10E9D00001210272DA680170019200221968DA746A
:10E9E0005B689847ADE7C046002000402421004006
:10E9F00054290020042000401C2100401C05000078
:10EA00004421004008210040A02210B5064BD20549
:10EA1000D15880235B031C1CA1208C430B4003496D
:10EA2000C0001450535010BD040500000C05000038
:10EA3000F8B54F464646041CC0B4102805D011282E
:10EA400035D00CBC90469946F8BD0026012911D05E
:10EA500000291FD00229F4D173009E191D4B9E1965
:10EA60007578002DEDD01C4B1B68002BE9D0281CBD
:10EA70009847E6E7174B770098464246BB19D55CA6
:10EA800043445B78002B14D1BF194744BA78134B29
:10EA90009A55E6E71248FFF7D9F80E4A73009B191A
:10EAA000D3180E4A9B78955D9D42CAD1D9E70126BD
:10EAB000CCE70C4B0A481B689900C9180A4B49005F
:10EAC0001A1C9946FFF744F80028DDD14B461C700C
:10EAD000DAE7C046E8290020A02900208C29002080
:10EAE000A42900209C290020C429002008B503780F
:10EAF000102B02D0112B0ED008BD00235A00D318C2
:10EB0000064AD31858780028F6D0054B1B68002B0E
:10EB1000F2D09847F0E7103BF0E7C046E829002024
:10EB2000A0290020F8B5C74B1B68DB0700D4F8BD4F
:10EB3000C54A1478172CFAD8C449A300CB589F466D
:10EB4000A022C34BD205D15880231B031C1CA1203B
:10EB50008C430B40BF49C00014505350BE4B0022A1
:10EB60001B68BE489900C918FEF7F2FFDFE7A02333
:10EB7000F021B84ADB05890399500021043A9950E5
:10EB8000D5E7A022B24BD205D15880231B031C1C11
:10EB9000A1208C430B40AF49C00014505350AE4BE2
:10EBA00000221968AD48FEF7D3FFC0E7AC4BA120A7
:10EBB0001968E0239B038B43A0210026F025C9059B
:10EBC000C000A44C0B50A24B0E51CB58AD036B4070
:10EBD0008025ED022B4000D120E10D5003230E5182
:10EBE000082113709C4B00221B689C485943FEF778
:10EBF000AFFF9CE79A4BA1201968E0239B038B434E
:10EC0000A0210026F025C905C000924C0B50904B66
:10EC10000E51CB58AD036B408025ED022B4000D147
:10EC200004E10D5004230E512821DAE7A023A1228C
:10EC3000E021DB05D200890380249950002185481A
:10EC4000E40219501C50995071E7864D281CFEF7BC
:10EC5000FDFF11231C1B00D1C7E0002800D0C4E039
:10EC600080237F4E5B033360012C10D0C8306421B9
:10EC7000604301F0CFFD784B00221B684343281C02
:10EC8000191CFEF765FFF02332689B031340A02296
:10EC90007049D2055350A1230021DB00D15046E733
:10ECA0006F4BA1211A68F0239B039343A022C90054
:10ECB000D20553500021674BD15038E7684BA12053
:10ECC0001968E0239B038B43A0210027F026C90588
:10ECD000C000604D0B505E4B4F51CB58B603734094
:10ECE0008026F602334000D18EE00E504F51022CA8
:10ECF00000D1A0E02821147074E7A023A122C02134
:10ED0000DB05D2008903C024995000215148240317
:10ED100019501C5099500AE7A023A122D021DB05ED
:10ED2000D20089038024995000214A4824031950B5
:10ED30001C509950FBE6A023F021A122DB0589039A
:10ED4000D20099500021434A9950F0E6E022444B0A
:10ED500092031B68A1219A43A023C900DB058024EC
:10ED60005A5000223B48E4021A501C505A50DEE62A
:10ED70003B4BA1201968E0239B038B43A021002675
:10ED8000F025C905C000334C0B50314B0E51CB5808
:10ED9000AD036B408025ED022B403CD00D500E5151
:10EDA000052313702C4B002219682C484900FEF7EC
:10EDB000CFFEBCE62A4BA1201968E0239B038B43BE
:10EDC000A0210026F025C905C000224C0B50204B85
:10EDD0000E51CB58AD036B408025ED022B4022D065
:10EDE0000D500E5106231370D9E6F0231C4A9B03E5
:10EDF0001168A1200B40A021C000C9050B500023C1
:10EE000014480B50136092E64E510B50022C15D053
:10EE100004211470E6E60D510B50C1E70D510B5063
:10EE200002210323DDE60D510B50DBE70D510B50A2
:10EE300004210423D5E612211470D3E602211470B4
:10EE4000D0E6C0469429002098290020B00902008D
:10EE5000040500000C0500009C2900206C290020FE
:10EE600090290020C82900200023012802D9002071
:10EE70000B707047A223A022DB00D205D258054BAD
:10EE80008000C0580123834093435A1E9341DBB254
:10EE9000EDE7C046740A020070B5DB4B041C1B682A
:10EEA0000020DB0700D470BD172CFCD8D74AA30084
:10EEB000D3589F46A022D64BD205D15880231B039E
:10EEC0001C1CA1208C430B40D249C000145053504D
:10EED000D14B00221B68D1489900C918FEF738FEB3
:10EEE000E1E7A022CA4BD205D15880231B031C1C8A
:10EEF000A1208C430B40C749C00014505350C64B4F
:10EF000000221968C548FEF723FECCE7C44D281C33
:10EF1000FEF79CFE11231C1B00D14CE1002800D001
:10EF200049E18023BF4E5B033360012C10D0C83011
:10EF30006421604301F06EFCB74B00221B68434321
:10EF4000281C191CFEF704FEF02332689B031340B3
:10EF5000A022B049D2055350A1230021DB00D1509B
:10EF6000A1E7A023F021A122DB058903D20099505B
:10EF70000021A84A002099501222AB4B1A7092E748
:10EF8000A023A122E021DB05D2008903802499502F
:10EF90000021A048E40219501C5099501322A24BA2
:10EFA00000201A707FE7A023F0219A4ADB0589032D
:10EFB00099500021043A99509B4B00201C7072E735
:10EFC000984BA1211A68F0239B039343A022C90008
:10EFD000D205535000238F4900205350924A13709A
:10EFE00061E7904BA1211A68E0239B039343A02281
:10EFF0000026F025D205C90086485350844B165090
:10F00000D358AD036B408025ED022B4000D1E9E0E1
:10F0100055501650022C00D1F1E02821824B1C7073
:10F020007D4B00221B687D485943FEF791FD3AE76E
:10F03000A023F021774ADB05890399500021043A87
:10F0400099500C22784B00201A702CE7A023A122A3
:10F05000D021DB05D20089038024995000216D481E
:10F06000240319501C50995014226F4B00201A7021
:10F0700019E76C4BA1211A68E0239B039343A0225C
:10F080000025F024D205C90062485350604B15504A
:10F09000D358A40363408024E402234000D199E0C4
:10F0A00054501550082103221AE05E4BA1211A6822
:10F0B000E0239B039343A0220025F024D205C9003E
:10F0C00054485350524B1550D358A40363408024E6
:10F0D000E402234000D18BE0545028211550042233
:10F0E000514B1A709CE7E0224E4B92031B68A12102
:10F0F0009A43A023C900DB0580245A5000224548CA
:10F10000E4021A501C505A50474B07321A70002024
:10F11000C9E6A023A122C021DB05D2008903C024B7
:10F12000995000213B48240319501C509950152236
:10F130003D4B00201A70B6E63A4BA1211A68E02335
:10F140009B039343A0220025F024D205C900314837
:10F1500053502F4B1550D358A40363408024E4022E
:10F1600023403CD05450155005222F4B2B481A7089
:10F17000294B002219684900FEF7EAFC93E6294B67
:10F18000A1211A68E0239B039343A0220025F024C9
:10F19000D205C9001F4853501D4B1550D358A40326
:10F1A00063408024E402234026D0545015500622A8
:10F1B0001D4B1A70A3E6F0231A4A9B031168A12481
:10F1C0000B40A021E400C9050B510023114C0B5149
:10F1D000136068E6145053500221032280E7145054
:10F1E0005350C1E715505350022C0AD0042115E7A3
:10F1F00014505350042172E714505350D7E7122192
:10F200000CE702210AE7C04694290020100A0200F8
:10F21000040500000C0500009C2900206C2900203A
:10F22000C82900209029002098290020214B10B5E2
:10F230001960214B041C1860204B1A6083070ED5FF
:10F240000D221F4B1F481A700132DA704A08022142
:10F25000FEF76AF8002820D0E30703D41CE0C307B8
:10F260000ED50020A023F022A1210024DB0592036B
:10F27000C9005A5014495C500C315A5000280BD127
:10F2800012480021124AFEF749FC002804D1114817
:10F290000121114AFEF742FC10BDFEF79FF800283D
:10F2A000DAD10E4800210E4AFEF738FCE307E5D517
:10F2B000D8E7C0469C29002094290020A0290020DE
:10F2C000E8290020800A02000C0500007C0A0200E8
:10F2D00025EB0100900A020009EA0100700A020011
:10F2E000EDEA0100031C0720012B00D97047012A19
:10F2F0000ED0012912D0002916D0022906D15800BB
:10F30000C3180D48C3185A700020EFE70720EDE737
:10F3100000220129EDD11A1C0D32D2B25800064943
:10F32000C3185A540020E1E75800C3180248C31814
:10F330009A700020DAE7C046E8290020E823A022DE
:10F340000121DB00D205D358014001D0C021890240
:10F350000B4A13400B43A022E821D205C9005350A9
:10F36000084BD2580223184001D0C0208002044B21
:10F370001340A0221843034BD205D0500020704701
:10F38000FFFFFCFF4407000008B50320FFF7D6FF8E
:10F39000031C0020002B02D0062B00D0181C08BD37
:10F3A00010B50388102B08D0112B05D1294A1368FA
:10F3B000013B1360002B07D010BD264C2368002BA7
:10F3C00011D001332360F7E7002002210122FFF76B
:10F3D00089FF00282BD0072829D01F4B1B68002B42
:10F3E000EAD09847E8E7002000210122FFF77AFFE2
:10F3F000002808D0072806D0174B1B68002B00D028
:10F4000098472368DDE7012002210722FFF76AFF02
:10F41000002801D00728EFD1002002210422FFF7A5
:10F4200061FF0028EDD00728E6D12368C9E7012055
:10F4300002210722FFF756FF002801D00728CCD170
:10F44000002000210A22FFF74DFF0028B4D0072832
:10F45000C3D1B1E7F4290020F029002010B5244BD6
:10F4600082B00C1E186018D06B460020991DFFF763
:10F47000FBFC002801D002B010BD6B460130D91D45
:10F48000FFF7F2FC0028F6D16B46DB79002B29D17F
:10F490006B469B79002B28D12370164B1B68002BE1
:10F4A00001D00020E7E7002002210122FFF71AFF28
:10F4B000002801D00728DED1012002210722FFF712
:10F4C00011FF002801D00728D5D1002000210A22F1
:10F4D000FFF708FF0028E4D0C31F5A1E93415B4288
:10F4E0001840C8E702232370D7E70B232370D4E723
:10F4F000F0290020F42900203CDF704748DF7047E6
:10F5000075DF704776DF70477FDF704786DF7047B3
:10F5100088DF704760DF704764DF704770B503783D
:10F52000012B03D0002B07D0022B04D1406800210F
:10F530000022FDF76BFF70BD0E4C0F4D2078281890
:10F54000FEF79AFC22780132D2B2AB18013B1B784D
:10F5500022700A2B01D0132AEDD9084E00E0227840
:10F5600092B2301C291C00F0F1FF0028F7D1207066
:10F57000E1E7C046F8290020FC2A00200C2E0020DC
:10F5800008B504280FD00A280CD10020FFF784FC0E
:10F59000002816D1FFF7F8FE002817D1FFF7ACFFBF
:10F5A000002809D108BD0C4B13215888FFF7AAFF8A
:10F5B0000823021C9A43F5D000210022FDF726FF04
:10F5C000F0E700210022FDF721FFE3E70021002200
:10F5D000FDF71CFFE2E7C0460C2E002038B50B7883
:10F5E0000D1C032B18D0042B0BD0022B00D038BDE0
:10F5F00000F086FF0028FAD000210022FDF706FF68
:10F60000F5E70F48FFF782FF002814D10120FFF72C
:10F6100043FC0028EBD0EFE70B7A0024002BE6D068
:10F620006B68185DFEF742FC0028F9D12B7A013493
:10F630009C42F5D3DBE700210022FDF7E7FEE5E77A
:10F64000E00A0200F0B54D465F4656464446F0B427
:10F65000038885B0103B9BB281460D2B0ED8674ABC
:10F660009B00D3589F46031C8088991DFFF748FFD5
:10F67000002803D000210022FDF7C8FE604D614C38
:10F680004846FFF78DFE201C494600F05DFB281C14
:10F69000494600F0F7FE05B03CBC90469946A246AC
:10F6A000AB46F0BD0720FFF7F7FB002800D09BE03A
:10F6B0004B46544C9988524D201C698000F00EFB3B
:10F6C0000028DDD000210022FDF7A0FED8E78088C9
:10F6D000852100220023FFF717FF0028CED0C9E7BD
:10F6E0008379022BCAD14848FFF710FF002800D0C9
:10F6F0007FE00120FFF7D0FB0028BFD0BAE7031C52
:10F700000F2206334A4492461A7A0193D208002700
:10F7100003AE002A0BD1B1E7191F01294AD9063BD4
:10F72000012B35D943460133FF189742A6D25346E1
:10F73000DB5D98465346DB195B78991E0129EBD8AF
:10F7400043465B089B46EDD0BC1C5444002503E0B7
:10F75000013502345D4529D20220211C321CFFF7FD
:10F76000DBFE0028F4D13388012BF1D1B378022BD2
:10F77000EED101982449254AFFF7CAFE002800D09F
:10F780007CE70020FFF788FB002800D176E771E7CF
:10F79000B91C51441020321CFFF7BEFE002805D1D1
:10F7A0003388012B02D1B378022BE2D0019B1A7A65
:10F7B000D208B7E743469B089B46B3D0BC1C5444D1
:10F7C000002503E0013504345D45EFD20220211C01
:10F7D000321CFFF7A1FE0028F4D13388012BF1D1B0
:10F7E000B378022BEED1C4E700210022FDF70EFE14
:10F7F0005EE700210022FDF709FE7AE7940A020085
:10F800000C2E0020902C0020E00A0200D80A0200F2
:10F8100008B5031C0A1C0248191CFDF7F7FD08BDBA
:10F82000EFBEADDE30B5002089B00321484A002389
:10F83000FEF702F9002803D000210022FDF7E6FDC3
:10F8400001A8021C434B32CB32C2434B434A0493C0
:10F85000802304AC5B006360A260E360211C404A2B
:10F86000FD3BFEF7B7FA002803D000210022FDF788
:10F87000CDFD01203B493C4AFFF7D8FC002803D0CE
:10F8800000210022FDF7C2FD0020211CFFF7E6FD4C
:10F89000002803D000210022FDF7B8FD00203349E5
:10F8A0004822002300F042FF002803D0002100225C
:10F8B000FDF7ACFD0222201C0021FDF7A9FC01226E
:10F8C0006378201C934363702378023293431A1C9D
:10F8D000022313432370FFF71DFE002803D00021ED
:10F8E0000022FDF793FD224800F046FF002803D0D8
:10F8F00000210022FDF78AFD00F0B6F9002803D0B0
:10F9000000210022FDF782FD1A4B1B48211C0493A5
:10F9100000F088FD002803D000210022FDF776FDCD
:10F920001648FFF7F3FD002803D000210022FDF761
:10F930006DFD0120FFF7B0FA002803D1FFF7DEFDCF
:10F940000028FBD000210022FDF760FDF6E7C0464D
:10F95000582B0020CC0A0200FC2900200C2D00208E
:10F960001DF50100CD0C000081F50100102B0020D9
:10F9700045F60100DDF501000C2E0020E00A020032
:10F9800090DF704792DF704793DF7047F0B55646BF
:10F990004D465F4644467823F0B4374EC35C356825
:10F9A00083B09C46002D0DD062463A235343334A20
:10F9B000C3189C789778A7420BD0012D02D9977A6B
:10F9C000A7420DD003B03CBC90469946A246AB4638
:10F9D000F0BD1788B8461F88B845EED1002304E073
:10F9E00014891B889C42EDD10123DB00D218536897
:10F9F0009A46002BE6D0224B1C689846012CE1D891
:10FA000074230190C35A27019B461E4B58469946C2
:10FA10004A463B199B00D2185080002927D000216C
:10FA20004846195463463A314B4301990432101C3D
:10FA3000C9183A2200F080FF3F19BF003B1C524614
:10FA40004B441A64434601341C60AC42BAD1484668
:10FA5000036C98473368012B05D9484684234A46EE
:10FA60004430D3589847002342461360AAE7022245
:10FA700049465A54E0E7C046BC2E0020A82E00207C
:10FA8000A42E00201C2E0020F0B54F4646467823B9
:10FA90008C463A21C0B4C45C013B4C4301198846F2
:10FAA0000979C25C894653009B189B001B19C31837
:10FAB000511C83B00A33494539D049464D1E772140
:10FAC0004A452CD295421AD001321E8953009B1808
:10FAD0009B001B19C7183F8A0136BE4219D001A9E5
:10FAE0007B1E0E804B80634600221A707423C05A1E
:10FAF000FFF74AFF03B00CBC90469946F0BD424662
:10FB00001B89128993420FD001A901330B804A80CF
:10FB1000E9E7C3180A33D2B242549145D2D801233F
:10FB2000624600201370E5E700236A1CF3E74246B3
:10FB30001B8912899342E7D1F1E7C046F8B55646D2
:10FB40004D465F4644467A22F0B4434E835C3568A6
:10FB50000133DBB28354AB4208D300227923C25471
:10FB60003CBC90469946A246AB46F8BD00239A4657
:10FB700052467733C2540133C15C99460131C9B250
:10FB8000C1543E3B1F1C9846344B4F439B46C719FC
:10FB9000C900041C59440422381C00F0CDFE534611
:10FBA0003B7174230121E05A3A1CFFF7E9FE00285B
:10FBB000D6D079235246E2544B4642465946E35C3E
:10FBC00089785A43A3189A7891423DD0012DC7D025
:10FBD0005946897A9142C3D15A461B8812899A4262
:10FBE000BED10123DB005B445B689C46002BB7D091
:10FBF0001B4F3B68012BB3D87422A25A9046194A76
:10FC000044469146CA461A01D2189200924451467F
:10FC10004C80494601248C545246514650606246FD
:10FC200001330A643B609D429AD14846036C984771
:10FC30003368012B05D9484684234A464430D358BB
:10FC4000984700233B608BE759460F8819888F42FD
:10FC5000BCD10023C6E7C046BC2E0020A82E002041
:10FC6000A42E00201C2E002000230121034A002086
:10FC70001360034A1170034A13607047BC2E0020C2
:10FC8000B82E0020A42E0020F8B5002808D00029A6
:10FC900006D00F4B1A780823002A03D1181CF8BD90
:10FCA0000E23FBE70B4E023B3568022DF6D0023BDC
:10FCB000012DF3D80C1C084FEB00FF18011C042287
:10FCC000381C013500F038FE7C6035600023E5E724
:10FCD000B82E0020BC2E0020A82E002070B5041CD9
:10FCE0000D1C002825D0144B08201B78002B00D1B8
:10FCF00070BD124B1B68002BFAD07926A35D09302A
:10FD0000002BF5D10E4A201C13607422A15206323A
:10FD1000A354023AA3540B49743A00F00DFE281C78
:10FD20000121221CFFF72CFE0028E1D10123A3555D
:10FD3000DEE70E20DCE7C046B82E0020BC2E0020F7
:10FD4000A42E0020A82E0020F0B55F4656464D4652
:10FD50004446F0B483B0002800D17EE0002900D1F1
:10FD60007BE0614B1B78002B77D00B88103B9BB25C
:10FD7000232B72D85D4A9B00D3580D1C041C9F4650
:10FD8000CB88002B00D0AEE13A267833C35C0E312D
:10FD90005E4387190422381C00F0CEFD291CB81DD3
:10FDA0001231042200F0C8FD7723E35C002B00D061
:10FDB000E1E1FB8801A90B803B894B807423E05A69
:10FDC000FFF7E0FD002848D000227923E254484E96
:10FDD000013B3268E15C002A3FD03E3B4B43454F3C
:10FDE000E3189978BD788D4200D193E2012A34D985
:10FDF000BD7A8D4231D139891B8899422DD1012399
:10FE0000DB00FF187B689946002B26D03A4B9846BA
:10FE10001B68012B21D87421615A384C8C466746E7
:10FE20001901C918890065186F8001276754494670
:10FE300029644146013368600B609A420DD1236CFE
:10FE4000201C98473368012B04D9201C842344309C
:10FE5000E358984700234246136003B03CBC9046E9
:10FE60009946A246AB46F0BD7823C35C9C467723F7
:10FE7000C75CCB88002B14D18E89002E11D020486E
:10FE80000B8A834200D164E10A1C0023163205E08C
:10FE90000632911F0988814200D15BE10133B342F0
:10FEA000F6D3002398463A2566466B4642466E4393
:10FEB0001A71A619337901379F4200D142E17723A5
:10FEC000201CE75401A9FFF7DFFD002800D003E262
:10FED0006B461B79002BC0D0201C0121FFF756FD7B
:10FEE000201CFFF72BFEB8E7B82E0020F00A020016
:10FEF000BC2E0020A82E0020A42E00201C2E0020A6
:10FF0000022900007823C35C9846CB88002B00D0E0
:10FF10000BE13A2743465F43C7193E790A7BB21883
:10FF2000042A00DD12E1D2B2131C3A719E4255D26E
:10FF30003A2241465143894673009B199B004B442A
:10FF40009A46A2445046291C303A0A300E3100F03D
:10FF5000F3FC002253469A8293463A79731C9A42E4
:10FF600000D806E15A00D3189B004B449A46A2449D
:10FF70005046291C0A220A30183100F0DDFC534695
:10FF80005A469A823A79B31C934200D3F1E05A0060
:10FF9000D3189B004B449A46A2445046291C0A227F
:10FFA0000A30223100F0C8FC53465A469A823A7908
:10FFB000F31C934200D3DCE05A00D3189B004B445F
:10FFC0009946A1444846291C0A220A302C3100F0E7
:10FFD000B3FC5A464B469A823A790436013E730086
:10FFE0009B199E003A21434659437318E3183889F8
:10FFF0005B8A984200D898E0042A00D195E07723E4
:020000022000DC
:10000000E254002A00D08DE1FB8801A90B803B89D6
:100010004B807423E05AFFF7B5FC002800D11CE7A1
:1000200000227923D04EE2543268013BE15C002A81
:1000300000D112E73E3B4B43CC4FE3189978BD7893
:100040008D4200D198E1012A00D806E7BD7A8D42A1
:1000500000D002E739891B88994200D0FDE60123D0
:10006000DB00FF187B689A46002B00D1F5E6C04BF9
:1000700098461B68012B00D9EFE67421615ABD4CEC
:10008000894644214D468B4659438C4661184D8024
:1000900001254860A946504665464F4608644146DA
:1000A0004B4467550B60934200D0D6E600235D4673
:1000B00032685F1C934200D3CCE62B1C7B431A1F93
:1000C000443BE018A35898473B1CF1E77C220021F1
:1000D000FDF79EF8012274235242E252BDE67423DA
:1000E0008A88C252B9E678239F4EC25C3568002DDB
:1000F00000D129E13E3B53439C4FC3189A78B9780D
:10010000914200D1E1E0012D00D822E1B97A91427B
:1001100000D19CE07A22A35C0133DBB2A354AB4252
:1001200034D300227923E25497E600257723201C5C
:10013000E55401A9FFF7A8FC002800D1C8E67923FF
:10014000E55444E601236A461371C5E604230422FC
:10015000EBE600235900CB185B00E9187B00DB19A4
:100160009A0060463A234343C989D318E318998219
:1001700097E61E1C32E7013BDBB25A00D3189B0006
:100180009B19E3185B8A01339BB213E600239B465D
:100190005A467733E2540133E15C9A460131C9B2E1
:1001A000E1543E3B99464B439846C900A044791818
:1001B0000422404600F0C0FB43465A461A7174239D
:1001C0000121E05A4246FFF7DBFB002800D144E65C
:1001D00079235A46E25453464A46E35CB9785A4377
:1001E000A3189A78914200D1B5E0012D00D134E6F0
:1001F000B97A914200D030E63A891B889A4200D001
:100200002BE60123DB00FF187B689A46002B00D108
:1002100023E6574B98461B68012B00D91DE6742234
:10022000A25A544C94461A01D2189200A118914631
:1002300062464F464A800122E25552460A644246CF
:10024000013348601360AB4200D006E6F7E53A8917
:100250001B889A4200D05DE70123DB00FB185B6836
:100260009B46002B00D155E7414B98461B68012B5C
:1002700000D94FE77422A25A94463E4A60469146FE
:10028000CA461A01D2189200924451464880022070
:100290008446484661468154524659461164424656
:1002A00001331360AB4200D034E7036C98473568E4
:1002B000012D06D94A46484684234430D3589847EE
:1002C000356800234246136024E73888198888423D
:1002D00000D018E70023C0E779234246224EE254BB
:1002E0003268013BE35C002A00D1B6E55D431F4F55
:1002F0006519AB78B97899421FD0012A00D8ACE5CE
:10030000B97A994200D0A8E539892B88994200D062
:10031000A3E574E53D88AC461D88AC4500D065E595
:1003200000236DE5013AD2B253009A189200511899
:1003300061184B8A01339BB267E639888C4629885D
:100340008C45DAD100235BE57A22835C0133835448
:10035000E7E60125DEE639888C4619888C4500D011
:1003600043E700234EE7C046BC2E0020A82E002005
:10037000A42E00201C2E00203D88AC461D88AC45D4
:1003800000D060E600236BE697DF704763DF7047BD
:10039000F0B54F464646C0B4037885B0002B02D175
:1003A0008388012B04D005B00CBC90469946F0BD63
:1003B0001B4F82793B681B789A42F4D1027A002A5B
:1003C000F1D00223051C9946013B041C00269846E7
:1003D0000E352B88022B06D0032B11D001360C359D
:1003E0009642F6D3DFE738682B890381C368002B78
:1003F00013D06A464146117101A99847227AEDE768
:1004000038682B8983806B89C380C368002B04D034
:1004100049466A46117101A99847227ADEE7C0462B
:10042000C02E002030B587B0041C0D1C02A8124954
:10043000102200F081FA0E20002C07D0002D05D0EC
:1004400002A8211CFFF7A2FF002801D007B030BD91
:10045000227801AB9A7001221A80084A0849146078
:100460000122524262802A68A0802081E260181C2A
:10047000FFF70AFCEAE7C046800B0200C02E00200E
:100480009103020010B584B0002808D0002906D0DE
:1004900043881A4A93421DD08A889A4201D004B0F8
:1004A00010BD0B88112B1ED0382BF8D18388002B60
:1004B000F5D08A899A42F2D1C268002AEFD003248B
:1004C00001AB1C700C1C12340294098A1972191C9D
:1004D0009047E4E70A88112A02D0382ADFD1E5E7FD
:1004E0008A889A42DBD1C368002BD8D0042201A9A4
:1004F0000A70053A42809847D1E7C046FFFF0000E6
:1005000010B5031C84B0002809D042880E49082089
:100510008A4202D0DB88002B03D104B010BD0E202C
:10052000FBE769460024073808704C7001A94B802E
:100530000223CB806B4608704870101C8C808B6047
:10054000FFF722FFE9E7C046FFFF000030B5031CBC
:1005500085B0002819D00720142A01D905B030BD74
:100560005D880B4C0130A542F8D001AC06382070F4
:10057000013860701B89281C638000230391211CB3
:10058000A380E280FFF700FFE8E70E20E6E7C04621
:10059000FFFF00001F4B1B78012B00D070471E4B44
:1005A0001B681B07FAD1F0221C4B1B68134018D1A3
:1005B0001B4B1B6813421AD0174B1B681B07EDD14E
:1005C000F022164B1B681340402BE7D1144B1B68DD
:1005D0001342E3D1C12380220121DB00D205D15097
:1005E000DCE7102B0FD10E4B1B681342E8D10D4AEC
:1005F0000D4B1A6080220D4B12021A60054B1B78BE
:10060000012BD9D0CAE7302BDAD1054B1B68134236
:10061000D6D1ECE7E00F00F0E40F00F0E80F00F0B7
:10062000EC0F00F0DFFF07C004050040186C00402D
:100630002EDF704751DF704710DF704761DF704772
:1006400008B5081C111CFFF7E3F808BDF0B55746C4
:100650004E464546E0B4314B314E1D6899466B42DB
:100660005D41304BB2461C68984663425C412E4F58
:1006700082B0EDB2E4B2002D08D0002C27D002B039
:100680001CBC90469946A246F0BD012401A8FFF784
:10069000D1FF052831D000282AD000210022FCF704
:1006A000B5FE002CF1D16A461D4B01A91B88938031
:1006B0001D4B1C68201CFFF7C1FF0528E5D0002852
:1006C00010D000210022FCF7A1FE0024D3E73C68F3
:1006D000338801A9201C0B80FFF7B0FF0528CED07E
:1006E0000028EED14346201C1B6898470024C2E72F
:1006F0004B4601981B689847D3E7002CBFD153465F
:100700006A461B8801A99380074B01251C68201CA1
:10071000FFF794FF0528D2D1B1E7C046CC2E0020C8
:10072000C62E0020D02E0020C82E002038B5041C74
:100730000720002901D08D0700D038BD094801608D
:100740000949201C0A80094A09491360FFF774FF10
:100750000028F2D10122074B16301A70FFF768FF0C
:10076000EBE7C046C82E0020C62E0020D42E002065
:1007700041060200C42E0020002803D0024B18605E
:10078000002070470E20FCE7D02E002008B50A4B51
:100790001B68002B08D09847002800D108BD002115
:1007A0000022FCF733FEF9E7044B1B78002BF5D051
:1007B000FFF74CFFF2E7C046D42E0020C42E0020E5
:1007C00003210A4802680A430260094802680A4392
:1007D00002600849084A094B9B1A03DD043BC858CC
:1007E000D050FBDC064880470648004724050040FF
:1007F00054050040F80B0200002800206828002063
:100800009505020021D10100FEE7FEE7FEE7FEE7C5
:10081000FEE7FEE7002243088B4274D303098B42B4
:100820005FD3030A8B4244D3030B8B4228D3030CC0
:100830008B420DD3FF22090212BA030C8B4202D362
:100840001212090265D0030B8B4219D300E0090A8A
:10085000C30B8B4201D3CB03C01A5241830B8B4293
:1008600001D38B03C01A5241430B8B4201D34B037C
:10087000C01A5241030B8B4201D30B03C01A5241E1
:10088000C30A8B4201D3CB02C01A5241830A8B4266
:1008900001D38B02C01A5241430A8B4201D34B024F
:1008A000C01A5241030A8B4201D30B02C01A5241B3
:1008B000CDD2C3098B4201D3CB01C01A5241830967
:1008C0008B4201D38B01C01A524143098B4201D3A1
:1008D0004B01C01A524103098B4201D30B01C01ACC
:1008E0005241C3088B4201D3CB00C01A5241830846
:1008F0008B4201D38B00C01A524143088B4201D373
:100900004B00C01A5241411A00D2014652411046D2
:100910007047FFE701B5002000F00CF802BDC046AB
:100920000029F7D003B5FFF775FF0EBC4243891AC3
:100930001847C0467047C046002310B5934203D005
:10094000CC5CC4540133F9E710BD0000F8B5C046D3
:10095000F8BC08BC9E467047F8B5C046F8BC08BC59
:100960009E46704743000000002800209028002089
:10097000090000000B0000000A0000000800000051
:10098000000000000000000000509D000300000077
:10099000090000000B0000000A0000000800000031
:1009A000000000000000000000509D000300000057
:1009B000A0EC0100BCEC0100BCEC0100ACEB0100C0
:1009C000F4EB010070ED0100B4ED01004CED01000D
:1009D00082EB010040EB010082EB010040EB0100E3
:1009E0006EEB01004AEC01004AEC01004AEC010008
:1009F0004AEC01004AEC010036ED01002CEC01004C
:100A000018ED0100FAEC01006EEB01006EEB010045
:100A1000C0EF0100E2EF0100E2EF010072F001001F
:100A2000AAF0010038F101007EF10100E6F00100BA
:100A3000E2EE0100B4EE0100E2EE0100B4EE0100CE
:100A400030F001000CEF01000CEF01000CEF010091
:100A50000CEF01000CEF010062EF010080EF0100DC
:100A60004CF0010012F10100A6EF0100A6EF010019
:100A7000A429002010000000110000006C290020B3
:100A80001000030031EA01001100030031EA010007
:100A9000C8290020A4F601007CF601007CF60100C4
:100AA000CEF601007CF601007CF601007CF6010028
:100AB0007CF601007CF60100E0F601007CF6010006
:100AC000FEF601007CF6010066F601000B09080A3B
:100AD0000100000000509D0010003C00000090014B
:100AE0000100000000000000A00050000000000015
:100AF000DE000200CC0002005AFE01005AFE010096
:100B00005AFE01005AFE01005AFE01005AFE010081
:100B10005AFE01005AFE01005AFE01005AFE010071
:100B20005AFE01005AFE01005AFE01005AFE010061
:100B30005AFE01005AFE01005AFE01005AFE010051
:100B40005AFE01005AFE01005AFE01005AFE010041
:100B50005AFE01005AFE01005AFE01005AFE010031
:100B60005AFE01005AFE01005AFE01005AFE010021
:100B700080FD01005AFE010004FF010068FE010033
:100B80009ECADC240EE5A9E093F3A3B50000406EF5
:100B90000000000000000000000000000000000055
:100BA0000000000000000000000000000000000045
:100BB0000000000000000000000000000000000035
:100BC0000000000000000000000000000000000025
:100BD0000000000000000000000000000000000015
:100BE0000000000000000000000000000000000005
:080BF00030C5FF7F0100000089
:100BF80000000000900B0200B00B0200D00B0200B6
:100C080000000000000000000000000000000000DC
:100C1800640902000000000000000000000000005D
:100C280000000000000000000000000000000000BC
:100C380000000000000000000000000000000000AC
:100C4800000000000000000000000000000000009C
:080C5800E9D00100C1D0010048
:04000003200007C111
:00000001FF
