:020000021000EC
:108000000040002005F601004DF601004FF601008A
:108010000000000000000000000000000000000060
:1080200000000000000000000000000051F6010008
:10803000000000000000000053F6010055F60100AA
:1080400057F6010057F601005596010057F601005A
:1080500057F60100000000009992010057F6010058
:1080600057F6010057F6010057F6010057F60100D8
:1080700057F6010057F6010057F6010057F60100C8
:1080800057F601002987010057F6010057F6010055
:108090000988010057F60100D1F5010057F60100EB
:1080A00057F6010057F60100000000000000000034
:1080B00000000000000000000000000000000000C0
:1080C00010B5064C2378002B07D1054B002B02D0AE
:1080D000044800E000BF0123237010BD44240020A9
:1080E00000000000E0FD010008B5084B002B03D0A4
:1080F0000748084900E000BF07480368002B00D18B
:1081000008BD064B002BFBD09847F9E700000000A4
:10811000E0FD01004824002044240020000000006D
:10812000164B002B00D1144B9D46402292029A1A06
:10813000924600218B460F461348144A121A00F04B
:108140005FF80F4B002B00D098470E4B002B00D050
:1081500098470020002104000D000D48002802D09F
:108160000C4800F017F900F027F82000290003F070
:108170007DFD00F011F8C04600000800004000201E
:10818000000000000000000044240020242D0020F6
:1081900095830100A583010010B50021041C00F0A7
:1081A00075F8044B1868C36B002B00D09847201C4F
:1081B00000F07CF944FB010070B50D4E0D4D00241C
:1081C000AD1BAD1005D0A300F35801349847A5426C
:1081D000F9D107F0A9FC084E084D0024AD1BAD10E5
:1081E00005D0A300F35801349847A542F9D170BDDA
:1081F0003C2400203C2400203C240020402400207B
:1082000070B583073FD0541E002A3BD0CEB2031C6A
:10821000032503E0621E002C34D0141C01335A1EC7
:1082200016702B42F6D1032C24D9FF250D402A02CB
:1082300015432A0415430F2C11D9261C103E36096C
:10824000013636011A1C9B19156055609560D56082
:1082500010329342F8D10F221440032C0AD9261F62
:10826000B6080136B6001A1C9B1920C29342FCD1F5
:1082700003221440002C05D0C9B21C191970013317
:10828000A342FBD170BD141C031CCCE7F0B55646CD
:108290005F464D464446F0B40E1C3C4B87B01B680D
:1082A000019003934933FF330493A422039B5200AC
:1082B0009F58002F4CD0049B984600239B46C42314
:1082C0005B009C46BC4463460293C6235B009A460F
:1082D0007C68BA44A5007D19013C08D526E06B1DD9
:1082E000FF331B68B34204D0043D013C1ED3002E73
:1082F000F5D17B686A68013BA3423AD05B466B606C
:10830000002AF1D07B68029999460123A3400968AD
:108310000591194223D190477B684B45C5D143460F
:108320001B68BB42C1D1043D013CE0D2184B002B7D
:108330000ED07B68002B23D13B68002B24D0424613
:10834000381C136000E000BF43461F68002FB6D101
:1083500007B03CBC90469946A246AB46F0BD51469C
:108360000968194207D12B1C84331968019890477A
:10837000D2E77C60C4E72B1C843318689047CBE7B6
:108380003B68B8461F1CE1E70023FAE744FB010005
:108390000000000008B5011C00220020002300F0AE
:1083A0001BF808BD38B5094B094CE41AA41009D0D4
:1083B000084AA518AD00ED182B68013C9847043D0C
:1083C000002CF9D107F0B6FB38BDC0464024002090
:1083D00044240020FFFFFF3FF8B544465F46564661
:1083E0004D469B462F4BF0B41C68A4235B00051C34
:1083F000E0580E1C904600284BD043681F2B0DDC24
:108400005C1C002D21D102339B0044601E500020D3
:108410003CBC90469946A246AB46F8BD224B002B89
:108420003CD0C820400000E000BF002836D0A42285
:1084300000235200A15843600160A0504032835095
:10844000043283500124002DDDD09A0091468144EE
:10845000424688214F467A50C422520090468044BA
:1084600042468739994012688A460A4394464246F2
:1084700061461160842249465F4652008F50022DAA
:10848000C1D1021C55468D32FF3211680D43156073
:10849000B9E7201C4D30FF30E050AEE701204042EC
:1084A000B6E7C04644FB010000000000FEE7C046FE
:1084B000F8B54D465F4656464446F0B4224B19780F
:1084C000994600292AD0214B00259846204B214F60
:1084D00001269A4603E00135EDB28D421ED2434695
:1084E0001B68321C9C46EC00644420783B68824048
:1084F0001342F0D093433B6000F0C4FE331C22785B
:108500005146934009680B40011C91408B420BD0AF
:108510004B4601351978EDB28D42E0D33CBC904614
:108520009946A246AB46F8BD616863788B46002940
:10853000EED0591E4C424C41211A4B424B41101C6B
:10854000D9B2D847E4E7C04668240020642400205C
:108550008C24002090240020F8B5124D071C281C04
:1085600000F080FC002807D10124BC400E4E336887
:10857000234202D0A3433360F8BD381C00F082FED2
:108580000A4A136800280BD0234313603368281C61
:108590001C43074B00221968346000F0E5FBEBE751
:1085A000A343F2E76C240020902400208C240020B8
:1085B00060240020F0B54F464646C0B4141C071C8A
:1085C00083B00E1C0720042A04D803B00CBC9046CC
:1085D0009946F0BD00F04AFD00282FD01A4B1B4AE7
:1085E0001F601B4B751E1E701A4BEDB21C600023E2
:1085F0001360194A1360002E1AD0184B01AC99462B
:1086000003230026984600E01D1C4246EB00FB18A1
:108610002270A670E6709A7818786270211C4A461B
:1086200000F02EFD0028D0D16B1EDBB2002DEBD167
:1086300000210B4A0B4800F07DFBC6E700F0E2FC8E
:108640000028CBD0C1E7C046642400208C24002041
:108650006824002060240020902400205985010017
:10866000B184010048FB010070B5094D2B78002B47
:108670000BD00024074E3268E300985C012100F023
:10868000ADFD2B780134A342F5D8002070BDC04663
:108690006824002064240020BFF34F8F024A034B5C
:1086A000DA60BFF34F8FFEE70400FA0500ED00E04B
:1086B00080218023184A8902D1508022D221174B71
:1086C000520289005A5040395A5001222F205A60D4
:1086D0000138C046C046C046C046C046C046C04637
:1086E000C046C046C046C046C046F1D19A6000238D
:1086F0000B4A2F2013600138C046C046C046C04612
:10870000C046C046C046C046C046C046C046C04639
:10871000F1D1044A1370704700E100E000100140FD
:1087200094240020B4240020A021F0B50023474663
:108730002C4A490080B453500431535004315350F3
:10874000043153504C39535004315350264B1B685D
:10875000002B37D02549002652582549254F0C6853
:10876000141B00222402240A904602E0002D1AD095
:108770002B1C1A68A24216D8A41AB6181A7CDD69F6
:10878000002AF3D0424699691A745A693B68002B53
:108790001BD0101C98470028E8D000210022FFF7CA
:1087A0007BFF002DE4D1144B14491A780B789A42C0
:1087B0000ED0134A9B009E5080218023114A49030A
:1087C0005B00D15004BC9046F0BD081C9047CDE73B
:1087D0000132D3B2022B01D00B70EAE700230B70F9
:1087E000E7E7C0460010014098240020040500007F
:1087F000942400209C240020A8240020A9240020E8
:10880000AC24002000E100E0F0B55F4656464D463E
:108810004446F0B4B44BB54A1B68B54989B00193DE
:1088200009781378994200D1B1E10133DBB2022B10
:1088300000D100231370AF4A9B009B58AA4A994667
:10884000019B4B441B021B0A136001230493AA4B98
:1088500000241B689B46A94BD8461B781A1C029320
:10886000A74B944607931B6803939F4B1B68069383
:10887000A44B1B7805935B466646013EF2B29446D4
:10888000FF2A4FD06246D000039A924650440178A6
:108890004578A942F0D04A005218877801314668DD
:1088A000C9B27F1AB2467E1EB741D2007F425244FF
:1088B00039401778022F0AD0032FEAD1002BE8D0D5
:1088C0001C74DB69002BFBD145789846E1E75668BC
:1088D000002B25D09E421AD01F1C00E0171CFA69FD
:1088E000002AD6D09642F9D1321C3D1CBE4200D19E
:1088F000EBE01768D269EA61002A06D013689A464D
:108900005744176045784346C3E74578C1E7DE69B9
:108910001A1C002E00D1DDE0B046331C151CE8E720
:108920000023B6E76946774A097D181C11706E4A24
:1089300006990393116041466F4A1160049A002A18
:1089400000D028E15B461B1A5A1E93410025DBB27A
:108950000493079B00271B68039E0693624B1B68CA
:108960009C46654B1B689A46664B1B780593664B85
:10897000019301239846029B013BDBB20293FF2B3C
:1089800000D18FE0069ADB0093469B44002D27D050
:108990006968AB68281CED696246019C8A1A12025C
:1089A000120AA24250D8D31842460360476087603B
:1089B0000274C761002E56D03168341C994204D32A
:1089C0005FE01168994263D2141CE2695B1A002AC5
:1089D000F7D10360331CC261E0611E1C002DD7D1AA
:1089E0005B465A461B7852789A42C4D05946496829
:1089F0005A0089465946D2180133DBB20B70897888
:108A0000D2004A4499424AD011785068331C012957
:108A1000E3D1037C99464946331C0029DDD1916896
:108A20004160D36883601469C46052698261059AA9
:108A3000002AB1D04A46002142606246019C8A1A4F
:108A40001202120AA242AED96246511A0902090A5A
:108A500099420CD242465B1A0360476087600274F9
:108A6000C761002EA8D1031C82461E1CB6E74346F0
:108A70000760476087600374C761002EF3D000234E
:108A80003168CB1A3360031CC66182461E1CA5E701
:108A9000C91A11600360C261331CE0619DE75B4647
:108AA0001D70B1E75246144B1A60039BB3422FD19D
:108AB000049B002B2CD10023124A137009B03CBC3C
:108AC00090469946A246AB46F0BDDE693A1C002EA0
:108AD00000D021E701250D4B9D600023069601364D
:108AE0009846151C059604E794240020A82400202D
:108AF000A9240020AC24002098240020A0240020D9
:108B0000A4240020AA240020FEFF7F0000100140C2
:108B1000002E63D0484B49493568CC58484B494EE4
:108B20001B683078E21A1202120A033290460028BB
:108B300061D04246AA4200D22A1CA820D2181202B2
:108B40003E49130AC0003C4D0B504A591B1B121BD7
:108B50001202120A1B0203321B0A9A42ABD94B596A
:108B60000B502F200138C046C046C046C046C04604
:108B7000C046C046C046C046C046C046C046F1D109
:108B800080218023304A89025B00D15093E7002383
:108B9000994604935BE6002500210024484646469A
:108BA00013E01A6882421CD8DE68801A89181C609B
:108BB000DF69002E07D0DD611D1C019A9E608A18B6
:108BC0001202120A5A603B1C3E1C002BE9D11F4BBB
:108BD0001E600023039301330493BAE6FFF768FD98
:108BE00069E78146194903930E604946521A1A6093
:108BF00001230493ADE68020D1274002BF00C85175
:108C0000403FC851C02280270F48BF025200875002
:108C1000076001272F200F600138C046C046C046BC
:108C2000C046C046C046C046C046C046C046C04614
:108C3000C046F1D137707CE7040500000010014008
:108C400094240020B424002000E100E098240020B7
:108C5000F8B54F464646C0B40326351C80460F1C67
:108C6000141C994615400720002D03D00CBC9046DB
:108C70009946F8BD002A44D0FFF71AFD4A46224B18
:108C800080201A60221C214B18321E70204B62601B
:108C90001C607B00DB19DB00D218E260D318C02215
:108CA000636125706570A77025726572A77225745F
:108CB0006574A774C524FF21164B40031D60164B35
:108CC00052001D70154BA4001D70154B98501A5979
:108CD0008A433F390A431A51A1221860404611497C
:108CE000D2008850C42080001C580F4A2240C02463
:108CF000240222431A500D4B0020CA580C4B1A6014
:108D0000B4E7034B1A60B1E79C240020A0240020A4
:108D1000A424002098240020A8240020A9240020B6
:108D200000E100E000100140FF00FFFF040500002B
:108D30009424002010B50B4B1B68002B0BD0002A8D
:108D400007D0002805D0036808201C7C002C04D024
:108D500010BD0720FCE70820FAE759745A6100208B
:108D6000F6E7C046A4240020F0B5474680B4374B50
:108D70001C68002C08D0002806D00723042905D839
:108D8000181C04BC9046F0BD0823F9E74369002B8A
:108D9000FAD00025437CA846012B2ED02C4B102561
:108DA0005B68DB05DB0D2CD164196378A5785E1C4C
:108DB000F6B2AD1B6F1EBD416D422E402578B54207
:108DC0001DD05D00EB186568DB00ED180423002D55
:108DD000D6D0033B2B7068601E4B1F48C358E96018
:108DE000AB60434680212B6180236A611B4A5B0094
:108DF00049036670D1500023C2E78846CEE70423BA
:108E0000BEE7103BDEB275B2002D13DBAD08134E8A
:108E1000C035AD00AD5903263340DB00DD402B06E5
:108E20009B0FDBB20025012BBED00835032BBBD036
:108E30000835B9E70F230A4D3340AC46083B9B0881
:108E40009B0063445D680323E6E7C046A42400203A
:108E500000ED00E0040500000010014000E100E02A
:108E600018ED00E030B52D4A031C12680820002AD6
:108E70002DD0002B2BD05969002928D0002119743E
:108E8000274910254968C905C90D23D155196A78A4
:108E9000A978541CE4B2091B481E814149420C4088
:108EA0002978A14214D051008A186968D2008C46F2
:108EB00062440420002A0AD00221536011708023EA
:108EC00080210020174A49035B006C70D15030BDEF
:108ED0000420FCE71039CCB260B2002813DB800814
:108EE000104CC0308000005903242140C900C84004
:108EF0000106890FC9B200250129C7D00835032909
:108F0000C4D00835C2E70F210748214084460839FC
:108F100089088900614448680321E6E7A424002009
:108F200000ED00E000E100E018ED00E00B7B002B1D
:108F300004D101220B680271036070474B68002264
:108F4000F9E7C04610B50279031C002A08D048682A
:108F50001A688968841A8C420CD98818186008E04D
:108F600004688A680868211A914207D801221860AB
:108F70001A7110BD002218601A71FAE7A01A186061
:108F8000F7E7C046F0B5002820DBFF271B4B032284
:108F90009C463B1C8408C026C0B20240D2009340CD
:108FA000A4006444B600A5599D438B013B40934007
:108FB000191C2943A1511F2318401E3B8340C02286
:108FC000181C0E4B520098501860F0BDFF260C4A3A
:108FD00003249446321C0F23C0B20440E400A24094
:108FE0000340083B9B089B006344DD6995438A016D
:108FF0003240A240111C2943D961DCE700E100E0C6
:1090000000ED00E038B54425164C0820635D002BC8
:1090100000D038BD4022FF21013BA3540132A154AE
:109020000132A354236201326362A362E3622363C9
:109030006363A363E3630238FC39A3542360636072
:10904000A360E36023616361A361E361FFF79AFFBB
:109050008021C123044A9B000906D150012300202E
:109060006355D6E7B8240020006000404423034A3B
:10907000D05C431E9841C0B27047C046B82400205F
:10908000F0B5474680B4524C0825231820331E788B
:109090007F2E03D8281C04BC9046F0BDCD78AC468A
:1090A000002D36D02568013500D187E00423002645
:1090B0009846731C9D006759013733D0B31C9845FF
:1090C00025D99D00675901372CD0F31C98451ED92E
:1090D0009D006759013725D0331D984517D99D004C
:1090E000675901371ED0731D984510D99D006759E7
:1090F000013717D0B31D984509D99D00675901372D
:1091000010D00736B04502D9E369013308D00425F1
:10911000C0E72569013555D0082304269846C8E7DD
:1091200007231C25625162462718DEB220373E70A5
:10913000002A02D1E3183C3318708B78002B15D12C
:10914000031CA0254A78C133FF3392009B00ED0534
:109150005A51CB78002B15D176B2A4193C340B7838
:1091600022789B0113432370002593E7A022D205A8
:109170009446E025022783006344ED005A59BA4320
:109180005A51E6E7A22476B2124BB600F318E40077
:109190000A781D591049000229401951F821490146
:1091A0000840061CC0211004021C301C89021D59F5
:1091B0000A4010432843185100256BE7002622601F
:1091C0001E70BAE7042522611D702E1C2B1CB1E70E
:1091D000B824002000600040FFE0FCFFF0B5264D01
:1091E0002C182034227853B2032B18DDEB183C33B3
:1091F0001B789B09032B32D0012B39D0C025AD023F
:10920000A023DB059C46E02380006044DB00C458BB
:109210001A492140C150C2582A43C250F0BD032A06
:10922000FCD81748A227844601269A006244FF0012
:10923000D0593043D0511A1C60460027403292006A
:1092400092B217500029E9D00022A256920052593A
:10925000002AE3D0C1229E4092008650DEE7A2237E
:10926000A022DB00D205D258012383401A42C5D187
:109270008025AD02C4E7C046B8240020FFFFFCFFF4
:1092800000600040A223A022DB00D205D358C340D7
:10929000181C012318407047F8B54F464646C0B425
:1092A000C74A00241368012B00D1CBE0C54B1A68D4
:1092B000012A00D1D4E0C44B1A68012A00D1DFE0B2
:1092C000C24B1A68012A00D1EAE0C14B00251A6896
:1092D000012A00D1F5E023070BD0E30700D506E112
:1092E000A30700D512E1630700D51DE1230700D5D0
:1092F000F1E0002C03DB0CBC90469946F8BD4023FE
:10930000B44CE15C4BB2013321D0C9B2C023081C7C
:109310009843231820331B785BB29B001E59002E04
:1093200015D0A022D205944683009C44E0236246D7
:10933000DB00D3580122C0278240BF023B4089098D
:109340001B0C154200D106E1022B00D160E1412344
:10935000E15C4BB2013321D0C9B2C023081C984351
:10936000231820331B785BB29B001E59002E15D0AA
:10937000A022D205944683009C44E0236246DB0091
:10938000D3580122C0278240BF023B4089091B0CF1
:10939000154200D1D8E0022B00D1FDE04223E15C70
:1093A0004BB2013321D0C9B2C023081C9843231803
:1093B00020331B785BB29B001E59002E15D0A022D3
:1093C000D205944683009C44E0236246DB00D358D8
:1093D0000122C0278240BF023B4089091B0C154275
:1093E00000D1D2E0022B00D1FEE04323E15C4BB27E
:1093F000013300D17FE7C9B2C023081C984323186A
:1094000020331B785BB29B001E59002E00D172E7FF
:10941000A0230124DB059C46E023C0278440820072
:109420006244DB00D358BF023B4089091B0C254234
:1094300000D197E0022B00D05DE7032900D199E02D
:10944000B04758E7C1216448890041580B4200D118
:109450002CE75C4B14601A680134012A00D02AE71B
:10946000C1225D499200895802220A4200D122E7B6
:1094700000211960544B14431A68012A00D01FE7D9
:10948000C12255499200895804220A4200D117E7A7
:10949000002119604D4B14431A68012A00D014E7CB
:1094A000C1224D499200895808220A4200D10CE796
:1094B00000211960464B14431A680025012A00D088
:1094C00009E71D6080231B061C43A022A223D205AE
:1094D000DB00D558FFE6404A404BD058D1583D4BB1
:1094E000C0048903C00E890FDB68984701E7A223F7
:1094F000394ADB00D058D158364BC00489031B6869
:10950000C00E890F9847A30700D4ECE6344B324ACB
:10951000D058D1582F4BC00489035B68C00E890F07
:109520009847630700D4E1E6A3232B4ADB00D05819
:10953000D158284BC00489039B68C00E890F9847F7
:10954000230700D4D5E6C6E7032B00D026E703297E
:1095500072D0B04722E7032B00D0F8E6032973D07E
:10956000B047F4E6032B00D0C5E6032900D067E737
:109570008027BF02E023DB00D5581A4C2C40D45082
:10958000D4582743D750B047B5E6032B00D02CE77B
:10959000032955D0B04728E70329DAD1B946E0239B
:1095A0006246DB00D258904647460E4A3A4067462C
:1095B000FA50FA584F4617436246D750B047EDE687
:1095C0000061004004610040086100400C610040FF
:1095D0007C610040B8240020006000401C050000B1
:1095E00014050000FFFFFCFF0329D3D1B946E02397
:1095F0006246DB00D25890464746154A3A406746D5
:10960000FA50FA584F4617436246D750B047ECE637
:109610000329A5D1B946E0236246DB00D258904623
:1096200047460B4A3A406746FA50FA584F461743A6
:109630006246D750B0478AE680239B029946AEE740
:1096400080239B029946D2E780239B029946E2E75A
:10965000FFFFFCFFC12210B5514B92009A5884B015
:1096600092054CD54F4A1168002948D0002111605D
:109670008121C2228900920099504B4B5A7D002AC9
:1096800002D10121494A1160022269460A709021E3
:109690004348C9004258425069460392DA7C684602
:1096A0000A72DA68196801920022DA745B689847D6
:1096B0003F4A1368002B10D03B4B188A997C81429B
:1096C00051D9002111601A8A9968895C1A8A01327D
:1096D00092B21A82374B324AD150374B1A68002A5D
:1096E0000BD000221A60304B5A7D002A02D0012193
:1096F0002B4A1160DA7C002A44D104B010BDC1238A
:10970000274A9B00D3585B07D2D52C4B19680029F8
:10971000CED00021A3241960234BE400187DD96822
:1097200012590A541A7DD87C0132D2B21A751A7DA8
:109730009042BDD15A7D002A02D101201B4A1060FF
:109740008124C2221648A400920084506C461A7DDF
:1097500001202272002220700191DA741968684693
:109760005B689847A4E7002010600029B5D06A46DE
:10977000107011729A689874196801925B68684653
:109780009847AAE768461A7D01210272DA680170DB
:10979000019200221968DA745B689847ADE7C04609
:1097A000002000402421004000250020042000402B
:1097B0001C2100401C0500004421004008210040FD
:1097C00029DF704728DF704730B583B0002806D006
:1097D000112806D108230F4A11680B43136003B008
:1097E00030BD021C0C4801788B005B189B00C5182B
:1097F000281CE9686B694C0064182979074DA4009E
:109800002D680C300095064D6459A0470422054B85
:109810001A70E4E700260020182500200826002002
:10982000EC25002005260020F0B55F464D46444655
:109830005646F0B45E4F85B03C785E4D012C00D1A9
:1098400088E0002C00D16DE0022C16D0032C0DD145
:10985000594B1868FFF7B6FF021E07D0112800D039
:1098600080E00823554A11680B43136005B03CBCE7
:1098700090469946A246AB46F0BD504B99461B68B0
:1098800003932B789E00F3189B00EE1833699846DB
:1098900080235B05196940460904090C9B4605F0C5
:1098A000DBFE454B824618605B4619694346581EED
:1098B000F3880904C018090C05F0CEFE82454CD08F
:1098C0000323039C9C434B461C603D4B1B68002BB1
:1098D00002D10233234262D000223A4B1A703A4B33
:1098E0005869431C54D080235B0519690904090C8D
:1098F00005F0B2FE031C80225205106911690004B4
:10990000013B000C09045843090C05F0A5FEFFF7C4
:1099100059FF021EAAD0112824D108231C434B460C
:109920001C60A3E7294B1C60294B1C606B78002B43
:109930009CD02B789A00D3189B00ED18EA88254B11
:109940001A602B79032B27D0042B25D0012B00D0B4
:109950008CE73B7000F000FC88E70123039A9A43F0
:109960001443B0E72B789800C01880002E18301CE4
:10997000184DF3682D685C00E4183179736900951F
:10998000154DA4000C306459A04704233B706DE7CB
:1099900080235B055B69AEE700F020F866E7094AC3
:1099A00050461370FFF70EFFFFF70EFF5EE7C0464D
:1099B000052600201825002014260020002600205F
:1099C0001026002004260020001000100C26002085
:1099D000E425002008260020EC250020F0B55F4695
:1099E00056464D464446F0B45B4B5C481A78802797
:1099F00091008A1892009B18DD681E696A0052194E
:109A000092008218148950895268604380469044BD
:109A1000DA881B89141C9946514B92469B460023B9
:109A20005A467F05396983B009044C441360090C18
:109A3000301CA41905F096FE002924D13B699BB285
:109A40009A4537D044456CD0022D33D0301C39694B
:109A5000484489B205F086FE424B8908196039698D
:109A6000201C0904090C05F07DFE002932D10222D8
:109A70003D4B1A70FFF7D8FE03B03CBC90469946A8
:109A8000A246AB46F0BD022D14D0301C39694844C3
:109A90000904090C05F066FE324B89081960396922
:109AA0004445E4D00904090C201C05F05BFE0029A4
:109AB000DDD00FE080235B051969301C0904090C17
:109AC00005F0CAFD0322294B1860274B1A70FFF7D7
:109AD000ABFED1E780256D0529692B696A46994659
:109AE0004346D380D08889B205F0B6FD6A464B461E
:109AF000A6B2D380071CD188301C05F0ADFDBFB2E3
:109B000080B287421DD02C692969301C89B205F0CA
:109B100029FE5B462404240C89B2641AA4081C6044
:109B2000A5E74B46002BC5D0022DC3D0301C3969A8
:109B3000484489B205F016FE0A4B890819603B6952
:109B400095E7434624041B041A0C240C131B5A46A5
:109B50009B0813608BE7C04618250020EC250020E9
:109B6000E8250020102600200526002014260020CD
:109B7000F8B546464F46C0B41D4D08AC24886E78F3
:109B8000A44604240A2E2DD02C78A046A419092C12
:109B900000DD0A3C14277C432C196261221C2071D1
:109BA0000C32B94681C981C2E38063462381002417
:109BB000104B01361A786E70A24213D142464F46BE
:109BC0005743ED190C4AE98811602A79032A07D016
:109BD000042A05D0012A05D11A70FFF725FE01E0FD
:109BE000FFF7FCFE201C0CBC90469946F8BDC04611
:109BF000182500200526002008260020082170B521
:109C00000C1C244A82B013681C4009D08B4313609B
:109C1000214B224A1B789B009B58984702B070BD8D
:109C20001F4D2B789800C3189B00EE18317904293A
:109C30002AD0F268736950008218301C194E9200C5
:109C400036680C300096184E96590022B047012015
:109C50002A7893009B189B00EB181C71DC80D8605D
:109C60001C615C611C816B780132013BD2B26B706C
:109C70000A2A06D02A7000220C4B1A70FFF7D4FD76
:109C8000CCE700232B70F6E70122084B1A70FFF790
:109C9000CBFDC3E7002600200426002060FB010066
:109CA0001825002008260020EC250020052600208D
:109CB00030B5244B83B05869431C3ED080235B05EC
:109CC00019690904090C05F0C7FC041C80235B0515
:109CD0001869196900041A69000C631E58431A4B6D
:109CE00009041B68090C92B292085943FFF768FDFA
:109CF000021E06D0112806D10823144A11680B430E
:109D0000136003B030BD12490B789800C018800072
:109D10000D18281CEB6829795C00E4186B690D4D5F
:109D2000A4002D680C3000950B4D6459A047042207
:109D30000A4B1A70FFF778FDE3E780235B055C6947
:109D4000C4E7C046001000101426002000260020A2
:109D50001825002008260020EC25002005260020DC
:109D6000802230B55205146921492404230C0C6863
:109D700083B0013C5C431F4B5869431C35D01169CB
:109D80000904090C05F068FC80235B0519691A4B6E
:109D900009040138090C41431A68201CFFF710FD23
:109DA000021E06D0112806D10823144A11680B435D
:109DB000136003B030BD12490B789800C0188000C2
:109DC0000D18281CEB6829795C00E4186B690D4DAF
:109DD000A4002D680C3000950B4D6459A047042257
:109DE0000A4B1A70FFF720FDE3E75069CCE7C04645
:109DF000142600200010001010260020002600204D
:109E00001825002008260020EC250020052600202B
:109E1000082330B51E4D83B02C68234214D1A3070C
:109E200002D501231C432C6002221A4B1A701A4BD4
:109E30001868FFF7C7FC021E04D011280DD10823B3
:109E40001C432C6003B030BD9C43124B134A1B785B
:109E50002C609B009B589847F4E711490B789800B9
:109E6000C01880000D18281CEB6829795C00E418E4
:109E70006B690C4DA4002D680C3000950A4D645997
:109E8000A0470422094B1A70FFF7CEFCDAE7C04660
:109E900000260020042600201426002060FB01007C
:109EA0001825002008260020EC250020052600208B
:109EB000F0B58027274C7F05237839699A00D3189D
:109EC0009B00E3181A89DD881B69AD18ED18090499
:109ED00083B0090C281C05F045FC1F4B0E1C58696B
:109EE000431C35D039690904090C05F0B5FB802302
:109EF0005B05196901380904090C4143174B89199D
:109F00001A68281CFFF75CFC021E06D0112806D137
:109F10000823134A11680B43136003B0F0BD237884
:109F20009800C01880002618301C0E4CF368246876
:109F30005D003179ED18736900940B4CAD000C3065
:109F40002C59A0470422094B1A70FFF76DFCE4E777
:109F50007869CCE71825002000100010E8250020C3
:109F60000026002008260020EC25002005260020E1
:109F700030B5154B83B01868FFF724FC021E06D0DD
:109F8000112806D10823114A11680B43136003B04E
:109F900030BD0F490B789800C01880000D18281CA0
:109FA000EB6829795C00E4186B690A4DA4002D6800
:109FB0000C300095084D6459A0470422074B1A70D5
:109FC000FFF732FCE3E7C0461426002000260020FD
:109FD0001825002008260020EC250020052600205A
:109FE000082370B52A4D82B02C68234209D09C43C7
:109FF000284B294A1B782C609B009B58984702B03D
:10A0000070BD0122234B1A70244B5869431C3BD06E
:10A0100080235B0519690904090C05F01DFB061C6A
:10A0200080235B051869196900041A69000C731E06
:10A0300058431B4B09041B68090C92B29208594300
:10A04000FFF7BEFB021EDAD0112803D108231C4300
:10A050002C60D4E713490B789800C01880000D18C5
:10A06000281CEB6829795C00E4186B690E4DA4008C
:10A070002D680C3000950D4D6459A04704220C4BFF
:10A080001A70FFF7D1FBBAE780235B055E69C7E76B
:10A09000002600200426002060FB010000100010B4
:10A0A000142600201825002008260020EC2500207A
:10A0B0000526002030B5224B83B05869431C3AD0A6
:10A0C00080235B0519690904090C05F0C5FA031C16
:10A0D00080225205106911690004013B000C09043B
:10A0E0005843090C05F0B8FAFFF76CFB021E06D0C6
:10A0F000112806D10823134A11680B43136003B0DB
:10A1000030BD11490B789800C01880000D18281C2C
:10A11000EB6829795C00E4186B690C4DA4002D688C
:10A120000C3000950A4D6459A0470422094B1A705F
:10A13000FFF77AFBE3E780235B055B69C8E7C0466E
:10A1400000100010002600201825002008260020FE
:10A15000EC25002005260020F0B58027404D7F0526
:10A160002C783969A60033199B00EB18DA8889B27C
:10A1700083B08A4218D8196918898C4692086044BD
:10A180005969FFF71DFB021E06D011282DD10823A7
:10A19000344A11680B4313603419A4002C19E28867
:10A1A000314B1A6003B0F0BD196938698C46000460
:10A1B000000C121A18893C69596960448018891882
:10A1C000A2B29208FFF7FCFA021E06D0112827D18E
:10A1D0000823244A11680B43136080235B051B6925
:10A1E000214A1B041B0C1360DCE72B789800C01875
:10A1F00080002918CB68081C5F00FF180B79BF008E
:10A200009C464B6919490C300968009118497F58E0
:10A210006146B8470422174B1A70FFF705FBBBE7EE
:10A220002B789800C01880002E18301C0F4DF36852
:10A230002D685C003179E418736900950C4DA40019
:10A240000C306459A04704220A4B1A70FFF7ECFA4D
:10A2500080235B051B69044A1B041B0C1360A1E7E8
:10A260001825002000260020E425002008260020D4
:10A27000EC250020052600200823F0B54D46444675
:10A280005F4656461A1CF0B4774D85B02C682240C4
:10A2900091465FD1754F3E78B30003939B199B00A5
:10A2A000FB181A69511EDA881B898A18D318029381
:10A2B00080235B059B4619696D4B1B689846002BF4
:10A2C00057D16C4B1B689A4680235B05196902982D
:10A2D0000904090C05F0C0F9824500D285E0434627
:10A2E00000D17AE0002B00D079E0039B9C466644C5
:10A2F000B600BC192179042900D1AFE0201CE36825
:10A300000C305A00D21863695B4C920024680094A8
:10A310005A4C14590022A047414601203A78930034
:10A320009B189B00FB181971D86041464046D980A4
:10A330001861586118817B780132013BD2B27B7081
:10A340000A2A00D17BE03A7000224D4B1A70FFF7C9
:10A350006BFA07E09C434B4B4B4A1B782C609B00ED
:10A360009B58984705B03CBC90469946A246AB46E0
:10A37000F0BD404B09041B68090C02989A4605F091
:10A380006BF95045A0D14A46404B1A6001234A461A
:10A3900023432B603B4B1A703D4B5869431C51D0F3
:10A3A0005B4619690904090C05F056F9031C802263
:10A3B0005205106911690004013B000C090458435F
:10A3C000090C05F049F9FFF7FDF9021ECAD0112862
:10A3D0003BD109231C432C60C4E7002B05D003228A
:10A3E000284B1A70FFF764FDBCE70022274B50464C
:10A3F0001A60244B02321A70FFF7E4F9021EB1D042
:10A40000112818D03B789900CB189B00FD18E968FB
:10A410004C006418281C29796B69174DA4002D681D
:10A420000C300095154D6459A0470422144B1A7046
:10A43000FFF7FAF996E708231C432C6092E7002304
:10A440003B7081E75B465B69B1E73B789800C018D9
:10A4500080003D18EB685C00E418DBE70122084B44
:10A460001A70FFF7E1F97DE700260020182500208B
:10A47000E82500201426002008260020EC250020D6
:10A48000052600200426002060FB01001026002085
:10A4900000100010F0B54E46574645460823E0B47C
:10A4A0008C4E82B03468234200D093E08A4B1A6805
:10A4B000571C1F60894B1D68002D50D1884B80228E
:10A4C00099461B7852059D00ED18AB00984608236D
:10A4D0004D469A464544AA4453469B681169581E06
:10A4E000EB880904C0182B89090CC01805F0B4F8D2
:10A4F000874200D282E07B4B00D17BE01F68002FB7
:10A5000000D19CE001231A1C224000D08DE023439F
:10A510003360754B1A70754B5869431C00D1BEE00F
:10A5200080235B0519690904090C05F095F8031CE3
:10A5300080225205106911690004013B000C0904D6
:10A540005843090C05F088F8FFF73CF9021E49D082
:10A55000112800D0A7E009231C43346042E0042105
:10A56000614B197080235B051F693F043F0C574303
:10A570005E4A5069421C3BD019690904090C05F078
:10A580006BF880235B05196901380904090C414304
:10A590002A1C381CFFF714F9021E23D011284AD0B8
:10A5A0004F4801788B005B189B00C518281CE96890
:10A5B0004C006418A40029796B694D4D0C302D684E
:10A5C00000954C4D6459A04704224B4B1A70FFF77D
:10A5D0002BF907E09C43444B484A1B7834609B00AE
:10A5E0009B58984702B01CBC90469946A246F0BDC5
:10A5F0005869C6E71B68002B00D083E702223A4B5C
:10A60000381C1A70FFF7DEF8021EEBD0112812D0AA
:10A610004B461B789900CB1849469B00CD18E9683A
:10A62000281C4C006418A400C5E703222E4B1A70A6
:10A63000FFF73EFCD6E708231C433460D2E72979B4
:10A6400004293DD053464046294C5B6824685A0093
:10A65000D2186B690094274C920048440C3014596E
:10A660000022A0474B4601201A78494693009B18C8
:10A670009B004B441F71DF80D8601F615F611F81A9
:10A680004B465B780132013BD2B24B700A2A1DD097
:10A690000A700022184B1A70FFF7C6F8A2E7802351
:10A6A0005B055B6944E74B461B789800C0184B4636
:10A6B00080001D18EB68281C5C00E418A4007AE7F1
:10A6C00001220D4B1A70FFF7AFF88BE700230B70D8
:10A6D000DFE7C046002600201426002010260020B8
:10A6E00018250020E8250020042600200010001076
:10A6F00008260020EC2500200526002060FB010034
:10A7000070B5274C82B023789800C01880002518B7
:10A71000281CEB6829795A00D2186B69214D9200E8
:10A720002E680C300096204E96590022B04700212A
:10A730000126227893009B189B00E3181971D98099
:10A74000DE6019615961198163780132013BDBB226
:10A75000D2B263700A2A0BD022700021134E144823
:10A760003160144E01703160002B05D102B070BD14
:10A77000002222700022F0E793009A189200A41899
:10A78000E3882B602379032B07D0042B05D0012B02
:10A79000ECD10370FFF748F8E8E7FFF71FF9E5E7AA
:10A7A0001825002008260020EC2500200C2600207B
:10A7B00005260020E4250020F0B5474680B4654D0D
:10A7C00004262C7882B0231CB3430ED0022810D06C
:10A7D00003280AD10821604A1368194258D0022C74
:10A7E0004FD0032C48D0012C46D002B004BC904678
:10A7F000F0BD022C45D0032C59D0012CF5D10821F5
:10A80000554A1368194237D1544F55493B780E6861
:10A810009A00D3189B00FA18D1888E1BB6B2D68046
:10A82000002E6ED1D1681379480041189846101C4B
:10A8300053694C4A890012680C3000924A4A8A587F
:10A84000414694460022E0473A7893009B189B00CB
:10A85000FB181E71DE80DC601E615E611E817B78EC
:10A860000132013BD2B27B700A2A66D03A700023D3
:10A870002B70FEF7D9FFB8E78B431360FEF7D4FFC8
:10A88000B3E73A4B3A4A1B789B009B589847ACE792
:10A89000384A136801331360032B35D0022CEDD1F5
:10A8A000324B354A1B789B009B5898479DE70821FF
:10A8B000294A13681942DFD1304B284E1A68347880
:10A8C000571C1F6080235B051969A30098461B195C
:10A8D0009B00F3181A690904501EDA881B89801836
:10A8E000C018090C04F0B8FE8742C7D32CD0231C33
:10A8F00043449B00F3181B79042B20D0FFF700FF83
:10A9000073E7FFF729FC70E71448027893009B185F
:10A910009B00C418201CE268636951008A182179E1
:10A92000104C920024680C3000940F4C14590D22E6
:10A93000A0472E70FEF778FF57E73E7097E7012398
:10A940002B70FEF771FF50E70D4B1B68002BCED12B
:10A9500094E7C04605260020002600201825002088
:10A96000E425002008260020EC25002004260020F5
:10A970004CFB01000C26002060FB01001426002087
:10A98000E825002010B500202C2400220121464B90
:10A9900018551434185502341A5302341A5310340B
:10A9A000185502341A530234D96018761962596363
:10A9B0009964D9651A705A701A71DA801A615A61ED
:10A9C0001A815A835A629A629A83DA859A63DA63A1
:10A9D0001A86DA641A651A665A661A5310341855BC
:10A9E00002341A5302341A531034185502341A53CD
:10A9F0000634195104341A5104341A510C3C1A53B8
:10AA00001034185502341A530634195104341A51AB
:10AA100004341A510C3C1A531034185502341A538A
:10AA20000634195104341A5104341A510C3C1A5387
:10AA300010341855BA201A52063019501967C3310C
:10AA40005A5004315A500C395A525A679A67174B68
:10AA50001A80174B5869431C22D080235B05196963
:10AA60000904090C04F0F8FD80235B051B6902381A
:10AA70001B041B0C58430F4B0021186000230E4A87
:10AA8000002013600D4A1360138153810C4A11702A
:10AA90000C4A13600C4A136004220C4B1A6010BD60
:10AAA00080235B055869DFE718250020F825002082
:10AAB00000100010FC25002014260020EC250020AA
:10AAC000052600200C260020E4250020002600207A
:10AAD000F0B557464E464546E0B4344B1A68082355
:10AAE000520705D4181C1CBC90469946A246F0BDDE
:10AAF000002857D0002955D00368002B52D080275A
:10AB00007F053A69868892B207239642EAD80F2ECB
:10AB1000E8D9C288002AE5D0254B724399461B68C4
:10AB2000041C9846234B424458690D1C9246431C12
:10AB30003AD039690904090C04F08EFD80225205CF
:10AB4000136901381B041B0C584307238245C9D8DD
:10AB5000B107C7D1184F033B3E88012EC2D04346F0
:10AB60006B600C232E604546734314480136C118B0
:10AB70004D6025681D50A5880D81E0884881684397
:10AB8000136911699BB21469C018013889B2A4B263
:10AB900004F0F2FD231C4A464343434413603E80C5
:10ABA00000239FE70E239DE77869C7E70026002072
:10ABB000FC25002000100010F8250020EC250020C6
:10ABC00030B5114B1C680823640701D4181C30BD34
:10ABD000002806D0002A04D00368002B03D00723E6
:10ABE000F4E70E23F2E7094C2568002DF7D02589FC
:10ABF00040686943091860896468684300198142A4
:10AC0000EDD213605160E1E700260020EC25002022
:10AC1000F0B5474680B41E4C051C246882B008205D
:10AC2000640703D402B004BC9046F0BD00292CD0C8
:10AC3000002D2AD02C680138002CF3D1154C266841
:10AC4000002EEFD06E686789B04626897743B446F8
:10AC50006668BC19A045E5D2002AE3D09445E1D34B
:10AC6000D418A445DEDB09308C07DBD10324234252
:10AC7000D8D146462642D5D1181C131C00900A1C78
:10AC80000120291CFEF774FFCCE70E20CAE7C0465E
:10AC900000260020EC250020F0B5474680B41E4C6D
:10ACA000051C246882B00820640703D402B004BCE9
:10ACB0009046F0BD00292CD0002D2AD02C680138F8
:10ACC000002CF3D1154C2668002EEFD06E686789F2
:10ACD000B04626897743B4466668BC19A045E5D2DC
:10ACE000002AE3D09445E1D3D418A445DEDB093033
:10ACF0008C07DBD103242342D8D146462642D5D146
:10AD0000181C131C00900A1C0420291CFEF730FF9D
:10AD1000CCE70E20CAE7C04600260020EC25002024
:10AD2000F0B54F464646C0B4254C83B0256808248C
:10AD30006D0705D4201C03B00CBC90469946F0BDAD
:10AD4000002906D0002804D00C68002C03D007246A
:10AD5000F0E70E24EEE71B4D2E68002EF7D04E686C
:10AD60002F89B4466E897E43B1466E68B0464E4622
:10AD70004644B445EBD2002AE9D09742E7D3D6182F
:10AD8000B742E4DB860701D01024D3E70326334221
:10AD9000FAD167463E40F7D188466344191C171C18
:10ADA000814604F003FE42460C2312680097534389
:10ADB0004046ED580221321C4B46A847BAE7C04630
:10ADC00000260020EC250020F0B54F464646C0B4D2
:10ADD000204A83B012680824530705D4201C03B00E
:10ADE0000CBC90469946F0BD002830D00368013C69
:10ADF000002BF3D1184B1A68002AEFD01D895E8909
:10AE00005A686E434768B618B742E7D20934BB07A1
:10AE1000E4D188468146291CB81A04F0A3FC093CF9
:10AE20000029DBD14046291C04F09CFC89B2002992
:10AE3000D4D14346002BD1D04744BE42CED30022CA
:10AE4000032000924946FEF793FE041CC6E70E2439
:10AE5000C4E7C04600260020EC250020074B1A68F6
:10AE60000823520701D4181C7047002804D0044B53
:10AE70005B7803600023F6E70E23F4E7002600204A
:10AE800018250020A02210B5064BD205D1588023EA
:10AE90001B041C1CA1208C430B400349C000145010
:10AEA000535010BD040500000C050000F8B54F46D6
:10AEB0004646041CC0B4112809D0122839D01328E2
:10AEC00039D0142839D00CBC90469946F8BD0025DD
:10AED000012911D000291FD00229F4D16B005D197E
:10AEE0001F4B5D196E78002EEDD01E4B1B68002B9A
:10AEF000E9D0301C9847E6E7194B6F009846424668
:10AF00007B19D65C43445B78002B18D17F194744EA
:10AF1000BA78154B5A55E6E71448FDF7A3FF104AD7
:10AF20006B005B19D318104A9B78565D9E42CAD1BC
:10AF3000D9E70125CCE70225CAE70325C8E70C4B72
:10AF40000A481B689900C9180A4B49001A1C9946FF
:10AF5000FDF70AFF0028D9D14B461C70D6E7C04642
:10AF600094260020482600203C2600204C26002065
:10AF70004426002090260020F8B5C74B1B68DB074D
:10AF800000D4F8BDC54A1478172CFAD8C449A300D8
:10AF9000CB589F46A022C34BD205D1588023DB0358
:10AFA0001C1CA1208C430B40BF49C00014505350BF
:10AFB000BE4B00221B68BE489900C918FDF7D4FE9D
:10AFC000DFE7A023F021B84ADB05490499500021AE
:10AFD000043A9950D5E7A022B24BD205D15880232C
:10AFE000DB031C1CA1208C430B40AF49C000145054
:10AFF0005350AE4B00221968AD48FDF7B5FEC0E7CF
:10B00000AC4BA1201968E0235B048B43A0210026F0
:10B01000F025C905C000A44C0B50A24B0E51CB58D3
:10B020006D046B408025AD032B4000D120E10D5015
:10B0300003230E51082113709C4B00221B689C486F
:10B040005943FDF791FE9CE79A4BA1201968E02334
:10B050005B048B43A0210026F025C905C000924C5B
:10B060000B50904B0E51CB586D046B408025AD03B7
:10B070002B4000D104E10D5004230E512821DAE7C2
:10B08000A023A122E021DB05D200490480249950AD
:10B0900000218548A40319501C50995071E7864D32
:10B0A000281CFDF7DFFE11231C1B00D1C7E0002880
:10B0B00000D0C4E080237F4E1B043360012C10D0ED
:10B0C000C8306421604304F0C7FA784B00221B6843
:10B0D0004343281C191CFDF747FEF02332685B042C
:10B0E0001340A0227049D2055350A1230021DB0058
:10B0F000D15046E76F4BA1211A68F0235B049343BC
:10B10000A022C900D20553500021674BD15038E727
:10B11000684BA1201968E0235B048B43A021002722
:10B12000F026C905C000604D0B505E4B4F51CB5807
:10B13000760473408026B603334000D18EE00E5073
:10B140004F51022C00D1A0E02821147074E7A023F5
:10B15000A122C021DB05D2004904C024995000215E
:10B160005148E40319501C5099500AE7A023A1222A
:10B17000D021DB05D20049048024995000214A489F
:10B18000E40319501C509950FBE6A023F021A122A2
:10B19000DB054904D20099500021434A9950F0E65A
:10B1A000E022444B52041B68A1219A43A023C9000A
:10B1B000DB0580245A5000223B48A4031A501C503F
:10B1C0005A50DEE63B4BA1201968E0235B048B4319
:10B1D000A0210026F025C905C000334C0B50314B8F
:10B1E0000E51CB586D046B408025AD032B403CD0F5
:10B1F0000D500E51052313702C4B002219682C485A
:10B200004900FDF7B1FDBCE62A4BA1201968E023F7
:10B210005B048B43A0210026F025C905C000224C09
:10B220000B50204B0E51CB586D046B408025AD0365
:10B230002B4022D00D500E5106231370D9E6F02377
:10B240001C4A5B041168A1200B40A021C000C90565
:10B250000B50002314480B50136092E64E510B50D4
:10B26000022C15D004211470E6E60D510B50C1E7F5
:10B270000D510B5002210323DDE60D510B50DBE78E
:10B280000D510B5004210423D5E612211470D3E68E
:10B2900002211470D0E6C046402600206C26002013
:10B2A00074FB0100040500000C050000442600208A
:10B2B00018260020382600207026002008B50378C4
:10B2C000112B06D0122B12D0132B12D0142B12D00C
:10B2D00008BD00235A00D318084AD318587800280C
:10B2E000F6D0074B1B68002BF2D09847F0E70123FC
:10B2F000F0E70223EEE7113BECE7C046942600207E
:10B3000048260020002303280DD8A223A022DB001A
:10B31000D205D258054B8000C05801238340934387
:10B320005A1E9341DBB200200B70704738FC0100BD
:10B3300070B5DB4B041C1B680020DB0700D470BD1C
:10B34000172CFCD8D74AA300D3589F46A022D64B2F
:10B35000D205D1588023DB031C1CA1208C430B4059
:10B36000D249C00014505350D14B00221B68D14821
:10B370009900C918FDF7F8FCE1E7A022CA4BD205F5
:10B38000D1588023DB031C1CA1208C430B40C749F0
:10B39000C00014505350C64B00221968C548FDF731
:10B3A000E3FCCCE7C44D281CFDF75CFD11231C1BFE
:10B3B00000D14CE1002800D049E18023BF4E1B049E
:10B3C0003360012C10D0C8306421604304F044F98C
:10B3D000B74B00221B684343281C191CFDF7C4FC13
:10B3E000F02332685B041340A022B049D2055350C9
:10B3F000A1230021DB00D150A1E7A023F021A1224D
:10B40000DB054904D20099500021A84A0020995038
:10B410001222AB4B1A7092E7A023A122E021DB0598
:10B42000D2004904802499500021A048A403195057
:10B430001C5099501322A24B00201A707FE7A023C2
:10B44000F0219A4ADB05490499500021043A9950A9
:10B450009B4B00201C7072E7984BA1211A68F023C7
:10B460005B049343A022C900D205535000238F49A7
:10B4700000205350924A137061E7904BA1211A6843
:10B48000E0235B049343A0220026F025D205C900E7
:10B4900086485350844B1650D3586D046B4080251A
:10B4A000AD032B4000D1E9E055501650022C00D1DD
:10B4B000F1E02821824B1C707D4B00221B687D48E7
:10B4C0005943FDF751FC3AE7A023F021774ADB0509
:10B4D000490499500021043A99500C22784B0020DD
:10B4E0001A702CE7A023A122D021DB05D200490449
:10B4F0008024995000216D48E40319501C50995044
:10B5000014226F4B00201A7019E76C4BA1211A68A6
:10B51000E0235B049343A0220025F024D205C90058
:10B5200062485350604B1550D358640463408024E4
:10B53000A403234000D199E0545015500821032260
:10B540001AE05E4BA1211A68E0235B049343A0221A
:10B550000025F024D205C90054485350524B1550D1
:10B56000D358640463408024A403234000D18BE0BB
:10B570005450282115500422514B1A709CE7E022A8
:10B580004E4B52041B68A1219A43A023C900DB053E
:10B5900080245A5000224548A4031A501C505A5087
:10B5A000474B07321A700020C9E6A023A122C02110
:10B5B000DB05D2004904C024995000213B48E40334
:10B5C00019501C50995015223D4B00201A70B6E6B8
:10B5D0003A4BA1211A68E0235B049343A022002583
:10B5E000F024D205C900314853502F4B1550D35881
:10B5F000640463408024A40323403CD0545015507D
:10B6000005222F4B2B481A70294B0022196849003C
:10B61000FDF7AAFB93E6294BA1211A68E0235B04FE
:10B620009343A0220025F024D205C9001F4853509F
:10B630001D4B1550D358640463408024A403234059
:10B6400026D05450155006221D4B1A70A3E6F02345
:10B650001A4A5B041168A1240B40A021E400C9052B
:10B660000B510023114C0B51136068E614505350DA
:10B670000221032280E714505350C1E71550535064
:10B68000022C0AD0042115E714505350042172E70C
:10B6900014505350D7E712210CE702210AE7C046A5
:10B6A00040260020D4FB0100040500000C0500002A
:10B6B000442600201826002070260020382600206E
:10B6C0006C260020234B10B51960234B041C186016
:10B6D000224B1A60830712D50D22214B21481A7084
:10B6E0000132DA7001329A7101325A724A08042129
:10B6F000FCF760FF002820D0E30703D41CE0C30759
:10B700000ED50020A023F022A1210024DB05520445
:10B71000C9005A5014495C500C315A5000280BD1C2
:10B7200012480021124AFDF705FB002804D11148F8
:10B730000121114AFDF7FEFA10BDFCF795FF002824
:10B74000DAD10E4800210E4AFDF7F4FAE307E5D5F9
:10B75000D8E7C04644260020402600204826002086
:10B76000942600204CFC01000C05000048FC010060
:10B7700079AF01006CFC010085AE010034FC0100D2
:10B78000BDB20100031C0720032B00D97047012A1A
:10B7900013D0012917D0002908D0022919D1580047
:10B7A000C3180D48C3185A700020EFE75800C3189B
:10B7B0000948C3189A700020E8E700220129E8D15F
:10B7C0001A1C0D32D2B258000349C3185A54002033
:10B7D000DCE70720DAE7C04694260020E0231D4A74
:10B7E000DB00D2581C4B1A400023C10701D5C023EF
:10B7F0009B021343E0221749D2008B50174B9A58F3
:10B80000154B1A400023810701D5C0239B02134327
:10B81000E0221249D2008B50114B9A580E4B1A401D
:10B820000023410701D5C0239B021343E0220C49AA
:10B83000D2008B500B4B9A58074B1A40002301073C
:10B8400001D5C0239B021343E0220649D200002009
:10B850008B50704744000050FFFFFCFF4800005031
:10B860004C0000505000005008B50320FFF7B6FF11
:10B87000031C0020002B02D0062B00D0181C08BD92
:10B8800010B50388102B08D0112B05D1294A136855
:10B89000013B1360002B07D010BD264C2368002B02
:10B8A00011D001332360F7E7002002210122FFF7C6
:10B8B00069FF00282BD0072829D01F4B1B68002BBD
:10B8C000EAD09847E8E7002000210122FFF75AFF5D
:10B8D000002808D0072806D0174B1B68002B00D083
:10B8E00098472368DDE7012002210722FFF74AFF7E
:10B8F000002801D00728EFD1002002210422FFF701
:10B9000041FF0028EDD00728E6D12368C9E70120D0
:10B9100002210722FFF736FF002801D00728CCD1EB
:10B92000002000210A22FFF72DFF0028B4D00728AD
:10B93000C3D1B1E7A4260020A026002010B5244BD7
:10B9400082B00C1E186018D06B460020991DFFF7BE
:10B95000D9FC002801D002B010BD6B460130D91DC2
:10B96000FFF7D0FC0028F6D16B46DB79002B29D1FC
:10B970006B469B79002B28D12370164B1B68002B3C
:10B9800001D00020E7E7002002210122FFF7FAFEA4
:10B99000002801D00728DED1012002210722FFF76D
:10B9A000F1FE002801D00728D5D1002000210A226D
:10B9B000FFF7E8FE0028E4D0C31F5A1E93415B4204
:10B9C0001840C8E702232370D7E70B232370D4E77E
:10B9D000A0260020A426002076DF704778DF70477D
:10B9E0007ADF70477CDF704760DF70473CDF70476D
:10B9F00048DF704708B500210022FCF74DFE08BD66
:10BA000008B50123034A044811785940117002F027
:10BA10008FFD08BDF02900203829002010B51149FC
:10BA20001148FDF78FFA114C81B223681048013399
:10BA3000236002F0D7FC0823021C9A4309D00D4B67
:10BA4000984206D00C4B984203D000210022FCF70C
:10BA500023FE2068032103F085FE4B1E9941074B0E
:10BA6000197010BD2029002018290020C8290020A5
:10BA70003829002004300000013400002824002070
:10BA800008B50B490B48FDF75DFAC1B20A4801F051
:10BA9000CDFF0823021C9A4309D0084B984206D0D8
:10BAA000074B984203D000210022FCF7F5FD08BDAA
:10BAB0009829002030290020E028002004300000D0
:10BAC0000134000010B5041CFEF776FE201C01F0C6
:10BAD00081FB10BD08B5002A04D0101C00210022F3
:10BAE000FCF7DAFD002008BD08B50378002B00D074
:10BAF00008BD064B3B211888FFF76EFF0028F7D0E2
:10BB000000210022FCF7C8FDF2E7C0462A240020ED
:10BB100010B5041C03F0EEF81348211C02F0CEFA15
:10BB2000211C124801F062FE201C02F089F8201C42
:10BB3000FFF7A6FE2388102B09D0112B03D1012279
:10BB40000B4B52421A80201C01F0ECFA10BD07206A
:10BB5000FFF7EEFB002803D000210022FCF79CFD3C
:10BB6000A288034B1A80EEE738290020E028002045
:10BB70002A24002008B5072820D00A2810D004283D
:10BB800000D008BD144B13211888FFF725FF0823A8
:10BB9000021C9A43F5D000210022FCF77DFDF0E75E
:10BBA0000020FFF7C5FB002810D1FFF75DFE00283D
:10BBB00007D1FFF71BFF0028E3D0ECE701F07AFC88
:10BBC000E5E700210022FCF767FDF2E700210022F3
:10BBD000FCF762FDE9E7C0462A24002008B5064BC1
:10BBE0001B78002B07D005490548FDF7ABF981B25A
:10BBF000044802F083FC08BD282400208829002086
:10BC0000D82800203829002008B5002807D00328AC
:10BC100004D10138FFF78CFB00280DD108BD0020AE
:10BC2000FFF786FB00280CD1FFF71EFE00280DD180
:10BC3000FFF7DCFE0028F1D000210022FCF72CFDEC
:10BC4000ECE700210022FCF727FDEDE700210022B0
:10BC5000FCF722FDECE7C04608B5031C0A1C0248AD
:10BC6000191CFCF719FD08BDEFBEADDEF0B5474667
:10BC700080B40020A2B00521E84A0023FCF7E8FFC9
:10BC8000002803D000210022FCF706FDE448012132
:10BC9000E44AFDF74FF8002803D000210022FCF70A
:10BCA000FBFCE1480121E14AFDF744F8002803D0FC
:10BCB00000210022FCF7F0FCDD480121DD4AFDF700
:10BCC00039F8002803D000210022FCF7E5FCDA480F
:10BCD0000121DA4AFDF72EF8002803D000210022C6
:10BCE000FCF7DAFC0320D649D64AFFF7EBFC002824
:10BCF00003D000210022FCF7CFFC12AC0020211C55
:10BD0000FFF71CFE002803D000210022FCF7C4FC32
:10BD100026780020023E73425E41CB494822002330
:10BD2000F6B203F01BFC002803D000210022FCF730
:10BD3000B3FC0822201C0021FCF762FA01232278C0
:10BD4000201C13432370FFF74FFE002803D000216F
:10BD50000022FCF7A1FCBD4803F026FC002803D01C
:10BD600000210022FCF798FCB94803F027FC0028CA
:10BD700003D000210022FCF78FFC09AD2E70FEF7E6
:10BD800001FE002803D000210022FCF785FC281CBE
:10BD900002F0A4FE002803D000210022FCF77CFC66
:10BDA0004D20002105226844FCF72AFA012362791C
:10BDB000A8481A43E1231A400C231A43CD23134009
:10BDC00063710723A3710933E371A34B211C129301
:10BDD0000123237102F028FF002803D00021002254
:10BDE000FCF75AFC0F2101222B789C4E8B43134306
:10BDF00010220B401343301C2B7003F061FE311CEA
:10BE000082B2281CFFF7EEFD002803D0002100229B
:10BE1000FCF742FC9248FFF7E1FD002803D0002127
:10BE20000022FCF739FC201C00210822FCF7E8F96D
:10BE3000A0235B002380C83363800023A380913359
:10BE4000FF33201CE380FFF7CBFD002803D0002147
:10BE50000022FCF721FC00213822201CFCF7D0F93D
:10BE6000022323700433E370033B23827D4B0122C2
:10BE700063610023A270EB602A732C32FF322A61C7
:10BE8000783A6B60AB60AB61EB612B626A610993DE
:10BE90000093201C00212A1C734B00F03FFF002858
:10BEA00003D000210022FCF7F7FB0F27032304AE89
:10BEB0006F4400211422301C3B70FCF7A1F90023D1
:10BEC000B7600F2701211020049301333371337BB6
:10BED000BB430B433B400343337300237373B37380
:10BEE000F37BBB430B431A1C3B1C13400343F3730C
:10BEF00000235E4F311C381C337402F009F900280E
:10BF000003D000210022FCF7C7FB00211422281CCB
:10BF1000FCF776F90F21012210206B7B8B43134332
:10BF20000B4003436B73AB7B8B4313430B400343C7
:10BF3000AB730023EB732B7C8B431A43002311401C
:10BF40000122014329740993AB6049486433291CD9
:10BF50002A712B7301F07CFC002803D00021002201
:10BF6000FCF79AFB40220021201CFCF749F9201C19
:10BF7000404902F0E7FA3C210F200122635C834331
:10BF80001343102203401343635400223D23201C1B
:10BF9000E25401F017FF002803D000210022FCF733
:10BFA0007BFB51230126344934480B6013339846F8
:10BFB0004B608E600E73FCF7B9FF8C23002530496F
:10BFC00030480B60A0334B60233BFF3B8B600D730D
:10BFD000FCF7ACFF43462C492C480B609133FF33F0
:10BFE0004B608E600D73FCF7A1FF201C00211C220A
:10BFF000FCF706F9A0239B026360F0231B03A360F8
:10C00000032312952373BB89201CE381204B2574E5
:10C010006361204BA36101F0D7FD3DE0C8260020FD
:10C0200094FC010081BA010070FC01001DBA0100FE
:10C030009CFC0100DDBB010098FC010001BA01007D
:10C04000CD0C000075BB01009028002011BB010041
:10C05000C5BA0100CC290020D5BA010074FC01004A
:10C06000410300002C24002009BC010038290020D5
:10C07000E028002080FC01009829002030290020C1
:10C08000202900201829002088290020D8280020F5
:10C09000E9BA0100F5B90100002803D0002100220F
:10C0A000FCF7FAFA80211E4849020022FCF75CFEE8
:10C0B000002803D000210022FCF7EEFA8021194865
:10C0C00009020022FCF750FE002803D000210022C4
:10C0D000FCF7E2FA144815490022FCF745FE002857
:10C0E00003D000210022FCF7D7FAA02110488902D2
:10C0F0000022FCF739FE002803D000210022FCF7C3
:10C10000CBFA032000F0AEFE002803D1FFF770FC4D
:10C110000028FBD000210022FCF7BEFAF6E7C0465B
:10C12000F8280020D0290020A82900206626000039
:10C13000A826002071DF704772DF704779DF7047F3
:10C140007DDF704765DF7047F0B50488051C83B05C
:10C150000720012C04D01488A01C984202D90C207E
:10C1600003B0F0BD2E78012E04D16E780236361958
:10C17000B342F4D3023B1C1B6B460F1CA4B208183D
:10C18000991D161CDC80FFF7DBFF0028E8D12B7817
:10C19000022B18D0012B11D0231C0821FE2BDED836
:10C1A0003288581CB85432880020013292B2328052
:10C1B000B954328801329B183380D1E76B789C42A6
:10C1C000EBD2231CE9E76B46DB8809219C42E5D2D0
:10C1D000231CE2E7F0B55F46564644464D46F0B4B0
:10C1E00085B09A460EAB80CB061C1B8800919B46FF
:10C1F0003B88904601930388002B5BD0002399462F
:10C2000002AB0024DD1C03E033880134A3422ADDA5
:10C210007368A1009C460422614403A803F0C6FB96
:10C2200003A8291C0022FFF78DFF002826D12B78B8
:10C230004345E9D14B46002B27D043463A88D318D3
:10C240005B4539DC524403A8291CFFF77BFF00281B
:10C2500014D13B882A780134D3183B8001239946B6
:10C260003388A342D4DC4B46002B23D03B88019A71
:10C27000013B9B1A9BB20C20FF2B18D905B03CBC8C
:10C2800090469946A246AB46F0BD42463B889A1876
:10C2900002325A4510DC69465246013309789BB296
:10C2A0003B80D1543A88013292B23A80CAE7111CDD
:10C2B000524653540020E1E70C20DFE7F0B55F461B
:10C2C00056464D464446031C0020F0B417881080A3
:10C2D000586B87B0002800D16FE10478022F18D97D
:10C2E0000220112508701088013080B210800D5492
:10C2F0001088013080B210800C5414880134A4B22C
:10C300001480186B002800D177E0251C1235BD423F
:10C3100007D90C2007B03CBC90469946A246AB46D4
:10C32000F0BD11250D551488013D0134A4B21480CF
:10C330000D5514880134A4B21480C57B0D551488A2
:10C340000134A4B21480857B0D5514880134A4B245
:10C350001480457B0D5514880134A4B21480057BEC
:10C360000D5514880134A4B21480C57A0D55148873
:10C370000134A4B21480857A0D5514880134A4B216
:10C380001480457A0D5514880134A4B21480057ABE
:10C390000D5514880134A4B21480C5790D55148844
:10C3A0000134A4B2148085790D5514880134A4B2E7
:10C3B000148045790D5514880134A4B21480057990
:10C3C0000D5514880134A4B21480C5780D55148815
:10C3D0000134A4B2148085780D5514880134A4B2B8
:10C3E000148045780D5514880134A4B21480007867
:10C3F000085514880134A4B214802E201D5C002D31
:10C4000000D0DCE01E1C2D23F35C151C8846002B9D
:10C4100000D0F7E0B378002B00D024E1F378002BB4
:10C4200016D0E21CBA4200D973E7022241464046C8
:10C430000A5501212A88013292B22A8081542A8821
:10C44000013292B22A8083542C880134A4B22C8009
:10C450007368002B16D01A78E31CBB4200D958E74A
:10C460000223414640460B550A212B8801339BB2DB
:10C470002B80C1542B8801339BB22B80C2542B8854
:10C4800001332B803389002B00D010E1338A002B3D
:10C4900000D076E1338B002B00D08BE1336A002B88
:10C4A0004AD02A880C20911DB94200D932E7198858
:10C4B00005388B46052900D82CE7CC4C5C44A4B247
:10C4C000A146CB4CA446A14500D823E75C88A246F0
:10C4D000052C00D81EE7C54C6946A146D1444C4600
:10C4E000CC81CC89644500D814E7C24CA34504D064
:10C4F000A24502D0D34500D90CE70521404681541E
:10C500002A880D31013292B22A8081542A88013260
:10C5100092B22A80198842441170090A51702A88FF
:10C52000023292B22A805988131C43441970090AB6
:10C5300059702B8802332B80746A002C32D0A28869
:10C540002988131D5B180C20BB4200D9E2E6931C1E
:10C55000FE2B00D9DEE6434603325A54FF22414601
:10C560002B8801339BB22B80CA542B8801339BB29A
:10C570002B80228843441A70120A5A702B88023387
:10C580009BB22B80A288002A0CD0A1680538002914
:10C5900000D1BFE64344181C03F008FA2A88A38898
:10C5A000D3182B802C23F35C002B00D098E0337839
:10C5B000002B00D0DEE00020ACE60024A1E6E61C63
:10C5C0002238BE4200D9A5E602260E551C2410884A
:10C5D000013080B210800C541088013080B210807D
:10C5E000022D00D10FE100D806E1032D00D108E1B2
:10C5F000042D00D0F7E003240C5414880134A4B2B5
:10C600001480FFE609340C20BC4200D982E604A85D
:10C61000FFF790FD002800D07CE6414608222B88D9
:10C62000CA542B88133201339BB22B80CA5402ABFD
:10C630009C4609212888153A013080B2288061443F
:10C64000404403F0B3F92B8802AA0633127A9BB256
:10C650002B80002A00D001224146CA542C88013484
:10C66000A4B22C80D6E604340C20BC4200D951E69A
:10C6700004A8FFF763FD002800D04BE603224146E3
:10C680002B88CA542B88163201339BB22B80CA5494
:10C690002B8802AA01339BB212892B8043441A7063
:10C6A000120A5A702C880234A4B22C80B6E6341CCC
:10C6B000083400950197201C022102224346FFF70F
:10C6C00089FD002800D025E600950197201C062151
:10C6D00010224346FFF77EFD002800D01AE6D5E67B
:10C6E000B46A002C00D17EE0A3880233FE2B00D96F
:10C6F0000FE600229146163292461632288893465B
:10C700000BE04B465C00B36A4C449C46A400644476
:10C71000A3880233FE2B00D9FBE542465146013384
:10C7200013542B8801339BB22B80D1542B880133B7
:10C730009BB22B80228843441A70120A5A702888B0
:10C74000023080B22880A288002A0AD0A16800297D
:10C7500049D0404403F02AF92888A388C01880B241
:10C7600028804B460133DBB299465B46F35C4B4570
:10C77000C7D81CE7301C41462A1C3B1CFFF7E4FCD1
:10C78000C8E5341C103400950197201C03210222B7
:10C790004346FFF71FFD002800D0BBE50095019739
:10C7A000201C072110224346FFF714FD002800D06B
:10C7B000B0E56FE6341C183400950197201C142155
:10C7C00002224346FFF706FD002800D0A2E50095AF
:10C7D0000197201C152110224346FFF7FBFC00287F
:10C7E00000D097E55AE6072094E5C0467FF3FFFFA7
:10C7F0007DF30000FFFF0000012DF4D100240C5454
:10C80000FBE60E54F9E601240C54F6E6F0B54E466C
:10C81000574645461F23E0B496B002AA041C0E1CDE
:10C82000D381002800D171E0C3785B0767D500236E
:10C8300002AA9381436B002B00D13EE11B780222B8
:10C8400006ADAB7003230327052104202A700F32A5
:10C850006A7002AA9381226B002A3AD0112306AD96
:10C86000EB55013B2B54D37B6B54907B4B1CE85412
:10C87000507B8B1CE854107BCB1CE854D07A0B1DEA
:10C88000E854907A4B1DE854507A8B1DE854107A86
:10C89000CB1DE854D0790133E85490790133E85442
:10C8A00050790133E85410790133E854D0780133DA
:10C8B000E85490780133E854013302A8838150781A
:10C8C000E854013302A883811278EA54013383814A
:10C8D0009BB22E22A25C002A00D0F1E12D22A25CA4
:10C8E000002A00D011E1A278002A00D03DE1E278D0
:10C8F000002A35D0D91C1F2925D90C2000E007209B
:10C9000016B01CBC90469946A246F0BD002502AB6D
:10C910009881002E00D1D4E0F378002BEFD102AA49
:10C9200094460E236344301C0EA91A1CFFF7C6FC64
:10C930000028E5D102AB9B7B0EAA02A9097B281C2B
:10C94000FFF7FAFBDCE70220012706ADE854581C8C
:10C9500002339BB280B22F54EA548BB202AA938165
:10C960006268002A0FD01078DA1C1F2AC5D802216D
:10C970000A2706ADE954591C02339BB289B26F54A1
:10C98000E85402AB9A812389002B00D09EE0238AD1
:10C99000002B00D00AE1238B002B00D025E1236A75
:10C9A000002B43D002AA92890C20911D1F29A7D8E1
:10C9B0001888824655460720052DA1D9D24D5544E9
:10C9C000ADB2AC46D14DA846AC4599D95D88A946D3
:10C9D000052D00D894E7CC4D6F46AC46CC44654657
:10C9E000FD81FD89454500D88AE7C94DAA4504D097
:10C9F000A94502D0CA4500D982E70520122706AD15
:10CA0000A854501C80B22F54901C80B202AFB88141
:10CA10001F88281807703F0A477004325B8892B25B
:10CA2000AD182B701B0A6B7002AB9981676A002FDF
:10CA30002FD0BB880C20991C02AB9B899A1C5518DF
:10CA40001F2D00D95CE7FE2900D959E706AD013159
:10CA5000E954591C89B2F330685492B202A98A8110
:10CA60003988AA180433117098B2090A02AB5170C0
:10CA70009881BA88002A0CD0B968002900D13EE715
:10CA8000281802F093FF02ABBA889B89D31802AA38
:10CA900093812C23E15C002900D0C5E006AD23780A
:10CAA000002B00D135E7201C291C05AA1F23FFF706
:10CAB0004BFB002800D12CE722E7002702210120B0
:10CAC000C9E602ABDE810022002336E705AB271C56
:10CAD00000931F23083706AD98460193381C0221A6
:10CAE00002222B1CFFF776FB002800D008E705ABDD
:10CAF00000934346381C0193062110222B1CFFF79C
:10CB000069FB002800D0FBE641E709330C201F2B0E
:10CB100000D9F5E60EA8FFF70DFB002800D0EFE6E0
:10CB2000082202AB9B8906ADEA545A1C023398B224
:10CB30001B2102AB9C4692B2A954163198816144E4
:10CB40000622281802F032FF302002AB02A99B898E
:10CB5000091809789A1D92B2002900D001210733E3
:10CB6000A9549BB202AA9381BDE604330C201F2B6B
:10CB700000D9C5E60EA8FFF7E1FA002800D0BFE60D
:10CB80000322192102AB9B8906ADEA545A1C92B2CA
:10CB9000A95402AA118E9A1C92B2AD1804332970BE
:10CBA0009BB2090A02AA69709381A0E605AB271C13
:10CBB00000931F23103706AD98460193381C0321BC
:10CBC00002222B1CFFF706FB002800D098E605ABDD
:10CBD00000934346381C0193072110222B1CFFF7BA
:10CBE000F9FA002800D08BE6D5E605AB271C0093A8
:10CBF0001F23183706AD98460193381C14210222D2
:10CC00002B1CFFF7E7FA002800D079E605AB00936C
:10CC10004346381C0193152110222B1CFFF7DAFA2A
:10CC2000002800D06CE6BAE6A76A002F00D166E6BD
:10CC3000BB880233FE2B00D95FE602AA908900224E
:10CC40009046163291461632924606AD4A46013358
:10CC50002B54431C9BB2EA54831C9BB202AA9381BF
:10CC60003A88EB181A700430120A5A7080B202AB7C
:10CC70009881BA88002A0FD0B968002900D13EE611
:10CC8000281802F093FE02AB9B89B888C01880B2C6
:10CC900002AB98815346E15C43460133DBB29846D0
:10CCA0008B4200D3FBE643465F00A36A47449C46A1
:10CCB000BF006744BB880233FE2BC7D90C201FE698
:10CCC00002201C27591C06AD89B2E8546F5419186C
:10CCD00089B282420CD010D9032A0CD0042A00D089
:10CCE0000DE603226A5403339BB202AA9381F5E551
:10CCF00001226A54F7E76854F5E7012A00D0FEE5FF
:10CD000000226D182A70EEE77FF3FFFF7DF300002D
:10CD1000FFFF000073DF704774DF7047F8B5051C34
:10CD20000E20002D00D17DE0002A00D17AE0002005
:10CD30000F1C3D4908703D490B6006993C4B19603A
:10CD40003C490B1C13CA13C313CA13C313CA13C31E
:10CD5000002107223848FBF753FA384B384A394E3E
:10CD60001A60394A00219A60301C3822FBF748FAD1
:10CD70002B782A1C3370AB781032B370EB78F370D9
:10CD80006B787370331C103303CA03C3331C103A1F
:10CD9000083303CA03C3331C0832183303CA03C35E
:10CDA0006B6A002B11D0294B294C7362696A9C6015
:10CDB0000A881A8088889880002806D000238A680C
:10CDC000D25CE25401338342F9D1AB6A002B14D018
:10CDD000204B2148B362A96A98608C889C800A889D
:10CDE0001A800023002C05D08A68D25CC25401331B
:10CDF000A342F9D12C23EA5CF2542B6A002B06D013
:10CE0000164B33622A6A5188598012881A806B68DF
:10CE1000002B03D0124B73606B687360301C391C9D
:10CE2000FFF7F4FCF8BDC046082B0020382A00208C
:10CE3000602A00206C2A0020642A0020B42A0020E6
:10CE4000902A0020F4290020E82A00202C2A002023
:10CE50003C2A0020102B0020C42A00200C2B00208C
:10CE6000B02A0020F0B50024A34D89B0287001A895
:10CE70000194FDF7F3FF082809D0002805D1019B94
:10CE8000002B05D001229D4B1A7009B0F0BD019412
:10CE90009B4F0021381C0722FBF7B2F9994E73789B
:10CEA000002B58D02B78012B05D0B278002A00D166
:10CEB000FCE0022B0FD1944A1268002A00D106E14F
:10CEC0000121924B0820197090472B78012B00D13B
:10CED0008DE0022B49D0327B002A01D1032B65D093
:10CEE000327E002A01D1042B65D0874A1268002ABD
:10CEF00003D0033B012B00D899E00022844B1A7029
:10CF000002AC1822201C0021FBF77AF900232A78B2
:10CF1000237063602372E360022A00D1BCE04FD922
:10CF2000032A00D1A5E0042A00D09FE0B38B23821E
:10CF3000338C6382774B1A79002A00D1BCE03278B7
:10CF4000002A04D0744A1278002A00D1C2E00422D8
:10CF5000724B1A703CE0B378002BB6D02B78022BC2
:10CF6000A9D0012BB7D102232B70B378002B17D097
:10CF70007B78002B00D0A8E0BB78002B00D0A4E089
:10CF8000FB78002B00D0A0E03B79002B00D09CE088
:10CF90007B79002B00D098E0BB79002B00D094E087
:10CFA00003232B70337B002B00D083E004232B70F2
:10CFB000337E002B36D10023584A2B7013709CE728
:10CFC000012A53D163822382544B676022701A7006
:10CFD000201CFFF79FFE002800D056E74A4B1B6835
:10CFE000002B02D04D4A1078984700204DE7727808
:10CFF000002AB8D07A78002A00D076E7BA78002ADA
:10D0000000D072E7FA78002A00D06EE73A79002A59
:10D0100000D06AE77A79002A00D066E7BA79002A58
:10D02000A1D062E7384B1A68002A00D165E733784F
:10D03000002B00D161E7384B1B78002B00D05CE758
:10D040000121334B07201970904759E7E36004230F
:10D050003348023200212272C370FFF7D7FB002849
:10D0600000D012E705222D4B1A702A78002AB5D07D
:10D07000AEE7B38A6382338A2382264B1A79002A69
:10D080001FD03278002A03D0234A1278002ADDD03C
:10D090000322224B1A709BE70123237033896760B8
:10D0A0006382736823821D4B1A7091E7022B00D0B4
:10D0B00011E775E7032318E71A7B002A00D03EE743
:10D0C00045E71A7B002ADCD1E2E702230DE70F498E
:10D0D0000A70FBE6E3600423114802320021227249
:10D0E000C370FFF793FB002800D0CEE606220B4B5F
:10D0F0001A702A78BAE7C046082B0020092B0020B6
:10D10000642A00206C2A0020382A0020E42A00200B
:10D11000E52A0020B42A00205C2A00201C2B0020D5
:10D12000F429002008B50388112B1DD0192B06D037
:10D13000102B00D008BD8288204B1A80FAE7827934
:10D14000002AF7D11E4B1B78022B30D027D9032B96
:10D150001DD0042BEED11B4B1A701B4B1B68002BF0
:10D16000E8D000209847E5E70022184B1A70134BCF
:10D1700082881B889A42DDD10120FFF773FE0028C8
:10D18000D8D0134B1B68002BD4D09847D2E70D4A58
:10D1900004201370FFF766FE0028F2D1CAE7012BC6
:10D1A000C8D10220FFF75EFE0028EAD1C2E70320C3
:10D1B000FFF758FE0028E4D1BCE7C0463824002021
:10D1C000082B00201C2B0020382A00205C2A00207D
:10D1D000602A0020F0B5023889B0012803D8A94C94
:10D1E0002378002B01D109B0F0BD002501A82570DE
:10D1F0000195FDF733FE082808D0002800D098E0FC
:10D20000019B002B03D001232370ECE701959E4F77
:10D210000021381C0722FAF7F3FF9C4D6B78002B96
:10D220005CD09B4E3378012B00D1B6E0AA78002A5F
:10D2300000D10DE1022B00D1AFE02A7B002A02D100
:10D24000032B00D1B3E02A7E002A02D1042B00D1A7
:10D25000D9E0904A1268002A03D0033B012B00D882
:10D26000AFE000228C4B1A7002AC1822201C002167
:10D27000FAF7C6FF00233278237063602372E360FD
:10D28000022A00D1C4E064D9032A00D1CAE0042AEA
:10D2900000D0B4E0AB8B23822B8C63827F4B1A7956
:10D2A000002A02D11A7B002A07D02A78002A04D04B
:10D2B0007B4A1278002A00D1D3E00422794B1A70FD
:10D2C000201CFFF727FD002833D1724B1B68002B71
:10D2D00000D188E7734A1078984784E7AB786C4EA2
:10D2E000002B2DD13378012B3CD0022BA5D1AB786C
:10D2F000002B17D07B78002B00D0B0E0BB78002B40
:10D3000000D0ACE0FB78002B00D0A8E03B79002BEC
:10D3100000D0A4E07B79002B00D0A0E0BB79002BEB
:10D3200000D09CE0032333702B7B002B3FD00323E2
:10D330008FE75D4B1B68002B00D154E7984752E7FD
:10D340003378022B29D0012B00D076E702233370EB
:10D35000CDE7012A53D163822382524B676022704A
:10D360001A70ADE76A78002AF0D07A78002A00D0E7
:10D370006FE7BA78002A00D06BE7FA78002A00D06D
:10D3800067E73A79002A00D063E77A79002A00D06B
:10D390005FE7BA79002AD9D05BE73E4A1268002AD3
:10D3A0005AD00121414B0820197090479AE7042375
:10D3B00033702B7E002B26D0364B1A68002A00D102
:10D3C0004FE72B78002B00D14BE7354B1B78002B18
:10D3D00000D046E70121304B07201970904743E702
:10D3E000E36004233248023200212272C370FFF747
:10D3F0000DFA00289DD105222A4B1A703278002A96
:10D4000000D162E75CE70023264A3370137028E7F7
:10D41000012323702B89676063826B682382214B11
:10D420001A704DE7AB8A63822B8A23821B4B1A79D1
:10D43000002A02D11A7B002A06D02A78002A03D0BB
:10D44000174A1278002ACBD00322164B1A7037E7FE
:10D45000022B00D0F1E665E714490A7043E7022386
:10D46000F7E6E36004231248023200212272C370FF
:10D47000FFF7CCF9002800D05BE70622094B1A70B1
:10D480003278BCE7092B0020642A00206C2A002097
:10D49000082B0020382A0020E52A0020B42A00208A
:10D4A0005C2A00201C2B0020602A0020E42A002097
:10D4B000F4290020F0B5474680B4BB4C88B02378EF
:10D4C000002B00D1A1E0B94D2B78002B00D09CE0BF
:10D4D000B74F3B78002B00D09CE00023012601A829
:10D4E0002E7098460193FDF7B9FC082808D0002853
:10D4F00000D095E0019B002B04D0AE4B1E7085E060
:10D5000043460193AC4B0021181C07229846FAF7BA
:10D5100077FE6378002B00D088E0A378002B00D141
:10D5200097E03B78022B00D189E0012B00D096E0F8
:10D5300002233B70A378002B1DD043465B78002B61
:10D5400000D01DE143469B78002B00D018E14346F4
:10D55000DB78002B00D013E143461B79002B00D071
:10D560000EE143465B79002B00D009E143469B79ED
:10D57000002B00D004E103233B70237B002B00D160
:10D5800072E003238D4A1268002A03D0033B012B6B
:10D5900000D873E000228A4B1A7002AE1822301CA9
:10D5A0000021FAF72DFE00233A783370736033724E
:10D5B000F360022A00D1BCE000D879E0032A00D150
:10D5C000C2E0042A00D0B0E0A38B3382238C7382A4
:10D5D0007C4B1A79002A02D11A7B002A06D02278C5
:10D5E000002A03D02A78002A00D1CBE00422764B0F
:10D5F0001A70301CFFF78EFB002811D16F4B1B688F
:10D60000002B02D0704A10789847002008B004BC64
:10D610009046F0BDFFF780FB002800D15DE7F5E7FD
:10D620006A4B1B68002BF0D09847EEE73B78012B44
:10D6300005D0A278002A00D19BE0022B0FD15F4ACF
:10D640001268002A00D198E00121614B082019706E
:10D6500090473B78012B35D0022B00D16AE7227B23
:10D66000002A19D1032B17D104233B70237E002BF2
:10D6700019D0524B1A68002A00D18BE72378002B6F
:10D6800000D187E72B78002B00D083E701214C4B9A
:10D6900007201970904780E7227E002A00D071E7AA
:10D6A000042B00D06EE70023474A3B70137071E7EC
:10D6B000012A3AD1414673823382434B7160327002
:10D6C0001A7096E76278002A00D131E74246527814
:10D6D000002A00D056E742469278002A00D051E74F
:10D6E0004246D278002A00D04CE742461279002AFE
:10D6F00000D047E742465279002A00D042E742462E
:10D700009279002A00D113E73CE7F3600423314803
:10D71000023200213272C370FFF778F8002800D07F
:10D720007EE70522284B1A703A78002A00D165E777
:10D730005FE7434673600123337023897382636814
:10D740003382214B1A7054E7A38A7382238A33826F
:10D750001C4B1A79002A02D11A7B002A05D02278A4
:10D76000002A02D02A78002ACFD00322164B1A7042
:10D770003FE7022B00D072E7FDE615490A7069E722
:10D780000223FFE6F36004231248023200213272C2
:10D79000C370FFF73BF8002800D041E706220A4B90
:10D7A0001A703A78C1E7C0466C2A00205C2A002033
:10D7B000082B0020092B0020642A0020382A002092
:10D7C000E52A0020B42A00201C2B0020602A00201B
:10D7D000E42A0020F4290020A0DF7047A2DF704770
:10D7E000A3DF7047A4DF7047A6DF704730B583B072
:10D7F000002808D0002906D00B88112B23D0502BED
:10D8000003D0102B1CD003B030BD037D002BFAD009
:10D81000CA8843899A42F6D1CB8B022BF3D1046894
:10D82000002CF0D00B1C212220259A5C5B5D12029B
:10D8300013430122134001A953400B70A047E2E7B4
:10D840008B884382DFE701235B424382DBE7C046EC
:10D85000F0B54D465F4656464446F0B40E2595B0A9
:10D86000002816D0002914D00B68894603600123D4
:10D870005B4243820A79037406A902338B70684BBA
:10D880000275071C021D01200B80FFF7A5FF051E76
:10D8900007D0281C15B03CBC90469946A246AB4622
:10D8A000F0BD3B7D002B00D09EE00DAD281C00217B
:10D8B0001C22FAF7A5FC02222B78397D1A4301239A
:10D8C0009A460B401801D3B21022934303432B70A6
:10D8D000002390464A1E91419B466B60EB602B6192
:10D8E000494204AB0B406B615B465246AB6102ABF5
:10D8F0009A754C4B05AE02AA938200210322301C7C
:10D90000FAF77EFC4B469B7B062233704B46DB7B53
:10D9100008AC7370B37800219343043A1343082290
:10D92000DBB293434246934352469343B3704B4614
:10D930001B7B02AAD370201C1422FAF761FC07ABF0
:10D940000893534623815B4663815346A38102AB10
:10D95000033323616660291CB888BB1D221CFFF7B6
:10D960003DFF051E95D14B469B68002B55D00123EA
:10D9700002AA93752C4B00219382301C0322FAF7E4
:10D980003FFC4B461B7C0622337000237370B37838
:10D990009343043A13430822DBB293434246934332
:10D9A00052469343B37003AB98464B464046996842
:10D9B00000F0C2FD814600211422201CFAF720FC51
:10D9C00007AB23606A464B46D3804346D0883A1C57
:10D9D000658166602081A0812361F8880E32211C58
:10D9E000FFF7FEFE051C54E704AC00210322201CB7
:10D9F000FAF706FC0F21012223788B4313431022F0
:10DA00000B40134323704B4606225B7B6370A37865
:10DA1000934302221343A37047E7F88139E7C046D6
:10DA20000F180000192A000008290000F0B589B07D
:10DA30006B46041CDE1DD971002822D0027CCBB2BB
:10DA400000259A421AD002AF00210822381CFAF7AA
:10DA5000D7FB01237D803B807E60608AE1883A1C91
:10DA6000FFF7C0FE051E09D13378628A2374114B7B
:10DA70009A4208D0237D0835002B06D1281C09B016
:10DA8000F0BD0E25FAE70825F8E704AD281C0021B3
:10DA90001022FAF7B5FBE388291C2B800123AB7019
:10DAA0007B88AF60AB807B68EB60608AFFF79CFE91
:10DAB000051CE3E7FFFF000075DF704776DF704766
:10DAC0007ADF70477BDF704710B5184B82B018883B
:10DAD000174B984214D0174A174C13780133DBB216
