:020000021000EC
:108000000040002011950100599501005B95010089
:108010000000000000000000000000000000000060
:108020000000000000000000000000005D9501005D
:1080300000000000000000005F9501006195010054
:10804000639501006395010063950100639501004C
:108050006395010000000000998D01006395010007
:10806000639501006395010063950100639501002C
:10807000639501006395010063950100639501001C
:1080800063950100B58201006395010063950100CD
:108090009583010063950100DD9401006395010063
:1080A00063950100639501000000000000000000DE
:1080B00000000000000000000000000000000000C0
:1080C00010B5064C2378002B07D1054B002B02D0AE
:1080D000044800E000BF0123237010BD6820002089
:1080E000000000008895010008B5084B002B03D064
:1080F0000748084900E000BF07480368002B00D18B
:1081000008BD064B002BFBD09847F9E700000000A4
:10811000889501006C2000206820002000000000ED
:10812000164B002B00D1144B9D46402292029A1A06
:10813000924600218B460F461348144A121A00F04B
:1081400067F80F4B002B00D098470E4B002B00D048
:1081500098470020002104000D000D48002802D09F
:108160000C4800E000BF00F02DF82000290001F0CD
:1081700055F800F011F8C04600000800004000204B
:10818000000000000000000068200020EC22002019
:108190000000000000000000084B10B5041C002B7C
:1081A00002D0002100E000BF054B1868836A002B55
:1081B00000D09847201C00F033F8C04600000000B3
:1081C000809501000E4B70B500251E1C0D4CE41A65
:1081D000A410A54204D0AB00F35898470135F8E746
:1081E00001F0C0F9084B00251E1C084CE41AA4102D
:1081F000A54204D0AB00F35898470135F8E770BDAD
:1082000060200020602000206020002064200020EA
:10821000031C8218934202D019700133FAE77047A9
:10822000FEE7C046BFF34F8F024A034BDA60BFF34D
:108230004F8FFEE70400FA0500ED00E08021802367
:10824000184A8902D1508022D221174B520289004C
:108250005A5040395A5001222F205A600138C046E6
:10826000C046C046C046C046C046C046C046C046DE
:10827000C046C046C046F1D19A6000230B4A2F2069
:1082800013600138C046C046C046C046C046C0461E
:10829000C046C046C046C046C046C046F1D1044AAA
:1082A0001370704700E100E00010014084200020BE
:1082B000A4200020A021F0B5002347462C4A490005
:1082C00080B453500431535004315350043153504F
:1082D0004C39535004315350264B1B68002B37D078
:1082E0002549002652582549254F0C68141B0022A9
:1082F0002402240A904602E0002D1AD02B1C1A6892
:10830000A24216D8A41AB6181A7CDD69002AF3D046
:10831000424699691A745A693B68002B1BD0101C9D
:1083200098470028E8D000210022FFF77BFF002DAE
:10833000E4D1144B14491A780B789A420ED0134AA0
:108340009B009E5080218023114A49035B00D1503D
:1083500004BC9046F0BD081C9047CDE70132D3B273
:10836000022B01D00B70EAE700230B70E7E7C04651
:108370000010014088200020040500008420002017
:108380008C20002098200020992000209C20002094
:1083900000E100E0F0B55F4656464D464446F0B475
:1083A000B44BB54A1B68B54989B001930978137875
:1083B000994200D1B1E10133DBB2022B00D100239D
:1083C0001370AF4A9B009B58AA4A9946019B4B44A5
:1083D0001B021B0A136001230493AA4B00241B6891
:1083E0009B46A94BD8461B781A1C0293A74B944670
:1083F00007931B6803939F4B1B680693A44B1B7842
:1084000005935B466646013EF2B29446FF2A4FD082
:108410006246D000039A9246504401784578A942BA
:10842000F0D04A005218877801314668C9B27F1AE5
:10843000B2467E1EB741D2007F425244394017787F
:10844000022F0AD0032FEAD1002BE8D01C74DB697D
:10845000002BFBD145789846E1E75668002B25D0E4
:108460009E421AD01F1C00E0171CFA69002AD6D0C1
:108470009642F9D1321C3D1CBE4200D1EBE0176898
:10848000D269EA61002A06D013689A4657441760F9
:1084900045784346C3E74578C1E7DE691A1C002EDC
:1084A00000D1DDE0B046331C151CE8E70023B6E739
:1084B0006946774A097D181C11706E4A0699039324
:1084C000116041466F4A1160049A002A00D028E1E9
:1084D0005B461B1A5A1E93410025DBB20493079B8F
:1084E00000271B68039E0693624B1B689C46654BE6
:1084F0001B689A46664B1B780593664B01930123D4
:108500009846029B013BDBB20293FF2B00D18FE028
:10851000069ADB0093469B44002D27D06968AB6820
:10852000281CED696246019C8A1A1202120AA242B4
:1085300050D8D31842460360476087600274C76111
:10854000002E56D03168341C994204D35FE0116884
:10855000994263D2141CE2695B1A002AF7D10360C6
:10856000331CC261E0611E1C002DD7D15B465A4608
:108570001B7852789A42C4D0594649685A008946B5
:108580005946D2180133DBB20B708978D2004A44C5
:1085900099424AD011785068331C0129E3D1037CF9
:1085A00099464946331C0029DDD191684160D36862
:1085B00083601469C46052698261059A002AB1D04F
:1085C0004A46002142606246019C8A1A1202120A3F
:1085D000A242AED96246511A0902090A99420CD246
:1085E00042465B1A0360476087600274C761002ED1
:1085F000A8D1031C82461E1CB6E7434607604760AD
:1086000087600374C761002EF3D000233168CB1A52
:108610003360031CC66182461E1CA5E7C91A11609F
:108620000360C261331CE0619DE75B461D70B1E7EA
:108630005246144B1A60039BB3422FD1049B002B6C
:108640002CD10023124A137009B03CBC90469946C5
:10865000A246AB46F0BDDE693A1C002E00D021E7F1
:1086600001250D4B9D600023069601369846151C8A
:10867000059604E7842000209820002099200020FF
:108680009C200020882000209020002094200020A2
:108690009A200020FEFF7F0000100140002E63D0D2
:1086A000484B49493568CC58484B494E1B6830788F
:1086B000E21A1202120A03329046002861D04246A2
:1086C000AA4200D22A1CA820D21812023E49130A3C
:1086D000C0003C4D0B504A591B1B121B1202120AC0
:1086E0001B0203321B0A9A42ABD94B590B502F2065
:1086F0000138C046C046C046C046C046C046C04617
:10870000C046C046C046C046C046F1D18021802345
:10871000304A89025B00D15093E7002399460493C5
:108720005BE60025002100244846464613E01A680F
:1087300082421CD8DE68801A89181C60DF69002E0E
:1087400007D0DD611D1C019A9E608A181202120A70
:108750005A603B1C3E1C002BE9D11F4B1E600023BE
:10876000039301330493BAE6FFF768FD69E7814696
:10877000194903930E604946521A1A600123049363
:10878000ADE68020D1274002BF00C851403FC8510C
:10879000C02280270F48BF02520087500760012780
:1087A0002F200F600138C046C046C046C046C046B4
:1087B000C046C046C046C046C046C046C046F1D1CD
:1087C00037707CE704050000001001408420002081
:1087D000A420002000E100E088200020F8B54F46EA
:1087E0004646C0B40326351C80460F1C141C99460F
:1087F00015400720002D03D00CBC90469946F8BDCB
:10880000002A44D0FFF71AFD4A46224B80201A6006
:10881000221C214B18321E70204B62601C607B00B2
:10882000DB19DB00D218E260D318C0226361257027
:108830006570A77025726572A77225746574A77438
:10884000C524FF21164B40031D60164B52001D70BE
:10885000154BA4001D70154B98501A598A433F3987
:108860000A431A51A122186040461149D20088508B
:10887000C42080001C580F4A2240C02424022243F6
:108880001A500D4B0020CA580C4B1A60B4E7034B2A
:108890001A60B1E78C200020902000209420002056
:1088A00088200020982000209920002000E100E08E
:1088B00000100140FF00FFFF04050000842000209D
:1088C00010B50B4B1B68002B0BD0002A07D00028DB
:1088D00005D0036808201C7C002C04D010BD0720A4
:1088E000FCE70820FAE759745A610020F6E7C04611
:1088F00094200020F0B5474680B4374B1C68002C0C
:1089000008D0002806D00723042905D8181C04BC69
:108910009046F0BD0823F9E74369002BFAD0002503
:10892000437CA846012B2ED02C4B10255B68DB0521
:10893000DB0D2CD164196378A5785E1CF6B2AD1BF3
:108940006F1EBD416D422E402578B5421DD05D00A1
:10895000EB186568DB00ED180423002DD6D0033B2F
:108960002B7068601E4B1F48C358E960AB604346DC
:1089700080212B6180236A611B4A5B00490366707A
:10898000D1500023C2E78846CEE70423BEE7103B60
:10899000DEB275B2002D13DBAD08134EC035AD004D
:1089A000AD5903263340DB00DD402B069B0FDBB2C5
:1089B0000025012BBED00835032BBBD00835B9E705
:1089C0000F230A4D3340AC46083B9B089B00634491
:1089D0005D680323E6E7C0469420002000ED00E038
:1089E000040500000010014000E100E018ED00E087
:1089F000F0B5002820DBFF271B4B03229C463B1CC5
:108A00008408C026C0B20240D2009340A40064444F
:108A1000B600A5599D438B013B409340191C294347
:108A2000A1511F2318401E3B8340C022181C0E4B2F
:108A3000520098501860F0BDFF260C4A032494465B
:108A4000321C0F23C0B20440E400A2400340083BA4
:108A50009B089B006344DD6995438A013240A24034
:108A6000111C2943D961DCE700E100E000ED00E0E2
:108A700038B54425164C0820635D002B00D038BD66
:108A80004022FF21013BA3540132A1540132A354DF
:108A9000236201326362A362E36223636363A363BD
:108AA000E3630238FC39A35423606360A360E3608E
:108AB00023616361A361E361FFF79AFF8021C12312
:108AC000044A9B000906D150012300206355D6E7D4
:108AD000A8200020006000404423034AD05C431ECD
:108AE0009841C0B27047C046A8200020F0B5474664
:108AF00080B4524C0825231820331E787F2E03D8CB
:108B0000281C04BC9046F0BDCD78AC46002D36D074
:108B10002568013500D187E0042300269846731CA0
:108B20009D006759013733D0B31C984525D99D0066
:108B3000675901372CD0F31C98451ED99D00675901
:108B4000013725D0331D984517D99D006759013746
:108B50001ED0731D984510D99D006759013717D055
:108B6000B31D984509D99D006759013710D00736C4
:108B7000B04502D9E369013308D00425C0E725696F
:108B8000013555D0082304269846C8E707231C253D
:108B9000625162462718DEB220373E70002A02D1A9
:108BA000E3183C3318708B78002B15D1031CA025DB
:108BB0004A78C133FF3392009B00ED055A51CB78C0
:108BC000002B15D176B2A4193C340B7822789B0186
:108BD00013432370002593E7A022D2059446E02595
:108BE000022783006344ED005A59BA435A51E6E71D
:108BF000A22476B2124BB600F318E4000A781D598D
:108C00001049000229401951F82149010840061C69
:108C1000C0211004021C301C89021D590A40104357
:108C20002843185100256BE7002622601E70BAE722
:108C3000042522611D702E1C2B1CB1E7A8200020EA
:108C400000600040FFE0FCFFF0B5264D2C182034FA
:108C5000227853B2032B18DDEB183C331B789B09A9
:108C6000032B32D0012B39D0C025AD02A023DB0568
:108C70009C46E02380006044DB00C4581A49214030
:108C8000C150C2582A43C250F0BD032AFCD817482D
:108C9000A227844601269A006244FF00D05930433F
:108CA000D0511A1C604600274032920092B21750F1
:108CB0000029E9D00022A25692005259002AE3D09E
:108CC000C1229E4092008650DEE7A223A022DB0054
:108CD000D205D258012383401A42C5D18025AD0266
:108CE000C4E7C046A8200020FFFFFCFF0060004052
:108CF000F0B526490B1820331B785AB2032A23DC1F
:108D0000DBB2032B2ED8224CA227A44601249500C7
:108D10006544FF00EE599B00A643EE51C2269440E5
:108D20006546B600AC5100244532FF3292005451E2
:108D3000021CA0240225C132FF329200E405155125
:108D4000012252425A501CE0A024E405A446E0242B
:108D500082006244E40016590E4DDBB235401551D5
:108D600015591551021CA0240225C132FF32920070
:108D7000E405155101229C00CB1852423C330A51A4
:108D80001A70FF23081820300370F0BDA8200020BF
:108D900000600040FFFFFCFFF8B54F464646C0B4F8
:108DA000C74A00241368012B00D1CBE0C54B1A68D9
:108DB000012A00D1D4E0C44B1A68012A00D1DFE0B7
:108DC000C24B1A68012A00D1EAE0C14B00251A689B
:108DD000012A00D1F5E023070BD0E30700D506E117
:108DE000A30700D512E1630700D51DE1230700D5D5
:108DF000F1E0002C03DB0CBC90469946F8BD402303
:108E0000B44CE15C4BB2013321D0C9B2C023081C81
:108E10009843231820331B785BB29B001E59002E09
:108E200015D0A022D205944683009C44E0236246DC
:108E3000DB00D3580122C0278240BF023B40890992
:108E40001B0C154200D106E1022B00D160E1412349
:108E5000E15C4BB2013321D0C9B2C023081C984356
:108E6000231820331B785BB29B001E59002E15D0AF
:108E7000A022D205944683009C44E0236246DB0096
:108E8000D3580122C0278240BF023B4089091B0CF6
:108E9000154200D1D8E0022B00D1FDE04223E15C75
:108EA0004BB2013321D0C9B2C023081C9843231808
:108EB00020331B785BB29B001E59002E15D0A022D8
:108EC000D205944683009C44E0236246DB00D358DD
:108ED0000122C0278240BF023B4089091B0C15427A
:108EE00000D1D2E0022B00D1FEE04323E15C4BB283
:108EF000013300D17FE7C9B2C023081C984323186F
:108F000020331B785BB29B001E59002E00D172E704
:108F1000A0230124DB059C46E023C0278440820077
:108F20006244DB00D358BF023B4089091B0C254239
:108F300000D197E0022B00D05DE7032900D199E032
:108F4000B04758E7C1216448890041580B4200D11D
:108F50002CE75C4B14601A680134012A00D02AE720
:108F6000C1225D499200895802220A4200D122E7BB
:108F700000211960544B14431A68012A00D01FE7DE
:108F8000C12255499200895804220A4200D117E7AC
:108F9000002119604D4B14431A68012A00D014E7D0
:108FA000C1224D499200895808220A4200D10CE79B
:108FB00000211960464B14431A680025012A00D08D
:108FC00009E71D6080231B061C43A022A223D205B3
:108FD000DB00D558FFE6404A404BD058D1583D4BB6
:108FE000C0048903C00E890FDB68984701E7A223FC
:108FF000394ADB00D058D158364BC00489031B686E
:10900000C00E890F9847A30700D4ECE6344B324AD0
:10901000D058D1582F4BC00489035B68C00E890F0C
:109020009847630700D4E1E6A3232B4ADB00D0581E
:10903000D158284BC00489039B68C00E890F9847FC
:10904000230700D4D5E6C6E7032B00D026E7032983
:1090500072D0B04722E7032B00D0F8E6032973D083
:10906000B047F4E6032B00D0C5E6032900D067E73C
:109070008027BF02E023DB00D5581A4C2C40D45087
:10908000D4582743D750B047B5E6032B00D02CE780
:10909000032955D0B04728E70329DAD1B946E023A0
:1090A0006246DB00D258904647460E4A3A40674631
:1090B000FA50FA584F4617436246D750B047EDE68C
:1090C0000061004004610040086100400C61004004
:1090D0007C610040A8200020006000401C050000CA
:1090E00014050000FFFFFCFF0329D3D1B946E0239C
:1090F0006246DB00D25890464746154A3A406746DA
:10910000FA50FA584F4617436246D750B047ECE63C
:109110000329A5D1B946E0236246DB00D258904628
:1091200047460B4A3A406746FA50FA584F461743AB
:109130006246D750B0478AE680239B029946AEE745
:1091400080239B029946D2E780239B029946E2E75F
:10915000FFFFFCFF102802D10022014B1A7070475C
:10916000D822002080202B4AC00213780133DBB2C2
:109170001370DA0725D4A021274AC905885080201A
:1091800000039A0726D4A021234AC90588508020CD
:1091900040035A0727D4A0211F4AC90588508020C0
:1091A00080031A0728D4A0211B4AC90588508021B2
:1091B000C903DB0629D5A123A022DB00D205D150AB
:1091C0007047A122A021D200C90588508020000349
:1091D0009A07D8D5A122A021D200C90588508020A5
:1091E00040035A07D7D5A122A021D200C905885033
:1091F000802080031A07D6D5A122A021D200C9055C
:1092000088508021C903DB06D5D4A022024BD205A9
:10921000D150D5E7D82200200C050000A023E92179
:109220000322DB05C90010B55A502B4982B05A50B1
:1092300004315A50294900205A5004315A50E8222A
:109240000021D200995026494822002300F020F93D
:1092500000282CD100200421224A0023FFF7BEFA67
:10926000002830D10121204A2048FFF729FB802126
:109270001F4809020022FFF73DFB022301AC2370C7
:109280000023A370E37003336370FFF725FC00280D
:109290001ED01020FFF72CFD211C1020154AFFF7CF
:1092A00025FC10200121FFF7CFFC20BFFDE70021A6
:1092B0000022FEF7B7FF002004210A4A0023FFF72F
:1092C0008DFA0028CED000210022FEF7ABFFC9E7BF
:1092D000FFF7CEFBDDE7C0464C0700005407000057
:1092E00070220020F020002065910100849501008B
:1092F000B8220020559101001F4B1B78012B00D094
:1093000070471E4B1B681B07FAD1F0221C4B1B68D1
:10931000134018D11B4B1B6813421AD0174B1B6804
:109320001B07EDD1F022164B1B681340402BE7D1F1
:10933000144B1B681342E3D1C12380220121DB00BF
:10934000D205D150DCE7102B0FD10E4B1B68134216
:10935000E8D10D4A0D4B1A6080220D4B12021A60A3
:10936000054B1B78012BD9D0CAE7302BDAD1054B3E
:109370001B681342D6D1ECE7E00F00F0E40F00F0D9
:10938000E80F00F0EC0F00F0DFFF07C0040500401D
:10939000186C00402EDF704751DF704710DF7047B8
:1093A00061DF704708B5081C111C00E000BF08BD54
:1093B000F0B557464E464546E0B4314B314E1D6838
:1093C00099466B425D41304BB2461C6898466342F9
:1093D0005C412E4F82B0EDB2E4B2002D08D0002CDB
:1093E00027D002B01CBC90469946A246F0BD01248D
:1093F00001A8FFF7D1FF052831D000282AD000218D
:109400000022FEF70FFF002CF1D16A461D4B01A987
:109410001B8893801D4B1C68201CFFF7C1FF05288B
:10942000E5D0002810D000210022FEF7FBFE00242A
:10943000D3E73C68338801A9201C0B80FFF7B0FFFD
:109440000528CED00028EED14346201C1B68984743
:109450000024C2E74B4601981B689847D3E7002CCD
:10946000BFD153466A461B8801A99380074B01254B
:109470001C68201CFFF794FF0528D2D1B1E7C04635
:10948000E0220020DA220020E4220020DC2200205A
:1094900038B5041C0720002901D08D0700D038BD45
:1094A000094801600949201C0A80094A09491360DA
:1094B000FFF774FF0028F2D10122074B16301A7013
:1094C000FFF768FFEBE7C046DC220020DA2200202D
:1094D000E8220020A5930100D922002008B50A4BFC
:1094E0001B68002B08D09847002800D108BD002138
:1094F0000022FEF797FEF9E7044B1B78002BF5D00E
:10950000FFF756FFF2E7C046E8220020D9220020EC
:1095100003210A4802680A430260094802680A43B4
:1095200002600849084A094B9B1A03DD043BC858EE
:10953000D050FBDC06488047064800472405004021
:109540005405004090950100002000206820002074
:10955000F992010021810100FEE7FEE7FEE7FEE748
:10956000FEE7FEE7F8B5C046F8BC08BC9E4670476B
:10957000F8B5C046F8BC08BC9E46704743000000E2
:0895800000200020B8220020A9
:0895880098EBFF7F01000000D9
:1095900000000000000000000000000000000000CB
:1095A00000000000000000000000000000000000BB
:1095B0007C95010000000000000000000000000099
:1095C000000000000000000000000000000000009B
:1095D000000000000000000000000000000000008B
:1095E000000000000000000000000000000000007B
:0895F000E9800100C1800100C7
:040000031000951143
:00000001FF
