:020000021000EC
:108000000040002029C4010071C4010073C40100B4
:108010000000000000000000000000000000000060
:1080200000000000000000000000000075C4010016
:10803000000000000000000077C4010079C40100C6
:108040007BC401007BC401007BC401007BC4010030
:108050007BC40100000000007BC401007BC4010060
:108060007BC401007BC401007BC401007BC4010010
:108070007BC401007BC401007BC401007BC4010000
:108080007BC40100D98E01007BC401007BC40100C8
:10809000C98A01007BC4010041B401007BC4010016
:1080A0007BC401007BC40100000000000000000050
:1080B00000000000000000000000000000000000C0
:1080C000164B002B00D1144B9D46402292029A1A67
:1080D000924600218B460F461348144A121A00F0AC
:1080E00067F80F4B002B00D098470E4B002B00D0A9
:1080F00098470020002104000D000D48002802D000
:108100000C4800E000BF00F02DF82000290001F02D
:10811000A5FD00F011F8C046000008000040002056
:108120000000000000000000642000208C260020D9
:108130000000000000000000084B10B5041C002BDC
:1081400002D0002100E000BF054B1868836A002BB5
:1081500000D09847201C00F033F8C0460000000013
:10816000D8C401000E4B70B500251E1C0D4CE41A3E
:10817000A410A54204D0AB00F35898470135F8E7A6
:1081800004F09CF9084B00251E1C084CE41AA410AE
:10819000A54204D0AB00F35898470135F8E770BD0D
:1081A000642000206420002064200020642000203F
:1081B000031C8218934202D019700133FAE770470A
:1081C000FEE7C04628DF704729DF7047F0B58027FB
:1081D000404D7F052C783969A60033199B00EB18B8
:1081E000DA8889B283B08A4218D8196918898C460E
:1081F000920860445969FFF7E7FF021E06D0112874
:108200002DD10823344A11680B4313603419A4009C
:108210002C19E288314B1A6003B0F0BD1969386936
:108220008C460004000C121A18893C695969604494
:1082300080188918A2B29208FFF7C6FF021E06D066
:10824000112827D10823244A11680B431360802387
:108250005B051B69214A1B041B0C1360DCE72B78B0
:108260009800C01880002918CB68081C5F00FF1810
:108270000B79BF009C464B6919490C300968009185
:1082800018497F586146B8470422174B1A7000F00E
:108290005DF8BBE72B789800C01880002E18301CC2
:1082A0000F4DF3682D685C003179E418736900950F
:1082B0000C4DA4000C306459A04704220A4B1A70DC
:1082C00000F044F880235B051B69044A1B041B0C67
:1082D0001360A1E7482500206C230020B82200206D
:1082E00080200020702300207420002030B583B04F
:1082F000002806D0112806D108230F4A11680B4325
:10830000136003B030BD021C0C4801788B005B1871
:108310009B00C518281CE9686B694C006418297912
:10832000074DA4002D680C300095064D6459A047F8
:108330000422054B1A70E4E76C2300204825002036
:10834000802000207023002074200020F0B55F46BC
:108350004D4644465646F0B45F4F85B03C785F4D7D
:10836000012C00D18AE0002C00D16FE0022C16D045
:10837000032C0DD15A4B1868FFF724FF021E07D0BB
:10838000112800D082E00823564A11680B4313607D
:1083900005B03CBC90469946A246AB46F0BD514B59
:1083A00099461B6803932B789E00F3189B00EE18E8
:1083B0003369984680235B05196940460904090C16
:1083C0009B4603F0AFFE464B824618605B46196938
:1083D0004346581EF3880904C018090C03F0A2FE96
:1083E00082454ED00323039C9C434B461C603E4B6E
:1083F0001B68002B02D10233234264D000223B4B86
:108400001A703B4B5869431C56D080235B05196991
:108410000904090C03F086FE031C80225205106932
:1084200011690004013B000C09045843090C03F0D6
:1084300079FEFFF7C7FE021EAAD0112826D14A46B0
:108440000823126813434A461360A1E7294B1C60B6
:10845000294B1C606B78002B9AD02B789A00D3188C
:108460009B00ED18EA88254B1A602B79032B27D047
:10847000042B25D0012B00D08AE73B70FFF7A6FE26
:1084800086E70123039A9A431443AEE72B789800BA
:10849000C01880002E18301C184DF3682D685C0041
:1084A000E418317973690095154DA4000C306459B6
:1084B000A04704233B706BE780235B055B69ACE757
:1084C00002F08EFA64E7094A50461370FFF77AFE0D
:1084D000FFF70CFF5CE7C046742000204825002011
:1084E000B42200206C230020642300207C20002084
:1084F0000010001078200020B822002080200020EA
:108500007023002030B5224B83B05869431C3AD009
:1085100080235B0519690904090C03F003FE031CA1
:1085200080225205106911690004013B000C090406
:108530005843090C03F0F6FDFFF744FE021E06D077
:10854000112806D10823134A11680B43136003B0A6
:1085500030BD11490B789800C01880000D18281CF8
:10856000EB6829795C00E4186B690C4DA4002D6858
:108570000C3000950A4D6459A0470422094B1A702B
:10858000FFF7E4FEE3E780235B055B69C8E7C046CD
:10859000001000106C2300204825002080200020BF
:1085A0007023002074200020802230B55205146909
:1085B00021492404230C0C6883B0013C5C431F4B0D
:1085C0005869431C35D011690904090C03F0AAFD50
:1085D00080235B0519691A4B09040138090C4143D2
:1085E0001A68201CFFF7F0FD021E06D0112806D1E4
:1085F0000823144A11680B43136003B030BD1249BD
:108600000B789800C01880000D18281CEB68297999
:108610005C00E4186B690D4DA4002D680C300095CA
:108620000B4D6459A04704220A4B1A70FFF78EFEC7
:10863000E3E75069CCE7C046B422002000100010E8
:10864000642300206C230020482500208020002087
:108650007023002074200020F0B58027274C7F0570
:10866000237839699A00D3189B00E3181A89DD88AA
:108670001B69AD18ED18090483B0090C281C03F020
:10868000D7FD1F4B0E1C5869431C35D039690904AE
:10869000090C03F047FD80235B05196901380904C3
:1086A000090C4143174B89191A68281CFFF78CFDE8
:1086B000021E06D0112806D10823134A11680B4365
:1086C000136003B0F0BD23789800C018800026180E
:1086D000301C0E4CF36824685D003179ED18736925
:1086E00000940B4CAD000C302C59A0470422094BD0
:1086F0001A70FFF72BFEE4E77869CCE748250020E5
:1087000000100010682300206C230020802000202F
:1087100070230020742000200823F0B54D46444605
:108720005F4656461A1CF0B4764D85B02C68224040
:1087300091465FD1744F3E78B30003939B199B0021
:10874000FB181A69511EDA881B898A18D3180293FC
:1087500080235B059B4619696C4B1B689846002B70
:1087600057D16B4B1B689A4680235B0519690298A9
:108770000904090C03F0D6FC824500D29AE0434676
:1087800000D18FE0002B00D08EE0039B9C46664416
:10879000B600BC192179042900D1ACE0201CE368A3
:1087A0000C305A00D21863695A4C92002468009425
:1087B000594C14590022A047414602203A789300B0
:1087C0009B189B00FB181971D86041464046D98020
:1087D0001861586118817B780132013BD2B27B70FD
:1087E0000A2A00D181E03A7000224C4B1A70FFF740
:1087F000ADFD07E09C434A4B4A4A1B782C609B0026
:108800009B58984705B03CBC90469946A246AB465B
:10881000F0BD3F4B09041B68090C02989A4603F00F
:1088200081FC5045A0D14A463F4B1A6001234A467D
:108830001C433B4B2C601A703C4B5869431C57D06F
:108840005B4619690904090C03F06CFC031C8022C7
:108850005205106911690004013B000C09045843DA
:10886000090C03F05FFCFFF7ADFC021ECAD0112813
:108870002DD03B789800C01880003D18EB685C0054
:10888000E418281C29796B69224DA4002D680C304E
:108890000095214D6459A0470422204B1A70FFF720
:1088A00055FDAFE7002B05D003221D4B1A70FFF7D3
:1088B000D3FEA7E700221C4B50461A60184B023229
:1088C0001A70FFF77FFC021E9CD0112804D10823E8
:1088D0002A6813432B6095E73B789900CB189B00DF
:1088E000FD18E9684C006418CBE700233B707BE778
:1088F0005B465B69ABE70122084B1A70FFF726FD68
:1089000080E7C0466C230020482500206823002013
:10891000B42200208020002070230020742000203A
:108920007C20002004C601006423002000100010F9
:1089300030B5154B83B01868FFF744FC021E06D013
:10894000112806D10823114A11680B43136003B0A4
:1089500030BD0F490B789800C01880000D18281CF6
:10896000EB6829795C00E4186B690A4DA4002D6856
:108970000C300095084D6459A0470422074B1A702B
:10898000FFF7E4FCE3E7C046B42200206C2300209C
:108990004825002080200020702300207420002023
:1089A00030B5244B83B05869431C3ED080235B050F
:1089B00019690904090C03F0B5FB041C80235B054D
:1089C0001869196900041A69000C631E58431A4B90
:1089D00009041B68090C92B292085943FFF7F4FB93
:1089E000021E06D0112806D10823144A11680B4331
:1089F000136003B030BD12490B789800C018800096
:108A00000D18281CEB6829795C00E4186B690D4D82
:108A1000A4002D680C3000950B4D6459A04704222A
:108A20000A4B1A70FFF792FCE3E780235B055C6951
:108A3000C4E7C04600100010B42200206C230020C0
:108A40004825002080200020702300207420002072
:108A500080218023184A8902D1508022D221174BCD
:108A6000520289005A5040395A5001222F205A6030
:108A70000138C046C046C046C046C046C046C04693
:108A8000C046C046C046C046C046F1D19A600023E9
:108A90000B4A2F2013600138C046C046C046C0466E
:108AA000C046C046C046C046C046C046C046C04696
:108AB000F1D1044A1370704700E100E0001001405A
:108AC0006022002064200020F0B54D465F465646E7
:108AD0004446F0B4B84BB94A9946B9491B6887B0C7
:108AE000019309781378994200D15EE10133DBB23A
:108AF000022B00D100231370B24A9B0094466344BA
:108B00005B6800929B464A46019B5B441B021B0A22
:108B10001360012303930021AB4AAC4B12789C46AF
:108B20009246009A1B68127B05930492A84A02920F
:108B30005546013DEAB29246FF2A54D05246D4002F
:108B4000029A12689046444420786678B042EFD08A
:108B5000656842001218A8460130A578C0B22D1AE7
:108B60006F1EBD41D2006D42424428401578022D4F
:108B70000BD0032DEAD1002BE8D01974DB69002B50
:108B8000FBD1624613606678E0E75768002B28D077
:108B90009F4217D01D1C00E0151CEA69002AD5D0A1
:108BA0009742F9D1AA4200D1DAE01668D269EA61A7
:108BB000002AE8D0136898466346464416606678F3
:108BC0001B68C3E71A1C6546DB692B60151C002B6C
:108BD000EBD101267F4DAE604D4604962B60151CEF
:108BE000E3E70023B2E76A460293127C009B1A7304
:108BF000039B002B00D0B5E0029A059B00259B1A31
:108C00005A1E9341DBB203936F4B00271B7801265A
:108C10000193009B1B7B04936D4B98466E4B9A46C9
:108C2000019B013BDBB20193FF2B00D186E0424662
:108C30001268DB0093469B44002D25D06B68A86822
:108C40002C1CED694A4611685A1A1202120A524542
:108C500049D813186246236010686760A7602674BD
:108C6000E76100284ED00168994204D358E01168AA
:108C700099425BD2101CC2695B1A002AF7D12360AB
:108C8000E261C461002DD9D15846037842789A42F6
:108C9000C6D041685A008B46D21881780133D20081
:108CA000DBB25A440370994246D013785468012BC2
:108CB000EBD1217C0029E8D1936883466360D068BA
:108CC0000591A0601169E1605269A261049A002ACD
:108CD000B8D0059B4A466360002311685A1A1202F5
:108CE000120A5245B5D9CB1A1B021B0A83420CD279
:108CF0006246C31A236010686760A7602674E76144
:108D00000028B0D163461C6096E763462760186868
:108D10006760A7602674E7610028F3D0002301682C
:108D2000CB1A03606346E0611C6085E7C91A1160D5
:108D30002360E261C461A5E70570B6E76346029A65
:108D40001B6893424AD1039A002A47D10023009A14
:108D5000137307B03CBC90469946A246AB46F0BDA3
:108D60002A1C30E7029E0025002200205946002ED2
:108D700016D033688B4200D994E0C91AD2186346E2
:108D8000F469F76830601C60002F07D0F561351C6E
:108D9000019BB760D3181B021B0A7360261EE8D123
:108DA00000230293013303932EE700239B46039392
:108DB000044B0093AFE6C046602200205C220020F6
:108DC0005D220020642000208C20002058220020FA
:108DD0006426002000100140FEFF7F00002B00D120
:108DE0005DE01D683349344B0098CC584B461B68F6
:108DF0000078E21A1202120A033200282DD0AA4289
:108E000000D22A1CA820D21812022A49130AC00034
:108E1000294D0B504A591B1B121B1202120A1B022E
:108E200003321B0A9A4200D890E74B590B502F206F
:108E30000138C046C046C046C046C046C046C046CF
:108E4000C046C046C046C046C046F1D180218023FE
:108E50001A4A89025B00D15078E78020D12640026F
:108E6000B6008851403E8851C02780261348B6027C
:108E70007F00C651066001262F200E600138C046D3
:108E8000C046C046C046C046C046C046C046C046B2
:108E9000C046C046C046F1D100990E70AFE7FFF75B
:108EA000D7FD53E75B1A336063461B6802930123C7
:108EB0000393A9E6001001400405000000E100E072
:108EC000BFF34F8F024A034BDA60BFF34F8FFEE7C9
:108ED0000400FA0500ED00E0A021F0B500234746AC
:108EE000294A490080B4535004315350043153503F
:108EF000043153504C39535004315350234B1B68A9
:108F0000002B3AD02249002652582249224F0C68A1
:108F1000141B00222402240A904602E0002D16D0E1
:108F20002B1C1A68A24212D8A41AB6181A7CDD6942
:108F3000002AF3D0424699691A745A693B68002B9B
:108F40001ED0101C98470028E8D0FFF7B9FF134B3C
:108F500013491A780B789A4205D10132D3B2022B09
:108F600000D100230B700F4A9B00D3185E60802154
:108F700080230D4A49035B00D15004BC9046F0BDEC
:108F8000081C9047CAE7C046001001405822002044
:108F90000405000060220020882000205C220020C0
:108FA0005D2200206420002000E100E0F8B5464684
:108FB0004F46C0B41D4D08AC24886E78A4460424E6
:108FC0000A2E2DD02C78A046A419092C00DD0A3CCD
:108FD00014277C432C196261221C20710C32B94683
:108FE00081C981C2E380634623810024104B01368E
:108FF0001A786E70A24213D142464F465743ED197C
:109000000C4AE98811602A79032A07D0042A05D07E
:10901000012A05D11A70FFF799F901E001F0E0FC8F
:10902000201C0CBC90469946F8BDC046482500203F
:1090300074200020802000203CDF7047F0B54446BB
:109040005F4656464D46FF23F0B4C34A93B01278AC
:10905000041C0793002A27D0C04A90461268914604
:10906000002A21D008AD09AE6B70AB70EB70031D08
:1090700073602A233381002302882B70102A00D1C9
:1090800080E2B74F8388B87A9C46830700D5CBE04F
:10909000FF2304930393111C113989B2412904D889
:1090A000B04B890059588F462288112A00D181E09F
:1090B00000D86CE0122A45D0502A4BD1AA4BE18847
:1090C000DA89914257D1E28B022A54D11E32A15C37
:1090D0001F3A0A403BD1A5490968002900D19AE30B
:1090E000A34D6869002800D195E32A74A14A102095
:1090F0005268D205D20D01D000F0C3FC08184278A6
:109100008178561CF6B2891B4F1EB94149420E4068
:109110000178B14201D100F0A5FC51008A184168E4
:10912000D2008C466244002A01D100F09BFC02234D
:10913000802113705560904A4903FE334670D15028
:10914000228807E0A11D8D48082203F0A6F902F04D
:10915000BBFE2288102A15D0112A00D07BE0012204
:109160000021874B52421A80864A5B881170A28880
:109170009A4200D100E213B03CBC90469946A24608
:10918000AB46F0BDA2887E4B1A805A80F3E7102AC6
:10919000E2D1211CA2887C4B78481A801631082223
:1091A00003F07BF90022794B1A706F4BDB89002B9F
:1091B000CFD1CCE70122744B52421A800023734A6C
:1091C00013706A4A106800283CD0694D6A69002A09
:1091D00038D02B74674B10225B68DB05DB0D00D0A9
:1091E000FDE2801843788278591CC9B2521A561E83
:1091F000B2415242114002788A4200D12BE25A0019
:10920000D3184268DB0094466344002B00D122E26D
:1092100002225D601A70417080238021564A490302
:109220005B00D150228895E7594B9C4503D03B8980
:10923000634500D02CE7FB7A0393AB7000236B707F
:10924000049328E70820484B9B69002B00D180E756
:10925000984722887EE7192A01D000F05DFCA279A8
:10926000002A00D087E74B4B1B78022B00D1BBE1D3
:1092700000D8B0E1032B00D16FE1042B00D07AE7D6
:10928000454B1A70454B1B68002B00D173E700203B
:10929000984770E70222031C0821934301401A1CDF
:1092A000BB728A46002900D1A4E152B2002A00DA3A
:1092B0003DE31023BB720233337000239B46281C0E
:1092C000311C5A46C8473378122B00D0ECE6BB7AE3
:1092D000012B00D1E8E60123BB72023B07223B8150
:1092E000FB72381C0021FEF763FF2288DDE61323A2
:1092F00033700423F97A1843B872FF2900D145E28C
:10930000162300211A2226483370FEF751FF40230E
:10931000BA7AF97A1343BB7200239B46214B9A46D3
:109320000022CB00591A204B890051440C931F4B4B
:109330000F92109111920D920E9298461A1CA088CD
:1093400000210CAB02F052FC002800D0ACE64346F2
:10935000043B1B689946B2E7C3220020AC230020DF
:10936000A4240020DCC40100202500206426002065
:109370006826002000ED00E000E100E05C2600200F
:10938000602000204A2600201C2500201E250020E9
:10939000FFFF00004425002049260020442600202D
:1093A00090230020C023002088240020B023002028
:1093B000FB7AFF2B00D15EE2A84BA9499A465246A0
:1093C0006046002302F010FC22886EE613233370FF
:1093D00000239B4673E7434601215A7A8A435A7217
:1093E000042214239043B8723370A3799B46002B58
:1093F00000D051E1E3799C4600239B4663461A4224
:1094000000D15CE7039BFF2B00D158E708221043F3
:10941000E27AB872930708D5039B9048DA00D21A13
:1094200092008218907E88439076FA7AFF2ACFD0F5
:109430008A4B3A789A46039B022A00D105E3DA0068
:10944000D11A89003B6851440B61BB88887E8B82AE
:10945000BB798B75022398438876824909684B074C
:10946000B6D5814B1B689B46012BB1D87F4B0C2195
:109470009C465B4659436346CB58002BA8D06144B9
:109480000B89039858438446774840688444488948
:1094900049685843401884459AD25B460C9363460A
:1094A0000C210D93049B4B43FB1871499B7A8B460F
:1094B0005B0601D46F4B9B460CAB9946039B484619
:1094C000D11A8A005244111C00231C22D8470028BC
:1094D00011D16A78403053009B189B00FB18997A91
:1094E00081439972D3009B1A5D499B0059184846E5
:1094F0001C221C23D8472B7848465A00D3189B00BF
:1095000043449B7A5C4A9B009B58291C98474346DE
:109510001B6899465CE7A379112B02D1030700D59C
:1095200097E180235B421843953333704346B8720A
:109530009B7A524A9B009B58281C984743461B68BD
:10954000994600239B46BAE643469B7A4B4A9B00CA
:109550009B58281C98472288A7E5494A0420137085
:1095600002F046FB002800D105E6464B1B68002BA5
:1095700000D100E69847FEE5012002F039FB002803
:10958000F3D1F8E50121404F8946BA7A114200D162
:10959000FFE50222BA720F3232706B7083880A3A8A
:1095A0003B81831D191C381C9B4602F076FF4A46FE
:1095B000237D1A4200D134E1344A5B08D35CFF2B8F
:1095C00000D191E10A220793FB72BA72281CAB709A
:1095D00001F0D6FFB2E7012B00D0CCE5022002F06B
:1095E00007FB0028C1D1C6E5032002F001FB0028DB
:1095F000BBD1C0E5039AFF2A00D15AE6D3009B1ADB
:109600009B009946154B00219B464B44181CD9449E
:1096100006221130FEF7CCFD484600211022FEF74D
:10962000C7FD4946FF230B748B76013BFF3B9C46ED
:109630000123624603980A838340154A11689943BF
:1096400011605146134B8200D1506346AB704346C4
:109650001B6899462DE60420F5E5C046C02300208E
:10966000882400206C230020B823002070230020D1
:10967000DDA401006DA50100F4C50100E4C50100F1
:109680004926002084200020A4240020BC220020A1
:1096900084240020B0240020FB7A9A46D74B1B6814
:1096A000134200D10BE6D64B1A689C46012A00D91A
:1096B00005E60C235343D3481958002900D1FEE591
:1096C000C31805931889534661464343496804907B
:1096D0005B180393059B049958685B894B431918E1
:1096E000039B05918B4200D3E9E50C9203220D9375
:1096F000134200D0E3E5181A049902F099FD0029FD
:1097000000D0DCE57420049902F092FD8AB2002AB0
:1097100000D0D4E5039B05997433994200D2CEE57D
:10972000009203200CA97423FFF740FC002827D1E6
:1097300053465246DB009B1A9B009946B24B0021D0
:10974000181C9B4648440622D9441130FEF730FDD0
:10975000002110224846FEF72BFD4A46FF235146C2
:1097600013749376013BFF3B138302338B40A74A6C
:1097700011689943534611600021A54A9B009950F6
:10978000A3799B4643461B68994698E59E4B9A46AB
:109790009B7EFF2B00D197E136235246D35CFF2BF3
:1097A00000D18FE15223D35CFF2B00D192E16E23D5
:1097B000D35CFF2B00D18BE18A23D35CFF2B00D13C
:1097C00084E1A623D35CFF2B00D18FE0C223D35CBE
:1097D0000622FF2B00D18AE08E4B9B46A0E5103B72
:1097E000D9B24AB2002A00DA24E192088A49C0328A
:1097F0009200525803210B40DB00DA4013069B0F06
:10980000DBB20022012B00D1EBE40832032B00D1A4
:10981000E7E40832E5E408209B69002B00D017E557
:1098200097E47E4B9A46002399463B1C4F46A1463F
:1098300054469A46201C5946072202F01FFE002873
:1098400000D111E101371C34072FF3D14C465746A4
:1098500074E61A2272480021FEF7AAFC1623337020
:109860006023BA7A1343BB7243465A7A02231343E6
:109870004246537262E6644AE3899246128B9A42E8
:1098800000D147E15246928E9A4200D140E15022E7
:1098900051468A5A9A4200D138E16C228A5A9A4239
:1098A00000D131E188228A5A9A4200D12AE1A422C9
:1098B0008A5A9A4200D123E1C0228A5A00219A4250
:1098C00000D07CE506230822DBB21043FB72B8729D
:1098D000281CAB7001F054FEFB7AFF2B00D10BE18A
:1098E000A38850499C466AE50A226DE605223B782A
:1098F000022B00D1E3E0D300991A89005144081CDF
:1099000010308446386808616046B9888180B9792A
:109910008171FD219B1A9B005344997607AB1A7005
:10992000079BD9B20023A970F9729B46F8E4334A29
:109930001268530700D4BCE431490868012800D9F3
:10994000B7E4304B9C460C231A1C9B4663464243AB
:10995000D358002B00D1ACE4131C634405931B893E
:1099600049689A465246039B53439C46059B614473
:109970005B899C465346624653439C46059B5A6806
:109980006244914200D394E45B46049A0C905343A2
:109990000D91FB18244A9B7A92465B0601D4234B17
:1099A0009A460CAB9946039A1749D3009B1A9B0021
:1099B000591848461C220023D04700280ED10C23FA
:1099C0006A7840305343FB18997A814399721C237B
:1099D0005A431449484651181A1CD0472B78484618
:1099E0005A00D3189B0043449B7A114A9B009B5812
:1099F000291C984743461B6899465AE46C2300206B
:109A0000B823002070230020C023002084240020DD
:109A1000B02400204380000000E100E0D0230020BB
:109A20009023002088240020DDA4010069AD0100FE
:109A3000F4C501000F233D4A0B409446083B9B08A8
:109A40009B0063445A680323D5E6DA00D11A384BE9
:109A500089005B8A51440B830123081C897E99434A
:109A60008176FAE40420D7E64C46B9464B466A466E
:109A700007934B4657461373137B0822B97A0A4360
:109A8000A2E5103AD6B270B2002825DB8008294E34
:109A9000C0308000805903263240B240D040C2B26C
:109AA0009209D2B20020012A01D1FFF727FB08302A
:109AB000032A01D1FFF722FB0830FFF71FFBFE212D
:109AC000D30027E7012212E7002210E704220EE765
:109AD00003220CE702220AE70F2214483240844690
:109AE000083A920892006244506803223240D20041
:109AF000D040C2B29209D4E7A38800219C465EE41C
:109B00000523E0E60423DEE60323DCE60223DAE6AF
:109B10000123D8E60023D6E6102A01D0FFF72BFB5D
:109B2000A288054B5A80FFF726FBC04618ED00E0DF
:109B30008824002000E100E06020002008B5002813
:109B400000D008BDFFF778FA0028FAD0FFF7B8F97F
:109B500008B5FFF7B5F9C04608B50378002B00D06B
:109B600008BD044B3B21188800F038FF0028F7D0CF
:109B7000FFF7A6F96020002048DF704760DF7047DC
:109B80007CDF70477ADF704708B5002A01D10020DA
:109B900008BDFFF795F9C04670B5294C0425237818
:109BA00082B01A1CAA4316D0022825D0032812D14D
:109BB000244A126812071FD4626801326260032AC5
:109BC00027D0022B1FD0FEF7C1FB1F4B1A78002AAB
:109BD00005D102B070BD02380128FAD8F5E700229D
:109BE0001A701A4B187802F003F80028F1D0236994
:109BF000002BEED09847ECE700F0BAFF124B1A7832
:109C0000002AE6D0EBE7237A114A9B009B5898473D
:109C1000DBE71048027893009B189B00C618301CA5
:109C2000F268736951008A183179E66892000096EB
:109C3000094E0C3096590D22B0472570C3E7C04637
:109C4000742000206C2300201426002044250020CE
:109C500004C601004825002070230020F0B55646B8
:109C60004D4644465F46F0B4B1B0FEF7F1FE032224
:109C7000D34CD4492276221C1C320A60211C343178
:109C800000232162242105226354013163540131F0
:109C90006254211CAC31A1622C21635489460131EC
:109CA000635401316254A277221C8026C0202532E1
:109CB000FF322263C44A3A31535488460131535427
:109CC000C2497603400053666361237763770E5081
:109CD0009530FF308446FF2567460858A8433F3D2E
:109CE0002843C851A1200E60B94EC0003350F93846
:109CF000FF388446085882465746B6483840C02741
:109D00003F0238436746C851B34900207158D166B5
:109D1000B24970320A604821B14A1180B14AB24951
:109D2000136001F0DBFB002801D0FFF7C9F8012325
:109D30009A465246AD4B16301A7001F0D1FB011E07
:109D4000F3D107AE0822301CFEF732FA52463378C0
:109D5000301C1A433270FFF711FF0028E5D1494645
:109D6000A34AA44B1A60A44AA44B1A60A44B022233
:109D70005854402158548918585289185852103153
:109D8000187058701871D880DA601861586118819D
:109D9000187658831A62586298629883D8855A63F5
:109DA0009863D86318869A64D864186558548918DB
:109DB000585289185852414658546A2158528918A5
:109DC0005852103158548918585206315A5004319B
:109DD0005850043158500C39585210315854891881
:109DE000585206315A5004315850043158500C39E9
:109DF0005852103158548918585206315A5004316B
:109E00005850043158500C39585210315854DA65B2
:109E10001A675A518918C232985004321866586627
:109E200058679867585298500C3A9852754B188753
:109E30009B46754B5869431C00D1B8E280235B05F3
:109E4000196989B202F06EF980235B051B6903383A
:109E50009BB2002558435B46D8631D646B4B6C482E
:109E60001D601D815D81DD609D82DD825B465D64DC
:109E7000684B291C994604234A461360664B072207
:109E80001D605D729D7201238372023B98460381BF
:109E90004346C37225706560FEF78AF95F48291C46
:109EA0002422FEF785F95E4B5E4E9A4601231F1C65
:109EB000301C00210622FEF77BF9301C10221138DD
:109EC0000021FEF775F9FF22731E1A707272424666
:109ED000F31D1A803B1C5246AB4012681C369A4355
:109EE000131C52461360504AAB0094460022634450
:109EF0001A605B4642464833EA540135072DD7D1F4
:109F00004B461B685B0700D40FE78022520513699C
:109F10009BB2732B00D808E75B46DD6B3A4B586960
:109F2000431C00D147E2116989B202F0FBF880229C
:109F3000CB215205136901389BB24343890069184C
:109F4000994200D9F1E65B461B8F9846022B00D15F
:109F5000EBE64146354B364822C30C2359439A461B
:109F60002A4E2A4B70505B18742119816D395D603F
:109F70005981304B10699C46116980B289B26044A6
:109F8000166902F05FF95B46B6B270434519DD63AE
:109F900043465A460133138759464F230122CA5478
:109FA00000231F1C53460426039304239A464B4662
:109FB0001B68334240D100224F235946CA54B4E6AD
:109FC0007420002064260020F421002000E100E03D
:109FD00000100140FF00FFFF04050000E024002006
:109FE000DC240020CC2400206DAD0100D024002012
:109FF0003D900100D8240020999B0100D42400202A
:10A00000482500207422002000100010702300203A
:10A01000A42400206C230020AC23002088230020EF
:10A0200084240020D1230020B0240020B823002065
:10A0300005AF01002B030000E04B1B68012BBAD8D1
:10A04000039ADF495A43895802910029B3D0DC4969
:10A05000DA4D8C46391C6D686244AC460295108915
:10A0600055894143454352686144AA189142A2D29E
:10A0700022931C38D34B80B2239198429BD8032360
:10A080000B40984697D11C257D43CF4B1C22ED18E1
:10A09000281C02F002FA229A039B22A853431C2296
:10A0A0000092C74A02219B5842469C462B1CE0471F
:10A0B0003B1C01331F1E072F00D076E702AA9446EF
:10A0C000292363444146181C05220126FEF770F837
:10A0D00002220BAD6B799046334393431A3293437C
:10A0E000103A1343143293436B71594610232F32A5
:10A0F0009946EB718A5CB54BAF710B932E71002AB8
:10A1000000D112E6B24A1568002D00D00DE6101CF1
:10A1100002AA944608C029236344191C052202F0B0
:10A12000BCF94246AA4B9E721B7AB3431343524674
:10A130009343A74A1372D37942463343134352469B
:10A140009343A34AD3715A465023D5544B463343C5
:10A15000A04E04AD301C2B7002F0A8F9311C82B265
:10A16000281CFFF70DFD002800D0DEE509AD281CF6
:10A1700000210822FEF71CF850232B80DB186B808F
:10A180000023AB809133FF33281CEB80FFF7FAFCF0
:10A19000002800D0C9E590490EA81431102202F021
:10A1A0007CF98E4B06AD2B8002AB12219C460EA88B
:10A1B000614401F0B1FF002800D0B6E50130291C50
:10A1C00005AA01F0ABFF8046002800D0ADE541466E
:10A1D000382222A8FDF7ECFF8021022302AA5218A0
:10A1E0001370033102AA19AE043352181370301CD5
:10A1F00041462422FDF7DCFF4246794B79491A702B
:10A20000794A7A4B1A604346236101233373313311
:10A210001D9382331E930A1C331C13CB13C213CB22
:10A2200013C213CB13C2414607227148FDF7C0FF8A
:10A230005A46704B54321A605A466F4C743241463B
:10A240009A60201C3822FDF7B3FF802202AB9B18D6
:10A250001B780232237002AB9B181B780132A3706B
:10A2600002AB9B181B78023AE37002AB9B181B7879
:10A2700026AA6370231C103303CA03C3231C24AA19
:10A28000083303CA03C3231C28AA183303CA03C311
:10A290002B9E002E14D0594A4146131C143363627E
:10A2A000131C2033D36133889382B588158305E06E
:10A2B000B368585C131C2033C8540131A942F7D34A
:10A2C0002C9D002D1BD04D4A131C4C339364131C42
:10A2D0004033A362AE889E8040232988D152002358
:10A2E00005E0A968C85C111C4C3158540133B342D5
:10A2F000F7D380212C2302AA5218D25CE2542A9B65
:10A30000002B08D03D4A111C6C31216258884880CE
:10A3100019886C23D152239B002B00D0636001F07D
:10A3200089F9051E00D000E512AC201C291C1C2256
:10A33000FDF73EFFA0239B026360F0231B03A36095
:10A340002F4A304B03266361131C2F491295267345
:10A35000E5812574A16185CC85C385CC85C3196051
:10A360002A4B2B481D7001F05BFE002800D0DCE476
:10A370000122284B52421A80274B1870274B1B682A
:10A38000002B00D1D1E4264B1A7C002A00D0CCE46B
:10A390001A745A74234A301C5A6101F029FC0028AF
:10A3A00000D0C2E4FFF7E8FB0028FBD0BDE4802327
:10A3B0005B05586948E55069B9E5C046B8230020F7
:10A3C00070230020E3FF0000C0230020899B0100D0
:10A3D000AC23002028C6010004C60100CDABFFFF5E
:10A3E00044250020202600203D9B0100442600201B
:10A3F000182600204C260020E4240020F42200200F
:10A4000020250020599B0100519B01008826002037
:10A410003C2500201C2500201E250020642600204D
:10A42000682600206DBB0100082170B50C1C244A71
:10A4300082B013681C4009D08B431360214B224A21
:10A440001B789B009B58984702B070BD1F4D2B781E
:10A450009800C3189B00EE18317904292AD0F268BD
:10A46000736950008218301C194E920036680C3007
:10A470000096184E96590022B04702202A78930081
:10A480009B189B00EB181C71DC80D8601C615C6120
:10A490001C816B780132013BD2B26B700A2A06D064
:10A4A0002A7000220C4B1A70FDF750FFCCE70023F6
:10A4B0002B70F6E70122084B1A70FDF747FFC3E740
:10A4C0006C2300207C20002004C6010048250020C9
:10A4D000802000207023002074200020F0B5474623
:10A4E00080B4204C051C246882B00820640703D483
:10A4F00002B004BC9046F0BD002930D0002D2ED013
:10A500002C680138012CF3D867003C19164EA400C2
:10A51000A759002FECD06F683419BC46268967898B
:10A52000B04677436668BC19A445E1D2002ADFD063
:10A530004245DDD8D418A045DADB09308C07D7D1E5
:10A5400003242342D4D166462642D1D1181C131CC1
:10A5500000900A1C0420291CFEF728FDC8E70E20E5
:10A56000C6E7C0466C23002070230020F0B54746A4
:10A5700080B4204C051C246882B00820640703D4F2
:10A5800002B004BC9046F0BD002930D0002D2ED082
:10A590002C680138012CF3D867003C19164EA40032
:10A5A000A759002FECD06F683419BC4626896789FB
:10A5B000B04677436668BC19A445E1D2002ADFD0D3
:10A5C0004245DDD8D418A045DADB09308C07D7D155
:10A5D00003242342D4D166462642D1D1181C131C31
:10A5E00000900A1C0120291CFEF7E0FCC8E70E20A1
:10A5F000C6E7C0466C23002070230020082230B537
:10A600001E4C83B023681A4215D19A0702D5012245
:10A610001343236002221A4B1A701A4B1868FDF775
:10A62000D1FD021E05D011280ED108232268134344
:10A63000236003B030BD93432360114B124A1B7853
:10A640009B009B589847F4E710490B789800C01876
:10A6500080000D18281CEB6829795C00E4186B69F0
:10A660000B4DA4002D680C3000950A4D6459A0478D
:10A670000422094B1A70FDF769FEDAE76C2300200B
:10A680007C200020B422002004C6010048250020C0
:10A69000802000207023002074200020082230B584
:10A6A0002B4C83B023681A4209D093432360294B73
:10A6B000294A1B789B009B58984703B030BD254B17
:10A6C000073A1A70254B5869431C3CD080235B0520
:10A6D00019690904090C01F025FD051C80235B059F
:10A6E0001869196900041A69000C6B1E58431C4B49
:10A6F00009041B68090C92B292085943FDF764FDE6
:10A70000021EDAD0112804D10823226813432360E3
:10A71000D3E714490B789800C01880000D18281C46
:10A72000EB6829795C00E4186B690F4DA4002D6873
:10A730000C3000950D4D6459A04704220C4B1A7043
:10A74000FDF704FEB9E780235B055D69C6E7C046F7
:10A750006C2300207C20002004C6010000100010A3
:10A76000B4220020482500208020002070230020F3
:10A7700074200020F0B5564644465F464D460823F7
:10A78000F0B48C4E83B03468234200D095E08A4BFD
:10A790001A68571C1F60894B1D689A46002D51D1BD
:10A7A000874B802299461B7852059D00ED18AB001F
:10A7B000984608234D469B464544AB445B469B6800
:10A7C0001169581EEB880904C0182B89090CC018A0
:10A7D00001F0A8FC874200D284E0534600D17DE01E
:10A7E0005F68002F00D19AE001231A1C224000D09C
:10A7F0008FE01C43734B34601A70734B5869431CD1
:10A8000000D1BCE080235B0519690904090C01F043
:10A8100089FC031C80225205106911690004013B68
:10A82000000C09045843090C01F07CFCFDF7CAFC3C
:10A83000021E4AD0112800D0A5E008233268134335
:10A84000336042E004215F4B197080235B051C6973
:10A850002404240C54435C4A5069421C3CD01969BE
:10A860000904090C01F05EFC80235B0519690138BD
:10A870000904090C41432A1C201CFDF7A5FC021EFB
:10A8800023D01128D9D04E4801788B005B189B004B
:10A89000C518281CE9684C006418A40029796B6964
:10A8A0004A4D0C302D680095494D6459A04704224B
:10A8B000484B1A70FDF74AFD07E09C43414B464A5E
:10A8C0001B7834609B009B58984703B03CBC904673
:10A8D0009946A246AB46F0BD5869C5E75B68002BB8
:10A8E00000D081E70222374B381C1A70FDF76AFC52
:10A8F000021EEAD01128A0D04B461B789900CB1835
:10A9000049469B00CD18E968281C4C006418A40037
:10A91000C4E703222B4B1A70FDF79EFED5E7297979
:10A9200004293DD05B464046284C5B6824685A00A9
:10A93000D2186B690094264C920048440C3014598C
:10A940000022A0474B4602201A78494693009B18E4
:10A950009B004B441F71DF80D8601F615F611F81C6
:10A960004B465B780132013BD2B24B700A2A1DD0B4
:10A970000A700022174B1A70FDF7E8FCA5E7802348
:10A980005B055B6946E74B461B789800C0184B4651
:10A9900080001D18EB68281C5C00E418A4007DE70B
:10A9A00001220C4B1A70FDF7D1FC8EE700230B70CF
:10A9B000DFE7C0466C230020B4220020642300207F
:10A9C000482500207C20002000100010802000205E
:10A9D000702300207420002004C6010076DF704739
:10A9E000F0B55F4656464D464446F0B45B4B5C4876
:10A9F0001A78802791008A1892009B18DD681E69DA
:10AA00006A00521992008218148950895268604372
:10AA100080469044DA881B89141C9946514B924613
:10AA20009B4600235A467F05396983B009044C448C
:10AA30005360090C301CA41901F0FAFB002924D141
:10AA40003B699BB29A4537D044456CD0032D33D037
:10AA5000301C3969484489B201F0EAFB5B46890839
:10AA600019603969201C0904090C01F0E1FB002977
:10AA700032D102223C4B1A70FDF768FC03B03CBC9B
:10AA800090469946A246AB46F0BD032D14D0301C2B
:10AA9000396948440904090C01F0CAFB5B4689087E
:10AAA000196039694445E4D00904090C201C01F0FF
:10AAB000BFFB0029DDD00FE080235B051969301C46
:10AAC0000904090C01F02EFB0322284B1860264BC9
:10AAD0001A70FDF73BFCD1E780256D0529692B69CC
:10AAE0006A4699464346D380D08889B201F01AFB62
:10AAF0006A464B46A6B2D380071CD188301C01F0B1
:10AB000011FBBFB280B287421DD02C692969301C6D
:10AB100089B201F08DFB5B462404240C89B2641ACF
:10AB2000A4085C60A5E74B46002BC5D0032DC3D01D
:10AB3000301C3969484489B201F07AFB5B468908C8
:10AB400019603B6995E7434624041B041A0C240C46
:10AB5000131B5A469B0853608BE7C04648250020CC
:10AB6000702300206423002074200020B4220020E1
:10AB7000F0B5474680B4694C82B02378022B00D1EF
:10AB8000AAE0032B43D0012B03D002B004BC9046B3
:10AB9000F0BD0821624A1368194200D0A3E0614E5B
:10ABA000614933780D689800C3189B00F218D1886A
:10ABB0004D1BADB2D580002D00D099E0101CD1689E
:10ABC00053694F007F181179584ABF0012680C3042
:10ABD0000092574ABF580022B847022032789300AB
:10ABE0009B189B00F3181D71DD80D8601D615D61AD
:10ABF0001D8173780132013BD2B273700A2A00D1F1
:10AC000082E0327000232370FDF7A0FBBDE708212E
:10AC1000434A1368194266D1464B424E1A6835784A
:10AC2000571C1F6080235B051969AB0098465B19B0
:10AC30009B00F3181A690904501EDA881B898018D2
:10AC4000C018090C01F06EFA874258D353D045441E
:10AC5000AD0077193979042954D0FB687019334D48
:10AC60005A00D2187B692F6892000097304F0C3041
:10AC7000D7590022B84700210227327893009B1849
:10AC80009B00F3181971D980DF601961596119812E
:10AC900073780132013BDBB2D2B273700A2A35D02D
:10ACA000327000212448217001601F480160002B90
:10ACB00000D16AE793009A189200B618F3882B60C7
:10ACC0003379032B26D0042B24D0012B00D05CE752
:10ACD0002370FDF73BFB58E7184B194A1B789B0084
:10ACE0009B58984751E78B431360FDF72FFB4CE7C8
:10ACF000FDF76CFA49E7134B5B68002BA7D1FDF712
:10AD000025FB42E70123E3E735707BE70022327041
:10AD10000022C6E7FFF764FE37E7C0467420002034
:10AD20006C23002048250020B8220020802000202D
:10AD300070230020B4220020782000207C200020F6
:10AD400034C601006423002061DF704751DF704783
:10AD50000020704700207047002070470020704797
:10AD600000207047002070470020704708B5FEF7AC
:10AD7000A7F8C046F0B54F464646C0B42E4C83B047
:10AD800025684A7808236D0705D4181C03B00CBC4D
:10AD900090469946F0BD002844D00568013B012D3E
:10ADA000F3D86E007519AD0065196E68002EECD0F1
:10ADB0004668EF89B446AE897743B046AE68BD19A0
:10ADC000AC45E2D245461D4E5C3DADB2B542DCD845
:10ADD0002426271C654672431C37BF18043B3D439D
:10ADE0001D400D33002DD0D1884661468146321C6E
:10ADF0003831381C01F051FB4A460C23126800968A
:10AE00005343E3185B682A1C9C4648463B1C0221BE
:10AE1000E04743465B785E43A619326A013203D0AD
:10AE20000023B2E70E23B0E7DA00D3189B00E41842
:10AE300025620023A9E7C0466C230020A3FF000081
:10AE4000F0B54F464646C0B42C4D83B02A684B78C7
:10AE50000824520705D4201C03B00CBC9046994628
:10AE6000F0BD002826D00268013C012AF3D8560024
:10AE7000B2189200AA185668002EECD04668D789FE
:10AE8000B44696897743B0469668BA199445E2D29B
:10AE900042461B4E5C3A92B2B242DCD824272E1CAA
:10AEA0007B431C366446F618032334431C4003D00E
:10AEB0001024D0E70E24CEE78846614681463A1C2E
:10AEC0003831301C01F0E9FA4A460C231268009729
:10AED0005343EB185B68221C9C464846331C0221F6
:10AEE000E04743465B785F43EF193A6A0132B2D1DB
:10AEF000DA00D3189B00ED182C62ACE76C2300201D
:10AF0000A3FF0000F0B54D4644465F465646F0B4F8
:10AF10005D4D93B02C6C002C67D01C9C742C64D8B5
:10AF20001F1C5A4B91460393002302AA0A94884699
:10AF3000824613740B970024AB46042602E00134CA
:10AF4000072C2BD02B683342F9D05B46DB6C012BEE
:10AF5000F5D85A00D21892005A445168101D00903A
:10AF60000029ECD05846006D9189844601910198E2
:10AF7000D28961434243009861444068121891426B
:10AF8000DDD20591504604A90822049301F076FA17
:10AF90000028D4D1E4B203AEB47003E003AEB478B9
:10AFA000FF2C22D04346032B31D02B1C5433FB1AE9
:10AFB000C32B21D9364A131C1C33FB1A1B2B31D847
:10AFC000002373700CAB0B9318230A93083342468B
:10AFD000022A54D00222134302AA137409AB079326
:10AFE000301C2B6C06A94A46984713B03CBC9046CF
:10AFF0009946A246AB46F0BD4B462549002B0BD0E7
:10B000008B690122A24093438B612023DFE71C9BC5
:10B01000742B32D04323DFE70122A2408B69134215
:10B02000E3D0EEE7281C1C303B1A232B12D9402317
:10B0300002A90B74174B9F42ECD0A300D3185B6C92
:10B040009F42D2D13832D27A4023A242BFD10022CD
:10B050007270BCE7302302A90B74002373700133B4
:10B06000F3703832927A2F339207B0D40021242221
:10B07000FDF79EF802AB1B7CA9E72323ACE7012276
:10B08000134302AA1374A9E76C23002000FFFFFFFB
:10B090006C24002048C60100F8B546464F46C0B4AF
:10B0A0004378334ADC00E418A40080461019056A8E
:10B0B000002D0DD059002F4FCA189200BA184032F7
:10B0C000927856B2002E49DB00260025002404E0C9
:10B0D000002600250024274F5900CB189B00FB18A1
:10B0E00040331888211C2A1C331C00F079FD0B28E2
:10B0F00008D0002816D02048012E16D00CBC90464F
:10B100009946F8BD43465B78211C5A00D3189B0032
:10B11000FB18403318882A1C012300F061FD002829
:10B1200003D101260020012EE8D143465B780C2193
:10B130005A00D3189B00FF18403738880F4A00F098
:10B1400051FD0028DAD002220D4BC31893430CD0D6
:10B1500008280AD0112808D00020CFE75206B3D41F
:10B16000041CADB22434C669B7E70348C6E7C0463D
:10B170006C2300206C24002041800000FFFF0000B1
:10B18000FECFFFFFF8B546464F46C0B44378314A7C
:10B19000DC00E418A40080461019056A002D0DD0CB
:10B1A00059002D4FCA189200BA184032927856B200
:10B1B000002E47DB00260025002404E000260025A1
:10B1C0000024254F5900CB189B00FB1840331888EA
:10B1D000211C2A1C331C00F003FD0B280CD0002876
:10B1E00003D1012E15D0002002E0012E11D01B4802
:10B1F0000CBC90469946F8BD43465B78211C5A002A
:10B20000D3189B00FB18403318882A1C012300F038
:10B21000E7FC43465B780C215A00D3189B00FF18CB
:10B22000403738880E4A00F0DDFC0028DBD00222CF
:10B230000C4BC3189343DAD00828D8D01128D6D0A5
:10B240000020D5E75206B5D4041CADB22434C6693B
:10B25000B9E7C0466C2300206C2400204180000028
:10B26000FFFF0000FECFFFFFF0B5474680B488B077
:10B270001A236A4653804B78324D5A00D3189B00EC
:10B28000EB184033061C18886B460C1C9A1C01A94D
:10B29000032300F0A3FC002804D0002008B004BC65
:10B2A0009046F0BD1C2398466378274FD800C018FD
:10B2B0006B468000B844083040445A8801A901F028
:10B2C000DDF8002829D06378D900CA189200BA188E
:10B2D000126A002A34D11D4D0322CB189B00FB18A3
:10B2E000DA616B465A886378D900CB189B00FB184B
:10B2F0001A6263781C37D800C0188000083001A992
:10B30000381801F0CAF86378301CD900C9188B00CE
:10B31000F91824223823A847BFE7627853009B1806
:10B320009B00ED184035AB789B07B6D4D000801851
:10B3300082004244101C00212422FCF739FFACE7B4
:10B34000034DC9E76C2400206C2300206DA501008B
:10B35000DDA40100F0B5474680B488B01A236A46E0
:10B3600053804B78324D5A00D3189B00EB18403372
:10B37000061C18886B460C1C9A1C01A9032300F0BC
:10B380002DFC002804D0002008B004BC9046F0BD7D
:10B390001C2398466378274FD800C0186B4680005E
:10B3A000B844083040445A8801A901F067F80028E1
:10B3B00029D06378D900CA189200BA18126A002AF4
:10B3C00034D11D4D0322CB189B00FB18DA616B466C
:10B3D0005A886378D900CB189B00FB181A626378EF
:10B3E0001C37D800C0188000083001A9381801F0B7
:10B3F00054F86378301CD900C9188B00F91824223E
:10B400003823A847BFE7627853009B189B00ED18CC
:10B410004035AB789B07B6D4D000801882004244F8
:10B42000101C00212422FCF7C3FEACE7034DC9E742
:10B430006C2400206C2300206DA50100DDA4010018
:10B44000F0B5254C83B0236E002B04D0984700281C
:10B450001ED103B0F0BD6423E35C002BF9D0A66ECF
:10B46000E56E73425E416B425D417027F6B2EDB20C
:10B47000002E1AD0002DECD16A46656FE35B281CC4
:10B48000911C5380FFF760FC0528E2D000281AD0F9
:10B49000FDF716FD6A46656FE35B281C911C53801F
:10B4A000FFF752FC0528F1D1012501A8FFF74EFC5A
:10B4B00005280DD00028EBD10198A36E9847002DE8
:10B4C000E8D00125F1E7281CE36E98470025CFE777
:10B4D000002DBED10126CFE76C24002010DF70477D
:10B4E0002EDF70471F4B1B78012B00D070471E4B7F
:10B4F0001B681B07FAD1F0221C4B1B68134018D1A4
:10B500001B4B1B6813421AD0174B1B681B07EDD14E
:10B51000F022164B1B681340402BE7D1144B1B68DD
:10B520001342E3D1C12380220121DB00D205D15097
:10B53000DCE7102B0FD10E4B1B681342E8D10D4AEC
:10B540000D4B1A6080220D4B12021A60054B1B78BE
:10B55000012BD9D0CAE7302BDAD1054B1B68134237
:10B56000D6D1ECE7E00F00F0E40F00F0E80F00F0B8
:10B57000EC0F00F0DFFF07C004050040186C00402E
:10B58000F0B5474680B4274C84B0236881785B07C8
:10B5900003D404B004BC9046F0BDE36C012BF8D892
:10B5A0005A00D2189200A2185668151D002EF0D02D
:10B5B000276D9689BC46D289714372436D68614498
:10B5C00052199142E5D20293383E174B0391B6B21D
:10B5D000051C42789E4209D94034A37A134A9B0045
:10B5E000D3185B6802A8291C9847D2E71C277A4326
:10B5F0000F4E0323F619B618321C0A431A40904620
:10B60000EAD1C9193A1C301C00F047FF0C23029AFA
:10B6100000975343E3185F6802A802214246331C97
:10B62000B847D9E76C230020C7FF000048C60100D7
:10B630006C240020F0B54F464646C0B4CC4C91B0C7
:10B64000E37807205B0765D5002302AAD381636BEB
:10B65000002B64D01B78022208ADAB7003230326B5
:10B66000052104202A700F326A7002AAD381226B4E
:10B67000002A3AD0112308ADAB55013B2B54D37BA4
:10B680006B54907B4B1CE854507B8B1CE854107B14
:10B69000CB1CE854D07A0B1DE854907A4B1DE8542B
:10B6A000507A8B1DE854107ACB1DE854D0790133C1
:10B6B000E85490790133E85450790133E854107913
:10B6C0000133E854D0780133E85490780133E854DA
:10B6D000013302A8C3815078E854013302A8C38122
:10B6E0001278EA540133C3819BB22E22A25C002A55
:10B6F00000D012E22D22A25C002A00D0E8E0A2785D
:10B70000002A00D012E1E278002A19D0D91C1F29A2
:10B7100009D90C2011B00CBC90469946F0BD00260A
:10B7200002210120A3E70220012608ADE854581C9D
:10B7300002339BB280B22E54EA548BB202AAD38158
:10B740006268002A0FD01078DA1C1F2AE1D8022183
:10B750000A2608ADE954591C02339BB289B26E54D3
:10B76000E85402ABDA812389002B00D008E1238A58
:10B77000002B00D089E0238B002B00D023E1236A2B
:10B78000002B3DD002AAD2890C20911D1F29C1D8BF
:10B790001D880538052DBDD9764E774FAE19B6B246
:10B7A000B846BE42B6D95E88B146052EB2D9714FB1
:10B7B0006E46BC46CC446746F781F7894745A9D910
:10B7C0006E4FBD4203D0B94501D04D45A2D80520EA
:10B7D000122608ADA854501C80B22E54901C80B282
:10B7E00002AEF0811E8828180670360A46700432B0
:10B7F0005B8892B2AD182B701B0A6B7002ABD981BB
:10B80000666A002E2FD002ABB788DB89B91C9A1C60
:10B8100055180C201F2D00D97CE7FE2900D979E7A7
:10B82000591C08AD89B2F3300337EF5492B2685413
:10B8300002A9CA813188AA180433117098B2090A82
:10B8400002AB5170D881B288002A0CD0B1680029AF
:10B8500000D121E1281800F020FE02ABB288DB897C
:10B86000D31802AAD3812C23E15C002900D0CDE0BB
:10B870002378002B00D011E108AD02AB997B281C86
:10B880000022002300F044FC44E702AA9446261C50
:10B890000E231F276344103608AD00930197301C18
:10B8A000032102222B1C00F0BDFB002800D031E751
:10B8B00002AA94460E23634400930197301C07218B
:10B8C00010222B1C00F0AEFB002800D022E752E72C
:10B8D00009330C201F2B00D91CE706A800F01AFC26
:10B8E000002800D016E7082202ABDB8908ADEA5435
:10B8F0005A1C023398B21B2102AB9C4692B2A95447
:10B900000A39D88161440622281800F0C6FD02AB2E
:10B91000DB8902A9097C9A1D92B2002900D001217D
:10B920000733A9549BB202AAD381E8E604330C2062
:10B930001F2B00D9EEE606A800F0E8FB002800D097
:10B94000E8E60322192102ABDB8908ADEA545A1C50
:10B9500092B2A95402AA118A9A1C92B2AD18043369
:10B9600029709BB2090A02AA6970D381CBE6C0464E
:10B97000E42400207FF3FFFF7DF30000FFFF0000C1
:10B9800002AA9446261C0E231F276344083608ADDE
:10B9900000930197301C022102222B1C00F042FB75
:10B9A000002800D0B6E602AA94460E236344009312
:10B9B0000197301C062110222B1C00F033FB0028BD
:10B9C00000D0A7E6D3E602AA9446261C0E231F2722
:10B9D0006344183608AD00930197301C14210222ED
:10B9E0002B1C00F01FFB002800D093E602AA94460F
:10B9F0000E23634400930197301C152110222B1C49
:10BA000000F010FB002800D084E6B8E6A66A002EFD
:10BA100042D0B3880233FE2B00D97AE602AAD0893D
:10BA20001622904616320027914608AD4246013351
:10BA30002B54431C9BB2EA54831C9BB202AAD381B1
:10BA40003288EB181A700430120A5A7080B202ABB6
:10BA5000D881B288002A0ED0B16800291CD02818DD
:10BA600000F01BFD02ABDB89B088C01880B202ABCE
:10BA7000D8814B46E15C0137FFB28F4200D3F7E635
:10BA8000A36A7E009C46F619B6006644B38802336A
:10BA9000FE2BCBD90C203DE607203BE62288012A6D
:10BAA000FAD002AAD289901C1F2800D931E6012BB6
:10BAB00005D16378D31802331F2B00D929E61D2343
:10BAC00006AE9A1A08AD97B22818311C378000F0DC
:10BAD00027FB002800D01DE62378022B12D0012B73
:10BAE00015D0082137803388FE2B00D911E602AA31
:10BAF000D2890133AB54013292B2D318A95402AAAD
:10BB0000D381BAE633880921BB42ECD9E9E76378EF
:10BB10009F42E6D333800821E5E702201C26591C0A
:10BB200008AD89B2E8546E54191889B282420BD01C
:10BB30000FD9032A0BD0042AAED103226A5403334F
:10BB40009BB202AAD381D5E501226A54F7E7685473
:10BB5000F5E7012AA0D100226D182A70EFE7C04650
:10BB600073DF704776DF704775DF704710B5184C8C
:10BB7000184B208882B0984212D0A378227C0133DF
:10BB8000DBB2A3709A420DD20023A370237D002B59
:10BB900013D1A369002B03D0002201A8027098479B
:10BBA00002B010BD211C2031FFF7DEFF0028F7D0C6
:10BBB000E369002BF4D09847F2E73B21FFF7D2FF6F
:10BBC0000028E6D0E369002BE3D09847E1E7C046C0
:10BBD0001C250020FFFF000065DF7047AADF7047CB
:10BBE000A9DF7047A7DF704782DF70477FDF7047AC
:10BBF000282370B5AF4D86B0E854AF4B1B685B0788
:10BC000000D5A2E0AD4E0021301C07227C30FCF7AD
:10BC1000CFFAAB4C6379002B5BD02823EB5C012B74
:10BC200005D0A279002A00D11BE1022B0FD1A26A14
:10BC3000002A00D126E101212C230820E15490475D
:10BC40002823EB5C012B00D1A3E0022B4DD0227CFA
:10BC5000002A01D1032B6CD0227F002A01D1042BB2
:10BC60006DD0A26A002A03D0033B012B00D8B2E0BA
:10BC700000222F23E254182268460021FCF798FA8C
:10BC800000236A46137013722822AA5C019303935F
:10BC9000022A00D1D8E065D9032A00D1BFE0042AE6
:10BCA00000D0B9E06B46228C1A82A28C5A82231CE7
:10BCB00030331A79002A00D1D9E02379002B04D03F
:10BCC0002E23E35C002B00D1DFE004222D23E2547D
:10BCD00052E0A379002BB3D02823EB5C022BA6D033
:10BCE000012BB4D102222823EA54A379002B19D0C6
:10BCF000331C7C335A78002A00D0C1E09A78002A9D
:10BD000000D0BDE0DA78002A00D0B9E01A79002A24
:10BD100000D0B5E05A79002A00D0B1E09B79002B21
:10BD200000D0ADE028230322EA54237C002B00D06E
:10BD30009BE028230422EA54237F002B47D10023D1
:10BD40002822AB540532A35492E72B1C2C335B788A
:10BD5000002B00D156E7012178230020574AD15407
:10BD600006B070BD012A57D169464B820B822D2344
:10BD70007C3601960A70E2546846FFF7F1FE00280F
:10BD8000EED1A36A002B02D02D22A05C98470020A0
:10BD9000E6E76279002AA5D0321C7C32517800296E
:10BDA00000D05EE79178002900D05AE7D1780029C9
:10BDB00000D056E71179002900D052E751790029C7
:10BDC00000D04EE79279002A00D18BE749E7A26ABA
:10BDD000002A00D14CE72379002B00D148E72E231D
:10BDE000E35C002B00D043E701212F330720E1540F
:10BDF000904740E76A4602331372231C0422303313
:10BE00000393304BDA70FFF715FC0028A8D1052208
:10BE10002D23E254053BEA5C002AB2D0ACE76B4626
:10BE2000228B5A82A28A1A82231C30331A79002A62
:10BE300022D02379002B03D02E23E35C002BD9D012
:10BE400003222D23E25497E7012369460B706B46CA
:10BE5000A1897C3659822189019619822D23E254C9
:10BE60008AE7022B00D0F2E65CE70323F9E61B7BAE
:10BE7000002B00D021E728E71B7B002BD9D1DFE77F
:10BE80000223EEE62C216254DCE66A46023313728A
:10BE9000231C0422303303930A4BDA70FFF7CAFBEA
:10BEA000002800D05CE706222D23E254053BEA5C23
:10BEB000B2E7C0461C2500206C2300209C250020F2
:10BEC0001C260020E4240020F0B547464D4C80B4E9
:10BED000231C40335A884C4B82B0198C914210D8A5
:10BEE000598C91420DD39B69002B03D0012201A8EC
:10BEF0000270984700226C23E25402B004BC9046C2
:10BF0000F0BD6C22A25C002A07D09B69002BF1D007
:10BF1000002201A802709847ECE79A78002A0AD01C
:10BF2000DD68A26C002A0BD00720042D05D8DB6940
:10BF3000002BDED1DEE79D68F3E7216E002901D1F9
:10BF40000820F4E7211C00204C31497C804601295F
:10BF500030D02E4910204968C905C90D2ED11218BC
:10BF6000517890784E1CF6B2801B471EB841404273
:10BF700006401078B0421FD0480041185068C900F0
:10BF800084466144002917D001230B70231C4C33D5
:10BF90004B601F481F4BC358CD608B6043460B61FD
:10BFA00000234B618021567001331B4A4903FF3344
:10BFB000D1509FE7A846CCE70420B8E71039CEB2AD
:10BFC00070B2002813DB8008134EC0308000805907
:10BFD00003263140C900C8400106890FC9B20020BC
:10BFE0000129BCD008300329B9D00830B7E70F21A8
:10BFF0000A48314084460839890889006144486804
:10C000000321E6E71C2600201C25002000ED00E0AF
:10C01000001001400405000000E100E018ED00E020
:10C020007BDF7047F0B55F46564644464D46F0B458
:10C0300085B09A460EAB80CB061C1B8800919B46B0
:10C040003B88904601930388002B5BD000239946E0
:10C0500002AB0024DD1C03E033880134A3422ADD57
:10C060007368A1009C460422614403A800F015FAFD
:10C0700003A8291C0022FFF7AFFD002826D12B784A
:10C080004345E9D14B46002B27D043463A88D31885
:10C090005B4539DC524403A8291CFFF79DFD0028AD
:10C0A00014D13B882A780134D3183B800123994668
:10C0B0003388A342D4DC4B46002B23D03B88019A23
:10C0C000013B9B1A9BB20C20FF2B18D905B03CBC3E
:10C0D00090469946A246AB46F0BD42463B889A1828
:10C0E00002325A4510DC69465246013309789BB248
:10C0F0003B80D1543A88013292B23A80CAE7111C8F
:10C10000524653540020E1E70C20DFE779DF704707
:10C1100072DF704771DF704763DF7047A0DF7047E1
:10C120007DDF7047002243088B4274D303098B42A2
:10C130005FD3030A8B4244D3030B8B4228D3030CF7
:10C140008B420DD3FF22090212BA030C8B4202D399
:10C150001212090265D0030B8B4219D300E0090AC1
:10C16000C30B8B4201D3CB03C01A5241830B8B42CA
:10C1700001D38B03C01A5241430B8B4201D34B03B3
:10C18000C01A5241030B8B4201D30B03C01A524118
:10C19000C30A8B4201D3CB02C01A5241830A8B429D
:10C1A00001D38B02C01A5241430A8B4201D34B0286
:10C1B000C01A5241030A8B4201D30B02C01A5241EA
:10C1C000CDD2C3098B4201D3CB01C01A524183099E
:10C1D0008B4201D38B01C01A524143098B4201D3D8
:10C1E0004B01C01A524103098B4201D30B01C01A03
:10C1F0005241C3088B4201D3CB00C01A524183087D
:10C200008B4201D38B00C01A524143088B4201D3A9
:10C210004B00C01A5241411A00D201465241104609
:10C220007047FFE701B5002000F0FCF802BDC046F2
:10C230000029F7D003B5FFF775FF0EBC4243891AFA
:10C240001847C04603460B437FD4002243088B4265
:10C2500074D303098B425FD3030A8B4244D3030B8D
:10C260008B4228D3030C8B420DD3FF22090212BA52
:10C27000030C8B4202D31212090265D0030B8B42CE
:10C2800019D300E0090AC30B8B4201D3CB03C01AB8
:10C290005241830B8B4201D38B03C01A5241430B93
:10C2A0008B4201D34B03C01A5241030B8B4201D383
:10C2B0000B03C01A5241C30A8B4201D3CB02C01AEE
:10C2C0005241830A8B4201D38B02C01A5241430A66
:10C2D0008B4201D34B02C01A5241030A8B4201D355
:10C2E0000B02C01A5241CDD2C3098B4201D3CB01FC
:10C2F000C01A524183098B4201D38B01C01A5241AB
:10C3000043098B4201D34B01C01A524103098B42AE
:10C3100001D30B01C01A5241C3088B4201D3CB0099
:10C32000C01A524183088B4201D38B00C01A52417C
:10C3300043088B4201D34B00C01A5241411A00D22C
:10C3400001465241104670475DE0CA0F00D0494295
:10C35000031000D34042534000229C4603098B4205
:10C360002DD3030A8B4212D3FC22890112BA030A8D
:10C370008B420CD3890192118B4208D3890192110F
:10C380008B4204D389013AD0921100E08909C30994
:10C390008B4201D3CB01C01A524183098B4201D396
:10C3A0008B01C01A524143098B4201D34B01C01A81
:10C3B000524103098B4201D30B01C01A5241C308F9
:10C3C0008B4201D3CB00C01A524183088B4201D368
:10C3D0008B00C01A5241D9D243088B4201D34B0083
:10C3E000C01A5241411A00D20146634652415B10C5
:10C3F000104601D34042002B00D5494270476346A6
:10C400005B1000D3404201B5002000F00BF802BDE4
:10C410000029F8D003B5FFF715FF0EBC4243891A77
:10C420001847C0467047C04603210A4802680A43BD
:10C430000260094802680A4302600849084A094B39
:10C440009B1A03DD043BC858D050FBDC06488047EC
:10C4500006480047240500405405004064C601001A
:10C460000020002064200020E5B40100C18001000C
:10C47000FEE7FEE7FEE7FEE7FEE7FEE730B5002455
:10C48000944208D0035D651C0C5DA34201D0181BCB
:10C4900002E02C1CF4E7002030BD002310B59342CD
:10C4A00003D0CC5CC4540133F9E710BD0023C25C57
:10C4B0000133002AFBD1581E70470000F8B5C04672
:10C4C000F8BC08BC9E467047F8B5C046F8BC08BC2E
:10C4D0009E46704743000000002000209492010017
:10C4E000AA900100EE920100B0930100AA90010011
:10C4F000AA900100D693010016950100AA900100B0
:10C50000AA900100AA900100CC930100AA9001001A
:10C51000AA900100AA900100AA900100AA9001002F
:10C52000AA900100AA900100AA900100AA9001001F
:10C53000AA900100AA900100AA900100AA9001000F
:10C54000AA900100AA900100AA900100AA900100FF
:10C55000AA900100AA900100AA900100AA900100EF
:10C56000AA900100AA900100AA900100AA900100DF
:10C57000AA900100AA900100AA900100AA900100CF
:10C58000AA900100AA900100AA900100AA900100BF
:10C59000AA900100AA900100AA900100AA900100AF
:10C5A000AA900100AA900100AA900100AA9001009F
:10C5B000AA900100AA900100AA900100AA9001008F
:10C5C000AA900100AA900100AA900100AA9001007F
:10C5D000AA900100AA900100AA900100AA9001006F
:10C5E0004895010055AD010099B0010051AD010021
:10C5F00085B1010065AD010069B2010061AD0100C6
:10C6000055B3010005850100A189010031890100B0
:10C6100059860100A985010023D113EF5F78231506
:10C62000DEEF1212000000004F75725365727669DA
:10C63000636500009DA60100FDA5010075A701002E
:10C6400029A4010019870100FFFFFFFF5DAD010074
:0CC6500041AE010059AD010075AD0100C4
:08C65C0064BAFF7F0100000039
:10C6640000000000000000000000000000000000C6
:10C6740000000000000000000000000000000000B6
:10C68400D4C401000000000000000000000000000D
:10C694000000000000000000000000000000000096
:10C6A4000000000000000000000000000000000086
:10C6B4000000000000000000000000000000000076
:04C6C400FFFFFFFF76
:040000031000C429FC
:00000001FF
