:020000021000EC
:108000000040002021980100699801006B98010050
:108010000000000000000000000000000000000060
:108020000000000000000000000000006D9801004A
:1080300000000000000000006F980100719801002E
:108040007398010073980100739801007398010000
:1080500073980100000000007398010073980100FC
:1080600073980100739801007398010073980100E0
:1080700073980100739801007398010073980100D0
:1080800073980100298B0100739801007398010017
:1080900071820100739801004595010073980100F9
:1080A00073980100739801000000000000000000B8
:1080B00000000000000000000000000000000000C0
:1080C000164B002B00D1144B9D46402292029A1A67
:1080D000924600218B460F461348144A121A00F0AC
:1080E00067F80F4B002B00D098470E4B002B00D0A9
:1080F00098470020002104000D000D48002802D000
:108100000C4800E000BF00F02DF82000290000F02E
:1081100075FD00F011F8C046000008000040002086
:1081200000000000000000007C200020342400201B
:108130000000000000000000084B10B5041C002BDC
:1081400002D0002100E000BF054B1868836A002BB5
:1081500000D09847201C00F033F8C0460000000013
:10816000D09801000E4B70B500251E1C0D4CE41A72
:10817000A410A54204D0AB00F35898470135F8E7A6
:1081800001F098FB084B00251E1C084CE41AA410B3
:10819000A54204D0AB00F35898470135F8E770BD0D
:1081A0007C2000207C2000207C2000207C200020DF
:1081B000031C8218934202D019700133FAE770470A
:1081C000FEE7C0463CDF7047A9DF704782DF70479B
:1081D0007FDF704776DF704737DF704736DF7047E5
:1081E00048DF704760DF70477CDF70477ADF704799
:1081F00078DF704773DF704780218023184A890237
:10820000D1508022D221174B520289005A50403956
:108210005A5001222F205A600138C046C046C0463D
:10822000C046C046C046C046C046C046C046C0461E
:10823000C046F1D19A6000230B4A2F201360013809
:10824000C046C046C046C046C046C046C046C046FE
:10825000C046C046C046C046F1D1044A13707047BC
:1082600000E100E000100140B02200207C2000204E
:10827000F0B54D465F4656464446F0B4B84BB94A51
:108280009946B9491B6887B00193097813789942D8
:1082900000D15EE10133DBB2022B00D10023137069
:1082A000B24A9B00944663445B6800929B464A46F0
:1082B000019B5B441B021B0A1360012303930021F3
:1082C000AB4AAC4B12789C469246009A1B68127BD4
:1082D00005930492A84A02925546013DEAB292469D
:1082E000FF2A54D05246D400029A12689046444461
:1082F00020786678B042EFD0656842001218A84630
:108300000130A578C0B22D1A6F1EBD41D2006D425A
:10831000424428401578022D0BD0032DEAD1002BC2
:10832000E8D01974DB69002BFBD1624613606678D4
:10833000E0E75768002B28D09F4217D01D1C00E0B3
:10834000151CEA69002AD5D09742F9D1AA4200D17A
:10835000DAE01668D269EA61002AE8D01368984624
:1083600063464644166066781B68C3E71A1C654678
:10837000DB692B60151C002BEBD101267F4DAE6015
:108380004D4604962B60151CE3E70023B2E76A46CE
:108390000293127C009B1A73039B002B00D0B5E064
:1083A000029A059B00259B1A5A1E9341DBB2039348
:1083B0006F4B00271B7801260193009B1B7B0493C6
:1083C0006D4B98466E4B9A46019B013BDBB2019385
:1083D000FF2B00D186E042461268DB0093469B44A7
:1083E000002D25D06B68A8682C1CED694A461168E1
:1083F0005A1A1202120A524549D8131862462360CB
:1084000010686760A7602674E76100284ED0016895
:10841000994204D358E0116899425BD2101CC2699A
:108420005B1A002AF7D12360E261C461002DD9D123
:108430005846037842789A42C6D041685A008B4623
:10844000D21881780133D200DBB25A4403709942CA
:1084500046D013785468012BEBD1217C0029E8D158
:10846000936883466360D0680591A0601169E160FC
:108470005269A261049A002AB8D0059B4A466360FB
:10848000002311685A1A1202120A5245B5D9CB1AA2
:108490001B021B0A83420CD26246C31A2360106877
:1084A0006760A7602674E7610028B0D163461C604E
:1084B00096E76346276018686760A7602674E761DF
:1084C0000028F3D000230168CB1A03606346E06103
:1084D0001C6085E7C91A11602360E261C461A5E7E9
:1084E0000570B6E76346029A1B6893424AD1039A25
:1084F000002A47D10023009A137307B03CBC904672
:108500009946A246AB46F0BD2A1C30E7029E0025E4
:10851000002200205946002E16D033688B4200D925
:1085200094E0C91AD2186346F469F76830601C6099
:10853000002F07D0F561351C019BB760D3181B02D3
:108540001B0A7360261EE8D10023029301330393B4
:108550002EE700239B460393044B0093AFE6C046EF
:10856000B0220020AC220020AD2200207C20002080
:10857000DC200020A82200200C2400200010014054
:10858000FEFF7F00002B00D15DE01D683349344BB6
:108590000098CC584B461B680078E21A1202120A67
:1085A000033200282DD0AA4200D22A1CA820D218BB
:1085B00012022A49130AC000294D0B504A591B1BAD
:1085C000121B1202120A1B0203321B0A9A4200D823
:1085D00090E74B590B502F200138C046C046C0468B
:1085E000C046C046C046C046C046C046C046C0465B
:1085F000C046F1D1802180231A4A89025B00D15004
:1086000078E78020D1264002B6008851403E88514C
:10861000C02780261348B6027F00C6510660012697
:108620002F200E600138C046C046C046C046C04636
:10863000C046C046C046C046C046C046C046F1D14E
:1086400000990E70AFE7FFF7D7FD53E75B1A336071
:1086500063461B68029301230393A9E600100140BF
:108660000405000000E100E0BFF34F8F024A034B16
:10867000DA60BFF34F8FFEE70400FA0500ED00E07B
:1086800070B5028886B0131C103B9BB2041C422BB1
:108690000ED8BE499B00CB589F46BD4B0021188881
:1086A00000220323FFF790FD002800D085E02288F8
:1086B000112A00D1BEE000D80BE1122A08D1A11D79
:1086C000B448082201F0E5F800F0DEFF06B070BD06
:1086D000502AFBD1B04BE188DA899142F6D1E28B86
:1086E000022AF3D11E32A15C1F3A0A40ECD1AB49F9
:1086F0000968002900D109E1A9484469002C00D18A
:1087000004E10274A74A10245268D205D20D00D0A9
:1087100010E109194A788C78551CEDB2641B661E6D
:10872000B441644225400C78AC4200D100E15400D1
:10873000A2184C68D200A4466244002A00D1F7E097
:108740000223506013704D708021974A4903FE3315
:10875000D150BBE7811D95480622543001F099F8AD
:10876000B4E782888A4B1A80211CA288904B16316C
:108770001A808848082201F08CF800228D4B1A706C
:10878000854BDB89002BA1D19EE70122804B524211
:108790001A80002119326846FFF70AFD00236A4655
:1087A000694613701372A022684601930A824B82B5
:1087B000FFF720FD002800D179E7FFF755FF744B44
:1087C000002118887C4A0433FFF702FD002800D1FD
:1087D0006DE7F2E7754D0E30291C0A22223101F0B7
:1087E00049F8031C5842584158232E1CEB5C1036A4
:1087F000C0B2DA070FD5002811D0311C9A0761D416
:1088000057E08379002B00D060E7FFF7DBFC0028FE
:1088100000D14CE7D1E79A074AD5002851D1002270
:10882000002100235A480088FFF7D0FC002800D11F
:108830003DE7C2E701225E4B52421A8000235D4AA7
:108840001370564A1568002D2AD055484269002AEF
:1088500026D00374534B10225B68DB05DB0D3CD143
:10886000AD186B78AA78591CC9B2521A541EA2418D
:108870002C78524211408C4229D05A00D3186A6891
:10888000DB0094466344002B21D0022258601A700A
:10889000697080238021444A49035B00D15015E769
:1088A00008203D4B9B69002B00D10FE798470DE74F
:1088B000002100225B07B4D50028B2D02B1C443322
:1088C000B0E700212A1C2C325B07F7D4A9E704206B
:1088D000E7E7102A00D147E7F8E6103BD9B24AB2E1
:1088E000002A1ADB92083049C03292005258032104
:1088F0000B40DB00DA4013069B0FDBB20022012B9A
:10890000AED00832032BABD00832A9E708209B6910
:10891000002B00D1DAE69847D8E60F23274A0B4010
:108920009446083B9B089B0063445A680323DFE797
:108930000420ECE7103AD5B26CB2002C15DBA40889
:10894000194DC034A400645903252A40AA40D440DC
:10895000E2B29209D2B20024012A00D1D9E6083449
:10896000032A00D1D5E60834D3E60F22134C2A405F
:10897000A446083A920892006244546803222A40AE
:10898000D200D440E2B29209E4E7C046D498010094
:108990006020002004240020C82300200C24002094
:1089A0001024002000ED00E000E100E07C20002029
:1089B000C4230020C6230020BC23002018ED00E0C3
:1089C00008B5FFF751FEC04608B50378002B00D06C
:1089D00008BD044B3B211888FFF7FCFB0028F7D0AB
:1089E000FFF742FE60200020F0B53F4C85B02388A1
:1089F000029003910920072B01D805B0F0BD002398
:108A00006A46D371394B04265B68DB05DB0D47D121
:108A10006B46D81DFFF7E2FB022856D0002839D15B
:108A2000334B344A3448197813780788DBB2C9B21B
:108A30000020BB4201D20133D8B281422CD015783C
:108A400013780021DBB29F4201D90133D9B21170F2
:108A5000012E0BD062B66B46D879FFF7BDFB02231F
:108A6000984317D1254B04309D42C6D0244F254B47
:108A70003A68EE0093512088234B4543186802A9B9
:108A80004019082200F005FF3B6800209E190823CA
:108A9000B380B2E7FFF7E8FD012E18D10420ACE760
:108AA000103BD9B24AB2002A13DB92081749C032F0
:108AB0009200525803210B40DB00DA4013069B0F53
:108AC000DEB2012BA4D10126AAE772B6A8E70B4DAE
:108AD000C0E70F230E4A0B409446083B9B089B00BF
:108AE00063445A680323E6E7B623002000ED00E064
:108AF000B5230020B4230020B8230020FFFF00008E
:108B0000FC220020158B0100B023002000E100E0D2
:108B100018ED00E008B5082901D0FFF7A5FD42686F
:108B20000368101C984708BDA021F0B500234746F4
:108B3000294A490080B453500431535004315350F2
:108B4000043153504C39535004315350234B1B685C
:108B5000002B3AD02249002652582249224F0C6855
:108B6000141B00222402240A904602E0002D16D095
:108B70002B1C1A68A24212D8A41AB6181A7CDD69F6
:108B8000002AF3D0424699691A745A693B68002B4F
:108B90001ED0101C98470028E8D0FFF765FD134B46
:108BA00013491A780B789A4205D10132D3B2022BBD
:108BB00000D100230B700F4A9B00D3185E60802108
:108BC00080230D4A49035B00D15004BC9046F0BDA0
:108BD000081C9047CAE7C04600100140A8220020A8
:108BE00004050000B0220020D8200020AC22002084
:108BF000AD2200207C20002000E100E0F0B55F46BF
:108C000056464D464446F0B4A7B0FFF7F5FA2B4B55
:108C10002B4A2C491A601A1C08320A600521181CBC
:108C2000997299749976191C2030D860181C00220A
:108C300003251131FF31D9615421983058618027C3
:108C4000C0201D711A725A721A745A741A765A76A2
:108C50001D4B7F035A5401315A541C4940001A6578
:108C60000F509530FF30FF2484460858A0433F3C06
:108C7000204364460851A1200F60C427144CC00053
:108C80002250BF00C8598446664612483040C0266C
:108C900036023043C85110490020615899650F4988
:108CA0005C330B6048210E4B19800E4B0E491A6045
:108CB00000F098FC002819D0FFF7D6FCD82000203F
:108CC000E98901000C2400205822002000E100E086
:108CD00000100140FF00FFFF0405000000240020F9
:108CE000FC230020EC230020399501000123994644
:108CF0004A46DA4B16301A7000F076FC011EDBD1C2
:108D000006AC0822201CFFF753FA4A462378201CA1
:108D100093432370FFF766FA0028CDD1D04AD14B98
:108D2000D14C1A60D14BD24F9846424628335362F9
:108D300043468033A3655C23E0540133E054553B44
:108D40009A4652465633E2520A220233E25204ABAA
:108D50009B464A46102313435A46381C137000F0B2
:108D6000A1FD391C82B25846FFF73EFA834600281F
:108D7000A2D108AF52465946381CFFF719FAC8224B
:108D8000C82392007A805A465B00381C3B80BA8028
:108D9000FB80FFF72BFA824600288DD1FFF728FAD7
:108DA00005AB181CB34904229B4600F072FD5146E6
:108DB000382218A8FFF7FCF95821022302AA5218FA
:108DC0005B201370062202A909180A70682102AA02
:108DD0005218494611805A461D9252463A80259AA9
:108DE000002A06D0127810A90B700F334B708A70CE
:108DF0003D80249B002B17D010A98946112148469D
:108E00003A884D468154511C023210203A801A1C77
:108E100089B268540F32581E3B881178013AE954E0
:108E200001333B808242F7D158212E2302AA5218E7
:108E3000D35C002B00D089E158212D2302AA5218BF
:108E4000D35C002B00D0A6E15A2202AB9B181B7802
:108E5000002B00D0CDE15B2202AB9B181A78002AD0
:108E600012D03B88D81C1F2800D925E710A98946B5
:108E700002214D464E46E9540125591C023389B260
:108E80009BB275543880F254199B002B13D018787C
:108E90003B88DA1C1F2A00D90EE710A98946022157
:108EA0004D464E46E9540A25591C023389B29BB2FD
:108EB00075543A80F054602202AB9B181B88002B3B
:108EC00000D0B7E1682202AB9B181B88002B00D0B2
:108ED000BFE1702202AB9B181B88002B00D0C7E1BA
:108EE0002098002842D03B889A1D92461F2A00D91C
:108EF000E2E60588052D00D8DEE65F4A5F4EAA1837
:108F000092B2B146B24200D8D6E64288052A00D8CD
:108F1000D2E6594E6946B44694446646CE81CE891F
:108F20004E4500D8C8E6564EB54204D0B24202D0F3
:108F3000954200D9C0E610AA914605224D464E46FC
:108F4000EA5412255A1C92B2B5549A1C92B23A8035
:108F500005884A4415702D0A55704288181D5346DD
:108F600080B248440270120A42703B80219D002D5D
:108F70002BD0A9883B88881C9A1C16181F2E00D954
:108F80009AE6FE2800D997E610A881460331C1541D
:108F90004E46FF20591C89B292B270543A802988FB
:108FA0004A440433117098B2090A51703880AA8873
:108FB000002A0AD0A968002900D17DE6484400F0C3
:108FC00068FCAA883B88D3183B8058212C2302AA2E
:108FD0005218D25C002A00D0A0E1582202AB9B18A4
:108FE0001B78002B00D05AE110AB9946002239784B
:108FF0004846131C00F00EFC051E00D05CE6291C40
:109000001C224846FFF7D4F8A0234A469B0253602F
:10901000F0231B03936003231A4913731A4BD58162
:10902000536115749161194A4846131C1095C4C8C0
:10903000C4C3C4C8C4C31960154B16481D7000F0E2
:10904000C7FB002800D037E60122134B52421A809A
:10905000124B1870124B1B6824E0C046F02300200E
:1090600081860100F823002058230020D822002008
:10907000E4990100E09901007FF3FFFF7DF3000018
:10908000FFFF0000C1890100C9890100C823002039
:1090900030240020E4230020C4230020C623002025
:1090A0000C240020002B00D106E6C74B1D7C002DB0
:1090B00000D001E66421C54A1D745A6101225D7425
:1090C000635C0AAE1A43E12313400C2213431432AB
:1090D00093436354193A63185A7009329A70301CDA
:1090E000291C0832FFF764F8A023301C3570756026
:1090F000357233827582FFF77DF8002800D0DBE5FA
:109100005C2660275D35625DA35D9A4219D0635D80
:10911000625DE05BD2B2DBB20021904201D9013244
:10912000D1B25E22A05AA26D584394464246526A7A
:1091300060449446DB006155634499881B689847F6
:10914000E1E7FFF74DF80028DDD0B5E53A88D01CFF
:109150001F2800D9B0E510A9894602211C268A469D
:10916000B446494655464E468D546546511C5244B8
:1091700089B292B275543A80534500D110E100D8BB
:1091800085E0032B00D10FE1042B00D094E50323ED
:10919000B354388050E63B8809331F2B00D98BE548
:1091A0000AAD281C00F038FB002800D084E510AA86
:1091B0009146082249463B884846CA541B215A1CFE
:1091C00092B20233815498B202AB9C460631388089
:1091D00061440622484400F05CFB3B8829789A1DD4
:1091E00092B2002900D001214846073381543B80C8
:1091F0002AE63B8804331F2B00D95DE50AAD281C05
:1092000000F006FB002800D056E510AA9146032284
:1092100049463B884846CA5419215A1C92B2815487
:10922000981C2A8880B2484402700433120A4270A3
:109230003B8010E610AB99461F23009701931AA8B4
:10924000022106224B4600F0C5FA002800D139E67B
:1092500032E510AB99461F23009701931CA8032108
:1092600007224B4600F0B6FA002800D131E623E58C
:1092700010AB99461F23009701931EA814211522B5
:109280004B4600F0A7FA002800D129E614E5012B8F
:1092900000D011E500234A4413703880CCE55821F2
:1092A00002AA52181288012A00D105E53A88901CBA
:1092B0001F2800D900E5012B08D102AB01315B1852
:1092C0001B78D31802331F2B00D9F5E41D239B1AFA
:1092D0009BB20AAD9A462B8010AB9946291C484494
:1092E00000F09CFA002800D0E6E4582202AB9B185C
:1092F0001B78022B63D0012B5AD0534608212B80B8
:109300002B88FE2B00D9D7E448463A880133835492
:10931000013292B2D31881543B8067E6229A002A28
:1093200000D1C9E400229A460C2391469B462FE0C7
:109330004B465D465D43229B9C466544AA88931C30
:10934000FE2B00D9B8E416213B8810A80332C25482
:109350005A1C92B281549A1C92B23A80298882187F
:10936000043311709BB2090A51703B80AA88002A0D
:109370000AD0A968002900D19EE4C01800F089FA3B
:10938000AA883B88D3183B804B460133DBB2994611
:109390005821524602AB5B189B5C4B45C8D81CE673
:1093A0000123B354388047E551463880B15443E532
:1093B000592202AB9B181B789A459FD29DE72B88B8
:1093C000092153459CD998E710240020E19301001E
:1093D00061DF704751DF704776DF704775DF704798
:1093E00010B5184C184B208882B0984212D0A37840
:1093F000227C0133DBB2A3709A420DD20023A3700A
:10940000237D002B13D1A369002B03D0002201A8D8
:109410000270984702B010BD211C2031FFF7DEFF1B
:109420000028F7D0E369002BF4D09847F2E73B21FE
:10943000FFF7D2FF0028E6D0E369002BE3D098477E
:10944000E1E7C046C4230020FFFF000065DF70474E
:10945000F0B55F46564644464D46F0B485B09A4650
:109460000EAB80CB061C1B8800919B463B88904628
:1094700001930388002B5BD00023994602AB0024A4
:10948000DD1C03E033880134A3422ADD7368A100A8
:109490009C460422614403A800F0FBF903A8291CA0
:1094A0000022FFF7D3FF002826D12B784345E9D1CE
:1094B0004B46002B27D043463A88D3185B4539DC0E
:1094C000524403A8291CFFF7C1FF002814D13B8890
:1094D0002A780134D3183B80012399463388A3426C
:1094E000D4DC4B46002B23D03B88019A013B9B1ACE
:1094F0009BB20C20FF2B18D905B03CBC9046994676
:10950000A246AB46F0BD42463B889A1802325A4505
:1095100010DC69465246013309789BB23B80D15436
:109520003A88013292B23A80CAE7524601995354BE
:109530000020E1E70C20DFE708B5081C111C00E063
:1095400000BF08BD70B5264C84B0A36A002B04D0C0
:10955000984700281FD104B070BD2C23E35C002B7A
:10956000F9D0236B656B1E1C019373425E416B4205
:109570005D41F6B2EDB2002E1AD0002DEBD1E56BB5
:1095800002AA238F281C911C5380FFF721FF052876
:10959000E1D000281AD0FFF767F8E56B02AA238F05
:1095A000281C911C5380FFF713FF0528F1D10125DA
:1095B00003A8FFF70FFF05280DD00028EBD1039873
:1095C000019B9847002DE8D00125F1E7281C636B2B
:1095D00098470025CFE7002DBDD10126CFE7C04633
:1095E000C423002010DF70472EDF70471F4B1B780D
:1095F000012B00D070471E4B1B681B07FAD1F022CD
:109600001C4B1B68134018D11B4B1B6813421AD00C
:10961000174B1B681B07EDD1F022164B1B6813403C
:10962000402BE7D1144B1B681342E3D1C1238022A6
:109630000121DB00D205D150DCE7102B0FD10E4BFE
:109640001B681342E8D10D4A0D4B1A6080220D4B66
:1096500012021A60054B1B78012BD9D0CAE7302BB8
:10966000DAD1054B1B681342D6D1ECE7E00F00F0CE
:10967000E40F00F0E80F00F0EC0F00F0DFFF07C090
:1096800004050040186C0040F0B54B4C83B0231C1F
:1096900040335B88228C9A420ED8628C9A420BD35C
:1096A000A369002B03D0012201A802709847002271
:1096B0006C23E25403B0F0BD6C23E35C002B07D0B5
:1096C000A369002BF3D0002201A802709847EEE7AF
:1096D000A378002B0AD0E168A36C002B0BD00720E5
:1096E000042905D8E369002BE0D1E0E7A168F3E79E
:1096F000226E002A01D10820F4E7221C4C32527C51
:109700000026012A2FD02D4A10205268D205D20DF2
:109710002DD11B185A789878551CEDB2401B471E66
:10972000B841404205401878A8421ED05000821827
:109730005868D20084466244002A16D00120107076
:10974000201C4C3050601E4F1E483858D1600021FC
:1097500090605161166180215D7080231A4A49032F
:109760005B00D150A3E70E1CCDE70420BAE7103A06
:10977000D5B268B2002813DB8008134DC0308000DA
:10978000405903252A40D200D0400206920FD2B29F
:109790000020012ABDD00830032ABAD00830B8E72B
:1097A0000F220A482A408446083A920892006244EE
:1097B00050680322E6E7C046C423002000ED00E025
:1097C000001001400405000000E100E018ED00E099
:1097D0007BDF7047F0B547461C1C80B482B008ABF5
:1097E00080CB90461E88022200970196231C051C00
:1097F000FFF72EFE002807D100970196281C41464E
:109800001022231CFFF724FE02B004BC9046F0BDDA
:1098100079DF704772DF704771DF70477DDF704717
:1098200003210A4802680A430260094802680A43A1
:1098300002600849084A094B9B1A03DD043BC858DB
:10984000D050FBDC0648804706480047240500400E
:1098500054050040F8990100002000207C200020E1
:10986000ED950100C1800100FEE7FEE7FEE7FEE79F
:10987000FEE7FEE730B50024944208D0035D651C86
:109880000C5DA34201D0181B02E02C1CF4E7002061
:1098900030BD002310B5934203D0CC5CC4540133D7
:1098A000F9E710BD0023C25C0133002AFBD1581E2A
:1098B00070470000F8B5C046F8BC08BC9E4670472B
:1098C000F8B5C046F8BC08BC9E467047430000008F
:1098D00000200020628701008A870100B086010015
:1098E000BE870100D4870100B0860100B086010068
:1098F00054870100B086010002880100B086010093
:10990000B0860100B0860100B0860100B08601007B
:10991000B0860100B0860100B0860100B08601006B
:10992000B0860100B0860100B0860100B08601005B
:10993000B0860100B0860100B0860100B08601004B
:10994000B0860100B0860100B0860100B08601003B
:10995000B0860100B0860100B0860100B08601002B
:10996000B0860100B0860100B0860100B08601001B
:10997000B0860100B0860100B0860100B08601000B
:10998000B0860100B0860100B0860100B0860100FB
:10999000B0860100B0860100B0860100B0860100EB
:1099A000B0860100B0860100B0860100B0860100DB
:1099B000B0860100B0860100B0860100B0860100CB
:1099C000B0860100B0860100B0860100B0860100BB
:1099D000B0860100B0860100B08601009A860100C1
:1099E0003412010048656C6C6F576F726C64000034
:0899F000D0E6FF7F010000003A
:1099F800000000000000000000000000000000005F
:109A0800000000000000000000000000000000004E
:109A1800CC980100000000000000000000000000D9
:109A2800000000000000000000000000000000002E
:109A3800000000000000000000000000000000001E
:109A4800000000000000000000000000000000000E
:109A5800FFFF00008C200020A8200020C02000204C
:0C9A6800000000000000000000000000F2
:040000031000982130
:00000001FF
