:020000021000EC
:108000000040002051860100998601009B860100F6
:108010000000000000000000000000000000000060
:108020000000000000000000000000009D8601002C
:1080300000000000000000009F860100A1860100F2
:10804000A3860100A3860100A3860100A386010088
:10805000A386010000000000A3860100A3860100A2
:10806000A3860100A3860100A3860100A386010068
:10807000A3860100A3860100A3860100A386010058
:10808000A3860100A3860100A3860100A386010048
:10809000A3860100A3860100A3860100A386010038
:1080A000A3860100A386010000000000000000007C
:1080B00000000000000000000000000000000000C0
:1080C00010B5064C2378002B07D1054B002B02D0AE
:1080D000044800E000BF0123237010BD30240020BD
:1080E00000000000C486010008B5084B002B03D037
:1080F0000748084900E000BF07480368002B00D18B
:1081000008BD064B002BFBD09847F9E700000000A4
:10811000C486010034240020302400200000000028
:10812000164B002B00D1144B9D46402292029A1A06
:10813000924600218B460F461348144A121A00F04B
:108140005FF80F4B002B00D098470E4B002B00D050
:1081500098470020002104000D000D48002802D09F
:108160000C4800F017F900F027F82000290000F073
:10817000EDF900F011F8C0460000080000400020B2
:108180000000000000000000302400204C240020EB
:1081900095830100A583010010B50021041C00F0A7
:1081A00075F8044B1868C36B002B00D09847201C4F
:1081B00000F07CF9C086010070B50D4E0D4D002415
:1081C000AD1BAD1005D0A300F35801349847A5426C
:1081D000F9D100F067FA084E084D0024AD1BAD1030
:1081E00005D0A300F35801349847A542F9D170BDDA
:1081F0002824002028240020282400202C240020CB
:1082000070B583073FD0541E002A3BD0CEB2031C6A
:10821000032503E0621E002C34D0141C01335A1EC7
:1082200016702B42F6D1032C24D9FF250D402A02CB
:1082300015432A0415430F2C11D9261C103E36096C
:10824000013636011A1C9B19156055609560D56082
:1082500010329342F8D10F221440032C0AD9261F62
:10826000B6080136B6001A1C9B1920C29342FCD1F5
:1082700003221440002C05D0C9B21C191970013317
:10828000A342FBD170BD141C031CCCE7F0B55646CD
:108290005F464D464446F0B40E1C3C4B87B01B680D
:1082A000019003934933FF330493A422039B5200AC
:1082B0009F58002F4CD0049B984600239B46C42314
:1082C0005B009C46BC4463460293C6235B009A460F
:1082D0007C68BA44A5007D19013C08D526E06B1DD9
:1082E000FF331B68B34204D0043D013C1ED3002E73
:1082F000F5D17B686A68013BA3423AD05B466B606C
:10830000002AF1D07B68029999460123A3400968AD
:108310000591194223D190477B684B45C5D143460F
:108320001B68BB42C1D1043D013CE0D2184B002B7D
:108330000ED07B68002B23D13B68002B24D0424613
:10834000381C136000E000BF43461F68002FB6D101
:1083500007B03CBC90469946A246AB46F0BD51469C
:108360000968194207D12B1C84331968019890477A
:10837000D2E77C60C4E72B1C843318689047CBE7B6
:108380003B68B8461F1CE1E70023FAE7C0860100FE
:108390000000000008B5011C00220020002300F0AE
:1083A0001BF808BD38B5094B094CE41AA41009D0D4
:1083B000084AA518AD00ED182B68013C9847043D0C
:1083C000002CF9D100F074F938BDC0462C240020EF
:1083D00030240020FFFFFF3FF8B544465F46564675
:1083E0004D469B462F4BF0B41C68A4235B00051C34
:1083F000E0580E1C904600284BD043681F2B0DDC24
:108400005C1C002D21D102339B0044601E500020D3
:108410003CBC90469946A246AB46F8BD224B002B89
:108420003CD0C820400000E000BF002836D0A42285
:1084300000235200A15843600160A0504032835095
:10844000043283500124002DDDD09A0091468144EE
:10845000424688214F467A50C422520090468044BA
:1084600042468739994012688A460A4394464246F2
:1084700061461160842249465F4652008F50022DAA
:10848000C1D1021C55468D32FF3211680D43156073
:10849000B9E7201C4D30FF30E050AEE701204042EC
:1084A000B6E7C046C086010000000000FEE7C046F7
:1084B0001F4B1B78012B00D070471E4B1B681B07FE
:1084C000FAD1F0221C4B1B68134018D11B4B1B68C0
:1084D00013421AD0174B1B681B07EDD1F022164B25
:1084E0001B681340402BE7D1144B1B681342E3D1A8
:1084F000C12380220121DB00D205D150DCE7102B03
:108500000FD10E4B1B681342E8D10D4A0D4B1A6078
:1085100080220D4B12021A60054B1B78012BD9D01B
:10852000CAE7302BDAD1054B1B681342D6D1ECE7F2
:10853000E00F00F0E40F00F0E80F00F0EC0F00F0A7
:10854000DFFF07C004050040186C004070B5E82349
:10855000A0250022ED05DB00EA50E9220323D2002A
:10856000AB50294A0024AB500432AB50274A0126B5
:10857000AB500432AB5019E0254BEA508022520335
:1085800063072AD4224BEA508022920323072BD47C
:108590001F4BEA508022D203E3062CD41C4BEA5036
:1085A000A223DB00EB58DB03DB171C40FA20800022
:1085B00000F030F880220134E4B2D20226421ED10B
:1085C000134BEA5080221203A307D5D5A123DB0069
:1085D000EA50802252036307D4D5A123DB00EA507E
:1085E000802292032307D3D5A123DB00EA50802207
:1085F000D203E306D2D5A123DB00EA50D0E7A123C2
:10860000DB00EA50DEE7C0464C07000054070000DC
:108610000C05000082B00190019B002B14D0019B3F
:108620000A48013B01930138C046C046C046C046D7
:10863000C046C046C046C046C046C046C046C0460A
:10864000F1D1019B002BEAD102B07047E703000093
:1086500003210A4802680A430260094802680A4383
:1086600002600849084A094B9B1A03DD043BC858BD
:10867000D050FBDC064880470648004724050040F0
:1086800054050040CC86010000200020302400204A
:10869000B184010021810100FEE7FEE7FEE7FEE76D
:1086A000FEE7FEE7F8B5C046F8BC08BC9E4670473A
:1086B000F8B5C046F8BC08BC9E46704743000000B1
:0486C0000020002076
:0886C4005CFAFF7F01000000D9
:1086CC0000000000EC22002054230020BC230020DA
:1086DC00000000000000000000000000000000008E
:1086EC00000000000000000000000000000000007E
:1086FC0000000000BC86010000000000000000002B
:10870C00000000000000000000000000000000005D
:10871C00000000000000000000000000000000004D
:10872C00000000000000000000000000000000003D
:10873C00000000000000000000000000000000002D
:10874C00000000000000000000000000000000001D
:10875C00000000000000000000000000000000000D
:10876C0000000000000000000100000000000000FC
:10877C000E33CDAB34126DE6ECDE05000B000000C1
:10878C0000000000000000000000000000000000DD
:10879C0000000000000000000000000000000000CD
:1087AC0000000000000000000000000000000000BD
:1087BC0000000000000000000000000000000000AD
:108AEC000000000000000000E9800100C1800100CE
:040000031000865112
:00000001FF
