:1000000000400020291C0000711C0000731C00002F
:1000100000000000000000000000000000000000E0
:10002000000000000000000000000000751C00003F
:100030000000000000000000771C0000791C000098
:100040007B1C00007B1C0000BD1A0000A9160000EC
:100050007B1C0000000000007B1C00007B1C0000DB
:100060007B1C00007B1C00007B1C00007B1C000034
:100070007B1C00007B1C00007B1C00007B1C000024
:100080007B1C00007B1C00007B1C00007B1C000014
:100090007B1C00007B1C00007B1C00007B1C000004
:1000A0007B1C00007B1C0000000000000000000022
:1000B0000000000000000000000000000000000040
:1000C00010B5064C2378002B07D1054B002B02D02E
:1000D000044800E000BF0123237010BD6C20002005
:1000E000000000001C2E000008B5084B002B03D0B8
:1000F0000748084900E000BF07480368002B00D10B
:1001000008BD064B002BFBD09847F9E70000000024
:100110001C2E0000702000206C2000200000000039
:10012000164B002B00D1144B9D46402292029A1A86
:10013000924600218B460F461348144A121A00F0CB
:1001400067F80F4B002B00D098470E4B002B00D0C8
:1001500098470020002104000D000D48002802D01F
:100160000C4800E000BF00F02DF82000290000F04E
:1001700069F900F011F8C0460000080000400020B6
:1001800000000000000000006C200020242200205D
:100190000000000000000000084B10B5041C002BFC
:1001A00002D0002100E000BF054B1868836A002BD5
:1001B00000D09847201C00F033F8C0460000000033
:1001C0002C2C00000E4B70B500251E1C0D4CE41AA3
:1001D000A410A54204D0AB00F35898470135F8E7C6
:1001E00002F016FD084B00251E1C084CE41AA41052
:1001F000A54204D0AB00F35898470135F8E770BD2D
:10020000642000206420002064200020682000205A
:10021000031C8218934202D019700133FAE7704729
:10022000FEE7C0461F4B1B78012B00D070471E4BCA
:100230001B681B07FAD1F0221C4B1B68134018D116
:100240001B4B1B6813421AD0174B1B681B07EDD1C1
:10025000F022164B1B681340402BE7D1144B1B6850
:100260001342E3D1C12380220121DB00D205D1500A
:10027000DCE7102B0FD10E4B1B681342E8D10D4A5F
:100280000D4B1A6080220D4B12021A60054B1B7831
:10029000012BD9D0CAE7302BDAD1054B1B681342AA
:1002A000D6D1ECE7E00F00F0E40F00F0E80F00F02B
:1002B000EC0F00F0DFFF07C004050040186C0040A1
:1002C00008B50378012B01D0022B04D1406800212E
:1002D000002200F037F908BD30B51C4C83B02378FC
:1002E000051CDBB2002B12D10278002A26D0012A8D
:1002F0000DD1174A1748537157210093052301F078
:10030000D3F8002803D00021002200F01BF9237845
:10031000002B0ED02B78002B0DD0012B09D1002300
:100320000C48009368210C4A073301F0BDF80028FF
:1003300007D103B030BD094A1370FAE7074B1A70B2
:10034000E5E70021002200F0FDF8F2E79821002007
:100350008C210020502C00009C21002088200020AF
:1003600030B585B06A460C4B6946043331CB31C297
:100370000A4C1B68201C1360094A002300F078FE19
:10038000002803D00021002200F0DCF8201C00F03F
:100390005BFF05B030BDC046302C0000502C000083
:1003A000D9020000F0B5474680B4244B84B01A79D6
:1003B0005F791609B10071180F264900324089187B
:1003C0007A06520F94469200624437405200D21986
:1003D000D2B29046FA22371CD200944618785C7844
:1003E0009D789B79C9B21F401B09BC449F00DB1953
:1003F000AF06BA0F5B0063449446970067447F00E2
:1004000035407D19EDB227090095BD007D196D00BD
:1004100034402C19E4B205090194AC002C19640095
:1004200030402018C0B202909BB24246044801F00E
:100430002FFC04B004BC9046F0BDC0469C210020B7
:10044000582C0000F0B556464D4644465F46F0B481
:100450008BB003A8021C314B06AE9946143332CB45
:1004600032C22F4B311C0693012373602D4B2E4A51
:10047000B36080235B00F360FD3B00F033F900289C
:1004800003D00021002200F05DF8284801F000FCB4
:10049000FFF766FF264B01259846264B264C9B46C8
:1004A000264B274F9A46FA20800000F09BF9002344
:1004B0004246257049461370301C022201F0DEFBD3
:1004C0000095381C5721321C022300F0EBFE002857
:1004D00003D00021002200F035F820BF2378DBB2E2
:1004E000002BFAD14246257033701570381C0095E8
:1004F0006821321C013300F0D5FE002803D0002112
:10050000002200F01FF820BF2378002BFBD15146BA
:10051000584601F0BDFBFFF745FFC4E7302C000053
:10052000942100208C200020C10200006C2C0000CF
:1005300098210020842C0000882000208C2100209D
:10054000502C0000BFF34F8F024A034BDA60BFF319
:100550004F8FFEE70400FA0500ED00E010B500291A
:100560000DD00923002A01D1181C10BD541E2240B1
:10057000FAD1826001608480C2600023F4E70E2318
:10058000F2E7C046031C10B59C888068DA68121A2E
:100590000420944200D210BDDA68002014401A688A
:1005A0001155DA680132DA60F5E7C04610B58468A3
:1005B000C268031C0520944209D098689A880240BA
:1005C0001868825C00200A709A6801329A6010BD37
:1005D00072B6024A1368013313607047A4210020E9
:1005E000034A1368013B1360002B00D162B67047C9
:1005F000A421002070B5161C0C1C8D18002A05DDE6
:100600002078013400F0DAF8AC42F9D1301C70BD2A
:1006100010B50C1C201C00F0B7F80528FAD00120FA
:1006200010BDC04630B5047885B0012C19D0022C1D
:1006300034D0002C01D005B030BD254C254D201CF8
:10064000291CFFF7B3FF002823D0A268E3689A4271
:10065000F1D1032302AA13701F4B101C1B6898478B
:10066000E9E743681D4D1978281CFFF78BFF002828
:100670001ED1AA68EB689B1A012B21D0AA68EB68EF
:100680009B1AAA889342D6D80121154801F07CF91B
:10069000D1E7281C012101F01DF9D6E702AB1C703F
:1006A000C36802A8019303930B4B1B689847C2E7EA
:1006B00002AB1C70084B03901B6802A89847DDE74B
:1006C00002AB1870044B02A81B689847D6E7C046D7
:1006D000B4210020A8210020AC210020C42100204A
:1006E000B0210020F0B51E1C214B051C89B00C1C4C
:1006F0001A600720002906D08A881E480968FFF77B
:100700002DFF002801D009B0F0BDA168A2891A48C8
:10071000FFF724FF0028F6D16A46184B684692CBB3
:1007200092C292CB92C212CB12C2AB6806932B79C3
:1007300006775A1E934103756B790E22591E8B4121
:100740005B421A404275EB780D490293AB780393F4
:100750002B7801936B78009301F034F80028D2D104
:1007600001F096F90121074801F00EF9CBE7C046E8
:10077000AC210020C4210020B4210020882C0000DE
:1007800025060000B021002038B50A4C051CA168E0
:10079000A288E3685B1A9A4204D0201C291CFFF748
:1007A00005FF38BD0448012101F0EEF80028F4D01F
:1007B0000520F6E7C4210020B021002010B5041C5C
:1007C00006480121047001F085F8112800D010BD01
:1007D000211C0348FFF7D6FEF9E7C046D4210020CC
:1007E000B421002082B00190019B002B14D0019B0A
:1007F0000A48013B01930138C046C046C046C04686
:10080000C046C046C046C046C046C046C046C046B8
:10081000F1D1019B002BEAD102B07047E703000041
:10082000F0B5002820DBFF271B4B03229C463B1C16
:100830008408C026C0B20240D2009340A4006444A1
:10084000B600A5599D438B013B409340191C294399
:10085000A1511F2318401E3B8340C022181C0E4B81
:10086000520098501860F0BDFF260C4A03249446AD
:10087000321C0F23C0B20440E400A2400340083BF6
:100880009B089B006344DD6995438A013240A24086
:10089000111C2943D961DCE700E100E000ED00E034
:1008A000437900215A00D3180F4ADB00D318822263
:1008B00010B504685200A1505A8242790B49920047
:1008C0005258002A0AD0C22201685C6992008C50FA
:1008D00002225A61C12301689B00CA5001230268A9
:1008E00013620268536110BDE4210020DC21002066
:1008F00043795A00D318034ADB00D31801229A71B6
:100900007047C046E4210020F8B54F464646C0B4C3
:10091000802244790168051C032092008B586700EF
:1009200083438B50364E3B19DB00F3189889191C12
:100930008446DA89083101320120624514D08022D0
:10094000296892008B583C1903438B50E400E13A2C
:100950003419FF3A237C22742A68D31801221A60C2
:100960000CBC90469946F8BD5A79002AE7D104306C
:10097000FF30488129680A506A7991009046214ADF
:100980008A58002A0CD0C2222968586992008850DF
:1009900002225A61C12329689B00CA506B7998468C
:1009A00043465B0099464344DB00F3185A781649E6
:1009B0009200164B5058D35800280FD01A78042AAA
:1009C0000ED00833002206E09C460833191C083973
:1009D0000978042905D001328242F5D10220AEE720
:1009E0009C464B4662464344DB005278F3185A70EB
:1009F00063465B68002BF1D0281C984702209EE7D5
:100A0000E4210020DC210020A82C0000342D00006F
:100A1000F8B546464F46C0B44379A3255A00D318CB
:100A2000434CDB00E318191C0668ED00DA897559A0
:100A30009B689D54013293B28A89CB819A4203D834
:100A40000CBC90469946F8BD802246790168051C89
:100A5000032092008B58770083438B50BB19DB0037
:100A6000E3189889191C8446DA890831013201207B
:100A7000624511D08022296892008B58BE19034329
:100A80008B50F600E13AA419FF3A237C22742A68BD
:100A9000D31801221A60D3E75A79002AEAD1043028
:100AA000FF30488129680A506A7991009046214AAE
:100AB0008A58002A0CD0C2222968586992008850AE
:100AC00002225A61C12329689B00CA506B7998465B
:100AD00043465B0099464344DB00E3185A781649C5
:100AE0009200164B5058D35800280FD01A78042A79
:100AF0000ED00833002206E09C460833191C083942
:100B00000978042905D001328242F5D10220B1E7EB
:100B10009C464B4662464344DB005278E3185A70C9
:100B200063465B68002BF1D0281C98470220A1E7A0
:100B3000E4210020DC210020A82C0000342D00003E
:100B4000F8B54F464646C0B44379414E5A00D318D3
:100B5000DB00F318DA899B6801689A5C3D4B051C41
:100B6000CA50802244790168032092008B586700A4
:100B700083438B503B19DB00F3189889191C84467A
:100B8000DA89083101320120624514D080222968B7
:100B900092008B583C1903438B50E400E13A34191E
:100BA000FF3A237C22742A68D31801221A600CBCF5
:100BB00090469946F8BD5A79002AE7D10430FF30B3
:100BC000488129680A506A7991009046224A8A58D9
:100BD000002A0CD0C222296858699200885002224B
:100BE0005A61C12329689B00CA506B7998464346D5
:100BF0005B0099464344DB00F3185A78174992008A
:100C0000174B5058D35800280FD01A78042A0ED00A
:100C10000833002206E09C460833191C083909787D
:100C2000042905D001328242F5D10220AEE79C466C
:100C30004B4662464344DB005278F3185A706346D1
:100C40005B68002BF1D0281C984702209EE7C04625
:100C5000E42100201C050000DC210020A82C00005D
:100C6000342D0000F8B54F464646C0B44379514E86
:100C70005A00D318B122DB00F318051CD97900689B
:100C8000D200815001212A68116284220021286843
:100C9000520081505A82484A1974914649466C79EB
:100CA000A2008A58002A0BD0C222296858699200F3
:100CB000885004225A61C12329689B00CA506C796C
:100CC00080220327286892008358BB436700835023
:100CD0003B19DB00F3189989181C88460121DA8931
:100CE000083001328C46424515D080226046296882
:100CF00092008B583C1918438850E400E13A3419AB
:100D0000FF3A237C22742A68D31801221A600CBC93
:100D100090469946F8BD5A79002AE6D10431FF3150
:100D20008C464181604629680A5049466A79944652
:100D300092008A58002A0CD0C22229685869920071
:100D4000885002225A61C12329689B00CA506B79DE
:100D50009C4663465B0099466344DB00F3185A786F
:100D600016499200164B5058D35800280FD01A78C5
:100D7000042A0FD00833002206E098460833191CD5
:100D800008390978042906D001328242F5D10223BC
:100D90009C46AAE798464B4642466344DB0052789D
:100DA000F3185A7043465B68002BF0D0281C984714
:100DB000EDE7C046E4210020DC210020A82C000043
:100DC000342D0000F8B54F464646C0B44379564D21
:100DD0005A00D318B122DB00EB18041CD979006843
:100DE000D2008150012122681162082200211A7468
:100DF00020681532FF3281505A8262794B49900047
:100E00000858894600280BD0C222216858699200F0
:100E1000885080225A61C12321689B00CA506279A0
:100E200053009A18D200AA18D38992682068D25C1D
:100E30003F4B0327C2508022206892008358667976
:100E4000BB4377008350BB19DB00EB189989181C52
:100E500088460121DA89083001328C46424514D097
:100E600080226046216892008B58184388502021C8
:100E7000BB19DB00EB181A7C197423689B1801223C
:100E80001A600CBC90469946F8BD5A79002AE7D101
:100E90000431FF318C464181604621680A50494641
:100EA0006279944692008A58002A0CD0C2222168A6
:100EB00058699200885002225A61C12321689B0020
:100EC000CA5063799C4663465B0099466344DB00E5
:100ED000EB185A7817499200174B5058D3580028EE
:100EE0000FD01A78042A0FD00833002206E0984663
:100EF0000833191C08390978042906D001328242C6
:100F0000F5D102239C46ABE798464B4642466344E4
:100F1000DB005278EB185A7043465B68002BF0D028
:100F2000201C9847EDE7C046E4210020DC2100208A
:100F30001C050000A82C0000342D0000F8B54F4619
:100F40004646C0B44379454C5A00D318DB00E31839
:100F5000191CDA890831013292B2DA81898891420A
:100F600003D80CBC90469946F8BD9B6801689A5C12
:100F70003B4B051CCA508022467901680320920031
:100F80008B58770083438B50BB19DB00E31898899B
:100F9000191C8446DA89083101320120624511D0DA
:100FA0008022296892008B58BE1903438B50F600AB
:100FB000E13AA419FF3A237C22742A68D31801224B
:100FC0001A60CEE75A79002AEAD10430FF3048810E
:100FD00029680A506A7991009046224A8A58002A64
:100FE0000CD0C222296858699200885002225A61A6
:100FF000C12329689B00CA506B79984643465B0021
:1010000099464344DB00E3185A7817499200174B7E
:101010005058D35800280FD01A78042A0ED008331D
:10102000002206E09C460833191C08390978042977
:1010300005D001328242F5D10220B1E79C464B46F1
:1010400062464344DB005278E3185A7063465B689B
:10105000002BF1D0281C98470220A1E7E4210020B2
:101060001C050000DC210020A82C0000342D00000D
:10107000F0B557464E464546E0B44479061C60003C
:10108000684F0019C0003D5C0820002D04D01CBC36
:1010900090469946A246F0BD002900D1BEE06248C4
:1010A000A4000251614A8246A350614B6148E65058
:1010B000A0230A68DB05C132FF329200D0504A6893
:1010C000C132FF329200D0500122101C0C68A040A7
:1010D000A124E40018514868A44682401A510A68C5
:1010E0005548C132FF329200D0504A68C132FF32B7
:1010F0009200D05004200138C046C046C046C046C9
:10110000C046C046C046C046C046C046C046C046AF
:10111000F1D1A222D2009046484A002501249146EE
:10112000424648689A58C240144200D073E0221CDC
:101130000868824048461A5004200138C046C0461C
:10114000C046C046C046C046C046C046C046C0466F
:10115000C046C046F1D1221C0868824060461A5041
:1011600004200138C046C046C046C046C046C046FE
:10117000C046C046C046C046C046C046F1D1013553
:10118000092DCDD1486801231A1C8240101CA022D1
:101190002A4CD205105104200138C046C046C04632
:1011A000C046C046C046C046C046C046C046C0460F
:1011B000C046F1D148688340A120C0001350A0224E
:1011C0000B681C48C133FF33D2059B0098504B6815
:1011D000C133FF339B00985032688868184BD05059
:1011E000A12233680C68D20048689C50134A98507A
:1011F000504673799A008258002A05D00420097B52
:101200003056FFF70DFB73795A00D3180122DB002B
:10121000FA5400203BE7002DB5D1D0E70948210161
:1012200041183CE7E4210020DC210020E0210020DF
:10123000D82100200C0600000D0600000C0500005F
:1012400024050000D42C00008222002301685200F3
:101250008B50016804328B50016814328B50016846
:1012600008328B5043790D4A9B009B58002B05D0C8
:101270008022C123016892009B00CA50A02305224E
:101280000168DB00CA504279054953009B180222CD
:10129000DB005A540022CB185A707047DC21002022
:1012A000E4210020F0B55F4656464D464446F0B472
:1012B00083B001930CAB1B78009146799846824627
:1012C0009146FFF785F9734B77009B46BC19E40004
:1012D0005C44A578EDB2002D00D0A2E00123A370FC
:1012E000FFF77EF96B461B786A46E37143466371EC
:1012F0000123237100239288A371A2814A46534699
:10130000E581A2605B7964499C465B009846634432
:10131000DB005B445A78614B92008D589B58002D3E
:1013200011D01A78002A00D194E00833002107E098
:101330001A1C0833181C08380078002800D18AE0ED
:101340000131A942F4D16346624655499200525890
:101350000020002A68D1BF19FA005A441579161CDA
:101360002A1C551EAA410325AD1A00229146524659
:10137000B24601970092009A922417685A00D31837
:10138000DB005B445B8A00219C46BC4463466400EE
:10139000AC46444E1D1C01E000284CD128683B5946
:1013A00001315A1E93418E42924152421343F3D06F
:1013B00092234A4605255B00FA50009B1F6853465E
:1013C0005B8A3549FF184B463B60009B5B799C4626
:1013D0005B0098466344DB005B445A782F4B9200D5
:1013E0008F589B58002F0FD01A78AA4225D0083367
:1013F000002106E01A1C0833181C08380078A8429F
:101400001CD00131B942F5D153469A79002A32D124
:101410005346D98908339B88994234D2009B5B7923
:10142000A9E7FFF7DDF8112003B03CBC90469946D0
:10143000A246AB46F0BD6546C1E71A1C434663446D
:10144000DB0051785B4459705368002BDCD0009866
:101450009847D9E71A1C43466344DB0051785B4444
:1014600059705368002B00D16DE75046984753469A
:101470005B799C4668E7019B0022DE00331C5B44DD
:101480009A700320D0E7019B0020DB005B449A7038
:10149000CAE7C046E4210020A82C0000342D00003B
:1014A000DC210020FE0F0000F0B55F4656464D4699
:1014B0004446F0B483B001930CAB1B78009146799D
:1014C000984682469146FFF783F8724B77009B4619
:1014D000BC19E4005C44A578EDB2002D00D0A1E079
:1014E0000123A370FFF77CF86B461B784246E3713B
:1014F0006B469B88E581A3814B46A3600023237143
:10150000A371534662715B7963499C465B009846C0
:101510006344DB005B445A78604B92008D589B58C3
:10152000002D11D01A78012A00D194E0083300214F
:1015300007E01A1C0833181C08380078012800D16D
:101540008AE00131A942F4D16346624654499200CF
:1015500052580020002A68D1BF19FA005A44157960
:10156000161C2A1C551EAA410325AD1A00229146BD
:101570005246B24601970092009A922417685A0088
:10158000D318DB005B445B8A00219C46BC44634665
:101590006400AC46434E1D1C01E000284CD1286875
:1015A0003B5901315A1E93418E429241524213439C
:1015B000F3D092234A4605255B00FA50009B1F6832
:1015C00053465B8A3449FF184B463B60009B5B796E
:1015D0009C465B0098466344DB005B445A782F4B83
:1015E00092008F589B58002F0FD01A78AA4225D00E
:1015F0000833002106E01A1C0833181C083800784C
:10160000A8421CD00131B942F5D153469A79002A3B
:1016100032D15346D98908339B88994234D2009BF2
:101620005B79A9E7FEF7DCFF112003B03CBC9046D4
:101630009946A246AB46F0BD6546C1E71A1C434633
:101640006344DB0051785B4459705368002BDCD055
:1016500000989847D9E71A1C43466344DB00517849
:101660005B4459705368002B00D16DE75046984792
:1016700053465B799C4668E7019B0022DE00331CE1
:101680005B449A700320D0E7019B0020DB005B44A1
:101690009A70CAE7E4210020A82C0000342D000035
:1016A000DC210020FE0F0000F0B547463D4B9221A3
:1016B0009C4680B43C4E4900728A58586244146873
:1016C00000225A5008395A5014395A50043986B0F9
:1016D0005A50002832D1002C2CD03479631E9C4102
:1016E00003231C1B2BE01F1C60447B78C0003018B8
:1016F00043707B68002B01D040469847B379002B9C
:1017000041D000230222B37002AB1A70B36827499C
:101710000393F389234804934358435002211A4208
:1017200000D1023102AB1973214B02A81968214B79
:101730001B68984706B004BC9046F0BD05241E4BBC
:101740001E491B685879984643009C461B18DB00CD
:10175000F3185A781A4B92005558D358002DCDD013
:101760001A78A242BFD00833002206E01F1C0833BB
:10177000191C08390978A142B6D00132AA42F5D124
:10178000B379002BBDD1F289B1899142D2D80293AD
:101790000593B370337902A90B70B3680492019377
:1017A0000393C1E700300040E4210020C40400009E
:1017B000E0210020DC210020D8210020A82C0000FE
:1017C000342D0000F0B557464E464546E0B4394C3E
:1017D000031CA27D0820002A04D01CBC9046994618
:1017E000A246F0BD002B62D0A02003251A68C005D8
:1017F000C132FF32920015500122AA461D68AA404C
:10180000A125ED004251A94600255A68AC46C132D7
:10181000FF32920015509E69274A284D56511D7D72
:10182000A84646465D7D3543254E95515D681E6848
:10183000A846244D56514646234D56511D7D012D37
:101840001AD19E68371CE0267600B0464744BE0099
:1018500067463750C137FF37B8465746DE684644BB
:10186000B6003750DE68B5404E468551D8689D6851
:101870009051A220C00015501A69616022600029B1
:1018800008D0197FC12311480B4A9B00D050022079
:10189000FEF7C6FFA0230421074ADB00D150002336
:1018A0000122E374A374A2756375002095E7084BC9
:1018B0009AE7C046FC2100200020004024050000DB
:1018C0006C0500000C0500001405000080000200FB
:1018D000682D0000F0B5264A041C937C1120002BD3
:1018E00000D0F0BD012591742248234913829460F1
:1018F0000B6005600B60138AE05C138A1F4C013398
:101900009BB213821E4BE0505068002801D000208B
:10191000E7E70027261C1D1C0130FF30947C138A4A
:101920009C4203D812E0138A834202D00B68002B3A
:10193000F9D0138A8342F2D00F60138A9468E45C72
:10194000138A01339BB213827451E7E78023118A13
:101950005B0099420AD008490B68002BFCD001219A
:101960000020084B196000239374BAE70F20FAE7B0
:10197000FC210020082000401C21004000200040E5
:101980001C0500000C200040F0B54F464646C0B490
:10199000394B041CDA7C1120002A03D00CBC904681
:1019A0009946F0BD1A755A7DD974DC60002A0AD0B8
:1019B0005A68002A0FD08121C123304A89009B0038
:1019C000D1500020EAE72E490A602E490A60012121
:1019D0002A4A1160ECE7294A294D9046A322D200F9
:1019E00091462848284C296806684A1E9141226879
:1019F000C9B2571EBA41D2B2002E0BD1002A2BD148
:101A00000029F0D00022204903200A601C490A6006
:101A1000DA74C3E70029F5D1002A1FD147464E46A4
:101A20000260197DBE59B4466746DE687754197D59
:101A3000DE7C0131C9B21975197D8E42D3D81249A5
:101A40000A600F490A60DA745B7D002B0ED0012218
:101A50000A4B00201A60A1E70029D3D100220A49CD
:101A60000F200A6006490A60DA7497E70122074BE3
:101A700000201A6092E7C046FC21002000200040B0
:101A8000242100400821004044210040042000405F
:101A9000064A537D002B07D105490B6005490B60B1
:101AA000054901330B6053757047C046FC21002087
:101AB000242100400821004000200040C12210B530
:101AC000514B92009A5884B092054CD54F4A1168F8
:101AD000002948D0002111608121C2228900920092
:101AE00099504B4B5A7D002A02D10121494A11607D
:101AF000022269460A7090214348C9004258425068
:101B000069460392DA7C68460A72DA6819680192BB
:101B10000022DA745B6898473F4A1368002B10D0A4
:101B20003B4B188A997C814251D9002111601A8A55
:101B30009968895C1A8A013292B21A82374B324A0A
:101B4000D150374B1A68002A0BD000221A60304B54
:101B50005A7D002A02D001212B4A1160DA7C002A2A
:101B600044D104B010BDC123274A9B00D3585B0762
:101B7000D2D52C4B19680029CED00021A32419609E
:101B8000234BE400187DD96812590A541A7DD87C79
:101B90000132D2B21A751A7D9042BDD15A7D002A07
:101BA00002D101201B4A10608124C2221648A400E1
:101BB000920084506C461A7D01202272002220700F
:101BC0000191DA74196868465B689847A4E70020B9
:101BD00010600029B5D06A46107011729A68987426
:101BE000196801925B6868469847AAE768461A7DBB
:101BF00001210272DA680170019200221968DA7418
:101C00005B689847ADE7C0460020004024210040B3
:101C1000FC210020042000401C2100401C05000085
:101C2000442100400821004003210A4802680A4379
:101C30000260094802680A4302600849084A094BE1
:101C40009B1A03DD043BC858D050FBDC0648804794
:101C5000064800472405004054050040242E00009B
:101C6000002000206C20002025020000210100003F
:101C7000FEE7FEE7FEE7FEE7FEE7FEE7002310B51E
:101C8000934203D0CC5CC4540133F9E710BD00008B
:101C90000FB40B4B13B51C68002C05D0A369002BA7
:101CA00002D1201C00F050F805AB201CA168049A5A
:101CB000019300F05BF916BC08BC04B01847C0469D
:101CC0006020002008B5024900F0AEF808BDC0460B
:101CD0004D280000002310B5041C0360436083609E
:101CE00081814366C281036143618361191C0822BB
:101CF0005C30FEF78DFA054B24626362044BA362ED
:101D0000044BE362044B236310BDC046BD240000B6
:101D1000E52400001D2500004925000070B5682558
:101D20004B1E5D430E1C291C743100F09FF8041EED
:101D300008D000212A1C016046600C30A060683287
:101D4000FEF766FA201C70BD836913B5002B28D1FD
:101D50008364C3640365134B134A1B688262019357
:101D6000984201D101238361041C00F01FF86060D8
:101D7000201C00F01BF8A060201C00F017F80421C4
:101D8000E06000226068FFF7A5FFA068092101223A
:101D9000FFF7A0FFE06812210222FFF79BFF01235B
:101DA000A36113BD2C2C0000C51C0000F8B51D4B11
:101DB000061C1D68AB69002B02D1281CFFF7C4FF6D
:101DC0004835AC686B68013B05D40C22A75E002F38
:101DD00010D06834F7E72B68002B06D1301C0421A3
:101DE000FFF79CFF2860002801D02D68E9E70C234D
:101DF000336016E00123201C5B42E3810233A381A0
:101E000067662760A760676027616761A7615C30CC
:101E1000391C0822FEF7FCF9201C6763A763A7643E
:101E2000E764F8BD2C2C0000F7B5041C071C002645
:101E300001914834002C16D06368A5680093009B7C
:101E4000013B00930DD4AB89012B08D90E22AB5E68
:101E5000013304D0381C291C019B98470643683580
:101E6000EDE72468E6E7301CFEBD0000032370B5F3
:101E7000CC1C9C430834051C0C2C01D20C2405E01E
:101E8000002C03DA0C2300202B6042E08C42F9D3B3
:101E9000204A1368101C191C002913D00A68121B51
:101EA0000DD40B2A02D90A608B181FE08B4202D195
:101EB0005A6802601BE04A685A600B1C17E00B1C52
:101EC0004968E9E7144E3368002B03D1281C00F061
:101ED000E3FA3060281C211C00F0DEFA031C421CCF
:101EE000D0D00322C61C964386420AD11C60181C1F
:101EF00007210B301A1D8843821A0AD0514299508B
:101F000007E0311A281C00F0C7FA431CBAD0331C72
:101F1000ECE770BD1822002014220020936810B551
:101F2000013B9360002B05DA9469A34208DBCBB236
:101F30000A2B05D01368581C10601970C8B201E054
:101F400000F008FB10BDF8B5061C0F1C141CD518BA
:101F5000AC4208D02178301C3A1CFFF7DFFF013477
:101F6000431CF5D100E00020F8BD0000F0B59FB0A3
:101F7000061C0F1C02920593002804D08369002BD5
:101F800001D1FFF7E1FE794B9F4201D1776808E06C
:101F9000774B9F4201D1B76803E0764B9F4200D157
:101FA000F768BB891B070AD53B69002B07D00023C4
:101FB00006AD6B6120336B761033AB763DE0301CA1
:101FC000391C00F033FB0028F1D001204042CAE068
:101FD000059A111D12680591002A7EDB09920134D1
:101FE00023782E2B00D189E021786348032200F06A
:101FF000C5FC002808D0604B0134C01A4023834040
:10200000181C2B68184328602178631C5B48062243
:102010000293297600F0B2FC002800D191E0584BE1
:10202000002B00D084E00722059B0733934308333D
:1020300005936B69039A9B186B61029C2378002BB4
:1020400004D1029BE31A049311D003E0252BF8D0AE
:102050000134F3E7049B301C391C029AFFF773FF2D
:10206000431C7BD06A69049B944663446B6123786C
:10207000002B73D00122002352426A6002A954321D
:10208000521801342B60EB60AB601370AB652178A4
:102090003C48052200F072FC002809D0394B01347D
:1020A000C01A01238340181C2B6818432860EEE7F0
:1020B0002B68DA0604D55322202102A812181170C9
:1020C0001A0704D553222B2102A812181170227866
:1020D0002A2A00D17CE7099B05E05242EA600222ED
:1020E00013432B607BE72278303A092A04D80A216F
:1020F0004B4301349B18F6E7099371E763782A2B69
:1021000009D1059B02341A1D1B680592002B0DDABC
:1021100001235B420AE0002301342278303A092A85
:1021200004D80A214B4301349B18F6E707935BE779
:1021300005AB0093301C291C3A1C134B00E000BF78
:1021400007E005AB0093301C291C3A1C0E4B00F035
:102150008BF80390039B013300D06AE7BB895B06D1
:1021600000D532E70B981FB0F0BDC046882D0000A7
:10217000A82D0000C82D0000EE2D0000F22D00005B
:1021800000000000E82D0000471F0000F7B5171CF5
:1021900001930A698B6800900C1C934200DA131CAF
:1021A000221C3B6043321278002A01D001333B608D
:1021B00023689B0602D53B6802333B6006252368F3
:1021C0001D401ED0231C43331B785A1E93412268A6
:1021D00092061CD53020E1184031C870211C5A1CD1
:1021E00045310978A21840320233D1700FE0221C29
:1021F0000123009801991932089EB047431C0ED064
:102200000135E3683A689B1A9D42F0DBDAE7221C4D
:10221000009801994332089DA847431C02D1012030
:10222000404220E006232068E1683A680340002528
:10223000042B03D18D1AEB43DB171D40A3682269E1
:10224000934201DD9B1AED180027AF420ADA221CE7
:102250000123009801991A32089EB047431CDED032
:102260000137F2E70020FEBDF0B58BB006920A1CE4
:1022700043320793059004920A7E0C1C109B6E2A31
:1022800000D1A8E011D8632A22D009D8002A00D1B1
:10229000B2E0582A00D0C2E045310A707C4A4FE0D3
:1022A000642A1DD0692A1BD0B9E0732A00D1A7E0A7
:1022B00009D86F2A29D0702A00D0B0E020220968FE
:1022C0000A43226037E0752A1FD0782A33D0A6E06F
:1022D0000E1C1A684236111D196013683370A1E094
:1022E00021681A68080606D4490604D5111D19602C
:1022F0000023D55E02E0111D19601568002D3BDA40
:102300002D23049A6D42137036E021681A6808067E
:1023100006D4490604D51568111D1960ADB202E056
:10232000111D196015685A4B227E03930A276F2AE4
:102330001DD108271BE0221C782145321170554A17
:1023400019680392081D226818600D68100602D4EF
:10235000500600D5ADB2D30702D520231A43226020
:102360001027002D03D1202322689A432260231CCA
:10237000002243331A7002E00A27454B0393636837
:10238000A360002B03DB0422216891432160002D10
:1023900002D1049E002B0ED0049E281C391C00F094
:1023A000FDFB039B013E5B5C281C3370391C00F075
:1023B0006FFB051EF1D1082F09D12368DB0706D575
:1023C00063682269934202DC3023013E3370049B30
:1023D0009B1B23612BE009681A68080607D449068D
:1023E00005D5111D19601368A28A1A8004E0111D19
:1023F0001960136862691A600023049E236116E065
:102400001A68111D196016680021301C626800F0FE
:10241000B5FA002801D0801B6060636803E0261CC9
:1024200042363270012323610023049A1370079B04
:1024300005980093211C069B09AAFFF7A7FE431CE1
:1024400002D10120404221E0236905980699321CFF
:10245000079DA847431CF4D023689B0705D4099B1C
:10246000E068984212DA181C10E00025E368099A27
:102470009B1A9D42F3DA221C012305980699193212
:10248000079EB047431CDCD00135EFE70BB0F0BD31
:10249000F92D00000A2E000038B50023064C051C5B
:1024A000081C236000F0A6FB431C03D12368002B0B
:1024B00000D02B6038BDC0462022002038B50C1C4F
:1024C0000E25495F00F0ACFA002803DB636D1B1892
:1024D000636503E0A289024B1340A38138BDC04667
:1024E000FFEFFFFFF8B51E1C8B89051C0C1C171C89
:1024F000DB0505D50E23C95E0022022300F0D2F9C8
:10250000A289054B281C1340A3813A1C0E23E15ECF
:10251000331C00F077F8F8BDFFEFFFFF38B50C1C57
:102520000E25495F00F0BEF9A389421C03D1054A7C
:102530001340A38104E0802252011343A38160650C
:1025400038BDC046FFEFFFFF08B50E23C95E00F09F
:10255000E1F808BD70B5051C0E1C141C002804D041
:102560008369002B01D1FFF7EFFB234B9C4201D184
:102570006C6808E0214B9C4201D1AC6803E0204B21
:102580009C4200D1EC68A369A360A3891B070AD50C
:102590002369002B07D023682269F6B2981A636971
:1025A00098420FDB08E0281C211C00F03FF80028AF
:1025B000F1D0012040421DE0281C211C00F046F90A
:1025C0000028F6D1A3680130013BA36023685A1CA0
:1025D00022601E706369984205D0A389301CDB0716
:1025E00008D50A2E06D1281C211C00F02FF900283E
:1025F000DFD1301C70BDC046882D0000A82D000022
:10260000C82D000038B5051C0020074C2060081CB0
:10261000111C1A1CFDF7EEFF431C03D12368002B8D
:1026200000D02B6038BDC04620220020354B70B54D
:102630001D68061C0C1C002D05D0AB69002B02D1B7
:10264000281CFFF781FB304B9C4201D16C6808E0ED
:102650002E4B9C4201D1AC6803E02D4B9C4200D133
:10266000EC68A3899AB2110723D4D10607D40922B2
:102670000120326037321343A381404240E05307C8
:1026800013D5616B002908D0231C4433994202D032
:10269000301C00F07FF9002363632422A389934355
:1026A000A38100236360236923600822A389134365
:1026B000A3812369002B0BD1A023A2899B00134087
:1026C00080229200934203D0301C211C00F0FEF8BF
:1026D0000123A289134005D00023A36063695B42F4
:1026E000A36103E0910700D46369A360002023691C
:1026F000834205D1130603D540231A43A281013832
:1027000070BDC04660200020882D0000A82D00006C
:10271000C82D000038B50023064C051C081C23609A
:1027200000F048FA431C03D12368002B00D02B6033
:1027300038BDC04620220020F7B58A89051C0C1C34
:1027400013075ED44B68002B02DC0B6C002B1ADDE8
:10275000E76A002F17D000232E682B6080235B01CF
:102760001A4001D0626D15E0281C216A0123B84788
:10277000021C431C0ED12B68002B0BD01D2B01D04B
:10278000162B02D12E6000205EE04021A3890B436E
:10279000A38159E0A3895B0706D56368D21A636BEE
:1027A000002B01D0236CD21A0023281C216AE76A6F
:1027B000B847A389421C06D12A68002A03D01D2AE3
:1027C00001D0162A19D10022626022692260DB043E
:1027D00005D5431C02D12B68002B00D16065616BCD
:1027E0002E600029CFD0231C4433994202D0281CEC
:1027F00000F0D0F80020606326E040221343A3815C
:1028000022E00F69002FBED00B680F60DB1B019325
:102810000023920700D14B69A360019B002BB2DD1E
:10282000281C216A3A1C019BA66AB047002806DCD6
:1028300040220120A38940421343A38104E0019B6D
:102840003F181B1A0193E8E7FEBD000038B50B697D
:10285000051C0C1C002B01D100201CE0002804D01A
:102860008369002B01D1FFF76FFA0B4B9C4201D11A
:102870006C6808E0094B9C4201D1AC6803E0084B4E
:102880009C4200D1EC680C22A35E002BE4D0281CF3
:10289000211CFFF751FF38BD882D0000A82D000036
:1028A000C82D000038B5051C0020074C2060081C0E
:1028B000111C1A1C00F096F9431C03D12368002B4D
:1028C00000D02B6038BDC04620220020F0B58B8997
:1028D00091B09B0706D50B1C47330B600B6101239E
:1028E0004B6145E00C1C0E23C95E061C002904DA6E
:1028F0008023A5891D4010D10CE001AA00F0A4F8A6
:102900000028F5DBF023029D1B021D40194BED183A
:102910006B425D418027FF0001E000254027301C0D
:10292000391CFFF7A3FA00280CD1A3899A051FD4FC
:1029300002221343A381231C473323602361012315
:10294000636115E080220C4BB362A38920601343BE
:10295000A38120616761002D0AD00E23E15E301C47
:1029600000F084F8002803D00122A3891343A38137
:1029700011B0F0BD00E0FFFFC51C0000C9B2821815
:10298000904204D003788B4202D00130F8E7002057
:102990007047000030B500293ED004390B68002B89
:1029A00000DAC9181D4A1368141C002B02D14B60B1
:1029B000116031E099420DD208680A189A4203D199
:1029C0001368C3180B6053684B60216024E08A428F
:1029D00003D8131C5A68002AF9D11D685C198C426F
:1029E0000BD10968691858181960904214D1106801
:1029F0005268091819605A600EE08C4202D90C2303
:102A0000036009E008680C18944203D11468526806
:102A1000001908604A60596030BDC0461822002085
:102A200038B5051C0020074C2060081C111C1A1C1E
:102A3000FDF7EEFD431C03D12368002B00D02B6073
:102A400038BDC0462022002038B50023064C051CA6
:102A5000081C111C236000F0B5F8431C03D1236847
:102A6000002B00D02B6038BD2022002038B5002379
:102A7000064C051C081C236000F0ACF8431C03D175
:102A80002368002B00D02B6038BDC04620220020D8
:102A9000002243088B4274D303098B425FD3030A9D
:102AA0008B4244D3030B8B4228D3030C8B420DD3B0
:102AB000FF22090212BA030C8B4202D3121209023E
:102AC00065D0030B8B4219D300E0090AC30B8B427C
:102AD00001D3CB03C01A5241830B8B4201D38B032A
:102AE000C01A5241430B8B4201D34B03C01A5241CF
:102AF000030B8B4201D30B03C01A5241C30A8B4212
:102B000001D3CB02C01A5241830A8B4201D38B02FC
:102B1000C01A5241430A8B4201D34B02C01A5241A0
:102B2000030A8B4201D30B02C01A5241CDD2C30912
:102B30008B4201D3CB01C01A524183098B4201D38E
:102B40008B01C01A524143098B4201D34B01C01A79
:102B5000524103098B4201D30B01C01A5241C308F1
:102B60008B4201D3CB00C01A524183088B4201D360
:102B70008B00C01A524143088B4201D34B00C01A4C
:102B80005241411A00D20146524110467047FFE7B8
:102B900001B5002000F00CF802BDC0460029F7D0B6
:102BA00003B5FFF775FF0EBC4243891A1847C046AC
:102BB0007047C04658220120014B40421A607047BE
:102BC0002022002058220120014B40421A60704709
:102BD000202200205822024B00201A607047C04675
:102BE0002022002058220120014B40421A607047E9
:102BF00020220020044A1368002B03D0181810600C
:102C0000181C7047014BF9E71C22002028220020E5
:102C1000F8B5C046F8BC08BC9E467047F8B5C0463B
:102C2000F8BC08BC9E46704743000000002000200E
:102C30000F200000010000000000000000006806F6
:102C4000010000000B09080A0000000000E0D701A5
:102C5000003000400300000025642F25642F256408
:102C60002025643A25643A25640A00005457492017
:102C700041543234433332206578616D706C650A9B
:102C80000000000025730A00090000000B0000008E
:102C90000A00000008000000000000000000000022
:102CA00000509D000300000002000000050000002D
:102CB0000400000003000000030000000300000007
:102CC000110A0000020000003D0F00000500000096
:102CD000F10800000100000000000000000068068C
:102CE0000300000000010000C50D0000010200000B
:102CF000650C0000020100003D0F00000102000011
:102D0000650C000000010000410B000004030000FE
:102D10000000000005040000A108000003000000FE
:102D2000F108000002000000F108000005000000AA
:102D3000F1080000E42C0000F42C0000482D0000F5
:102D4000BC2C00001C2D000001020000090900003D
:102D500003020000110A000004030000000000004C
:102D600005040000A1080000090000000B0000009D
:102D70000A00000008000000000000000000000041
:102D800000509D0003000000000000000000000053
:102D90000000000000000000000000000000000033
:102DA0000000000000000000000000000000000023
:102DB0000000000000000000000000000000000013
:102DC0000000000000000000000000000000000003
:102DD00000000000000000000000000000000000F3
:102DE0000000000000000000232D302B2000686C44
:102DF0004C0065666745464700303132333435361E
:102E00003738394142434445460030313233343556
:0C2E100036373839616263646566000083
:082E1C0004D3FF7F0100000058
:102E240000000000882D0000A82D0000C82D00001F
:102E3400000000000000000000000000000000008E
:102E4400282C00000000000000000000000000002A
:102E5400000000000000000000000000000000006E
:102E6400000000000000000000000000000000005E
:102E7400000000000000000000000000000000004E
:0C2E840000200020E9000000C100000058
:0400000300001C29B4
:00000001FF
